:020000040800F2
:10000000B0A00020B5030008694300088D3A00083D
:10001000CD400008C523000845640008000000002A
:10002000000000000000000000000000F5020008D1
:10003000212D00080000000051030008C5570008EA
:10004000CF030008CF030008CF030008054D0008C8
:10005000CF030008CF03000845380008CF0300088D
:10006000CF030008CF030008CF030008CF03000828
:10007000CF030008CF030008CF030008CF03000818
:10008000CF030008CF030008CF030008CF03000808
:10009000CF030008CF030008CF030008CF030008F8
:1000A000CF030008CF030008CF030008CF030008E8
:1000B0005F590008D5590008CF030008CF03000896
:1000C000CF030008CF030008CF030008CF030008C8
:1000D000CF030008996000083561000891610008AD
:1000E000CF03000849480008CF030008CF030008E9
:1000F000CF030008CF030008CF030008CF03000898
:10010000CF030008CF030008CF030008CF03000887
:100110009D5E0008CF030008CF030008CF0300084E
:10012000CF030008CF030008CF030008CF03000867
:10013000CF030008CF030008CF030008CF03000857
:10014000CF030008CF030008CF030008CF03000847
:10015000CF030008CF030008CF030008CF03000837
:10016000CF030008CF030008CF030008CF03000827
:10017000CF030008CF030008CF030008CF03000817
:10018000CF030008CF03000800F002F800F0A2F847
:100190000AA090E8000C82448344AAF10107DA45E2
:1001A00001D100F097F8AFF2090EBAE80F0013F092
:1001B000010F18BFFB1A43F001031847B00C0100F0
:1001C000D00C01000A4410F8014B14F00F0508BFD1
:1001D00010F8015B240908BF10F8014B6D1E05D013
:1001E00010F8013B6D1E01F8013BF9D1641E03D0EC
:1001F000641E01F8015BFBD19142E4D3704700001B
:100200000023002400250026103A28BF78C1FBD81F
:10021000520728BF30C148BF0B6070476E2900F0FD
:100220000A85702900F0A182662910F07283652981
:1002300010F06F83672910F06C83612910F06B83D5
:1002400003681B0A28BF41F08001692900F012826F
:10025000642900F00F82752900F00C826F2901F0EB
:100260000F80782900F06D82E92900F0A987E42940
:1002700000F0A687F52900F0A387EF2901F00C8094
:10028000F82900F06C820368DB0928BF41F0800187
:10029000632900F01887732900F01D87E32901F016
:1002A0001B82F32901F02082002070471FB510F057
:1002B00026FB00F0FBFF0400002000210FF0BAFC39
:1002C000401C6060002000210FF09EFCE0601FBD1C
:1002D00010B510BD01F0A2FA1146FFF7E7FF09F0D3
:1002E0009FFC01F0C9FA03B4FFF7F2FF03BC07F06B
:1002F000CFF800002C4B19680868B0E8F04F80F385
:100300000988BFF36F8F4FF0000080F311887047AA
:100310000000000008480068006880F308884FF07B
:10032000000080F3148862B661B6BFF34F8FBFF34D
:100330006F8F00DF00BF00BF08ED00E0DFF80C00AA
:10034000016841F470010160704700BF88ED00E072
:10035000EFF30980BFF36F8F134B1A681EF0100F75
:1003600008BF20ED108A20E9F04F106009B44FF06B
:10037000500080F31188BFF34F8FBFF36F8F0DF0E4
:10038000C9FE4FF0000080F3118809BC19680868A5
:10039000B0E8F04F1EF0100F08BFB0EC108A80F3E9
:1003A0000988BFF36F8F704734010020EFF3058099
:1003B000704700000948804709480047FEE7FEE70C
:1003C000FEE7FEE7FEE7FEE7FEE7FEE7FEE7FEE705
:1003D00004480549054A064B70470000D5570008F8
:1003E00089010008B06E0020B0A00020B07000208D
:1003F000B0700020704753EA020C00F069802DE9CC
:10040000F04B4FF00006002B1FBFB3FA83F503FA41
:1004100005F424FA05F65E4012BF1643B2FA82F5DF
:1004200002FA05F4C5F120051EBF22FA05FC44EAD4
:100430000C04203556EA044C4FEA144418BF641CDF
:100440004FF000084FF00009904271EB030C39D3D4
:10045000002919BFB1FA81F701FA07F6B0FA80F75F
:1004600000FA07F6C7F120071EBF20FA07FC46EA8C
:100470000C062037B6FBF4FCA7EB0507103F07F08E
:100480001F0BCBF120060CFA0BFB2CFA06F644BF2F
:10049000B3460026202FA4BF5E464FF0000B5BEA58
:1004A000060C08BF4FF0010B19EB0B09ABFB027CEC
:1004B00048EB0608C01B06FB02CC0BFB03CC71EB20
:1004C0000C01C1E70B46024641464846BDE8F08BA9
:1004D00013B54FF000004FF00001AFF30080BDE80E
:1004E0001C407047B2F120030AD5C2F1200301FA83
:1004F00002F120FA03F300FA02F041EA0301704727
:1005000000FA03F14FF000007047B2F120030AD562
:10051000C2F1200320FA02F001FA03F321FA02F1FA
:1005200040EA0300704721FA03F04FF000017047E2
:1005300010B54C1084EA530404D54042C1F10001C7
:1005400038BF491E1B4204D55242C3F1000338BFD5
:100550005B1EFFF750FF14F0804F04D04042C1F102
:10056000000138BF491E14F0004F04D05242C3F1BD
:10057000000338BF5B1E10BD0FB4044910B503AAB9
:10058000029800F0ADFD10BC5DF814FBC400002023
:100590000FB4044910B503AA029800F0A1FD10BCE5
:1005A0005DF814FBC40000200FB41CB5084B06AA6C
:1005B0007B4469460090059800F063FD04460020E6
:1005C000694600F071FD20461CBC5DF814FB00007C
:1005D000F50A000070B5044685690068C10601D5BA
:1005E000302600E02026C00707D070BDD4E90121E5
:1005F00030469047206A401C20626D1EF6D570BDC3
:1006000070B5044685690078C00707D170BDD4E98C
:10061000012120209047206A401C20626D1EF6D5E3
:1006200070BD70B50C460546012A05D028788006B5
:1006300000D5EA69002302E0012305E05B1C934238
:1006400002D2E05C0028F9D1A869E618C01AA861B6
:10065000286A184428622846FFF7BCFF04E0D5E961
:10066000012114F8010B9047B442F8D32846FFF754
:10067000C7FF70BD2DE9F0410646002410687529BA
:10068000314616A510D000F06BFA002802DA40427D
:1006900013A507E031688A0701D512A502E04907D2
:1006A00004D511A5012401E000F063FA00210A221B
:1006B00006F1240709E0B0FBF2FCB0FBF2F302FB09
:1006C0001C00303078541846491C0028F3D12346CA
:1006D0002A463046BDE8F04100F054BA0000000060
:1006E0002D0000002B00000020000000F0B40D469B
:1006F0000188090502D5214C7C4402E01F4C7C4452
:100700000E34002100F1240608E002F00F07120960
:10071000E75D42EA03721B097754491C52EA03075A
:10072000F3D102780023120704D5702D06D009B149
:10073000022311342246F0BC00F024BA0123103405
:10074000F8E770B504460D462146106800F011FA2E
:10075000024629462046BDE870400023C6E7D21D68
:1007600022F00703D3E90023C0E70368126843F0CF
:10077000200303600823C3610023B7E70E050100CF
:100780002DE9F05F894604464FF0000ADFF874B1A6
:10079000FB44C0F820A02046E1688847002874D0B8
:1007A000252806D0D4E901219047206A401C206208
:1007B000F1E700265F462046E16888472028054685
:1007C00007DB312D05D2781910F8200C08B106434B
:1007D000F1E7B00701D526F00406C4F81CA00027F5
:1007E000C4F818A02A2D09D0284606F04AFE38B3CE
:1007F00004EB8708303DC8F8185019E059F8041B7D
:10080000204604EB87029161E1688847012F054685
:1008100018D1E069002820DA26F020061DE0D8F87B
:10082000180000EB800005EB40003038C8F81800D5
:100830002046E1688847054606F023FE0028EED1F1
:10084000012F0AD02E2D08D12046E16888477F1C51
:100850000546022F46F02006C4DBA069002803DA13
:10086000404246F00106A061F00701D026F01006D4
:100870006C2D0BD0682D09D04C2D39D06A2D35D078
:10088000742D35D07A2D33D016E038E0E1682F464C
:1008900020468847B842054609D16C2F26D04FF430
:1008A0008060E168064320468847054604E06C2FD7
:1008B0001AD04FF4807006430DB3A5F141001928FA
:1008C00002D8203546F400664A462946204626606E
:1008D0004E46FFF7A3FC80B101280BD0F61D26F091
:1008E000070000F1080956E74020E4E78020D8E738
:1008F0000020D6E706F104094DE7284652E7206AB2
:10090000BDE8F09F9E04010030B505460B462A461F
:1009100013F8014B12F8010B08B1A042F8D01CB13A
:10092000002802D06D1CF1E7284630BD40EA0103E3
:10093000024630B59B0710D14FF0013400E008C2E9
:1009400008C91D1B9D4315EAC41FF8D013F0FF0111
:1009500002F8011B0DD01B0AF8E711F8013B002B30
:1009600002F8013B05D011F8013B002B02F8013BD6
:10097000F3D130BD10B5431C02E010F8011B71B17A
:100980008107FAD14FF0013202C88C1A8C4314EA65
:10099000C211F9D0C01A0A0603D0C01E10BDC01A79
:1009A00010BD0A0401D0801E10BD0902FCD0401EFB
:1009B00010BD032A40F2308010F0030C00F01580C7
:1009C00011F8013BBCF1020F624498BF11F801CB52
:1009D00000F8013B38BF11F8013BA2F1040298BFB7
:1009E00000F801CB38BF00F8013B11F0030300F021
:1009F0002580083AC0F0088051F8043B083A51F8C5
:100A000004CBA0E80810F5E7121D5CBF51F8043BC9
:100A100040F8043BAFF30080D20724BF11F8013B3C
:100A200011F801CB48BF11F8012B24BF00F8013B9E
:100A300000F801CB48BF00F8012B704710B5203AF1
:100A4000C0F00B80B1E81850203AA0E81850B1E887
:100A50001850A0E81850BFF4F5AF5FEA027C24BF3D
:100A6000B1E81850A0E8185044BF18C918C0BDE834
:100A700010405FEA827C24BF51F8043B40F8043BFD
:100A800008BF7047D20728BF31F8023B48BF11F8B2
:100A9000012B28BF20F8023B48BF00F8012B70470C
:100AA00002F0FF0343EA032242EA024200F002B8E6
:100AB0004FF000020429C0F0128010F0030C00F087
:100AC0001B80CCF1040CBCF1020F18BF00F8012B05
:100AD000A8BF20F8022BA1EB0C0100F00DB85FEAD3
:100AE000C17C24BF00F8012B00F8012B48BF00F89F
:100AF000012B70474FF0000200B51346944696460E
:100B0000203922BFA0E80C50A0E80C50B1F1200120
:100B1000BFF4F7AF090728BFA0E80C5048BF0CC0CE
:100B20005DF804EB890028BF40F8042B08BF70472C
:100B300048BF20F8022B11F0804F18BF00F8012B9E
:100B40007047704770477047704710B500F0B2FBB0
:100B5000006810BD10B5044600F0ACFB046010BD89
:100B600009684A0501D540B27047C905FCD500B2F5
:100B7000704709684A0501D5C0B27047C905FCD560
:100B800080B270472DE9F0470D46994692460446DB
:100B900000F124080168880604D5E06921F01001FD
:100BA000216000E00120A84201DD471B00E0002792
:100BB000A1697A1902EB0900081AA0612078C00621
:100BC00002D42046FFF706FD002608E0D4E9012103
:100BD0001AF806009047206A401C761C20624E4599
:100BE000F4DB2078C0060AD52046FFF7F3FC06E0C8
:100BF000D4E9012130209047206A401C2062381E31
:100C0000A7F10107F4DC07E0D4E9012118F8050099
:100C10009047206A401C2062281EA5F10105F3DCE4
:100C20002046FFF7EDFC2078000602D50220BDE843
:100C3000F0870120FBE711680268006A530501D5BF
:100C400008700AE0D30501D5088006E0130603D535
:100C5000C217C1E9000200E0086001207047704738
:100C60002DE9FF4F0C461E464FF0FF378BB0D2E9FF
:100C70000001DDF860800A908A46C1F30A5505B983
:100C80003D46002108464FF00000BAF1000F00F485
:100C9000400005DA00EB80004FF4400101EA50000B
:100CA0004FEA9059B9F1010F00DDB9460A9850EAB0
:100CB0004A000ED044F61050A5F2FF3545432F14DC
:100CC000B8F1000F1ED07542291E1EDDC9F10002C9
:100CD0001CE0B8F1010F4FF0000001D0302103E01B
:100CE000F24305E02154401CB042FBDB30460022B9
:100CF000002121540B99C1F80880C1E900200FB0F0
:100D0000BDE8F08FBD1B6D1CDEE74A4600DA694284
:100D100006A800F0EDFC06AB93E8070003AB83E800
:100D2000070050460A9900F0EDFD8DE80700A0F598
:100D300000501F3800900398002D09DD42F21F017A
:100D40004A46084403A90390684601F04CF808E0BD
:100D5000A0F500504A461F3803A90390684601F0E9
:100D600056F88DE807000004000C03D04FF0FF3068
:100D7000410800E01046B8F1000F03D000220092B5
:100D800015461EE0751E05D400F098FA3032625503
:100D90006D1EF9D5B3460122084302D000227F1C04
:100DA00004E02078302801D100227F1E002A099714
:100DB00086D01DE0112D07DA00F080FA303262553E
:100DC0006D1C50EA0102F5D1084302D00098C8B169
:100DD0000EE00021681E05E0235C625C635422542F
:100DE000401E491C8142F7DBAB46A81B401E099000
:100DF000002004F80B000B98099AC0F80880C0E99D
:100E0000002B7CE711264FF0000859E72DE9F04F41
:100E100088460446D21D22F0070191B0D1E90001B5
:100E2000CDE90A0105F024FC02460B98C00F01D061
:100E30002D2007E02068810701D52B2002E020212A
:100E400001EAC000032A099001D0072A05DB034606
:100E50004146204600F0F6FB0BE12078800601D5E4
:100E6000E06900E00620B8F1650F814606D0B8F1D0
:100E7000660F18D0B8F1670F70D131E00020B9F1DA
:100E8000110F009001DB112301E009F101030AAA0F
:100E900001A90CA8FFF7E4FEDDE90C70002609F1BA
:100EA0000105834647E001204B4600904FF0004784
:100EB0000AAA01A90CA8FFF7D3FEDDE90DB00C9931
:100EC0005D46002610B909F101000D18B9EB0500C7
:100ED00003D4C0F1FF3609F10105A5EB09002BE0B1
:100EE000B9F1010F01DA4FF001090020B9F1110F3A
:100EF0000090484601DD112300E003460AAA01A93B
:100F00000CA8FFF7ADFEDDE90C704D4600268346C8
:100F1000207800070AD4AB4500DA5D4601A8012D10
:100F200004DD411911F8011C302907D04F4502DAC0
:100F300017F1040F04DA012082460FE06D1EEEE780
:100F4000002F02DCED1B3E4403E0781CA84200DDCC
:100F50007D1CB81B00F1010A4FF000472078000704
:100F600003D4AA4501DB4FF0FF3A0021B7F1004F4F
:100F70000DF143088DF8431024D002202B23002FBD
:100F800001DA7F422D230A21021EA0F1010000DCBC
:100F90005FB197FBF1FC97FBF1F201FB1C7C17465C
:100FA0000CF1300C08F801CDEEE7A8F10100037058
:100FB0002188090501D5452100E06521A0F101083E
:100FC00000F8011C09980FA9A1EB0807FF1D00B14B
:100FD0000120411901EBEA70A1693844081A401E4A
:100FE000A0612078C00602D42046FFF7F3FA0998E2
:100FF00028B1D4E901219047206A401C2062207862
:10100000C00622D52046FFF7E5FA1EE0002E04DBDD
:10101000B34502DD01A8805D00E03020D4E9012164
:101020009047206A401C2062761CAAF101005FEA0A
:10103000000A0AD100F03AF9C0680168405CD4E9BE
:1010400001219047206A401C2062281EA5F101055D
:10105000DCDC07E0D4E9012118F8010B9047206A95
:10106000401C2062381EA7F10107F3DC2046FFF781
:10107000C7FA032011B043E601694A1C02610878EF
:10108000704700B58FB0CDE90131002105910549C8
:101090007944CDE9031011466846FFF771FB0FB0A4
:1010A00000BD0000E5FFFFFF0A6802F8010B0A60BF
:1010B000704710B5436913B1AFF3008001E0FFF74B
:1010C000B0FA012010BD127800F124010A7000224C
:1010D0004A700122EDE711684FF0FF32E9E70000A6
:1010E000074B70B50D467B44FFF7CBFF04462846FF
:1010F00000F06CFB10B14FF0FF3070BD204670BDAA
:10110000BB8600002DE9FF5F15468A460446DFF8DE
:10111000AC80F8440027D8E900103E46CDE9001025
:1011200010E03AF816106A4602A800F053FB411C82
:1011300007D02178890603D5E269391891420DD884
:101140000744761C2078800602D5E069B84205DDA8
:10115000AE42E6DB3AF816000028E2D1A069C01BD7
:10116000A0612046FFF736FAD8E90010CDE900105B
:10117000002017E03AF818106A4602A800F02AFB8F
:10118000B0F1FF3F81460BD000250DF1080B05E0C3
:10119000D4E901211BF8050090476D1C4D45F7D39C
:1011A00008F10100B0428046E4DB206A3844206246
:1011B0002046FFF725FABDE8FF9F0000BAFB0000BC
:1011C0002DE9F0418046D21D22F007020025D2E928
:1011D0000002F52915A614D0011E72F1000106DAED
:1011E0000023D0EB030063EB020211A608E0D8F85D
:1011F00000108B0701D50FA602E0490701D50EA606
:1012000001251146002408F1240704E000F056F8F7
:1012100030323A55641C50EA0102F7D12B4632466F
:1012200021464046BDE8F041FFF7ACBC000000009D
:101230002D0000002B0000002000000030B4002131
:1012400000F1240408E002F00705D208303542EA34
:101250004372DB086554491C52EA0305F3D1046864
:10126000002310A2250708D504F020040C4304D065
:10127000C46901230CA2641EC46130BCFFF782BCA8
:1012800010B5044621461068FFF773FC024620465D
:10129000BDE810400023D1E7D21D22F00701D1E9BB
:1012A0000023CBE70000000030000000004870473A
:1012B0006C6E0020004870474C6E002030B5B0F1D5
:1012C0000A024FEA900E71F100034EEA817EB0EB04
:1012D0000E0061EB91014FEA101E4EEA017E10EB09
:1012E0000E0041EB11114FEA102E4EEA016E10EB89
:1012F0000E0041EB11214FEA104E4EEA014E10EB69
:101300000E0041EB1141401841F100014FEAD000BD
:1013100040EA41704FEAD10110EB80054FEA8104A9
:1013200044EA907444EB01046D1944EB0404521B2D
:10133000A3414FF0000348BF0A3200D530BD401C26
:1013400041F1000130BD00002DE9F04F04460D468B
:10135000D21D22F0070089B0D0E900924846174616
:10136000394605F085F90246F80F01D02D2307E034
:101370002068810701D52B2302E0202101EAC00368
:101380008DF820300BB1012000E00020032A8246B6
:1013900001D0072A04DB2946204600F053F93DE13D
:1013A0002078800601D40D2500E0E569C7F30A56D0
:1013B0000D2D49DA00214FEA175B08464FF0000077
:1013C000002F00F4400007DA00EB80004FF44001EA
:1013D00000EBD07001EA60008115012901DD4FF0BA
:1013E000FF3100224FEA850CBCF1180F06D31346DB
:1013F000ACF118004FF08052C24003E04FF480136C
:1014000023FA0CF30CF10C0CBCF1200F04D3ACF15B
:10141000200C09FA0CF001E007FA0CF000294FF05B
:10142000004801DD18B90FE00ED140450CD319EB8F
:1014300002095F4121B9404502D19F4329EA0209CF
:10144000BBEB175F00D0761C2088000502D57B48D7
:10145000784402E079487844193808AA302302F821
:101460000A30037C0AF10101002E0AF1020A5354EA
:101470006A4602DC4FF0300101E04FF031014FF0DD
:1014800001088DF8001002D0A6F2FF3603E059EAF9
:10149000470100D06A4E002D02DC2178090704D5EF
:1014A0004FF002082E218DF80110C44600210BE0F8
:1014B000C7F303433F01C35C491C6D1E02F80830AB
:1014C000052908F1010801DA002DF1DC00210CE00A
:1014D00000EB1973491C1B786D1E082902F80830AF
:1014E0004FEA091908F1010801DA002DF0DC217832
:1014F000890602D514E0A8F10108E04505DD02EBFC
:10150000080111F8011C3029F5D0B8F1000F07DDF2
:1015100002EB080111F8011C2E2901D1A8F10108E4
:10152000002D05DD3E2102F808106D1E08F10108AE
:10153000407C002E02F8080008F1010804DA2D2092
:10154000764202F8080002E02B2002F808000A2187
:101550004FF47A70864208F101080BDB96FBF0F33A
:10156000303302F8083096FBF0F308F1010800FB75
:10157000136601E0642E0CDB642096FBF0F330333D
:1015800002F8083096FBF0F308F1010800FB13663F
:1015900001E00A2E06DB96FBF1F0303002F808007D
:1015A00008F1010896FBF1F001FB1060303002F801
:1015B0000800A16908F1010808EB050202EB0A0026
:1015C000081AA0612078C00602D42046FFF702F86E
:1015D000216A08AE01EB0A00206204E0D4E901218F
:1015E00016F8010B9047BAF1010AF7D22078C0062D
:1015F00002D52046FEF7EEFF6E4609E016F8010B15
:101600003E280FD0D4E901219047206A401C206277
:10161000B8F10108F2D22046FEF7F2FF09B003202C
:10162000BDE8F08F206A2844206203E0D4E901215C
:10163000302090476D1EEBD3F8E700009FF80000C4
:1016400002FCFFFF2DE9F0411F4604460326016816
:10165000072A01F4006004DB08B116A505E016A511
:1016600003E008B115A500E015A521F010002060E9
:10167000A069C01EA0610FB1401EA0612046FEF708
:10168000A9FF4FB1D4E9012138469047206A401C98
:101690002062C01C206206E0206AFAE7D4E901213A
:1016A00015F8010B9047761EF8D22046FEF7A8FFEA
:1016B000BDE8F0814E414E006E616E00494E46001D
:1016C000696E660010B5436913B1AFF3008001E0A5
:1016D000FFF718FD012010BD128800F1240182845B
:1016E0000022C2840122EDE711684FF0FF32E9E7E2
:1016F0002DE9F047814616468AB0334878440DC834
:101700008DE80D0030487844801C03AC0DC884E897
:101710000D0041F69B300844372190FBF1F290FB1D
:10172000F1F5A5F1800501FB12041B3C02D56442D2
:10173000012000E00020DFF890A080460027FA4456
:10174000AAF1BE0A0DE0E00709D03246684607EB71
:1017500047010AEB810100F05AFB8DE80700641095
:101760007F1C002CEFD1184F7F44AC3F18E0E807F6
:1017700014D007EB04100DF1180A90E80E008AE867
:101780000E00C068F04201D198190890324606A9AF
:1017900003A800F03CFB03AB83E807006D10641C5A
:1017A000002DE4D132466946B8F1000F03A802D0FB
:1017B00000F019FB01E000F02AFBC9E90001C9F8BB
:1017C00008200AB0BDE8F08784F60000007B00F036
:1017D0008000704770B516460C46054600F044F888
:1017E000036893F80101012806D0FF2C0FD8185D7B
:1017F00068B101202C7070BDD3F807013246214634
:1018000003F2071303442846BDE8704018474FF021
:10181000FF3070BD004870474C6E00207546FFF7E2
:10182000F9FFAE4605006946534620F0070085469D
:1018300018B020B5FEF7CCFDBDE820404FF0000603
:101840004FF000074FF000084FF0000B21F00701A8
:10185000AC46ACE8C009ACE8C009ACE8C009ACE8EB
:10186000C0098D467047000010B5FFF71FFD001D31
:1018700010BD00BFC1E300000446AFF30080204666
:10188000FEF731FD4FF0013C50F8042B51F8043BBA
:101890009A4221D1A2EB0C03934313EACC1317D144
:1018A00050F8042B51F8043B9A4215D1A2EB0C03DB
:1018B000934313EACC130BD150F8042B51F8043B9B
:1018C0009A4209D1A2EB0C03934313EACC13DBD069
:1018D0004FF00000704700BFD01A01BAB1FA81F191
:1018E00001F0180122FA01F0CB40C1F12001DBB276
:1018F000C0B2C01A2CFA01F3D11A914311EAC311F4
:10190000E6D170475FEA400C08BF91F0000F4FEA44
:101910008C234FEAC12243EA51514FEA1C5018BFB1
:1019200000F5F0404FEA300018BF41F000415FEA97
:101930006C5C00F02980BCF1FF3F08BF40F08040A4
:101940007047130C06BF12044FF0100C4FF0000C40
:10195000130E04BF12020CF1080C130F04BF120186
:101960000CF1040C930F04BF92000CF1020CD30F86
:1019700004BF52000CF1010C11464FF00002A0F11F
:101980001F00A0EB0C00704711F0004F08BF70471C
:1019900031F000413FF4D5AF0B0C06BF09044FF006
:1019A000100C4FF0000C0B0E04BF09020CF1080CD8
:1019B0000B0F04BF09010CF1040C8B0F04BF89004D
:1019C0000CF1020CCB0F04BF49000CF1010CCCF15F
:1019D0002003A0EB0C0022FA03F302FA0CF241EA16
:1019E000030100F10100704720F07F4C80EA030002
:1019F00023F07F47ACEB070303F57C5300F0004076
:101A000003F1FF032DE980494FEA154B09B44FEA72
:101A1000144325EA0B4E24EA03480FF2042606EB92
:101A2000132749083E785FEA320203FB0667C7F5D1
:101A3000000707FB06F64FEA54374FEAD64606F191
:101A4000020607FB066CCCF1005C4FEA1C472CEA4F
:101A5000074C07FB06F40CFB06F504EB15464FEAB2
:101A6000961634BF00204FF000404FEAD13706FBF6
:101A700007FC4FEA1C4C0CFB0BF7D21B03FB0CF7CB
:101A800061EB07010CFB0EF7B0EB074072EB17425E
:101A90000CFB08F734BFA2EB0742B2EB074261EB45
:101AA00017414FEA0C444FEA910706FB07FC4FEA47
:101AB0001C4C0CFB0BF7B0EBC74072EB573203FB2F
:101AC0000CF734BFA2EBC742B2EBC74261EB573110
:101AD0000CFB0EF7B0EBC70072EB57720CFB08F76C
:101AE00034BFA2EBC702B2EBC70261EB5771039F91
:101AF0004FEA816141EA921104EBCC044FEAD137FD
:101B00004FEA826206FB07FC42EA90124FEA8060CD
:101B10004FEA1C4C0CFB0BF7D21B03FB0CF761EBE1
:101B200007010CFB0EF7B0EB074072EB17420CFB02
:101B300008F734BFA2EB0742B2EB074261EB174153
:101B40004FEA8C554FEA910704EB9C2406FB07FCF7
:101B50004FEA1C4C0CFB0BF7B0EBC74072EB573253
:101B600003FB0CF734BFA2EBC742B2EBC74261EBF9
:101B700057310CFB0EF7B0EBC70072EB57720CFB42
:101B800008F734BFA2EBC702B2EBC70261EB577193
:101B900015EB4C254FEA816141EA92114FEA8262CE
:101BA0004FEAD13742EA901206FB07FC44F10004E9
:101BB0004FEA80604FEA1C4C0CFB0BF7D21B03FB77
:101BC0000CF761EB07010CFB0EF7B0EB074072EB73
:101BD00017420CFB08F734BFA2EB0742B2EB0742F7
:101BE00061EB174115EB1C154FEA813141EA924137
:101BF0004FEA823242EA90424FEA80304FEA0C7656
:101C000044F1000448EA03434EEA0B484FF0000E4B
:101C1000B2EB080C71EB030724BF624639464EEB6A
:101C20000E0E4FF0000B0018524149414BEB0B0BCD
:101C3000B2EB080C71EB03077BF1000B24BF62468B
:101C400039464EEB0E0E4FF0000B00185241494141
:101C50004BEB0B0BB2EB080C71EB03077BF1000BAA
:101C600024BF624639464EEB0E0E51EA020718BFFA
:101C700046F0010616EB0E7655F1000254F1000114
:101C800003D5BDE88901BDE80088BDE88901BDE84C
:101C90000048B619524141EB0101A3F1010370471D
:101CA00080807F7E7D7C7B7A797877767675747399
:101CB000727171706F6E6E6D6C6C6B6A6A69686858
:101CC000676666656464636362616160605F5F5EEE
:101CD0005E5D5D5C5C5B5B5A5A5959585857575664
:101CE00056555555545453535252525151505050C9
:101CF0004F4F4F4E4E4D4D4D4C4C4C4B4B4B4A4A1B
:101D00004A4949494848484747474746464645455E
:101D10004544444444434343434242424241414197
:101D2000002B26D4770021D01CB54FEA370703B427
:101D30004FF010004FF010014FF000000FBCBDE855
:101D400010400BF1010BBBF1010F08BF5FEA170751
:101D500022BF12F1010211F101014FF0004143F1E4
:101D6000000300F0004043EA00007047F9D3570831
:101D7000DAE746EA064613F1400F4FEA16461FDD42
:101D800013F1200FDFBF16430A46002120335B42C8
:101D9000C8D0C3F1200746EA064602FA07F74FEA21
:101DA000164646EA0706C3F1200722FA03F201FAB3
:101DB00007F721FA03F14FF0000342EA0702B1E707
:101DC00046EA020646EA06464FEA164646EA010693
:101DD000BCBF46EA0646360C4FF000034FF0000247
:101DE0004FF000019EE72DE9C048934630B491E8DA
:101DF000380007C831EA400C48BF34EA430C03D529
:101E0000FFF7F2FDFFF78CFFF0BCBDE800882DE97D
:101E1000C048934630B491E8380007C810F0804FAE
:101E200008BF13F0804F03D100F005F8FFF778FFEB
:101E3000F0BCBDE8008820F07F4780EA030023F073
:101E40007F4C07EB0C03A3F57C5300F00040A3F19B
:101E5000FE0392F0000F00F0B38095F0000F00F049
:101E600077802DE901494FEA11404FEA144621EAF3
:101E7000004800FB06FC24EA064708FB06F607FBC1
:101E800008F800FB07F718EB06484CEB164C4FEA36
:101E9000124B18EB07484FEA15464CEB174022EA65
:101EA0000B4E0BFB06FC25EA06470EFB06F607FB6E
:101EB0000EFE0BFB07F71EEB064E4CEB164C4FF0DD
:101EC00000061EEB074E4CEB174B18EB0B0840F1CE
:101ED000000018EB0E0B58EB000840F100008F1AC1
:101EE0004FF000013CBFC943661B14BFB5EB040CA7
:101EF00000213CBFC943F61B4FEA17444EEA8E0E41
:101F000027EA04454FEA1C4704FB07622CEA074C0A
:101F100005FB07F70CFB05F604FB0CFC16EB07466C
:101F200042EB174216EB0C4642EB1C421BEB06063B
:101F300058EB0202414146EA9E0601D5BDE80189FF
:101F4000B619524141EB0101A3F10103BDE801893A
:101F50004FEA14454FEA114724EA054621EA074CA7
:101F600005FB07F406FB07F70CFB06F105FB0CFC71
:101F700011EB074144EB17444FEA124711EB0C41B8
:101F800044EB1C4422EA074C05FB07F206FB07F76B
:101F90000CFB06F605FB0CFC16EB074642EB174262
:101FA00016EB0C4642EB1C456A1854F1000148BF81
:101FB0007047B619524141EB0101A3F1010370478B
:101FC00095F0000F37D04FEA11424FEA144721EA4B
:101FD000024624EA074C02FB07F106FB07F70CFB5D
:101FE00006F402FB0CFC14EB074441EB17414FEAEB
:101FF000154714EB0C4441EB1C4125EA074C02FB4E
:1020000007F506FB07F70CFB06F602FB0CFC16EBCC
:10201000074645EB174516EB0C4645EB1C421219DB
:1020200051F1000148BF7047B619524141EB01011F
:10203000A3F1010370474FEA14454FEA114724EA20
:10204000054621EA074C05FB07F106FB07F70CFBE9
:1020500006F24FF0000605FB0CFC12EB074241EBC9
:10206000174112EB0C4251EB1C4148BF70479218CC
:1020700041EB0101A3F101037047000008B518A06E
:10208000FEF786FA1C48016840681C4AD2E9003213
:1020900059405040014321D1174808380168406831
:1020A000174B0CCB51405840014317D1002001235E
:1020B0001A4699020090134800680CF00BFB124975
:1020C00008600846008800F4806038B10FA0FEF771
:1020D0005FFA20210B4800680CF076FA08BD00007A
:1020E000BDD3CAD5B5BD41434BD0CD4D4143D6A19B
:1020F000C1CB0D0A000000002103002018000020C1
:10210000200000202C00002030000020BDD3CAD5C4
:10211000B5BDC1CBD5FDC8B7B5C441434B0D0A0011
:1021200010B500240F48006800B110BD0DF04CF947
:10213000012800D1F9E701200CF06EFC044604B937
:10214000F3E70BF01BF90748006810B90548046075
:1021500000240BF057F914B120460BF04BFB00BFE5
:10216000E3E70000C401002000F024F804E0034885
:102170000BF0BCFB00F01EF8F9E70000A0BB0D005F
:102180009FED090A094880ED010A002007490883EC
:102190004883A1F88000A1F88200A1F884000448D7
:1021A000C1F888007047000000000000C401002052
:1021B00040771B0030B52DED048B83B0B3EE090AD8
:1021C0008DED020A9FED380A8DED010A00250024ED
:1021D0009FED350AB0EE409A9FED330AB0EE408A8B
:1021E000B7EE000AF0EE408A00F062F80AF0F8FA62
:1021F000322006F0D1FF0AF003FB01AA02A9012058
:1022000002F0EAFF08B9012000E00020054600F0D6
:1022100077FA04460AF0D2FA00F05AF84FF6FF7047
:10222000844207D19FED200A05F04EF903B0BDECC2
:10223000048B30BD00EE104AB8EE400AF7EE000AFB
:1022400020EE200AB0EE409A75B19DED020AF3EE41
:10225000090A70EE600A9FED151AB7EE000A00EE4B
:10226000C10AF0EE408A03E0B7EE000AF0EE408AC1
:10227000F5EEC08AF1EE10FA03D29FED0B0AF0EEF4
:10228000408A29EE280AB0EE408AB5EEC08AF1EE07
:1022900010FA03D29FED040AB0EE408AB0EE480A6D
:1022A00005F012F900BFC1E7000000006F12833B88
:1022B00010B5FFF735FF0548006828B103490868E5
:1022C0004FF0FF310CF0B4FE10BD0000C40100203F
:1022D00010B50548006830B1034900231A46086864
:1022E00019460CF061FC10BDC40100202DE9F0413D
:1022F00006460C46002716B10CB1A64201D1BDE836
:10230000F081706918B90020A0617461F7E7756900
:1023100020E0A54200D1F2E7D5E90010D4E900237E
:1023200051405840014305D10020A061204607F0EC
:1023300047FAE4E7A86900B90EE0AD69781C80B2FD
:102340000746B0F5007F05DD0020A061204607F0BC
:1023500037FAD4E7002DDCD100BF1DB90020A06101
:102360007461CCE70020A061AC6100BFC7E700004A
:1023700010B500240CE0601CC4B20A2C05D1002466
:1023800006A0FEF705F9002010BD322006F004FF7C
:1023900006F0EAF90028EED00120F5E7CEB4BCEC57
:1023A000B2E2B5BD626D703238300D0A0000000037
:1023B00010B504464021024800680CF005F910BD34
:1023C0004400002000BFFEE738B53CA0FEF7E0F86F
:1023D000404801684068404B0CCB51405840014395
:1023E00047D00020012302464FF40C6100903B4887
:1023F00000680CF06FF93A4908600846007800F070
:102400004000002831D00846007800F08000002805
:102410002BD034A0FEF7BCF84FF400612F480068C1
:102420000CF08AF80CF0E0FF044600200346224638
:1024300001210090344800680DF07AFB33A0FEF7CC
:10244000A7F82748008800F40060002834D10CF079
:10245000CBFF04464FF0FF300023224602210090BC
:10246000294800680DF064FB26E02BA0FEF790F8E9
:1024700022E01848083801684068294AD2E9003249
:1024800059405040014317D1002001231A465902F8
:102490000090124800680CF01DF9114908600846C8
:1024A000008800F4007038B11EA0FEF771F8012119
:1024B0000A4800680CF088F838BD0000BDD3CAD5C2
:1024C000B5BD435453D0CD4D4143D6A1C1CB0D0A28
:1024D0000000000021030020180000202C00002034
:1024E00030000020BDD3CAD5B5BDC1CBB1F0B5C455
:1024F000BDDAB5E3B5C44354532CC7BFD6C6D0DD4F
:10250000C3DF0D0A0000000014010020BFAAC6F4BA
:10251000B6A8CAB10D0A0000B6AAC6FA0D0A000094
:1025200020000020BDD3CAD5B5BDC1CBD5FDC8B7ED
:10253000B5C44354530D0A00F0B507460C46154682
:102540002946384600F05AFC606908B96561F0BD5B
:10255000666900E0B669B0690028FBD1B56100BFCB
:10256000F5E710B5ADF5407D002401208DF8FC01A4
:102570000020ADF8FE015A208DF800029DF8FC0104
:102580008DF8F800BDF8FE01ADF8FA000620F4223F
:1025900083A93D906846FEF751FA7FA80FC807F05F
:1025A000D9FC0A2006F0F8FD16E0142006F0F4FD30
:1025B0000620F42283A93D906846FEF73FFA7FA8E3
:1025C0000FC807F0C7FC601CC4B2142C04DD002443
:1025D00000200DF5407D10BD06213EA807F044FC0B
:1025E0000028E2D10120F4E710B50948FDF7C4FF47
:1025F000002404E0002006490855601C84B2054808
:1026000000888442F6DB00200249088010BD0000EB
:10261000B40B0020AC000020002004E00021064A9A
:102620001154411C88B2054909888842F6DB002113
:10263000024A1180704700007C0C0020AE00002090
:1026400010B542F2CF01092003F0DAF90020014968
:10265000086010BD1400002010B5ADF5407D0024C9
:1026600001208DF8FC010020ADF8FE0101208DF85D
:1026700000029DF8FC018DF8F800BDF8FE01ADF8F0
:10268000FA000320F42283A93D906846FEF7D6F9AC
:102690007FA80FC807F05EFC0A2006F07DFD1AE057
:1026A000142006F079FD0320F42283A93D906846AA
:1026B000FEF7C4F97FA80FC807F04CFC601CC4B239
:1026C000142C08DD002408A0FDF762FF4FF6FF7010
:1026D0000DF5407D10BD03213EA807F0C5FB002885
:1026E000DED1BDF8FE00F3E770726563697069744E
:1026F0006174696F6E206572726F72210D0A00003D
:1027000010B5ADF5407D002404208DF8FC010020BB
:10271000ADF8FE0101208DF800029DF8FC018DF856
:10272000F800BDF8FE01ADF8FA000320F42283A9F9
:102730003D906846FEF782F97FA80FC807F00AFCB3
:102740000A2006F029FD1AE0142006F025FD0320DA
:10275000F42283A93D906846FEF770F97FA80FC860
:1027600007F0F8FB601CC4B2142C08DD002408A09C
:10277000FDF70EFF4FF6FF700DF5407D10BD0321F4
:102780003EA807F071FB0028DED1BDF8FE00F3E79C
:10279000526164696174696F6E206572726F722133
:1027A0000D0A000030B5ADF5417D044600258DF8D9
:1027B00000420020ADF8020202208DF804029DF8CC
:1027C00000028DF8FC00BDF80202ADF8FE00032007
:1027D000F42284A93D906846FEF730F980A80FC81E
:1027E00007F0B8FB0A2006F0D7FC19E0142006F029
:1027F000D3FC0320F42284A93D906846FEF71EF91D
:1028000080A80FC807F0A6FB681CC5B2142D07DD11
:1028100000250AA0FDF7BCFE00200DF5417D30BD6E
:1028200003213FA807F020FB0028DFD13FA8008943
:10283000BDF8021100EB0140EFE70000736F696C17
:1028400073656E736F72206572726F72210D0A006C
:1028500010B5ADF5407D002403208DF8FC0100206B
:10286000ADF8FE0101208DF800029DF8FC018DF805
:10287000F800BDF8FE01ADF8FA000320F42283A9A8
:102880003D906846FEF7DAF87FA80FC807F062FBB4
:102890000A2006F081FC1AE0142006F07DFC0320DB
:1028A000F42283A93D906846FEF7C8F87FA80FC8B8
:1028B00007F050FB601CC4B2142C08DD002408A0F3
:1028C000FDF766FE4FF6FF700DF5407D10BD03214C
:1028D0003EA807F0C9FA0028DED1BDF8FE00F3E7F4
:1028E00057696E6473446972656374696F6E2065BD
:1028F00072726F72210D0A0010B5ADF5407D002493
:1029000002208DF8FC010020ADF8FE0101208DF8B9
:1029100000029DF8FC018DF8F800BDF8FE01ADF84D
:10292000FA000320F42283A93D906846FEF786F85A
:102930007FA80FC807F00EFB0A2006F02DFC1AE056
:10294000142006F029FC0320F42283A93D90684658
:10295000FEF774F87FA80FC807F0FCFA601CC4B239
:10296000142C08DD002408A0FDF712FE4FF6FF70BE
:102970000DF5407D10BD03213EA807F075FA002833
:10298000DED1BDF8FE00F3E757696E6473537065DE
:102990006564206572726F72210D0A0038B547A018
:1029A000FDF7F6FD002001230246802100904948F2
:1029B00000680BF08FFE484908604848016840688D
:1029C000474AD2E900325940504001433AD1424887
:1029D000007800F08000002834D1404808380168B1
:1029E0004068404AD2E9003259405040014329D161
:1029F0003A480938407CD8B13BA0FDF7C9FD4FF4F7
:102A00008031344800680BF0DFFD34480838046832
:102A100043682246324903C904F03CFD80212D4819
:102A200000680BF0D1FD00212E4A1160516008E0D2
:102A300032A0FDF7ADFD4FF48031264800680BF061
:102A4000C3FD38BD002001230246402100902148EB
:102A500000680BF03FFE204908602048016840688C
:102A60001F4B0CCB5140584001431ED11B48083826
:102A7000016840681B4B0CCB51405840014314D1B6
:102A80001548007800F0400078B94FF40041114833
:102A900000680BF099FD20A0FDF77AFD4FF480410E
:102AA0000C4800680BF090FDCBE74FF4003109486B
:102AB00000680BF089FD00BFC3E70000BDD3CAD595
:102AC000B5BDCAFDBEDDD0CD4D4143D6A1C1CB0DB4
:102AD0000A0000002C00002030000020210300200C
:102AE0001800002020000020D0E8D2AAD7D4C9EDD9
:102AF000B7A2CBCD41434B0D0A000000D0E8D2AACB
:102B0000D7D4C9EDB7A2CBCDCAFDBEDDD0CD4D41E6
:102B100043D6A10D0A000000B5B1C7B0CAC7B7A21D
:102B2000CBCDB7BDB2A2C7D2BDD3CAD5B5BDC1CB7F
:102B3000D5FDC8B7B5C4444154410D0A000000009A
:102B400021B1026842F00102026003E0026822F053
:102B50000102026070470000016821F0010101607C
:102B60000021016041608160C160016121214161FA
:102B70004A49884204D13D21484A103A91608CE08C
:102B800046491831884205D14FF47461434A103ADE
:102B9000916082E041493031884205D14FF474118F
:102BA0003E4A103A916078E03C494831884205D16C
:102BB0004FF07461394A103A91606EE037496031E4
:102BC000884204D13649354A103AD16065E033492C
:102BD0007831884204D13349304A103AD1605CE000
:102BE0002E499031884204D12F492C4A103AD160A5
:102BF00053E02A49A831884205D14FF03D51274A78
:102C0000103AD16049E02949884204D13D21274A40
:102C1000083A116041E025491831884205D14FF446
:102C20007461224A083A116037E020493031884205
:102C300005D14FF474111D4A083A11602DE01B496B
:102C40004831884205D14FF07461184A083A116042
:102C500023E016496031884204D11149134A121FFA
:102C600011601AE011497831884204D10D490F4AA8
:102C7000121F116011E00D499031884204D10A49B8
:102C80000A4A121F116008E00849A831884204D19D
:102C90004FF03D51054A121F11607047106002400D
:102CA0003D000020400F002000003D201064024045
:102CB000014600200A6802F001020AB1012000E08A
:102CC0000020704710B500220268134B1A40CC68F0
:102CD0000B6823434C6923438C692343CC6923430A
:102CE0000C6A23434C6A23438C6A23434C6B234373
:102CF0008C6B23431A430260426922F00702D1E938
:102D00000B3423431A4342610B6943604B68836071
:102D10008B68C36010BD00003F801CF041607047AD
:102D20007047F8B507460C4607B104B9F8BD002056
:102D300000906A462146384600F0EAFD009800B946
:102D4000F4E7A6690020A06100984069A04205D17F
:102D500000984661204606F033FDE7E70098456994
:102D600000E0AD6915B1A869A042FAD11DB1AE610C
:102D7000204606F025FD00BFD8E700002DE9FC4104
:102D800080460D46002001902946404602F036FB61
:102D9000002419E001A80090104850F82400D0E960
:102DA00000633246284600F0D1FD019850B10198E9
:102DB000D0E9006332460AA0FDF7EAFB28460199F4
:102DC000FFF7AFFF601CC4B20B4800788442E1DB20
:102DD000002009490870BDE8FC8100009806002029
:102DE0006E6F646520256C6C782069732064656C57
:102DF000657465640D0A00005F00002078B5064622
:102E00000C460020009006B104B978BD6A46214600
:102E1000304600F07DFD009800B9F6E70098406963
:102E2000A04205D1A069009948610020A061ECE7AB
:102E30000098456900E0AD6915B1A869A042FAD1D2
:102E40001DB1A069A8610020A06100BFDDE70000FE
:102E500010B500200549086005A10748FDF754FD9D
:102E600002490860FFF7C0FB10BD00007800002099
:102E7000514D545245435600B40B0020F8B504465A
:102E80000D4616464FA003F0B5FA4FF4FA7006F05F
:102E900083F9FFF7A9FB4FA003F0ACFA4FF4FA70E7
:102EA00006F07AF9FFF7A0FB4EA003F0A3FA4FF467
:102EB000FA7006F071F9FFF797FB4FF480614D4807
:102EC000FDF7F6FD40F25B734BA24FA14948FDF7B9
:102ED0006BFB484803F08EFA4FF4967006F05CF9ED
:102EE0004FA15348FDF710FD524908600020524998
:102EF00008601CE050480068401C4F490860C8202A
:102F000006F04AF946A14A48FDF7FEFC4949086027
:102F100049480068642809DD00204749086009F035
:102F2000A9F8012004F0A8FA01F066FA00BF4148B0
:102F300000680028DED000BFFFF756FB4FF4806129
:102F40002C48FDF7B5FD3DA12A48FDF72DFB29488A
:102F500003F050FAC82006F01FF9FFF745FB4FF4C5
:102F600080612448FDF7A4FD2B4622463BA1214861
:102F70000096FDF719FB1F4803F03CFA40F6B83005
:102F800006F00AF93DA12A48FDF7BEFC2949086070
:102F90000846006818B9FFF727FB0120F8BDFFF7C6
:102FA00023FB2448006818B138A0FDF7F1FA01E0CE
:102FB0000120F3E7FFF718FB3BA0FDF7E9FA00203B
:102FC000ECE7000041542B514944454143543D3105
:102FD0000D0A000041542B514D54434C4F53453D75
:102FE000300D0A0041542B514D54444953433D3058
:102FF0000D0A00009807002034372E3130392E3169
:1030000038352E353600000041542B514D544F5069
:10301000454E3D302C222573222C25640D0A0000DC
:103020002B514D544F50454E3A20302C300000006B
:10303000B40B0020780000207000002041542B5178
:103040004D544346473D226B656570616C697665FA
:10305000222C302C3630300D0A00000041542B5108
:103060004D54434F4E4E3D302C222573222C2225A9
:1030700073222C222573220D0A0000002B514D547F
:10308000434F4E4E3A20302C302C3000B0A2C0EFCF
:10309000D4C6CEEFC1AACDF8C6BDCCA8C1ACBDD3B5
:1030A000B3C9B9A60D0A0000C9E8B1B8D2D1BEAD06
:1030B000C1ACBDD3B5BDB0A2C0EFD4C62CD7BCB196
:1030C000B8B7A2CBCDCAFDBEDD205B2E2E5D0D0AAA
:1030D000000000002DE9F04104460D461646324638
:1030E00029462046FFF7CAFE07463846BDE8F0816C
:1030F00070B504460D464FF480613048FDF7D8FCAA
:103100002846FDF737FC0646334622462CA12B48BD
:10311000FDF74AFA294803F06DF94FF47A7006F08A
:103120003BF82FA12F48FDF7EFFB2F490860002047
:103130002E4908601DE02D480068401C2B4908609E
:103140004FF4967006F028F825A12648FDF7DCFB21
:103150002549086025480068642809DD00202349C6
:10316000086008F087FF012004F086F901F044F9B7
:1031700000BF1D4800680028DDD000BF284603F0CE
:1031800039F94FF4967006F007F800BF1848008828
:1031900000F040000028F9D01A201549091D0880C8
:1031A0004FF4967005F0F8FFFFF752FEFFF71CFA98
:1031B00010A0FDF7EDF9002070BD00009807002079
:1031C00041542B514D5450554245583D302C302CD4
:1031D000302C302C222573222C25640D0A0000008F
:1031E0003E000000B40B002078000020700000209A
:1031F00000440040D3C3BBA7CAFDBEDDB7A2CBCD00
:10320000B3C9B9A620205B4F4B5D0D0A000000003A
:1032100010B508F02FFF4FF47A7005F0BDFF4FF4A2
:103220007A7005F0B9FF4FF4E13009F029FE00F0A3
:10323000C5FA322005F0B0FFBFA003F0DBF84FF471
:10324000FA7005F0A9FFBEA1BE48FDF75DFBBE49BF
:103250000860FFF7C9F90020BC49086025E0BB48B9
:103260000068401CB9490860B9A0FDF791F9FFF763
:10327000BBF9B1A003F0BEF84FF4FA7005F08CFF73
:10328000AFA1B048FDF740FBAF490860AF48006808
:10329000322809DD0020AD49086008F0EBFE01206E
:1032A00004F0EAF801F0A8F800BFA7480068002879
:1032B000D5D000BFADA003F09DF84FF4FA7005F033
:1032C0006BFFFFF791F90020A0490860A9A003F067
:1032D00091F84FF4FA7005F05FFFA9A19948FDF746
:1032E00013FB9949086025E098480068401C9749FD
:1032F0000860FFF779F99FA003F07CF84FF4FA70AB
:1033000005F04AFF9EA18F48FDF7FEFA8E4908603E
:103310008E48006832280CDD00208C4908609CA093
:10332000FDF736F908F0A6FE012004F0A5F801F03B
:1033300063F800BF844800680028D5D000BFFFF7BD
:1033400053F996A003F056F84FF4FA7005F024FFF5
:10335000FFF74AF994A003F04DF84FF4FA7005F026
:103360001BFFFFF741F992A003F044F84FF4FA7005
:1033700005F012FF91A17348FDF7C6FA7249086083
:1033800091A17048FDF7C0FA9249086000206F498A
:10339000086028E0FFF728F96C480068401C6B497A
:1033A000086083A003F026F84FF4FA7005F0F4FEED
:1033B00082A16448FDF7A8FA6349086082A16148C8
:1033C000FDF7A2FA8349086060480068322809DDE9
:1033D00000205E49086008F04DFE012004F04CF822
:1033E00001F00AF800BF5848006818B97948006829
:1033F0000028CFD000BFFFF7F7F877A002F0FAFF60
:103400004FF4FA7005F0C8FEFFF7EEF875A002F071
:10341000F1FF4FF47A7005F0BFFEFFF7E5F875A0F5
:1034200002F0E8FF4FF47A7005F0B6FE44A145487B
:10343000FDF76AFA444908600846006850B14149FE
:103440006FA0FDF7A5F84FF47A7005F0A5FEFFF721
:10345000CBF809E03B4977A0FDF79AF84FF4967056
:1034600005F09AFEFFF7C0F8FFF7BEF875A002F06E
:10347000C1FF4FF47A7005F08FFEFFF7B5F875A025
:1034800002F0B8FF4FF4FA7005F086FEFFF7ACF8D3
:1034900074A002F0AFFF4FF4967005F07DFE28A1F6
:1034A0002848FDF731FA28490860FFF79DF871A018
:1034B00002F0A0FF4FF4967005F06EFE70A1214857
:1034C000FDF722FA20490860FFF78EF800201F4917
:1034D000086022E01D480068401C1C490860FFF796
:1034E00083F864A002F086FF4FF4967005F054FE56
:1034F00063A11448FDF708FA1349086013480068EF
:10350000642809DD00201149086008F0B3FD01209E
:1035100003F0B2FF00F070FF00BF0B480068002806
:10352000D8D000BF59A002F065FF4FF4FA7005F043
:1035300033FEFFF759F810BD41540D0A000000009A
:103540004F4B0000B40B00207800002070000020DA
:103550000D0AB5A5C6ACBBFAD5FDD4DAC1ACBDD356
:10356000B5BDC4A3BFE92E2E2E0D0A00415445312E
:103570000D0A000041542B4350494E3F0D0A0000F4
:103580002B4350494E3A2052454144590000000017
:1035900072657365742034670D0A000041542B4333
:1035A00053510D0A000000004154490D0A0000006B
:1035B00041542B435245473F0D0A00002B435245CF
:1035C000473A20302C3100002B435245473A2030F7
:1035D0002C3500007C00002041542B434F50533FBA
:1035E0000D0A000041542B5149434C4F53453D3087
:1035F0000D0A000041542B43494D490D0A000000BB
:103600003D3D3D3D3D3D3D3D3D3D3D3D0D0ACED227
:10361000B5C4BFA8BAC5CAC7203A202573200D0A71
:103620003D3D3D3D3D3D3D3D3D3D3D3D3D3D3D0DFA
:103630000A000000BFA8B4EDCEF3203A2025732085
:103640000D0A000041542B514944454143543D313A
:103650000D0A000041542B51494143543D310D0A9C
:103660000000000041542B43474154543D310D0AA2
:103670000000000041542B43474154543F0D0A00C1
:103680002B43474154543A203100000041542B430E
:103690004750414444520D0A000000001CB5164832
:1036A000007800B11CBD0121022000F019FF4FF489
:1036B0004070009001208DF804008DF80600032072
:1036C0008DF8050001208DF8070069460B4800F0D1
:1036D00061F901221102094805F0FEFF01225102A1
:1036E000064805F0F9FF042005F076FD01200249A7
:1036F000087000BFD6E700008800002000040240E8
:1037000070B506460C460CB9012070BDFFF7C6FF28
:1037100005F066FFA02005F035FF05F0A5FF18B104
:1037200005F07EFF0220F0E7304605F02BFF05F0A4
:103730009BFF18B105F074FF0320E6E705F050FF8A
:10374000A12005F01FFF05F08FFF18B105F068FFFD
:103750000420DAE7002005F0E1FE054605F060FFF1
:1037600025700020D1E770B505460C46FFF796FF9F
:1037700005F036FFA02005F005FF05F075FF18B134
:1037800005F04EFF012070BD284605F0FBFE05F058
:103790006BFF18B105F044FF0220F4E7204605F066
:1037A000F1FE05F061FF18B105F03AFF0320EAE7EA
:1037B00005F036FF05F0B4FF0020E4E71CB5012159
:1037C000084600F0CDFE0220009001208DF8040094
:1037D00000208DF8060003208DF805006946034897
:1037E00000F0D8F80120024908601CBD000002402A
:1037F0008402404210B54FF48071024800F042F953
:1038000010BD0000001402401CB50121202000F072
:1038100067FE4FF48070009001208DF804000020B6
:103820008DF806008DF805008DF8070069460448FC
:1038300000F0B0F84FF48071014800F01FF91CBD92
:103840000014024010B506A0FCF7A2FE142005F0FB
:10385000E7FC06480068012000F00AF810BD0000EF
:10386000BDF8C8EBD6D0B6CF200D0A00000240420A
:103870000149086070470000143C014000212349C1
:103880008279002A3AD00A46126803689A430B46A6
:103890001A600A1D126803689A430B1D1A600279A8
:1038A00011440A6803681A430A60184A0832126809
:1038B00003689A43154B08331A601A1D126803688F
:1038C0009A43124B0C331A604279102A0ED11A1FF8
:1038D000126803681A430D4B08331A601A1D1268E8
:1038E00003681A43094B0C331A600DE0074942790B
:1038F00011440A6803681A430A6005E0027911441A
:103900000A6803689A430A6070470000003C01405F
:10391000F0B504460F4616460020306014B10FB1D2
:10392000A74200D1F0BD65690CE0BD4201D1346011
:10393000F8E7324639462846FFF7EAFF306800B11B
:10394000F0E7AD69002DF0D100BFEBE72DE9F841BC
:10395000044617469846079D002028600CB9BDE82C
:10396000F881D4E90001784081EA0801084301D1D7
:103970002C60F4E7666909E03A4643463046009514
:10398000FFF7E4FF286800B1E9E7B669002EF3D13C
:1039900000BFE4E7F0B50A4600210023002400BF81
:1039A0003DE0012505FA01F3156805EA03049C4290
:1039B00034D105684F000326BE40B5430560157934
:1039C0004E00B5400668354305601579012D02D0DB
:1039D0001579022D16D185684F000326BE40B543E8
:1039E000856055794E00B5408668354385604568E9
:1039F00001268E40B5434560456896798E40B6B243
:103A000035434560C5684F000326BE40B543C560D9
:103A1000D5794E00B540C6683543C560491C1029AC
:103A2000BFD3F0BDF0B5002300244D07ED0E02FA20
:103A300005F3CE1000F1200555F826504E07F70E7D
:103A40000F26BE40B543CF1000F1200646F82750A0
:103A5000CE1000F1200555F8265045EA0304CE109B
:103A600000F1200545F82640F0BD0246002013690C
:103A70000B400BB1012000E00020704741837047EC
:103A80000183704742694A404261704700BFFEE7C8
:103A900010B500200F4908600F48006820F440204E
:103AA0000D4908600846006840F480200860002046
:103AB0000A49C1F8A402022005F08EFB0120054945
:103AC0000860022005F088FB01200549C1F8A0022A
:103AD00010BD0000A0024042000802400000414228
:103AE000000040421CB50121052000F0F9FC4FF414
:103AF0000070009001208DF804008DF8060003206E
:103B00008DF8050001208DF8070069460848FFF789
:103B100041FF4FF48070009069460648FFF73AFF76
:103B20000120054908600549C1F8A4021CBD000038
:103B30000008024000000240A00240420000414252
:103B400010B500200F4908600F48006820F440209D
:103B50000D4908600846006840F480200860012094
:103B60000A49C1F8A402022005F036FB01200549EC
:103B70000860022005F030FB01200549C1F8A002D1
:103B800010BD0000A0024042000802400000414277
:103B9000000040422DE9F04106460C46154600273C
:103BA00004E0304600F00AF804F8010B2800A5F103
:103BB0000101CDB2F5D13846BDE8F08170B50546BA
:103BC00000241548006820F4402013490860084686
:103BD00000680860002615E00020104908600420F5
:103BE00005F0FAFA01200E49C1F8A0026006040EA1
:103BF0000C48006808B1601CC4B2012005F0ECFA62
:103C0000701CC6B2082EE7DB15B9FFF799FF01E07B
:103C1000FFF73EFF204670BD00080240A002404270
:103C200000004042240241422DE9F0410546884609
:103C300016461F46002400F085F8002141EA4501A0
:103C4000C8B200F04BF800F0C9F8404600F046F862
:103C500000F0C4F800F076F8012101EB4501C8B28C
:103C600000F03CF800F0BAF800BF0CE0701EA04273
:103C700004D10020FFF7A2FF385503E00120FFF731
:103C80009DFF3855641CB442F0DB00F081F8BDE8BC
:103C9000F08170B504460D4600F054F8002141EA69
:103CA0004401C8B200F01AF800F098F8284600F075
:103CB00015F800F093F800F045F8012101EB4401FC
:103CC000C8B200F00BF800F089F80020FFF776FF8B
:103CD000064600F05DF8304670BD000070B5044641
:103CE0001448006820F44020124908600846006823
:103CF00040F48020086000200F490860002516E08D
:103D0000E0090E4908606006040E022005F064FA1E
:103D100001200B49C1F8A002022005F05DFA002045
:103D200005490860022005F057FA681CC5B2082D45
:103D3000E6DB70BD00080240A0024042A4024142FE
:103D40000000404210B50F48006820F440200D49A3
:103D500008600846006840F48020086001200A4995
:103D600008600A49C1F8A002042005F035FA0020D5
:103D700005490860042005F02FFA00200349C1F826
:103D8000A00210BD00080240A402414200004042CF
:103D900010B50F48006820F440200D49086008461F
:103DA000006840F48020086000200A4908600A4941
:103DB000C1F8A402042005F00FFA012005490860AB
:103DC0000549C1F8A402022005F006FA10BD000062
:103DD00000080240A00240420000414210B5002409
:103DE0001248006820F44020104908600846006826
:103DF000086001200E49086005F0EEF901200D4928
:103E0000C1F8A00205F0E8F907E0601CC4B2FA2C82
:103E100003DDFFF7BDFF012010BD054880380068B5
:103E20000028F2D10449086000BFF5E7000802400D
:103E3000A402414200004042A002404270B5044644
:103E40000D461646FFF77EFF002141EA4401C8B245
:103E5000FFF744FFFFF7C2FF18B1FFF799FF0120FA
:103E600070BD2846FFF73AFFFFF7B8FF3046FFF76F
:103E700035FFFFF7B3FF18B1FFF78AFF0120EFE727
:103E8000FFF786FF0020EBE710B50446FFF72AFE98
:103E900044F227120021204600F001F810BD70B551
:103EA00005460E461446FFF74DFF002141EA450145
:103EB000C8B2FFF713FFFFF791FF18B1FFF768FFD4
:103EC000012070BD3046FFF709FFFFF787FF18B1EB
:103ED000FFF75EFF0220F4E72012FFF7FFFEFFF777
:103EE0007DFF18B1FFF754FF0320EAE7E0B2FFF7C8
:103EF000F5FEFFF773FF18B1FFF74AFF0420E0E774
:103F0000FFF746FF0020DCE74CF6CC400149086093
:103F1000704700000030004010B500F013F810BDED
:103F200070B505460C4645F2555000F01FF828467E
:103F300000F010F8204600F013F800F003F8FFF747
:103F4000E3FF70BD4AF6AA200149086070470000EF
:103F500000300040014948607047000000300040D8
:103F60000149886070470000003000400149086046
:103F700070470000003000401CB50121112000F006
:103F8000AFFA1020009000208DF8040003208DF877
:103F9000050001208DF8070069460648FFF7FAFC86
:103FA0000120009002208DF8070069460248FFF7C3
:103FB000F1FC1CBD00100240000002401CB50121B4
:103FC000202000F08DFA01208DF8040002208DF8E9
:103FD000050000208DF806004FF4C060009069468F
:103FE0000648FFF7D7FC4FF400710448FFF748FD7F
:103FF0004FF480610148FFF743FD1CBD00140240EF
:1040000070B5044600250CB1012000E000200446F4
:1040100009F0B4F91A48008840280FDA19481A49FB
:104020000988445424B119480088401C1749088065
:1040300013480088401C1249088013E011481249B7
:104040000988455C25B111480088401E0F49088049
:104050000C480D490988445424B10C480088401C80
:104060000A49088008480088401C0749088008461B
:104070000088402801DB0020088009F0C3F970BDEA
:104080003600002094030020380000203400002077
:104090001CB50121022000F023FA402000900120ED
:1040A0008DF8040000208DF8060003208DF805002F
:1040B00001208DF8070069460348FFF76BFC40219B
:1040C0000148FFF7DDFC1CBD0004024000BFFEE715
:1040D00070B50125002428E016A218A11AA0FEF749
:1040E000F9FF05464FF47A7005F056F8214619A0FD
:1040F000FCF74EFA601C84B2322C16DD07F0BAFFD2
:10410000012080F3138800BF00BFBFF34F8F164814
:10411000006800F4E06015490843001D124908607A
:10412000BFF34F8F00BF00BFFEE7002DD4D100BF0B
:1041300070BD00007075626C696300007465737413
:104140005F636C69656E740057534E5F47575F300D
:1041500030310000C1ACBDD3B4CECAFD3A202564D5
:10416000B4CE0D0A000000000CED00E00000FA05DE
:104170000FB430B58BB0FF211A48FCF799FC0EA89C
:10418000808C0EA9498C0EAA128C0EABDB8BCDE96C
:104190000632CDE90810DDF85210DDF84E00DDF8EA
:1041A0004A20DDF84630CDE90232CDE904010EA8FF
:1041B00080890EA94989CDE90010DDF83A40DDF883
:1041C0003E30224608A10748FCF7EEF9054912A047
:1041D000FCF7DEF9034911A0FEF78AFF0BB030BCF3
:1041E0005DF814FBAA0400207B22706172616D737C
:1041F000223A22256C6C7820257820257820257895
:1042000020257820257820257820257820257820DD
:104210002578202578227D002573000073656E7354
:104220006F722F6461746100FEB5002400250121C6
:10423000080700F075F9012000F0F4F8012000F003
:1042400019FC06463EB131463CA0FCF7A1F900211D
:10425000012000F071FE002000F00CFC85B249F254
:104260002850854206D1012000F04AFA00F082FD74
:104270000020FEBD012000F027FA142004F08CFF7E
:1042800008E0601CC4B20A2004F086FFB4F5FA7F8F
:1042900000DB04E0412000F0F7F90028F1D000BF76
:1042A000412000F0F1F920B14FF4807000F02EFAB7
:1042B00019E0002000F008FA012000F01BFA0024A9
:1042C00008E0601CC4B20A2004F066FFC82C01DBC1
:1042D0000120CEE7612000F0D7F90028F1D04FF49B
:1042E000007000F013FA012000F00AFA00F042FD1D
:1042F000002000F0BFFB85B249F2285085421AD059
:104300007F20019000200090FF200290684600F07E
:104310007FFB0023322226210F2000F0A7FC04237C
:104320000B220721182000F08FFC49F228510020B1
:1043300000F002FE00BF00209BE700005254435FE4
:10434000424B505F445231286C6173742072657324
:104350006574206D61726B6572293D307825303847
:104360006C780D0A000000007047000070B5002155
:1043700000230F22C4781CB3174C246804F4E064B3
:10438000C4F5E064C4F30721C1F10404E3B20A41B7
:1043900044789C40E1B28478144021430C07210EFC
:1043A0000E4C05786155047804F01F050124AC40DB
:1043B00005786D11AD0005F1E025C5F8004109E073
:1043C000047804F01F050124AC40054D06787611F1
:1043D00045F8264070BD00000CED00E000E400E070
:1043E00080E100E002490143024A11607047000089
:1043F0000000FA050CED00E0BFF34F8F064800689F
:1044000000F4E06005490843001D03490860BFF35C
:104410004F8F00BFFEE700000CED00E00000FA0542
:1044200070477047014908627047000000000E4263
:104430001CB50121082000F053F80121202000F0D4
:104440004FF80121402000F04BF84020009001205F
:104450008DF8040000208DF8060003208DF805007B
:1044600001208DF8070069461A48FFF793FA1020DB
:10447000009001208DF8040000208DF80600032034
:104480008DF8050002208DF8070069461248FFF7F5
:1044900081FA4FF48070009001208DF80400002014
:1044A0008DF8060003208DF8050002208DF8070026
:1044B00069460A48FFF76EFA40210648FFF7E0FA1E
:1044C0004FF480710548FFF7DBFA10210248FFF72F
:1044D000D7FA1CBD000C0240001402400018024034
:1044E00029B1064A12680243044B1A6004E0034AE9
:1044F00012688243014B1A60704700003038024056
:1045000029B1064A12680243044B1A6004E0034AC8
:1045100012688243014B1A60704700003438024031
:1045200029B1064A12680243044B1A6004E0034AA8
:1045300012688243014B1A60704700004038024005
:1045400029B1064A12680243044B1A6004E0034A88
:1045500012688243014B1A60704700002038024005
:1045600029B1064A12680243044B1A6004E0034A68
:1045700012688243014B1A607047000044380240C1
:1045800029B1064A12680243044B1A6004E0034A48
:1045900012688243014B1A607047000024380240C1
:1045A000F0B5002100220024022500260223324F0C
:1045B0003F6807F00C0121B1042905D0082937D143
:1045C00005E02E4F076036E02D4F076033E02A4F9D
:1045D0003F1F3F68C7F38056274F3F1F3F6807F0D4
:1045E0003F036EB1264FB7FBF3F7DFF88CC0ACF199
:1045F000040CDCF800C0CCF3881C07FB0CF40CE0C6
:104600001E4FB7FBF3F7DFF870C0ACF1040CDCF819
:1046100000C0CCF3881C07FB0CF4174F3F1F3F680A
:10462000C7F301477F1C7D00B4FBF5F7076002E08C
:10463000124F076000BF00BF0F4F3F6807F0F00147
:104640000909104F7A5C0768D74047600A4F3F68F6
:1046500007F4E051890A0B4F7A5C4768D7408760BE
:10466000054F3F6807F46041490B064F7A5C476885
:10467000D740C760F0BD0000083802400024F400B5
:1046800000127A002401002010B501460022002308
:1046900000204A11012A02D10A4C236808E0022AAC
:1046A00003D1084C7034236802E0064C743423684C
:1046B00001F01F02012494401C400CB1012000E0D5
:1046C000002010BD003802400021094A117011700D
:1046D000012802D0042808D103E00121044A117006
:1046E00004E00521024A117000E000BF00BF7047DE
:1046F000703802400149086070470000800E474250
:1047000001490860704700003C0E4742002100F458
:104710004072B2F5407F08D1094A116821F4F811BE
:10472000084A02401143064A1160054A683212687D
:10473000C0F30B031A43024B68331A607047000042
:1047400008380240FFFCFF0F30B10749096841F00B
:104750000401054A116005E00349096821F00401DC
:10476000014A116070470000000806500146002011
:10477000034A12680A400AB1012000E00020704795
:1047800004080650014800687047000008080650F9
:1047900070B504460D4600F009F8291B491CB0FB12
:1047A000F1F201FB1200204470BD000010B50AF0C8
:1047B0000BFE012814D00AF017FE04460AE00AF0A6
:1047C00013FE001B0A2802D90AF00EFE10BD0120BC
:1047D00009F08CF80120FFF7C9FF0028EFD011E0A5
:1047E000002409E00A2004F0F7FC601C0446074995
:1047F000884201D30020E9E70120FFF7B7FF002836
:10480000F0D000BFFFF7BEFFE0E70000A086010088
:1048100010B5002401214020FFF772FE0120FFF7B0
:1048200093FF0AE0601C84B2642004F0D5FC42F2DD
:104830001070844201DB012010BD0120FFF796FFBC
:104840000028EFD00020F7E710B54FF4807000F09B
:1048500073F8012802D1000200F01EF84FF4003076
:10486000FFF706F810BD014600BF080900EB800005
:10487000420001F00F001044C0B270470146002210
:1048800004E0501CC2B2A1F10A00C1B20A29F8DA50
:10489000100741EA1060704781B241F08001044A7C
:1048A000126802F0800262EA0101014A1160704759
:1048B0000C280040002101098AB242F08002044B1A
:1048C0001B6803F0800363EA0202014B1A60704721
:1048D0000C28004008B50022009200200021104A58
:1048E000126802F04002CAB9421E0D4B1A6000BFA6
:1048F0000B4A126802F04001009A521C0092009A82
:10490000B2F5803F01D00029F2D0054A126802F0CA
:1049100040020AB1012002E0002000E0012008BDB1
:104920000C2800400348006820F08000014908601E
:10493000704700000C28004010B5014600200022FE
:10494000054B1B68054C03EA040202EA01030BB1A4
:10495000012000E0002010BD0C2800407F3F010036
:1049600030B501460020002200230C4C246804F0DE
:1049700004020A4C383C24680C4002EAD13544EA6F
:104980000503064C343C246804EA11121BB194B2AE
:104990000CB1012000E0002030BD000040280040A4
:1049A0000148006870470000A4000020CA22174B8D
:1049B0001A6053221A6091B1144A1C3A126820F00E
:1049C00004031A43114B1C3B1A60104A1C32126834
:1049D00000F004031A430D4B1C331A6011E00B4A1C
:1049E0001C3A126820F004039A43084B1C3B1A60DF
:1049F000064A1C32126800F004039A43034B1C332E
:104A00001A60FF22014B1A60704700002428004002
:104A100030B504460025CA201549086053200860B7
:104A2000FFF758FF00B91DE011481C38006820F05E
:104A300040000F491C390860084600682168084397
:104A40000B491C3908600A491439A06808600846F7
:104A50000068A18840EA0140054914390860FFF761
:104A600061FF0125FF2002490860284630BD000093
:104A70002428004008B5014600200090044800901A
:104A8000009800EB810000900098006808BD0000CD
:104A9000502800402DE9F04105460C46002600272D
:104AA0004DB9607800F01000102804D1607820F033
:104AB00010000A30607005B908E06078FFF7D3FE97
:104AC0000646A078FFF7CFFE064600BF55B1E07856
:104AD0000004617840EA0120A1780843217840EA87
:104AE000413611E0E078FFF7C9FE4FEA00486078F0
:104AF000FFF7C4FE48EA0028A078FFF7BFFE48EAA7
:104B00000008207848EA4036CA201249086053203D
:104B10000860FFF7DFFE08B9002714E00E483040B8
:104B20000C4920390860FFF7FDFE0A481C38006870
:104B300000F0200030B900F01DF908B9002702E0AC
:104B4000012700E00127FF20024908603846BDE840
:104B5000F0810000242800403FFFFF002DE9F041D4
:104B600005460C46002600274DB92E48006800F087
:104B7000400000B102E00020E07000BF0DE02948D5
:104B8000006800F0400020B12078FFF76CFE064678
:104B900002E00020E07000BF00BF55B120780004A3
:104BA000617840EA0120A1780843E17840EA0146B3
:104BB00011E02078FFF762FE4FEA00486078FFF7C7
:104BC0005DFE48EA0028A078FFF758FE48EA000892
:104BD000E07848EA0046CA2012491C310860532098
:104BE0000860FFF777FE08B9002713E00E48304051
:104BF0000C4908390860FFF795FE0A48006800F084
:104C0000200030B900F0B6F808B9002702E001270B
:104C100000E00127FF2003491C3108603846BDE849
:104C2000F0810000082800407F7F7F00CA21054AEC
:104C3000116053211160034910390860FF21116090
:104C40007047000024280040F8B504460D4617467A
:104C50001E468DF802708DF801508DF800608DF8B9
:104C6000034069460020FFF715FFF8BDF8B504467C
:104C70000D4616461F468DF803708DF800408DF8DE
:104C800001508DF8026069460020FFF767FFF8BD0C
:104C90003EB505460C46002000F0B4F8284600F06A
:104CA00099F82046FFF7C2FF4FF48040FFF702FE5D
:104CB0004FF48000FEF7DCFD01218803FFF776FE4C
:104CC000012000F09FF84FF48000019001208DF842
:104CD0000A0000208DF8080008208DF8090001A8BE
:104CE000FEF7CCFD03208DF8000001208DF80300B5
:104CF00002208DF801008DF802006846FFF736FBB0
:104D00003EBD000010B54FF48040FFF729FE01289A
:104D100022D18003FFF7CEFD12480068401C1149E4
:104D2000086008460068302816D3002008600E4945
:104D3000012000F001F900BFBFF34F8F0B4800685E
:104D400000F4E0600A490843001D08490860BFF309
:104D50004F8F00BF00BFFEE74FF48000FEF788FDD5
:104D600010BD0000A0000020010026A20CED00E014
:104D70000000FA0508B50022009200200021CA2296
:104D8000134B1A6053221A60114A183A126822F023
:104D9000A0020F4B183B1A6000BF0D4A183A126868
:104DA00002F02001009A521C0092009AB2F5003FD6
:104DB00001D00029F1D0064A183A126802F0200208
:104DC0000AB1012000E00020FF22014B1A6008BD5B
:104DD00024280040CA210A4A116053211160084961
:104DE0001C39096821F00701054A1C3A1160114677
:104DF000096801431160FF21014A116070470000FA
:104E00002428004018B5014600230093002200200A
:104E1000CA23194C23605323236049B1164B1C3B12
:104E20001B6843F48063144C1C3C236001201FE08A
:104E3000114B1C3B1B6823F480630F4C1C3C23600C
:104E400000BF0D4B183B1B6803F00402009B5B1C6A
:104E50000093009BB3F5803F01D0002AF1D0064BB0
:104E6000183B1B6803F004030BB9002000E001208D
:104E7000FF23014C236018BD242800402DE9FC5F6E
:104E800082464FF0000B00200190009000BF00BF51
:104E9000BAF1000F01D1BDE8FC9F05F0D3F88346BD
:104EA00024480068C0F30E00019022480068C0F357
:104EB000064000900198411C0098401CA1FB00672F
:104EC000BBF1000F05D0002186EA010079400843BC
:104ED00009D1BAF5803F02D94FF6FF70DBE7AAF19E
:104EE000010080B2D7E70222002330463946FBF7A3
:104EF00082FAAAFB0B2310EB0208594132463B46CB
:104F00004046FBF778FA04460D46002384EA030086
:104F100085EA0301084301D1012400254FF48031C3
:104F20000020091BA84101D24FF48034601E80B2DA
:104F3000B1E700001028004008B500220092044AA2
:104F40000092009A02EB80020092009A116008BD64
:104F50005028004038B559A0FBF71AFB5D4801689E
:104F600040685D4AD2E9003259405040014346D082
:104F70000020012302464FF40C610090574800685E
:104F800009F0A8FB564908600846007800F0400088
:104F9000002830D00846007800F0800058B351A0B7
:104FA000FBF7F6FA4FF400614C48006809F0C4FAC8
:104FB0000AF01AFA04460020034622460121009016
:104FC0004E4800680AF0B4FD4DA0FBF7E1FA4448F2
:104FD000008800F4006000286ED10AF005FA04464B
:104FE0004FF0FF3000232246022100904348006822
:104FF0000AF09EFD60E045A0FBF7CAFA5CE00020E5
:10500000012302464FF40C6100903448006809F017
:1050100061FB334908600846007800F0400070B337
:105020000846007800F0800048B30846008800F485
:10503000006020B337A0FBF7ABFA80212748006857
:1050400009F07AFA2348083801684068374AC2E90B
:1050500000100AF0C9F90446002003462246012147
:105060000090334800680AF063FD1A4908390C685B
:105070004B682246184903C903F0E9FB1CE0FFE72F
:105080001748007800F08000B0B91248083803686B
:1050900042682648D0E900105940504001430BD1E6
:1050A00024A0FBF775FA0B480838046843682246C9
:1050B000094903C903F0CBFB38BD0000BDD3CAD5F5
:1050C000B5BD525453D0CD4D4143D6A1C1CB0D0AED
:1050D0000000000021030020180000202C00002008
:1050E00030000020BDD3CAD5B5BDC1CBB1F0B5C429
:1050F000BDDAB5E3B5C45254530D0A0014010020C3
:10510000BFAAC6F4B6A8CAB10D0A0000B6AAC6FA6C
:105110000D0A0000BDD3CAD5B5BDC1CB525453A3AF
:10512000ACB7A2CBCD4354530D0A000020000020A1
:1051300018010020D6D8D0C2B7A2CBCD4354530D0E
:105140000A00000030B5054605B930BD6C6905E0C0
:105150002046FFF7F7FF00202072A469002CF7D14A
:1051600000BFF2E710B5044606A0FBF711FA802154
:105170000A48006809F028FA0021094A11605160C4
:1051800010BD0000D6D8D6C3BDD3CAD5D7B4CCACD9
:10519000CAB1BCE4B5BD0D0A000000002C0000201F
:1051A0002000002010B5044604B910BD0020606145
:1051B00007F01AF9C4E900010021A160E160FF20B5
:1051C00020740020207684F8E0000120A074FF20E5
:1051D000607400BFE9E700002DE9F0412DED068B7A
:1051E00082B007460D461646002000900190FF242D
:1051F000A046FEF7A7FD8820FEF770FD022003F011
:10520000EBFFFEF7EBFD38B1FEF7C2FD012002B067
:10521000BDEC068BBDE8F081FD20FEF75FFD0220AE
:1052200003F0DAFFFEF7DAFD18B1FEF7B1FD012059
:10523000EDE7FEF7ADFD142003F0AEFFFEF782FDB3
:105240008920FEF74BFD022003F0C6FFFEF7C6FDE6
:1052500018B1FEF79DFD0120D9E7062269463846C0
:10526000FEF798FCFEF794FD9DF801009DF80010F4
:1052700040EA0120264908600968AF2201FB02F0DC
:105280000AF086FF9FED230B53EC102B0AF0E2FD92
:105290009FED220B53EC102B0AF020FD0AF0ECFCE2
:1052A00028609DF804009DF8031040EA0120184989
:1052B0004860496801EB4102C2EBC1100AF068FF87
:1052C0009FED140B53EC102B0AF0C4FD9FED150B52
:1052D00053EC102B0AF002FD0AF0CEFC30600221E4
:1052E000684603F079FA04469DF80200A04201D016
:1052F00001208CE702210DF1030003F06DFA8046D6
:105300009DF80500404501D0012080E700207EE7A0
:105310008C00002000000000E0FFEF4000000000D3
:10532000008046C000000000000018C02DE9FC41CC
:1053300004460020009001900025FF26FF27FEF77D
:1053400001FD8820FEF7CAFC022003F045FFFEF7AE
:1053500045FD20B1FEF71CFD0120BDE8FC81FD20CC
:10536000FEF7BCFC022003F037FFFEF737FD18B153
:10537000FEF70EFD0120F0E7FEF70AFD142003F012
:105380000BFFFEF7DFFC8920FEF7A8FC022003F0EC
:1053900023FFFEF723FD18B1FEF7FAFC0120DCE73E
:1053A000062269462046FEF7F5FBFEF7F1FC9DF864
:1053B00004009DF8031040EA01209DF8011001EB64
:1053C00000409DF8001040EA01250221684603F0E4
:1053D00003FA06469DF80200B04201D00120BCE766
:1053E00002210DF1030003F0F7F907469DF80500CF
:1053F000B84201D00120B0E72846AEE770B50446B8
:105400000D46002609F0E0FF012802D009F0ECFF6C
:10541000064632462946204600F002F870BD0000DC
:105420002DE9F0470546894616460DB9BDE8F087D7
:105430006C6920E0324649462046FFF7F1FF3146CD
:10544000204607F0A9FCA8B1D4E900733A460CA0A5
:10545000FBF79EF80F480078402809DA0E480D49FE
:10546000097840F821400B480078401C0949087031
:10547000A46900E0A469002CDCD100BFD6E70000DD
:105480006E6F646520256C6C78206973206465619B
:10549000640D0A005F0000209806002010B5044645
:1054A00004A0FBF775F810210648006809F08CF895
:1054B00010BD0000B6A8CAB1C6F7CAB1BCE4B5BDFC
:1054C0000D0A00004400002070B52DED088B82B05D
:1054D00000BFFCF7EDFE07F083F9322003F05CFE1D
:1054E00007F08EF90120FFF721FF0446544844815C
:1054F000210C81810146898901EB4102C2EBC11077
:105500000AF02FFE9FED4F0B53EC102B0AF0A2FC7C
:105510009FED4E0B53EC102B0AF0E0FB41EC180B07
:1055200047494989AF2201FB02F00AF01AFE9FEDBC
:10553000450B53EC102B0AF08DFC9FED460B53EC02
:10554000102B0AF0CBFB41EC190B8DED008B53ECCB
:10555000192B42A0FBF71CF8FCF70AFF30B13220F0
:1055600003F01AFE03F0F0F8044600E0002434488B
:10557000C0F80E40D0F80E0000EE100AB8EE400A57
:10558000DFED3E0A80EE201A11EE105A28460BF08D
:1055900045F941EC180B53EC182B39A0FAF7F8FF3A
:1055A000642003F0F9FD0520FDF7FCF804462448CB
:1055B000C0F81240642003F0EFFD0620FDF7F2F87A
:1055C00004461F48C0F81640642003F0E5FD07209C
:1055D000FDF7E8F804461A48C0F81A40642003F0C2
:1055E000DBFDFDF739F804461548C483FCF7B9FF25
:1055F000642003F0D1FDFDF783F80446104884844D
:10560000642003F0C9FDFDF777F904460C480484D3
:10561000642003F0C1FDFDF71BF9044608484484EB
:1056200007F0CCF8FCF754FE002007F0B9FD064661
:10563000314617A0FAF7ACFF02B0BDEC088B70BD85
:10564000D803002000000000E0FFEF400000000051
:10565000000018C000000000008046C054656D7056
:10566000657261747572653A2025662C2048756DE7
:1056700069646974793A25660D0A00000000804368
:1056800070726573737572653A25660D0A000000C5
:1056900073656E645F74696D6572C8CECEF1CAB908
:1056A000D3C3C7E9BFF6A3BA256C640D0A00000096
:1056B0000CB50020019000903448006840F4803020
:1056C0003249086000BF3148006800F400300090A3
:1056D0000198401C0190009818B90198B0F5A04FAE
:1056E000F1D12A48006800F4003010B10120009088
:1056F00001E0002000900098012846D12348403066
:10570000006840F08050214940310860204800681E
:1057100040F440401E4908601C48083000681B499E
:10572000083108600846006840F4004008600846F8
:10573000006840F4A05008601648091F0860081F60
:10574000006840F08070091F086000BF0F480068C3
:1057500000F000700028F9D040F205700E49086092
:105760000A480830006820F0030008490831086042
:105770000846006840F00200086000BF0348083097
:10578000006800F00C000828F8D10CBD0038024079
:105790000070004008544007003C0240042808D133
:1057A0004FF0E021096941F004014FF0E02211615E
:1057B00007E04FF0E021096921F004014FF0E022F9
:1057C0001161704710B509F0FFFD012801D009F003
:1057D00009F910BD10B51548006840F47000134970
:1057E00008601348006840F001001149086000207B
:1057F0000F49083108600E4800680E4908400C49FE
:1058000008600D48091D0860081F006820F480200A
:10581000091F0860002006490C310860FFF748FFA7
:105820004FF0006001498039086010BD88ED00E04C
:1058300000380240FFFFF6FE10300024F0B50C46A1
:10584000154600210022068C4FF6FE773E40068466
:10585000018B028C4FF60C7631407E1C06EA031653
:105860002E4331434FF6F576324044F00106324381
:1058700001830284F0BDF0B50C46154600210022DC
:105880000026078C4FF6EF7C07EA0C070784018B94
:10589000028C4FF6FF7707EA041640F6FF473940BF
:1058A0004FF6FF7707EA033739434FF6FF7707EAEA
:1058B000052739434FF65F773A4046F010073A43E1
:1058C00001830284F0BDF0B50C461546002100228C
:1058D0000026078C4FF6FF6C07EA0C070784818BC4
:1058E000028C4FF6FF7707EA04264FF60C77394013
:1058F0004FF6FF7707EA03172F4339434FF2FF575D
:105900003A4046F480773A4381830284F0BDF0B593
:105910000C461546002100220026078C4EF6FF7C1F
:1059200007EA0C070784818B028C4FF6FF7707EAA2
:10593000043640F6FF4739404FF6FF7707EA052760
:1059400039434FF6FF7707EA0337394345F6FF77C8
:105950003A4046F480573A4381830284F0BD10B543
:105960000121880700F057F9012801D1FDF742FF16
:105970000121880700F075F810BD7FB505460C467B
:1059800001210846FEF7CCFDADF80450029400203A
:10599000ADF80C00ADF8060001221146900700F0AA
:1059A00083F901A94FF0804000F0B6F91C208DF872
:1059B000000001208DF8030004208DF80100002074
:1059C0008DF802006846FEF7D1FC0121880700F03F
:1059D0004BF87FBD10B50121074800F01CF90128E4
:1059E00004D106480068401C0449086001210248AF
:1059F00000F037F810BD0000000400401400002043
:105A00007FB505460C4601210220FEF789FDADF861
:105A1000045002940020ADF80C00ADF806000122FD
:105A200011460D4800F040F901A90B4800F074F947
:105A30001D208DF8000001208DF8030009208DF84D
:105A4000010000208DF802006846FEF78FFC01215E
:105A5000014800F009F87FBD00040040CA430282FB
:105A60007047CA430282704721B1028842F00102A6
:105A7000028004E002884FF6FE731A4002807047ED
:105A800010B504465548844208D101210846FEF766
:105A900077FD00210120FEF773FD9DE0B4F1804FFA
:105AA00008D101210846FEF74BFD00210120FEF739
:105AB00047FD91E04A48844208D101210220FEF7C7
:105AC0003FFD00210220FEF73BFD85E04548844272
:105AD00008D101210420FEF733FD00210420FEF748
