:020000040800F2
:10000000A09E0020D50300084D3D000831360008B1
:10001000A93C0008B92700080157000800000000AB
:1000200000000000000000000000000015030008B0
:10003000ED30000800000000710300087550000852
:10004000EF030008EF030008EF030008F545000880
:10005000EF030008EF03000869320008EF0300080F
:10006000EF030008EF030008EF030008EF030008A8
:10007000EF030008EF030008EF030008EF03000898
:10008000EF030008EF030008EF030008EF03000888
:10009000EF030008EF030008EF030008EF03000878
:1000A000EF030008EF030008EF030008EF03000868
:1000B000ED50000865510008EF030008EF03000849
:1000C000EF030008EF030008EF030008EF03000848
:1000D000EF030008CD530008415400087554000890
:1000E000EF0300086D410008EF030008EF0300086C
:1000F000EF030008EF030008EF030008EF03000818
:10010000EF030008EF030008EF030008EF03000807
:1001100009530008EF030008EF030008EF0300088D
:10012000EF030008EF030008EF030008EF030008E7
:10013000EF030008EF030008EF030008EF030008D7
:10014000EF030008EF030008EF030008EF030008C7
:10015000EF030008EF030008EF030008EF030008B7
:10016000EF030008EF030008EF030008EF030008A7
:10017000EF030008EF030008EF030008EF03000897
:10018000EF030008EF03000800F002F800F0B2F8F7
:100190000AA090E8000C82448344AAF10107DA45E2
:1001A00001D100F0A7F8AFF2090EBAE80F0013F082
:1001B000010F18BFFB1A43F00103184768F600004F
:1001C00088F600000A444FF0000C10F8013B13F0D1
:1001D000070408BF10F8014B1D1108BF10F8015BA0
:1001E000641E05D010F8016B641E01F8016BF9D193
:1001F00013F0080F1EBF10F8014BAD1C0C1B09D1EA
:100200006D1E58BF01F801CBFAD505E014F8016B5B
:1002100001F8016B6D1EF9D59142D6D370470000ED
:100220000023002400250026103A28BF78C1FBD8FF
:10023000520728BF30C148BF0B6070476E2900F0DD
:10024000E584702900F0058266290FF04C8065294D
:100250000FF0498067290FF0468061290FF0458033
:1002600003681B0A28BF41F08001692900F07681EC
:10027000642900F07381752900F070816F2900F006
:10028000EB87782900F0D181E92900F08587E429FE
:1002900000F08287F52900F07F87EF2900F0E887DA
:1002A000F82900F0D0810368DB0928BF41F0800104
:1002B000632900F0F486732900F0F986E32901F040
:1002C000F781F32901F0FC81002070471FB50FF082
:1002D00000F800F0D7FF0400002000210EF094F990
:1002E000401C6060002000210EF078F9E0601FBD26
:1002F00010B510BD01F07EFA1146FFF7E7FF08F0D8
:100300000BFE01F0A5FA03B4FFF7F2FF03BC06F001
:10031000EEFA00002C4B19680868B0E8F04F80F343
:100320000988BFF36F8F4FF0000080F3118870478A
:100330000000000008480068006880F308884FF05B
:10034000000080F3148862B661B6BFF34F8FBFF32D
:100350006F8F00DF00BF00BF08ED00E0DFF80C008A
:10036000016841F470010160704700BF88ED00E052
:10037000EFF30980BFF36F8F134B1A681EF0100F55
:1003800008BF20ED108A20E9F04F106009B44FF04B
:10039000500080F31188BFF34F8FBFF36F8F0CF0C5
:1003A00069FB4FF0000080F3118809BC19680868E8
:1003B000B0E8F04F1EF0100F08BFB0EC108A80F3C9
:1003C0000988BFF36F8F7047E0000020EFF30580CE
:1003D000704700000948804709480047FEE7FEE7EC
:1003E000FEE7FEE7FEE7FEE7FEE7FEE7FEE7FEE7E5
:1003F00004480549054A064B70470000855000082F
:1004000089010008A06C0020A09E0020A06E0020A2
:10041000A06E0020704710B54C1084EA530404D538
:100420004042C1F1000138BF491E1B4204D552426F
:10043000C3F1000338BF5B1E00F0FBFA14F0804FDD
:1004400004D04042C1F1000138BF491E14F0004FF2
:1004500004D05242C3F1000338BF5B1E10BD000040
:100460000FB4044910B503AA029800F025FE10BC91
:100470005DF814FB800000200FB4044910B503AAF6
:10048000029800F019FE10BC5DF814FB80000020FB
:100490000FB41CB5084B06AA7B446946009005982A
:1004A00000F0DBFD04460020694600F0E9FD20462F
:1004B0001CBC5DF814FB0000E50B000070B50446A1
:1004C00085690068C10601D5302600E02026C007F6
:1004D00007D070BDD4E9012130469047206A401C06
:1004E00020626D1EF6D570BD70B504468569007832
:1004F000C00707D170BDD4E9012120209047206AB0
:10050000401C20626D1EF6D570BD70B50C460546C8
:10051000012A05D02878800600D5EA69002302E088
:10052000012305E05B1C934202D2E05C0028F9D174
:10053000A869E618C01AA861286A184428622846E3
:10054000FFF7BCFF04E0D5E9012114F8010B904747
:10055000B442F8D32846FFF7C7FF70BD2DE9F0413C
:100560000646002410687529314616A510D000F003
:10057000E2FA002802DA404213A507E031688A0750
:1005800001D512A502E0490704D511A5012401E017
:1005900000F0DAFA00210A2206F1240709E0B0FB94
:1005A000F2FCB0FBF2F302FB1C003030785418462A
:1005B000491C0028F3D123462A463046BDE8F041C5
:1005C00000F0CBBA000000002D0000002B0000005E
:1005D00020000000F0B40D460188090502D5214C29
:1005E0007C4402E01F4C7C440E34002100F12406C0
:1005F00008E002F00F071209E75D42EA03721B09E7
:100600007754491C52EA0307F3D1027800231207FA
:1006100004D5702D06D009B1022311342246F0BC56
:1006200000F09BBA01231034F8E770B504460D467C
:100630002146106800F088FA024629462046BDE8A7
:1006400070400023C6E7D21D22F00703D3E9002340
:10065000C0E70368126843F0200303600823C36106
:100660000023B7E7FAEF00002DE9F05F8946044662
:100670004FF0000ADFF874B1FB44C0F820A0204618
:10068000E1688847002874D0252806D0D4E90121E4
:100690009047206A401C2062F1E700265F46204612
:1006A000E16888472028054607DB312D05D27819F7
:1006B00010F8200C08B10643F1E7B00701D526F089
:1006C0000406C4F81CA00027C4F818A02A2D09D0DD
:1006D000284606F005F938B304EB8708303DC8F822
:1006E000185019E059F8041B204604EB8702916169
:1006F000E1688847012F054618D1E069002820DA13
:1007000026F020061DE0D8F8180000EB800005EB6D
:1007100040003038C8F818002046E1688847054690
:1007200006F0DEF80028EED1012F0AD02E2D08D1D8
:100730002046E16888477F1C0546022F46F02006C8
:10074000C4DBA069002803DA404246F00106A0613C
:10075000F00701D026F010066C2D0BD0682D09D0C3
:100760004C2D39D06A2D35D0742D35D07A2D33D01B
:1007700016E038E0E1682F4620468847B842054633
:1007800009D16C2F26D04FF48060E16806432046E3
:100790008847054604E06C2F1AD04FF4807006435A
:1007A0000DB3A5F14100192802D8203546F40066A2
:1007B0004A462946204626604E46FFF73FFD80B157
:1007C00001280BD0F61D26F0070000F1080956E7B6
:1007D0004020E4E78020D8E70020D6E706F10409AE
:1007E0004DE7284652E7206ABDE8F09F8AEF0000F7
:1007F00030B505460B462A4613F8014B12F8010B9B
:1008000008B1A042F8D01CB1002802D06D1CF1E75D
:10081000284630BD40EA0103024630B59B0710D19F
:100820004FF0013400E008C208C91D1B9D4315EAC2
:10083000C41FF8D013F0FF0102F8011B0DD01B0AF2
:10084000F8E711F8013B002B02F8013B05D011F845
:10085000013B002B02F8013BF3D130BD10B5431C26
:1008600002E010F8011B71B18107FAD14FF001329B
:1008700002C88C1A8C4314EAC211F9D0C01A0A06B5
:1008800003D0C01E10BDC01A10BD0A0401D0801EC6
:1008900010BD0902FCD0401E10BD032A40F230807A
:1008A00010F0030C00F0158011F8013BBCF1020FB1
:1008B000624498BF11F801CB00F8013B38BF11F832
:1008C000013BA2F1040298BF00F801CB38BF00F849
:1008D000013B11F0030300F02580083AC0F00880C6
:1008E00051F8043B083A51F804CBA0E80810F5E7AA
:1008F000121D5CBF51F8043B40F8043BAFF300808D
:10090000D20724BF11F8013B11F801CB48BF11F801
:10091000012B24BF00F8013B00F801CB48BF00F8D1
:10092000012B704710B5203AC0F00B80B1E8185089
:10093000203AA0E81850B1E81850A0E81850BFF4C9
:10094000F5AF5FEA027C24BFB1E81850A0E8185068
:1009500044BF18C918C0BDE810405FEA827C24BFBC
:1009600051F8043B40F8043B08BF7047D20728BF4A
:1009700031F8023B48BF11F8012B28BF20F8023B99
:1009800048BF00F8012B704702F0FF0343EA03223F
:1009900042EA024200F002B84FF000020429C0F01F
:1009A000128010F0030C00F01B80CCF1040CBCF1A1
:1009B000020F18BF00F8012BA8BF20F8022BA1EBF3
:1009C0000C0100F00DB85FEAC17C24BF00F8012BD8
:1009D00000F8012B48BF00F8012B70474FF00002D0
:1009E00000B5134694469646203922BFA0E80C5025
:1009F000A0E80C50B1F12001BFF4F7AF090728BF00
:100A0000A0E80C5048BF0CC05DF804EB890028BF7B
:100A100040F8042B08BF704748BF20F8022B11F0A4
:100A2000804F18BF00F8012B704770477047704720
:100A3000704753EA020C00F069802DE9F04B4FF04B
:100A40000006002B1FBFB3FA83F503FA05F424FA5E
:100A500005F65E4012BF1643B2FA82F502FA05F4BB
:100A6000C5F120051EBF22FA05FC44EA0C0420351E
:100A700056EA044C4FEA144418BF641C4FF00008B7
:100A80004FF00009904271EB030C39D3002919BFD4
:100A9000B1FA81F701FA07F6B0FA80F700FA07F623
:100AA000C7F120071EBF20FA07FC46EA0C062037D4
:100AB000B6FBF4FCA7EB0507103F07F01F0BCBF1CB
:100AC00020060CFA0BFB2CFA06F644BFB3460026B0
:100AD000202FA4BF5E464FF0000B5BEA060C08BF58
:100AE0004FF0010B19EB0B09ABFB027C48EB06083E
:100AF000C01B06FB02CC0BFB03CC71EB0C01C1E766
:100B00000B46024641464846BDE8F08B13B54FF010
:100B100000004FF00001AFF30080BDE81C407047BB
:100B200010B500F0B3FB006810BD10B5044600F02E
:100B3000ADFB046010BD09684A0501D540B270479D
:100B4000C905FCD500B2704709684A0501D5C0B295
:100B50007047C905FCD580B270472DE9F0470D46B6
:100B600099469246044600F124080168880604D597
:100B7000E06921F01001216000E00120A84201DDC0
:100B8000471B00E00027A1697A1902EB0900081A47
:100B9000A0612078C00602D42046FFF78FFC002613
:100BA00008E0D4E901211AF806009047206A401CA9
:100BB000761C20624E45F4DB2078C0060AD520461C
:100BC000FFF77CFC06E0D4E9012130209047206A41
:100BD000401C2062381EA7F10107F4DC07E0D4E9CD
:100BE000012118F805009047206A401C2062281E49
:100BF000A5F10105F3DC2046FFF776FC207800061E
:100C000002D50220BDE8F0870120FBE711680268E9
:100C1000006A530501D508700AE0D30501D50880A4
:100C200006E0130603D5C217C1E9000200E0086020
:100C30000120704770472DE9FF4F0C461E464FF0CC
:100C4000FF378BB0D2E90001DDF860800A908A4658
:100C5000C1F30A5505B93D46002108464FF0000092
:100C6000BAF1000F00F4400005DA00EB80004FF409
:100C7000400101EA50004FEA9059B9F1010F00DD3F
:100C8000B9460A9850EA4A000ED044F61050A5F230
:100C9000FF3545432F14B8F1000F1ED07542291EB1
:100CA0001EDDC9F100021CE0B8F1010F4FF0000099
:100CB00001D0302103E0F24305E02154401CB04252
:100CC000FBDB30460022002121540B99C1F808803B
:100CD000C1E900200FB0BDE8F08FBD1B6D1CDEE741
:100CE0004A4600DA694206A800F0EEFC06AB93E83B
:100CF000070003AB83E8070050460A9900F0EEFDB9
:100D00008DE80700A0F500501F3800900398002DD3
:100D100009DD42F21F014A46084403A903906846D0
:100D200001F04DF808E0A0F500504A461F3803A92D
:100D30000390684601F057F88DE807000004000CA6
:100D400003D04FF0FF30410800E01046B8F1000F2B
:100D500003D00022009215461EE0751E05D400F057
:100D600099FA303262556D1EF9D5B3460122084317
:100D700002D000227F1C04E02078302801D100221C
:100D80007F1E002A099786D01DE0112D07DA00F09A
:100D900081FA303262556D1C50EA0102F5D10843E8
:100DA00002D00098C8B10EE00021681E05E0235C67
:100DB000625C63542254401E491C8142F7DBAB46FF
:100DC000A81B401E0990002004F80B000B98099AFC
:100DD000C0F80880C0E9002B7CE711264FF000081E
:100DE00059E72DE9F04F88460446D21D22F007014D
:100DF00091B0D1E90001CDE90A0104F04FFD0246AE
:100E00000B98C00F01D02D2007E02068810701D585
:100E10002B2002E0202101EAC000032A099001D022
:100E2000072A05DB03464146204600F0F7FB0BE1AD
:100E30002078800601D5E06900E00620B8F1650F52
:100E4000814606D0B8F1660F18D0B8F1670F70D19F
:100E500031E00020B9F1110F009001DB112301E016
:100E600009F101030AAA01A90CA8FFF7E4FEDDE9D4
:100E70000C70002609F10105834647E001204B462E
:100E800000904FF000470AAA01A90CA8FFF7D3FE73
:100E9000DDE90DB00C995D46002610B909F101009D
:100EA0000D18B9EB050003D4C0F1FF3609F10105B7
:100EB000A5EB09002BE0B9F1010F01DA4FF00109B0
:100EC0000020B9F1110F0090484601DD112300E028
:100ED00003460AAA01A90CA8FFF7ADFEDDE90C70D4
:100EE0004D4600268346207800070AD4AB4500DA39
:100EF0005D4601A8012D04DD411911F8011C3029BE
:100F000007D04F4502DA17F1040F04DA01208246B8
:100F10000FE06D1EEEE7002F02DCED1B3E4403E008
:100F2000781CA84200DD7D1CB81B00F1010A4FF0BF
:100F300000472078000703D4AA4501DB4FF0FF3AB1
:100F40000021B7F1004F0DF143088DF8431024D074
:100F500002202B23002F01DA7F422D230A21021EBB
:100F6000A0F1010000DC5FB197FBF1FC97FBF1F20F
:100F700001FB1C7C17460CF1300C08F801CDEEE7A4
:100F8000A8F1010003702188090501D5452100E081
:100F90006521A0F1010800F8011C09980FA9A1EB37
:100FA0000807FF1D00B10120411901EBEA70A1699A
:100FB0003844081A401EA0612078C00602D420469A
:100FC000FFF77CFA099828B1D4E901219047206AFB
:100FD000401C20622078C00622D52046FFF76EFA1A
:100FE0001EE0002E04DBB34502DD01A8805D00E0B9
:100FF0003020D4E901219047206A401C2062761CF1
:10100000AAF101005FEA000A0AD100F03BF9C068CA
:101010000168405CD4E901219047206A401C2062AD
:10102000281EA5F10105DCDC07E0D4E9012118F850
:10103000010B9047206A401C2062381EA7F101076F
:10104000F3DC2046FFF750FA032011B043E600001E
:1010500001694A1C02610878704700B58FB0CDE97C
:1010600001310021059105497944CDE9031011466C
:101070006846FFF7F9FA0FB000BD0000E5FFFFFF7B
:101080000A6802F8010B0A60704710B5436913B192
:10109000AFF3008001E0FFF738FA012010BD1278AD
:1010A00000F124010A7000224A700122EDE7116864
:1010B0004FF0FF32E9E70000074B70B50D467B4467
:1010C000FFF7CBFF0446284600F06CFB10B14FF051
:1010D000FF3070BD204670BDBB7500002DE9FF5F7D
:1010E00015468A460446DFF8AC80F8440027D8E964
:1010F00000103E46CDE9001010E03AF816106A469E
:1011000002A800F053FB411C07D02178890603D5C3
:10111000E269391891420DD80744761C2078800680
:1011200002D5E069B84205DDAE42E6DB3AF81600CA
:101130000028E2D1A069C01BA0612046FFF7BEF9DC
:10114000D8E90010CDE90010002017E03AF8181097
:101150006A4602A800F02AFBB0F1FF3F81460BD09F
:1011600000250DF1080B05E0D4E901211BF805006D
:1011700090476D1C4D45F7D308F10100B042804601
:10118000E4DB206A384420622046FFF7ADF9BDE871
:10119000FF9F0000E2E500002DE9F0418046D21DEE
:1011A00022F007020025D2E90002F52915A614D085
:1011B000011E72F1000106DA0023D0EB030063EB9D
:1011C000020211A608E0D8F800108B0701D50FA67F
:1011D00002E0490701D50EA601251146002408F1B9
:1011E000240704E000F056F830323A55641C50EA07
:1011F0000102F7D12B46324621464046BDE8F04178
:10120000FFF7ABBC000000002D0000002B00000029
:101210002000000030B4002100F1240408E002F0B6
:101220000705D208303542EA4372DB086554491C91
:1012300052EA0305F3D10468002310A2250708D55C
:1012400004F020040C4304D0C46901230CA2641EE2
:10125000C46130BCFFF781BC10B50446214610685C
:10126000FFF772FC02462046BDE810400023D1E79C
:10127000D21D22F00701D1E90023CBE700000000D6
:1012800030000000004870475C6C00200048704748
:101290003C6C002030B5B0F10A024FEA900E71F1BB
:1012A00000034EEA817EB0EB0E0061EB91014FEA44
:1012B000101E4EEA017E10EB0E0041EB11114FEAB9
:1012C000102E4EEA016E10EB0E0041EB11214FEA99
:1012D000104E4EEA014E10EB0E0041EB114140184A
:1012E00041F100014FEAD00040EA41704FEAD101DC
:1012F00010EB80054FEA810444EA907444EB01044A
:101300006D1944EB0404521BA3414FF0000348BF86
:101310000A3200D530BD401C41F1000130BD000053
:101320002DE9F04F04460D46D21D22F0070089B08A
:10133000D0E9009248461746394604F0AFFA024613
:10134000F80F01D02D2307E02068810701D52B235A
:1013500002E0202101EAC0038DF820300BB101200A
:1013600000E00020032A824601D0072A04DB294638
:10137000204600F053F93DE12078800601D40D2588
:1013800000E0E569C7F30A560D2D49DA00214FEA5E
:10139000175B08464FF00000002F00F4400007DA0A
:1013A00000EB80004FF4400100EBD07001EA6000D8
:1013B0008115012901DD4FF0FF3100224FEA850C34
:1013C000BCF1180F06D31346ACF118004FF0805251
:1013D000C24003E04FF4801323FA0CF30CF10C0C21
:1013E000BCF1200F04D3ACF1200C09FA0CF001E0A1
:1013F00007FA0CF000294FF0004801DD18B90FE0A2
:101400000ED140450CD319EB02095F4121B940458B
:1014100002D19F4329EA0209BBEB175F00D0761C7B
:101420002088000502D57B48784402E0794878445A
:10143000193808AA302302F80A30037C0AF10101A6
:10144000002E0AF1020A53546A4602DC4FF03001C2
:1014500001E04FF031014FF001088DF8001002D08B
:10146000A6F2FF3603E059EA470100D06A4E002D8C
:1014700002DC2178090704D54FF002082E218DF8EF
:101480000110C44600210BE0C7F303433F01C35CD6
:10149000491C6D1E02F80830052908F1010801DA1F
:1014A000002DF1DC00210CE000EB1973491C1B78C6
:1014B0006D1E082902F808304FEA091908F10108E1
:1014C00001DA002DF0DC2178890602D514E0A8F1BC
:1014D0000108E04505DD02EB080111F8011C302987
:1014E000F5D0B8F1000F07DD02EB080111F8011C7F
:1014F0002E2901D1A8F10108002D05DD3E2102F8B9
:1015000008106D1E08F10108407C002E02F808004A
:1015100008F1010804DA2D20764202F8080002E002
:101520002B2002F808000A214FF47A70864208F155
:1015300001080BDB96FBF0F3303302F8083096FB22
:10154000F0F308F1010800FB136601E0642E0CDBE8
:10155000642096FBF0F3303302F8083096FBF0F38A
:1015600008F1010800FB136601E00A2E06DB96FB7A
:10157000F1F0303002F8080008F1010896FBF1F0B4
:1015800001FB1060303002F80800A16908F1010881
:1015900008EB050202EB0A00081AA0612078C006D9
:1015A00002D42046FEF78AFF216A08AE01EB0A004A
:1015B000206204E0D4E9012116F8010B9047BAF14A
:1015C000010AF7D22078C00602D52046FEF776FF42
:1015D0006E4609E016F8010B3E280FD0D4E9012130
:1015E0009047206A401C2062B8F10108F2D22046E0
:1015F000FEF77AFF09B00320BDE8F08F206A284487
:10160000206203E0D4E90121302090476D1EEBD326
:10161000F8E70000C7E2000002FCFFFF2DE9F041FF
:101620001F46044603260168072A01F4006004DB14
:1016300008B116A505E016A503E008B115A500E060
:1016400015A521F010002060A069C01EA0610FB197
:10165000401EA0612046FEF731FF4FB1D4E90121C1
:1016600038469047206A401C2062C01C206206E079
:10167000206AFAE7D4E9012115F8010B9047761E9C
:10168000F8D22046FEF730FFBDE8F0814E414E0013
:101690006E616E00494E4600696E660010B5436982
:1016A00013B1AFF3008001E0FFF718FD012010BD7A
:1016B000128800F1240182840022C2840122EDE715
:1016C00011684FF0FF32E9E72DE9F04781461646F1
:1016D0008AB0334878440DC88DE80D00304878440E
:1016E000801C03AC0DC884E80D0041F69B30084413
:1016F000372190FBF1F290FBF1F5A5F1800501FB9C
:1017000012041B3C02D56442012000E00020DFF8F7
:1017100090A080460027FA44AAF1BE0A0DE0E00737
:1017200009D03246684607EB47010AEB810100F019
:101730005AFB8DE8070064107F1C002CEFD1184F76
:101740007F44AC3F18E0E80714D007EB04100DF11C
:10175000180A90E80E008AE80E00C068F04201D135
:1017600098190890324606A903A800F03CFB03AB89
:1017700083E807006D10641C002DE4D132466946F1
:10178000B8F1000F03A802D000F019FB01E000F04F
:101790002AFBC9E90001C9F808200AB0BDE8F087B2
:1017A000ACE00000007B00F08000704770B516468A
:1017B0000C46054600F044F8036893F8010101283F
:1017C00006D0FF2C0FD8185D68B101202C7070BDB9
:1017D000D3F807013246214603F207130344284693
:1017E000BDE8704018474FF0FF3070BD00487047AB
:1017F0003C6C00207546FFF7F9FFAE4605006946D0
:10180000534620F00700854618B020B5FEF7F0FDDE
:10181000BDE820404FF000064FF000074FF00008F1
:101820004FF0000B21F00701AC46ACE8C009ACE872
:10183000C009ACE8C009ACE8C0098D46704700009B
:1018400010B5FFF71FFD001D10BD00BFBDCD00008E
:101850000446AFF300802046FEF755FD4FF0013CF3
:1018600050F8042B51F8043B9A4221D1A2EB0C030F
:10187000934313EACC1317D150F8042B51F8043BCF
:101880009A4215D1A2EB0C03934313EACC130BD16C
:1018900050F8042B51F8043B9A4209D1A2EB0C03F7
:1018A000934313EACC13DBD04FF00000704700BF26
:1018B000D01A01BAB1FA81F101F0180122FA01F04F
:1018C000CB40C1F12001DBB2C0B2C01A2CFA01F347
:1018D000D11A914311EAC311E6D170475FEA400C77
:1018E00008BF91F0000F4FEA8C234FEAC12243EA70
:1018F00051514FEA1C5018BF00F5F0404FEA30003C
:1019000018BF41F000415FEA6C5C00F02980BCF137
:10191000FF3F08BF40F080407047130C06BF120421
:101920004FF0100C4FF0000C130E04BF12020CF11C
:10193000080C130F04BF12010CF1040C930F04BF29
:1019400092000CF1020CD30F04BF52000CF1010CF9
:1019500011464FF00002A0F11F00A0EB0C007047F1
:1019600011F0004F08BF704731F000413FF4D5AF90
:101970000B0C06BF09044FF0100C4FF0000C0B0EBF
:1019800004BF09020CF1080C0B0F04BF09010CF194
:10199000040C8B0F04BF89000CF1020CCB0F04BFA9
:1019A00049000CF1010CCCF12003A0EB0C0022FA51
:1019B00003F302FA0CF241EA030100F1010070475F
:1019C00020F07F4C80EA030023F07F47ACEB070355
:1019D00003F57C5300F0004003F1FF032DE980493B
:1019E0004FEA154B09B44FEA144325EA0B4E24EA9B
:1019F00003480FF2042606EB132749083E785FEAF6
:101A0000320203FB0667C7F5000707FB06F64FEA3D
:101A100054374FEAD64606F1020607FB066CCCF1B6
:101A2000005C4FEA1C472CEA074C07FB06F40CFB52
:101A300006F504EB15464FEA961634BF00204FF02A
:101A400000404FEAD13706FB07FC4FEA1C4C0CFB69
:101A50000BF7D21B03FB0CF761EB07010CFB0EF736
:101A6000B0EB074072EB17420CFB08F734BFA2EB58
:101A70000742B2EB074261EB17414FEA0C444FEAD1
:101A8000910706FB07FC4FEA1C4C0CFB0BF7B0EB75
:101A9000C74072EB573203FB0CF734BFA2EBC742CF
:101AA000B2EBC74261EB57310CFB0EF7B0EBC7004E
:101AB00072EB57720CFB08F734BFA2EBC702B2EB14
:101AC000C70261EB5771039F4FEA816141EA9211AE
:101AD00004EBCC044FEAD1374FEA826206FB07FCE5
:101AE00042EA90124FEA80604FEA1C4C0CFB0BF765
:101AF000D21B03FB0CF761EB07010CFB0EF7B0EBFD
:101B0000074072EB17420CFB08F734BFA2EB074209
:101B1000B2EB074261EB17414FEA8C554FEA910750
:101B200004EB9C2406FB07FC4FEA1C4C0CFB0BF758
:101B3000B0EBC74072EB573203FB0CF734BFA2EB9C
:101B4000C742B2EBC74261EB57310CFB0EF7B0EB6B
:101B5000C70072EB57720CFB08F734BFA2EBC70249
:101B6000B2EBC70261EB577115EB4C254FEA81616F
:101B700041EA92114FEA82624FEAD13742EA90126B
:101B800006FB07FC44F100044FEA80604FEA1C4C5E
:101B90000CFB0BF7D21B03FB0CF761EB07010CFBF3
:101BA0000EF7B0EB074072EB17420CFB08F734BF9F
:101BB000A2EB0742B2EB074261EB174115EB1C1594
:101BC0004FEA813141EA92414FEA823242EA904241
:101BD0004FEA80304FEA0C7644F1000448EA0343B0
:101BE0004EEA0B484FF0000EB2EB080C71EB030706
:101BF00024BF624639464EEB0E0E4FF0000B001824
:101C0000524149414BEB0B0BB2EB080C71EB030754
:101C10007BF1000B24BF624639464EEB0E0E4FF0AF
:101C2000000B0018524149414BEB0B0BB2EB080C77
:101C300071EB03077BF1000B24BF624639464EEB84
:101C40000E0E51EA020718BF46F0010616EB0E769B
:101C500055F1000254F1000103D5BDE88901BDE84A
:101C60000088BDE88901BDE80048B619524141EB42
:101C70000101A3F10103704780807F7E7D7C7B7A28
:101C80007978777676757473727171706F6E6E6D28
:101C90006C6C6B6A6A6968686766666564646363CE
:101CA00062616160605F5F5E5E5D5D5C5C5B5B5A54
:101CB0005A595958585757565655555554545353C1
:101CC00052525251515050504F4F4F4E4E4D4D4D1C
:101CD0004C4C4C4B4B4B4A4A4A4949494848484767
:101CE00047474746464645454544444444434343A5
:101CF0004342424242414141002B26D4770021D049
:101D00001CB54FEA370703B44FF010004FF0100135
:101D10004FF000000FBCBDE810400BF1010BBBF110
:101D2000010F08BF5FEA170722BF12F1010211F18C
:101D300001014FF0004143F1000300F0004043EA8D
:101D400000007047F9D35708DAE746EA064613F170
:101D5000400F4FEA16461FDD13F1200FDFBF164379
:101D60000A46002120335B42C8D0C3F1200746EA6F
:101D7000064602FA07F74FEA164646EA0706C3F197
:101D8000200722FA03F201FA07F721FA03F14FF0D4
:101D9000000342EA0702B1E746EA020646EA0646BF
:101DA0004FEA164646EA0106BCBF46EA0646360C2E
:101DB0004FF000034FF000024FF000019EE72DE9C5
:101DC000C048934630B491E8380007C831EA400C67
:101DD00048BF34EA430C03D5FFF7F2FDFFF78CFF51
:101DE000F0BCBDE800882DE9C048934630B491E8C6
:101DF000380007C810F0804F08BF13F0804F03D1A0
:101E000000F005F8FFF778FFF0BCBDE8008820F08F
:101E10007F4780EA030023F07F4C07EB0C03A3F518
:101E20007C5300F00040A3F1FE0392F0000F00F09D
:101E3000B38095F0000F00F077802DE901494FEA5B
:101E400011404FEA144621EA004800FB06FC24EA50
:101E5000064708FB06F607FB08F800FB07F718EB38
:101E600006484CEB164C4FEA124B18EB07484FEA6A
:101E700015464CEB174022EA0B4E0BFB06FC25EAFD
:101E800006470EFB06F607FB0EFE0BFB07F71EEBE5
:101E9000064E4CEB164C4FF000061EEB074E4CEB7B
:101EA000174B18EB0B0840F1000018EB0E0B58EB2A
:101EB000000840F100008F1A4FF000013CBFC943F9
:101EC000661B14BFB5EB040C00213CBFC943F61BD5
:101ED0004FEA17444EEA8E0E27EA04454FEA1C47A4
:101EE00004FB07622CEA074C05FB07F70CFB05F621
:101EF00004FB0CFC16EB074642EB174216EB0C46B4
:101F000042EB1C421BEB060658EB0202414146EA3B
:101F10009E0601D5BDE80189B619524141EB010188
:101F2000A3F10103BDE801894FEA14454FEA1147C7
:101F300024EA054621EA074C05FB07F406FB07F7F0
:101F40000CFB06F105FB0CFC11EB074144EB1744BD
:101F50004FEA124711EB0C4144EB1C4422EA074CB8
:101F600005FB07F206FB07F70CFB06F605FB0CFC6E
:101F700016EB074642EB174216EB0C4642EB1C45AC
:101F80006A1854F1000148BF7047B619524141EB3D
:101F90000101A3F10103704795F0000F37D04FEA1C
:101FA00011424FEA144721EA024624EA074C02FB99
:101FB00007F106FB07F70CFB06F402FB0CFC14EB25
:101FC000074441EB17414FEA154714EB0C4441EB32
:101FD0001C4125EA074C02FB07F506FB07F70CFB43
:101FE00006F602FB0CFC16EB074645EB174516EB15
:101FF0000C4645EB1C42121951F1000148BF7047D5
:10200000B619524141EB0101A3F1010370474FEAB8
:1020100014454FEA114724EA054621EA074C05FB1F
:1020200007F106FB07F70CFB06F24FF0000605FB75
:102030000CFC12EB074241EB174112EB0C4251EB47
:102040001C4148BF7047921841EB0101A3F1010305
:102050007047000008B518A0FEF70EFA1C4801688A
:1020600040681C4AD2E9003259405040014321D116
:102070001748083801684068174B0CCB514058404E
:10208000014317D1002001231A46990200901348FA
:1020900000680BF00FF8124908600846008800F449
:1020A000806038B10FA0FEF7E7F920210B480068E7
:1020B0000AF07AFF08BD0000BDD3CAD5B5BD4143C3
:1020C0004BD0CD4D4143D6A1C1CB0D0A000000003D
:1020D000CD02002018000020200000202C0000204D
:1020E00030000020BDD3CAD5B5BDC1CBD5FDC8B722
:1020F000B5C441434B0D0A0010B500240F480068D9
:1021000000B110BD0BF04AFE012800D1F9E7012013
:102110000BF06CF9044604B9F3E709F0DFFD07485A
:10212000006810B905480460002409F01BFE14B1D2
:1021300020460AF00FF800BFE3E70000700100201E
:1021400000F058FA04E003480AF080F800F052FA70
:10215000F9E70000A0BB0D002DE9F04F2DED108B2D
:1021600093B00646002012908046B7EE000AF0EECB
:10217000408A9FEDCD0AB0EE409AB7EE000AB0EE6D
:1021800040FAB7EE000AF0EE40FA9FEDC70AF0EE13
:10219000409A9FEDC60A8DED110A9FEDC50A8DED9F
:1021A000100AB7EE000A8DED0F0AB7EE000A8DEDAA
:1021B0000E0A9FEDBD0A8DED0D0AB7EE000A8DEDFA
:1021C0000C0ABC4DBC4C9FEDB80A8DED0B0A9FED7F
:1021D000B60A8DED0A0A2F4608EE100A81460990CC
:1021E00000F086FA12A9402001F02BFC804600F096
:1021F0008FFAB8F1000F02D042F6E06012904FF46F
:102200007A7008EE100AB8EE480ADFEDAC0A20EE4C
:10221000200ABCEEC00A10EE100A42F6F82100EBCC
:102220000109B8EE480ADFEDA60A20EE200ABCEE4E
:10223000C00A10EE100A08440990129909988142C8
:1022400008D8A048C0F88840204613B0BDEC108BD9
:10225000BDE8F08F129848450FD89FED9B0A8DED91
:10226000110A9FED970A8DED100AB7EE080A8DED61
:102270000F0AB7EE000A8DED0E0A9DED120AB8EEB8
:10228000C00ADFED920A30EE600ADFED910A80EEBF
:10229000201AF0EE418AB7EE001ADFED8E0AB0EE9A
:1022A000680A04F04AFBF0EE408A04F05BFBDFEDC5
:1022B0008A0A80EE201AB0EE419AB7EE001ADFEDDE
:1022C0007A0AB0EE490A04F038FBB0EE409AFF2ECD
:1022D00001D0042E00DD042600EE106AF8EE400A5C
:1022E0009FED7E1AB7EE000A01EE200AB0EE40FA2A
:1022F0007448B0F8800000281BDD7248B0F88400F4
:1023000000EE100AF8EE400A6E48B0F8800000EEC9
:10231000100AB8EE400A80EE801AF0EE419AB7EE4D
:10232000001ADFED610AB0EE690A04F006FBF0EE78
:10233000409ADFED630AB7EE000A00EEA90AF0EE5C
:1023400040FADDED0F0AF1EE600A60EEA80AB0EE89
:10235000600A03F0CFFADDED110A20EE20AADDEDD0
:102360000E0AF1EE600A60EE890AB0EE600A03F030
:10237000C1FADDED100A00EE80AA8DED0DAA2FEE58
:102380002F0A8DED0C0A00EE104AF8EE400A9DED82
:102390000D0A60EE800A00EE105AB8EE401A9DED6C
:1023A0000C0A41EE000ACDED0B0A464890ED220AD8
:1023B000B8EE400ADFED410A60EE200A9DED0B0AFF
:1023C0009FED461A41EE000ACDED0A0A9DED0A0A7C
:1023D000BCEEC00A10EE107A22462946384604F0B8
:1023E000A1FA07463748D0F8880028B3354890ED61
:1023F000220AB8EE400AF6EE000A20EE200ABCEEF1
:10240000C00A10EE10AA90ED220AB8EE400AF7EECC
:10241000080A20EE200ABCEEC00A10EE10BAAA4547
:1024200000D2AA46A34500D9A3465A46514638468B
:1024300004F078FA074600BF22462946384604F0E1
:1024400071FA07461F48C0F8887019EE900A0CF020
:10245000CFFE41EC1A0B1FEE900A0CF0C9FE41ECC6
:102460001B0B1FEE100A0CF0C3FE41EC1C0B19EE07
:10247000100A0CF0BDFE41EC1D0B18EE900A0CF09A
:10248000B7FE41EC1E0B08978DED06AB8DED04BB3E
:102490008DED02CB8DED00DB53EC1E2B10A01299BD
:1024A000FDF7EAFF3846D0E6000000009A99193F90
:1024B000CDCCCC3E40771B0080CBA4003333333FE0
:1024C000CDCC4C3E70010020CDCC4C3F00E02B46E3
:1024D00000007A44CDCC4C3D0000E1449A99993EED
:1024E00041444150543A20563D256C646D56204578
:1024F0003D252E336620533D252E336620483D254D
:102500002E336620433D252E336620636F6C3D25B8
:102510002E336620543D256C756D730D0A00000046
:102520009FED090A094880ED010A00200749088348
:102530004883A1F88000A1F88200A1F88400044833
:10254000C1F8880070470000000000007001002002
:1025500040771B0010B50021254AB2F88020642A7C
:1025600018DA08B1012300E00023214AB2F88240C2
:102570001C32135530B91C3AB2F88420521C1C4B43
:10258000A3F884201A4AB2F88020521C184BA3F8F2
:1025900080201DE0164AB2F882301C32D15C31B97D
:1025A0001C3AB2F88420521E114BA3F8842008B1C3
:1025B000012300E000230E4AB2F882401C3213557A
:1025C00030B91C3AB2F88420521C094BA3F884207D
:1025D000074AB2F88220521C054BA3F882201A4603
:1025E000B2F88220642A02DB0022A3F8822010BD08
:1025F0007001002030B52DED048B83B0B3EE090AD5
:102600008DED020A9FED380A8DED010A00250024A8
:102610009FED350AB0EE409A9FED330AB0EE408A46
:10262000B7EE000AF0EE408A00F062F808F014FFFE
:10263000322005F0A5FE08F01FFF01AA02A9012023
:1026400002F0EEF908B9012000E00020054600F094
:102650003DFA044608F0EEFE00F05AF84FF6FF701F
:10266000844207D19FED200A04F092F903B0BDEC3B
:10267000048B30BD00EE104AB8EE400AF7EE000AB7
:1026800020EE200AB0EE409A75B19DED020AF3EEFD
:10269000090A70EE600A9FED151AB7EE000A00EE07
:1026A000C10AF0EE408A03E0B7EE000AF0EE408A7D
:1026B000F5EEC08AF1EE10FA03D29FED0B0AF0EEB0
:1026C000408A29EE280AB0EE408AB5EEC08AF1EEC3
:1026D00010FA03D29FED040AB0EE408AB0EE480A29
:1026E00004F056F900BFC1E7000000006F12833B01
:1026F00010B5FFF701FD0548006828B103490868D7
:102700004FF0FF310BF07EF910BD0000700100208A
:1027100010B50548006830B1034900231A4608681F
:1027200019460AF02BFF10BD700100200A46C3684D
:102730000BB9C2607047C16800E009690B69002BE2
:10274000FBD10A6100BFF5E710B500240CE0601C66
:10275000C4B20A2C05D1002406A0FDF78DFE00208E
:1027600010BD322005F00CFE05F02CFA0028EED04A
:102770000120F5E7CEB4BCECB2E2B5BD626D7032BB
:1027800038300D0A0000000010B5044604A0FDF723
:1027900073FE4021074800680AF006FC10BD0000E7
:1027A000426561636F6EB7A2CBCDCAB1BCE4B5BD63
:1027B0000D0A00003C00002000BFFEE738B53CA039
:1027C000FDF75AFE404801684068404B0CCB514031
:1027D0005840014347D00020012302464FF40C61CA
:1027E00000903B4800680AF065FC3A4908600846DA
:1027F000007800F04000002831D00846007800F052
:10280000800000282BD034A0FDF736FE4FF4006185
:102810002F4800680AF080FB0BF0D0FA0446002035
:102820000346224601210090344800680BF06AFEFE
:1028300033A0FDF721FE2748008800F4006000283F
:1028400034D10BF0BBFA04464FF0FF300023224690
:1028500002210090294800680BF054FE26E02BA0CE
:10286000FDF70AFE22E01848083801684068294A46
:10287000D2E9003259405040014317D100200123D2
:102880001A4659020090124800680AF013FC1149D8
:1028900008600846008800F4007038B11EA0FDF7FB
:1028A000EBFD01210A4800680AF07EFB38BD0000FC
:1028B000BDD3CAD5B5BD435453D0CD4D4143D6A1A8
:1028C000C1CB0D0A00000000CD020020180000203E
:1028D0002C00002030000020BDD3CAD5B5BDC1CB2F
:1028E000B1F0B5C4BDDAB5E3B5C44354532CC7BF8A
:1028F000D6C6D0DDC3DF0D0A00000000C0000020F6
:10290000BFAAC6F4B6A8CAB10D0A0000B6AAC6FA94
:102910000D0A000020000020BDD3CAD5B5BDC1CB33
:10292000D5FDC8B7B5C44354530D0A00F0B50746EA
:102930000C4615462946384600F044FCE06808B9C4
:10294000E560F0BDE66800E0366930690028FBD13B
:10295000356100BFF5E710B5ADF5407D00240120DD
:102960008DF8FC010020ADF8FE015A208DF8000220
:102970009DF8FC018DF8F800BDF8FE01ADF8FA00F5
:102980000620F42283A93D906846FDF7CBFF7FA87F
:102990000FC806F07BFB0A2005F0F2FC16E01420BD
:1029A00005F0EEFC0620F42283A93D906846FDF771
:1029B000B9FF7FA80FC806F069FB601CC4B2142CD5
:1029C00004DD002400200DF5407D10BD06213EA849
:1029D00006F0E6FA0028E2D10120F4E710B5094834
:1029E000FDF73EFD002404E0002006490855601C68
:1029F00084B2054800888442F6DB00200249088042
:102A000010BD00006C0A00207A00002010B542F2D0
:102A1000CF01092002F0BCFB00200149086010BD75
:102A20001400002010B5ADF5407D002401208DF884
:102A3000FC010020ADF8FE0101208DF800029DF898
:102A4000FC018DF8F800BDF8FE01ADF8FA00032096
:102A5000F42283A93D906846FDF764FF7FA80FC864
:102A600006F014FB0A2005F08BFC1AE0142005F098
:102A700087FC0320F42283A93D906846FDF752FFAE
:102A80007FA80FC806F002FB601CC4B2142C08DD3E
:102A9000002408A0FDF7F0FC4FF6FF700DF5407D17
:102AA00010BD03213EA806F07BFA0028DED1BDF858
:102AB000FE00F3E770726563697069746174696F31
:102AC0006E206572726F72210D0A000010B5ADF5AF
:102AD000407D002404208DF8FC010020ADF8FE01AB
:102AE00001208DF800029DF8FC018DF8F800BDF87A
:102AF000FE01ADF8FA000320F42283A93D90684658
:102B0000FDF710FF7FA80FC806F0C0FA0A2005F0F5
:102B100037FC1AE0142005F033FC0320F42283A9CB
:102B20003D906846FDF7FEFE7FA80FC806F0AEFA9E
:102B3000601CC4B2142C08DD002408A0FDF79CFC26
:102B40004FF6FF700DF5407D10BD03213EA806F045
:102B500027FA0028DED1BDF8FE00F3E75261646970
:102B60006174696F6E206572726F72210D0A0000C8
:102B700030B5ADF5417D044600258DF800420020BA
:102B8000ADF8020202208DF804029DF800028DF8D3
:102B9000FC00BDF80202ADF8FE000320F42284A977
:102BA0003D906846FDF7BEFE80A80FC806F06EFA9D
:102BB0000A2005F0E5FB19E0142005F0E1FB0320F5
:102BC000F42284A93D906846FDF7ACFE80A80FC8AA
:102BD00006F05CFA681CC5B2142D07DD00250AA0BA
:102BE000FDF74AFC00200DF5417D30BD03213FA8D3
:102BF00006F0D6F90028DFD13FA80089BDF8021100
:102C000000EB0140EFE70000736F696C73656E7352
:102C10006F72206572726F72210D0A0010B5ADF5EA
:102C2000407D002403208DF8FC010020ADF8FE015A
:102C300001208DF800029DF8FC018DF8F800BDF828
:102C4000FE01ADF8FA000320F42283A93D90684606
:102C5000FDF768FE7FA80FC806F018FA0A2005F0F5
:102C60008FFB1AE0142005F08BFB0320F42283A9CC
:102C70003D906846FDF756FE7FA80FC806F006FA9D
:102C8000601CC4B2142C08DD002408A0FDF7F4FB7E
:102C90004FF6FF700DF5407D10BD03213EA806F0F4
:102CA0007FF90028DED1BDF8FE00F3E757696E64B6
:102CB00073446972656374696F6E206572726F72B6
:102CC000210D0A0010B5ADF5407D002402208DF8DD
:102CD000FC010020ADF8FE0101208DF800029DF8F6
:102CE000FC018DF8F800BDF8FE01ADF8FA000320F4
:102CF000F42283A93D906846FDF714FE7FA80FC813
:102D000006F0C4F90A2005F03BFB1AE0142005F098
:102D100037FB0320F42283A93D906846FDF702FEAD
:102D20007FA80FC806F0B2F9601CC4B2142C08DDED
:102D3000002408A0FDF7A0FB4FF6FF700DF5407DC5
:102D400010BD03213EA806F02BF90028DED1BDF806
:102D5000FE00F3E757696E64735370656564206520
:102D600072726F72210D0A0038B547A0FDF784FB1F
:102D700000200123024680210090494800680AF0A3
:102D800099F948490860484801684068474AD2E9CB
:102D900000325940504001433AD14248007800F097
:102DA0008000002834D14048083801684068404A13
:102DB000D2E9003259405040014329D13A480938FC
:102DC000407CD8B13BA0FDF757FB4FF4803134482D
:102DD00000680AF0E9F83448083804684368224675
:102DE000324903C903F085FD80212D4800680AF0AF
:102DF000DBF800212E4A1160516008E032A0FDF797
:102E00003BFB4FF48031264800680AF0CDF838BD0E
:102E100000200123024640210090214800680AF06A
:102E200049F9204908602048016840681F4B0CCBD5
:102E30005140584001431ED11B4808380168406882
:102E40001B4B0CCB51405840014314D1154800781E
:102E500000F0400078B94FF40041114800680AF0D2
:102E6000A3F820A0FDF708FB4FF480410C48006850
:102E70000AF09AF8CBE74FF40031094800680AF0ED
:102E800093F800BFC3E70000BDD3CAD5B5BDCAFDE6
:102E9000BEDDD0CD4D4143D6A1C1CB0D0A0000000F
:102EA0002C00002030000020CD020020180000205F
:102EB00020000020D0E8D2AAD7D4C9EDB7A2CBCD4C
:102EC00041434B0D0A000000D0E8D2AAD7D4C9ED87
:102ED000B7A2CBCDCAFDBEDDD0CD4D4143D6A10DAD
:102EE0000A000000B5B1C7B0CAC7B7A2CBCDB7BD05
:102EF000B2A2C7D2BDD3CAD5B5BDC1CBD5FDC8B767
:102F0000B5C4444154410D0A0000000021B10268DB
:102F100042F00102026003E0026822F00102026056
:102F200070470000016821F001010160002101608B
:102F300041608160C1600161212141614A4988424B
:102F400004D13D21484A103A91608CE0464918313D
:102F5000884205D14FF47461434A103A916082E08F
:102F600041493031884205D14FF474113E4A103A3C
:102F7000916078E03C494831884205D14FF0746156
:102F8000394A103A91606EE037496031884204D185
:102F90003649354A103AD16065E033497831884284
:102FA00004D13349304A103AD1605CE02E49903167
:102FB000884204D12F492C4A103AD16053E02A4963
:102FC000A831884205D14FF03D51274A103AD160CF
:102FD00049E02949884204D13D21274A083A116035
:102FE00041E025491831884205D14FF47461224AE5
:102FF000083A116037E020493031884205D14FF45A
:1030000074111D4A083A11602DE01B49483188426D
:1030100005D14FF07461184A083A116023E016494F
:103020006031884204D11149134A121F11601AE01D
:1030300011497831884204D10D490F4A121F11609D
:1030400011E00D499031884204D10A490A4A121F01
:10305000116008E00849A831884204D14FF03D5181
:10306000054A121F11607047106002403D000020A9
:10307000400F002000003D20106402400146002067
:103080000A6802F001020AB1012000E00020704746
:1030900010B500220268134B1A40CC680B6823431A
:1030A0004C6923438C692343CC6923430C6A234333
:1030B0004C6A23438C6A23434C6B23438C6B23431E
:1030C0001A430260426922F00702D1E90B3423431C
:1030D0001A4342610B6943604B6883608B68C3602D
:1030E00010BD00003F801CF0416070477047F8B58C
:1030F00006460C4606B104B9F8BD002000906A46A9
:103100002146304600F0DFF9009800B9F4E7009856
:10311000C068A04206D120690099C860204605F029
:10312000BBFAE9E70098C56800E02D6915B1286988
:10313000A042FAD125B120692861204605F0ACFAF9
:1031400000BFD9E72DE9FC4180460D4600200190E3
:103150002946404601F0C6FD002419E001A8009070
:10316000104850F82400D0E900633246284600F0A9
:10317000C8F9019850B10198D0E9006332460AA01D
:10318000FDF77AF928460199FFF7B1FF601CC4B238
:103190000B4800788442E1DB002009490870BDE853
:1031A000FC810000880800206E6F646520256C6C2F
:1031B000782069732064656C657465640D0A00008D
:1031C0004800002078B506460C460020009006B165
:1031D00004B978BD6A462146304600F074F900987B
:1031E00000B9F6E70098C068A04205D120690099AF
:1031F000C86000202061ECE70098C56800E02D69F8
:1032000015B12869A042FAD11DB1206928610020BA
:10321000206100BFDDE7000010B54FF48071024867
:1032200000F002FA10BD0000001402401CB501219C
:10323000202000F033FE4FF48070009001208DF8C4
:10324000040000208DF806008DF805008DF80700B9
:103250006946044800F079F94FF48071014800F0A4
:10326000DFF91CBD0014024010B506A0FDF704F9FB
:10327000142005F0C9F806480068012000F00AF89B
:1032800010BD0000BDF8C8EBD6D0B6CF200D0A00A7
:10329000000240420149086070470000143C0140B0
:1032A000002123498279002A3AD00A46126803682D
:1032B0009A430B461A600A1D126803689A430B1D55
:1032C0001A60027911440A6803681A430A60184AAE
:1032D0000832126803689A43154B08331A601A1DA6
:1032E000126803689A43124B0C331A604279102A11
:1032F0000ED11A1F126803681A430D4B08331A6067
:103300001A1D126803681A43094B0C331A600DE04A
:103310000749427911440A6803681A430A6005E0C4
:10332000027911440A6803689A430A6070470000F2
:10333000003C014001490860704700000C3C02401D
:1033400070B504460A460026092502B909E0012A9B
:1033500001D1160205E0022A01D1160201E04FF464
:10336000407600F09FF80546092D28D115480068E1
:1033700020F4407013490860084600683043086034
:103380000846006820F0F80008600846006844F02D
:10339000020108430B4908600846006840F4803089
:1033A000086000F07FF805460648006820F002003B
:1033B000044908600846006820F0F80008602846C4
:1033C00070BD0000103C024009201349096801F457
:1033D0008031B1F5803F01D101201CE00E49096820
:1033E00001F0100109B1062015E00B49096801F44C
:1033F000807109B102200EE00749096801F0EF0170
:1034000009B1072007E00449096801F0020109B188
:10341000082000E0092070470C3C02400348006887
:1034200040F000400149086070470000103C024035
:1034300030B502460C46092500F034F80546092D42
:1034400019D10E48006820F440700C490860084605
:10345000006840F4807008600846006840F0010091
:103460000860148000F01EF805460448006820F04B
:10347000010002490860284630BD0000103C0240AF
:103480000548006800F0004028B1044802490C39A2
:103490000860034808607047103C024023016745FC
:1034A000AB89EFCD08B509200090FFF78DFF0090A4
:1034B00002E0FFF789FF00909DF800000128F8D096
:1034C0009DF8000008BDF0B504460F4616460020E2
:1034D000306014B10FB1A74200D1F0BDE5680CE037
:1034E000BD4201D13460F8E7324639462846FFF73D
:1034F000EAFF306800B1F0E72D69002DF0D100BF80
:10350000EBE72DE9F841044617469846079D002051
:1035100028600CB9BDE8F881D4E90001784081EA5F
:103520000801084301D12C60F4E7E66809E03A4657
:10353000434630460095FFF7E4FF286800B1E9E70D
:103540003669002EF3D100BFE4E7F0B50A4600214A
:103550000023002400BF3DE0012505FA01F31568B2
:1035600005EA03049C4234D105684F000326BE409F
:10357000B543056015794E00B540066835430560D2
:103580001579012D02D01579022D16D185684F00CD
:103590000326BE40B543856055794E00B540866828
:1035A00035438560456801268E40B54345604568D2
:1035B00096798E40B6B235434560C5684F00032604
:1035C000BE40B543C560D5794E00B540C6683543A9
:1035D000C560491C1029BFD3F0BDF0B500230024FD
:1035E0004D07ED0E02FA05F3CE1000F1200555F857
:1035F00026504E07F70E0F26BE40B543CF1000F100
:10360000200646F82750CE1000F1200555F8265028
:1036100045EA0304CE1000F1200545F82640F0BD30
:10362000418370470183704742694A404261704755
:1036300000BFFEE710B500200F4908600F48006882
:1036400020F440200D4908600846006840F48020BE
:10365000086000200A49C1F8A402022004F0B0FE6C
:10366000012005490860022004F0AAFE0120054956
:10367000C1F8A00210BD0000A002404200080240B4
:1036800000004142000040421CB50121052000F02D
:1036900005FC4FF40070009001208DF804008DF8B7
:1036A000060003208DF8050001208DF8070069460B
:1036B0000848FFF74AFF4FF48070009069460648BB
:1036C000FFF743FF0120054908600549C1F8A4023E
:1036D0001CBD00000008024000000240A002404261
:1036E0000000414210B500200F4908600F480068F3
:1036F00020F440200D4908600846006840F480200E
:10370000086001200A49C1F8A402022004F058FE12
:10371000012005490860022004F052FE01200549FD
:10372000C1F8A00210BD0000A00240420008024003
:1037300000004142000040422DE9F04106460C469F
:103740001546002704E0304600F00AF804F8010BA3
:103750002800A5F10101CDB2F5D13846BDE8F081D0
:1037600070B5054600241548006820F44020134930
:103770000860084600680860002615E0002010492F
:103780000860042004F01CFE01200E49C1F8A002CC
:103790006006040E0C48006808B1601CC4B2012029
:1037A00004F00EFE701CC6B2082EE7DB15B9FFF759
:1037B00099FF01E0FFF73EFF204670BD0008024080
:1037C000A002404200004042240241422DE9F04163
:1037D0000546884616461F46002400F085F800215D
:1037E00041EA4501C8B200F04BF800F0C9F8404684
:1037F00000F046F800F0C4F800F076F8012101EB83
:103800004501C8B200F03CF800F0BAF800BF0CE087
:10381000701EA04204D10020FFF7A2FF385503E03C
:103820000120FFF79DFF3855641CB442F0DB00F027
:1038300081F8BDE8F08170B504460D4600F054F8FB
:10384000002141EA4401C8B200F01AF800F098F8EB
:10385000284600F015F800F093F800F045F8012133
:1038600001EB4401C8B200F00BF800F089F8002029
:10387000FFF776FF064600F05DF8304670BD0000A9
:1038800070B504461448006820F4402012490860CE
:103890000846006840F48020086000200F49086056
:1038A000002516E0E0090E4908606006040E0220BB
:1038B00004F086FD01200B49C1F8A002022004F0AB
:1038C0007FFD002005490860022004F079FD681C96
:1038D000C5B2082DE6DB70BD00080240A0024042E0
:1038E000A40241420000404210B50F48006820F495
:1038F00040200D4908600846006840F480200860B8
:1039000001200A4908600A49C1F8A002042004F015
:1039100057FD002005490860042004F051FD0020F7
:103920000349C1F8A00210BD00080240A4024142B0
:103930000000404210B50F48006820F440200D49B7
:1039400008600846006840F48020086000200A49AA
:1039500008600A49C1F8A402042004F031FD0120E6
:10396000054908600549C1F8A402022004F028FDB9
:1039700010BD000000080240A00240420000414289
:1039800010B500241248006820F440201049086057
:1039900008460068086001200E49086004F010FD28
:1039A00001200D49C1F8A00204F00AFD07E0601CE7
:1039B000C4B2FA2C03DDFFF7BDFF012010BD05489E
:1039C000803800680028F2D10449086000BFF5E79C
:1039D00000080240A402414200004042A0024042CE
:1039E00070B504460D461646FFF77EFF002141EAFA
:1039F0004401C8B2FFF744FFFFF7C2FF18B1FFF759
:103A000099FF012070BD2846FFF73AFFFFF7B8FF86
:103A10003046FFF735FFFFF7B3FF18B1FFF78AFF16
:103A20000120EFE7FFF786FF0020EBE710B5044623
:103A3000FFF72AFE44F227120021204600F065F825
:103A400010BD2DE9F84380460C460020009000256B
:103A500014B90A20BDE8F8836A460221404600F006
:103A600012F805460DB12846F4E7BDF8000005211F
:103A7000A0FB01600146042200233046FCF7CBFC8A
:103A800020600020E6E72DE9F04104460E46154689
:103A90000027B84615B90A20BDE8F081FFF724FFDA
:103AA000002141EA4401C8B2FFF7EAFEFFF768FFD0
:103AB00018B1FFF73FFF0120EEE73046FFF7E0FEC9
:103AC000FFF75EFF18B1FFF735FF0220E4E7FFF7CD
:103AD0000BFF012101EB4401C8B2FFF7D1FEFFF754
:103AE0004FFF18B1FFF726FF0320D5E70120FFF7AE
:103AF00037FE07460020FFF733FE8046FFF71AFF28
:103B000048EA072028800020C6E770B505460E4623
:103B10001446FFF7E9FE002141EA4501C8B2FFF76C
:103B2000AFFEFFF72DFF18B1FFF704FF012070BDB6
:103B30003046FFF7A5FEFFF723FF18B1FFF7FAFEA7
:103B40000220F4E72012FFF79BFEFFF719FF18B1E0
:103B5000FFF7F0FE0320EAE7E0B2FFF791FEFFF780
:103B60000FFF18B1FFF7E6FE0420E0E7FFF7E2FEE3
:103B70000020DCE74CF6CC400149086070470000AB
:103B80000030004010B500F013F810BD70B50546C8
:103B90000C4645F2555000F01FF8284600F010F88A
:103BA000204600F013F800F003F8FFF7E3FF70BDC4
:103BB0004AF6AA2001490860704700000030004022
:103BC00001494860704700000030004001498860AA
:103BD0007047000000300040014908607047000055
:103BE000003000401CB50121112000F057F91020D1
:103BF000009000208DF8040003208DF805000120BE
:103C00008DF8070069460648FFF79FFC01200090E9
:103C100002208DF8070069460248FFF796FC1CBD9C
:103C200000100240000002401CB50121202000F0DD
:103C300035F901208DF8040002208DF805000020E0
:103C40008DF806004FF4C060009069460648FFF703
:103C50007CFC4FF400710448FFF7E4FC4FF48061F2
:103C60000148FFF7DFFC1CBD001402401CB5012118
:103C7000022000F013F94020009001208DF804008C
:103C800000208DF8060003208DF8050001208DF836
:103C9000070069460348FFF758FC40210148FFF739
:103CA000C1FC1CBD0004024000BFFEE73EB500247D
:103CB00000250121080700F011F9012000F090F81B
:103CC000012000F0BFF9142004F05AFB0BE0601C47
:103CD000C4B20A2004F054FB012000F0B3F9642CB4
:103CE00001D101203EBD412000F08CF90028EED02A
:103CF0004FF4807000F0C2F9012000F0B9F900F033
:103D0000BBFC002000F02EFB85B249F22850854212
:103D10001AD07F20019000200090FF20029068467A
:103D200000F0EEFA0023322226210F2000F016FCCC
:103D300004230B220721182000F0FEFB49F2285132
:103D4000002000F01DFD00BF0020CBE77047000001
:103D500070B5002100230F22C4781CB3174C2468CF
:103D600004F4E064C4F5E064C4F30721C1F1040481
:103D7000E3B20A4144789C40E1B284781440214384
:103D80000C07210E0E4C05786155047804F01F05D0
:103D90000124AC4005786D11AD0005F1E025C5F8B2
:103DA000004109E0047804F01F050124AC40054DF2
:103DB0000678761145F8264070BD00000CED00E055
:103DC00000E400E080E100E002490143024A1160A2
:103DD000704700000000FA050CED00E070477047E6
:103DE000014908627047000000000E421CB5012125
:103DF000082000F053F80121202000F04FF80121A5
:103E0000402000F04BF84020009001208DF8040085
:103E100000208DF8060003208DF8050001208DF8A4
:103E2000070069461A48FFF790FB10200090012018
:103E30008DF8040000208DF8060003208DF80500A1
:103E400002208DF8070069461248FFF77EFB4FF409
:103E50008070009001208DF8040000208DF806008D
:103E600003208DF8050002208DF8070069460A48F6
:103E7000FFF76BFB40210648FFF7D4FB4FF480713E
:103E80000548FFF7CFFB10210248FFF7CBFB1CBD15
:103E9000000C0240001402400018024029B1064AFA
:103EA00012680243044B1A6004E0034A126882431A
:103EB000014B1A60704700003038024029B1064AB1
:103EC00012680243044B1A6004E0034A12688243FA
:103ED000014B1A60704700003438024029B1064A8D
:103EE00012680243044B1A6004E0034A12688243DA
:103EF000014B1A60704700004038024029B1064A61
:103F000012680243044B1A6004E0034A12688243B9
:103F1000014B1A607047000044380240F0B50021A0
:103F200000220024022500260223324F3F6807F0BA
:103F30000C0121B1042905D0082937D105E02E4F05
:103F4000076036E02D4F076033E02A4F3F1F3F6880
:103F5000C7F38056274F3F1F3F6807F03F036EB1FE
:103F6000264FB7FBF3F7DFF88CC0ACF1040CDCF89C
:103F700000C0CCF3881C07FB0CF40CE01E4FB7FB11
:103F8000F3F7DFF870C0ACF1040CDCF800C0CCF340
:103F9000881C07FB0CF4174F3F1F3F68C7F301470E
:103FA0007F1C7D00B4FBF5F7076002E0124F07604D
:103FB00000BF00BF0F4F3F6807F0F0010909104F25
:103FC0007A5C0768D74047600A4F3F6807F4E051C2
:103FD000890A0B4F7A5C4768D7408760054F3F6876
:103FE00007F46041490B064F7A5C4768D740C760C9
:103FF000F0BD0000083802400024F40000127A00EE
:10400000D000002010B501460022002300204A11F4
:10401000012A02D10A4C236808E0022A03D1084C85
:104020007034236802E0064C7434236801F01F02E8
:10403000012494401C400CB1012000E0002010BD80
:10404000003802400021094A11701170012802D085
:10405000042808D103E00121044A117004E005217D
:10406000024A117000E000BF00BF70477038024084
:1040700001490860704700003C0E4742002100F4EF
:104080004072B2F5407F08D1094A116821F4F81155
:10409000084A02401143064A1160054A6832126814
:1040A000C0F30B031A43024B68331A6070470000D9
:1040B00008380240FFFCFF0F30B10749096841F0A2
:1040C0000401054A116005E00349096821F0040173
:1040D000014A1160704700000008065001460020A8
:1040E000034A12680A400AB1012000E0002070472C
:1040F0000408065001480068704700000808065090
:1041000070B504460D4600F008F8291B491CB0FBA9
:10411000F1F201FB1200204470BD10B500BF012078
:10412000FFF7DCFF0028FAD0FFF7E4FF10BD10B561
:10413000A82004F003F901214020FFF7BFFE012071
:10414000FFF7BAFF0AE0601C84B2642004F038F97B
:1041500042F21070844201DB012010BD0120FFF704
:10416000BDFF0028EFD00020F7E7000010B54FF4A6
:10417000807000F07FF8012805D1000200F02AF8D5
:1041800003A0FCF779F94FF40030FFF783F810BD76
:1041900068656C6C6F776F726C64210D0A000000AB
:1041A000014600BF080900EB8000420001F00F004B
:1041B0001044C0B270470146002204E0501CC2B255
:1041C000A1F10A00C1B20A29F8DA100741EA106029
:1041D0007047000081B241F08001044A126802F089
:1041E000800262EA0101014A116070470C28004018
:1041F000002101098AB242F08002044B1B6803F0DF
:10420000800363EA0202014B1A6070470C280040E9
:1042100008B50022009200200021104A126802F026
:104220004002CAB9421E0D4B1A6000BF0B4A126809
:1042300002F04001009A521C0092009AB2F5803FB1
:1042400001D00029F2D0054A126802F040020AB1FA
:10425000012002E0002000E0012008BD0C28004001
:104260000348006820F080000149086070470000A2
:104270000C28004010B5014600200022054B1B68A9
:10428000054C03EA040202EA01030BB1012000E03D
:10429000002010BD0C2800407F3F0100CA22174BB0
:1042A0001A6053221A6091B1144A1C3A126820F025
:1042B00004031A43114B1C3B1A60104A1C3212684B
:1042C00000F004031A430D4B1C331A6011E00B4A33
:1042D0001C3A126820F004039A43084B1C3B1A60F6
:1042E000064A1C32126800F004039A43034B1C3345
:1042F0001A60FF22014B1A6070470000242800401A
:1043000030B504460025CA201549086053200860CE
:10431000FFF77EFF00B91DE011481C38006820F04F
:1043200040000F491C3908600846006821680843AE
:104330000B491C3908600A491439A068086008460E
:104340000068A18840EA0140054914390860FFF778
:1043500087FF0125FF2002490860284630BD000084
:104360002428004008B50146002000900448009031
:10437000009800EB810000900098006808BD0000E4
:10438000502800402DE9F04105460C460026002744
:104390004DB9607800F01000102804D1607820F04A
:1043A00010000A30607005B908E06078FFF7F8FE89
:1043B0000646A078FFF7F4FE064600BF55B1E07848
:1043C0000004617840EA0120A1780843217840EA9E
:1043D000413611E0E078FFF7EEFE4FEA00486078E2
:1043E000FFF7E9FE48EA0028A078FFF7E4FE48EA74
:1043F0000008207848EA4036CA2012490860532055
:104400000860FFF705FF08B9002714E00E483040A8
:104410000C4920390860FFF723FF0A481C38006860
:1044200000F0200030B900F027F908B9002702E0B9
:10443000012700E00127FF20024908603846BDE857
:10444000F0810000242800403FFFFF002DE9F041EB
:1044500005460C46002600274DB92E48006800F09E
:10446000400000B102E00020E07000BF0DE02948EC
:10447000006800F0400020B12078FFF791FE06466A
:1044800002E00020E07000BF00BF55B120780004BA
:10449000617840EA0120A1780843E17840EA0146CA
:1044A00011E02078FFF787FE4FEA00486078FFF7B9
:1044B00082FE48EA0028A078FFF77DFE48EA00085F
:1044C000E07848EA0046CA2012491C3108605320AF
:1044D0000860FFF79DFE08B9002713E00E48304042
:1044E0000C4908390860FFF7BBFE0A48006800F075
:1044F000200030B900F0C0F808B9002702E0012719
:1045000000E00127FF2003491C3108603846BDE860
:10451000F0810000082800407F7F7F00CA21054A03
:10452000116053211160034910390860FF211160A7
:104530007047000024280040F8B504460D46174691
:104540001E468DF802708DF801508DF800608DF8D0
:10455000034069460020FFF715FFF8BDF8B5044693
:104560000D4616461F468DF803708DF800408DF8F5
:1045700001508DF8026069460020FFF767FFF8BD23
:104580003EB505460C46002000F0BEF8284600F077
:10459000A3F82046FFF7C2FF4FF48040FFF728FE44
:1045A0004FF48000FEF776FE01218803FFF776FEC8
:1045B000012000F0A9F84FF48000019001208DF84F
:1045C0000A0000208DF8080008208DF8090001A8D5
:1045D000FEF766FE03208DF8000001208DF8030031
:1045E00002208DF801008DF802006846FFF7B0FB4D
:1045F0003EBD000010B54FF48060FFF73BFE012880
:1046000027D18002FFF7E6FD1448016814A0FBF7EC
:1046100033FF12480068401C1049086008460068D3
:10462000022816D300200860012080F3138800BF01
:1046300000BFBFF34F8F0E48006800F4E0600D49E3
:104640000843001D0A490860BFF34F8F00BF00BF39
:10465000FEE74FF48000FEF71DFE10BD7000002045
:1046600077616B6520757020256421210D0A00009B
:104670000CED00E00000FA0508B5002200920020D1
:104680000021CA22134B1A6053221A60114A183AA9
:10469000126822F0A0020F4B183B1A6000BF0D4AAF
:1046A000183A126802F02001009A521C0092009AF7
:1046B000B2F5003F01D00029F1D0064A183A12683D
:1046C00002F020020AB1012000E00020FF22014B8D
:1046D0001A6008BD24280040CA210A4A11605321EB
:1046E000116008491C39096821F00701054A1C3A84
:1046F00011601146096801431160FF21014A1160F0
:10470000704700002428004018B50146002300939C
:1047100000220020CA23194C23605323236049B18F
:10472000164B1C3B1B6843F48063144C1C3C2360F9
:1047300001201FE0114B1C3B1B6823F480630F4CCE
:104740001C3C236000BF0D4B183B1B6803F00402A8
:10475000009B5B1C0093009BB3F5803F01D0002AB7
:10476000F1D0064B183B1B6803F004030BB9002083
:1047700000E00120FF23014C236018BD24280040E5
:1047800008B500220092044A0092009A02EB8002CF
:104790000092009A116008BD5028004038B559A019
:1047A000FBF76AFE5D48016840685D4AD2E9003265
:1047B00059405040014346D00020012302464FF4A7
:1047C0000C6100905748006808F074FC5649086076
:1047D0000846007800F04000002830D008460078F5
:1047E00000F0800058B351A0FBF746FE4FF4006183
:1047F0004C48006808F090FB09F0E0FA04460020FD
:1048000003462246012100904E48006809F07AFED6
:104810004DA0FBF731FE4448008800F400600028FA
:104820006ED109F0CBFA04464FF0FF300023224648
:10483000022100904348006809F064FE60E045A052
:10484000FBF71AFE5CE00020012302464FF40C61E6
:1048500000903448006808F02DFC33490860084691
:10486000007800F0400070B30846007800F0800047
:1048700048B30846008800F4006020B337A0FBF777
:10488000FBFD80212748006808F046FB23480838D4
:1048900001684068374AC2E9001009F08FFA0446FF
:1048A000002003462246012100903348006809F0A9
:1048B00029FE1A4908390C684B682246184903C971
:1048C00003F0E7F91CE0FFE71748007800F08000EC
:1048D000B0B912480838036842682648D0E9001089
:1048E0005940504001430BD124A0FBF7C5FD0B48B4
:1048F0000838046843682246094903C903F0C9F926
:1049000038BD0000BDD3CAD5B5BD525453D0CD4D2E
:104910004143D6A1C1CB0D0A00000000CD0200200A
:10492000180000202C00002030000020BDD3CAD584
:10493000B5BDC1CBB1F0B5C4BDDAB5E3B5C4525411
:10494000530D0A00C0000020BFAAC6F4B6A8CAB121
:104950000D0A0000B6AAC6FA0D0A0000BDD3CAD5DA
:10496000B5BDC1CB525453A3ACB7A2CBCD43545326
:104970000D0A000020000020C4000020D6D8D0C2BC
:10498000B7A2CBCD4354530D0A00000030B5054605
:1049900005B930BDEC6805E02046FFF7F7FF0020C1
:1049A00020722469002CF7D100BFF2E710B504464D
:1049B00006A0FBF761FD80210A48006808F0F4FAC0
:1049C0000021094A1160516010BD0000D6D8D6C33D
:1049D000BDD3CAD5D7B4CCACCAB1BCE4B5BD0D0A01
:1049E000000000002C0000202000002010B504462C
:1049F00004B910BD0020606106F084FAC4E900012A
:104A00000021A160E160FF2020740020207684F85E
:104A100060000120A074FF20607400BFE9E700007F
:104A20002DE9F0412DED068B82B007460D46164666
:104A3000002000900190FF24A046FEF755FF88203B
:104A4000FEF71EFF022003F0BBFCFEF799FF38B112
:104A5000FEF770FF012002B0BDEC068BBDE8F081CF
:104A6000FD20FEF70DFF022003F0AAFCFEF788FFF1
:104A700018B1FEF75FFF0120EDE7FEF75BFF1420A2
:104A800003F07EFCFEF730FF8920FEF7F9FE0220DE
:104A900003F096FCFEF774FF18B1FEF74BFF012000
:104AA000D9E7062269463846FEF746FEFEF742FF82
:104AB0009DF801009DF8001040EA01202649086099
:104AC0000968AF2201FB02F00AF04CF89FED230BBE
:104AD00053EC102B09F0A8FE9FED220B53EC102B8A
:104AE00009F0E6FD09F0B2FD28609DF804009DF88C
:104AF000031040EA012018494860496801EB41026F
:104B0000C2EBC1100AF02EF89FED140B53EC102BE2
:104B100009F08AFE9FED150B53EC102B09F0C8FD30
:104B200009F094FD30600221684603F083F80446E2
:104B30009DF80200A04201D001208CE702210DF176
:104B4000030003F077F880469DF80500404501D04A
:104B5000012080E700207EE75C00002000000000CC
:104B6000E0FFEF4000000000008046C000000000B1
:104B7000000018C02DE9FC4104460020009001907F
:104B80000025FF26FF27FEF7AFFE8820FEF778FE00
:104B9000022003F015FCFEF7F3FE20B1FEF7CAFE7B
:104BA0000120BDE8FC81FD20FEF76AFE022003F033
:104BB00007FCFEF7E5FE18B1FEF7BCFE0120F0E7AA
:104BC000FEF7B8FE142003F0DBFBFEF78DFE892014
:104BD000FEF756FE022003F0F3FBFEF7D1FE18B1FC
:104BE000FEF7A8FE0120DCE7062269462046FEF714
:104BF000A3FDFEF79FFE9DF804009DF8031040EA18
:104C000001209DF8011001EB00409DF8001040EAE2
:104C100001250221684603F00DF806469DF80200C2
:104C2000B04201D00120BCE702210DF1030003F0E6
:104C300001F807469DF80500B84201D00120B0E711
:104C40002846AEE701461C48814201D20020704749
:104C50001A48814201D20820F9E71948814201D25D
:104C60001020F4E71748814201D21820EFE71648D8
:104C7000814201D22020EAE71448814201D2282053
:104C8000E5E71348814201D23020E0E71148814234
:104C900001D23820DBE71048814201D24020D6E71C
:104CA0000E48814201D24820D1E70D48814201D20D
:104CB0005020CCE75820CAE70040000800800008D8
:104CC00000C00008000001080000020800000408FD
:104CD000000006080000080800000A0800000C0890
:104CE00000000E082DE9F041054688460DB9BDE8E3
:104CF000F081EC6818E041462046FFF7F3FF207A88
:104D000088B9D4E90063324609A0FBF7B5FB0D482A
:104D10000D49097840F821400B480078401C0A49A9
:104D20000870246900E02469002CE4D100BFDEE7AC
:104D30006E6F646520256C6C7820697320646561F2
:104D4000640D0A00880800204800002010B50446C1
:104D500004A0FBF791FB10210648006808F024F935
:104D600010BD0000B6A8CAB1C6F7CAB1BCE4B5BD53
:104D70000D0A00003C00002070B52DED088B82B0BC
:104D800000BFFDF7B5FC06F067FB322003F0F8FA30
:104D900006F072FB0120FFF7EDFE04465448448103
:104DA000210C81810146898901EB4102C2EBC110CE
:104DB00009F0C1FE9FED4F0B53EC102B09F034FDB1
:104DC0009FED4E0B53EC102B09F072FC41EC180BCD
:104DD00047494989AF2201FB02F009F0ACFE9FED83
:104DE000450B53EC102B09F01FFD9FED460B53ECC8
:104DF000102B09F05DFC41EC190B8DED008B53EC91
:104E0000192B42A0FBF738FBFDF79EFC30B1322096
:104E100003F0B6FA02F0C6FE044600E0002434486F
:104E2000C0F80E40D0F80E0000EE100AB8EE400AAE
:104E3000DFED3E0A80EE201A11EE105A28460AF0E5
:104E4000D7F941EC180B53EC182B39A0FBF714FBE6
:104E5000642003F095FA0520FDF78AFE04462448F5
:104E6000C0F81240642003F08BFA0620FDF780FEA4
:104E700004461F48C0F81640642003F081FA07205A
:104E8000FDF776FE04461A48C0F81A40642003F085
:104E900077FAFDF7C7FD04461548C483FDF75BFDAF
:104EA000642003F06DFAFDF711FE04461048848477
:104EB000642003F065FAFDF705FF04460C480484FE
:104EC000642003F05DFAFDF7A9FE04460848448417
:104ED00006F0B0FAFDF71CFC002006F043FE064683
:104EE000314617A0FBF7C8FA02B0BDEC088B70BDC5
:104EF0006003002000000000E0FFEF400000000021
:104F0000000018C000000000008046C054656D70AD
:104F1000657261747572653A2025662C2048756D3E
:104F200069646974793A25660D0A000000008043BF
:104F300070726573737572653A25660D0A0000001C
:104F400073656E645F74696D6572C8CECEF1CAB95F
:104F5000D3C3C7E9BFF6A3BA256C640D0A000000ED
:104F60000CB50020019000903448006840F4803077
:104F70003249086000BF3148006800F400300090FA
:104F80000198401C0190009818B90198B0F5A04F05
:104F9000F1D12A48006800F4003010B101200090DF
:104FA00001E0002000900098012846D123484030BD
:104FB000006840F080502149403108602048006876
:104FC00040F440401E4908601C48083000681B49F6
:104FD000083108600846006840F400400860084650
:104FE000006840F4A05008601648091F0860081FB8
:104FF000006840F08070091F086000BF0F4800681B
:1050000000F000700028F9D040F205700E490860E9
:105010000A480830006820F0030008490831086099
:105020000846006840F00200086000BF03480830EE
:10503000006800F00C000828F8D10CBD00380240D0
:105040000070004008544007003C0240042808D18A
:105050004FF0E021096941F004014FF0E0221161B5
:1050600007E04FF0E021096921F004014FF0E02250
:105070001161704710B508F091FE012801D008F0C9
:105080009BF910BD10B51548006840F47000134935
:1050900008601348006840F00100114908600020D2
:1050A0000F49083108600E4800680E4908400C4955
:1050B00008600D48091D0860081F006820F4802062
:1050C000091F0860002006490C310860FFF748FFFF
:1050D0004FF0006001498039086010BD88ED00E0A4
:1050E00000380240FFFFF6FE1030002410B5012109
:1050F000880700F08AF8012801D1FEF78DF8012118
:10510000880700F073F810BD7FB505460C460121F5
:105110000846FEF7E3FEADF8045002940020ADF817
:105120000C00ADF8060001221146900700F076F859
:1051300001A94FF0804000F07BF81C208DF80000A2
:1051400001208DF8030004208DF8010000208DF867
:1051500002006846FEF7FCFD0121880700F049F8CF
:105160007FBD000010B50121074800F04EF801286E
:1051700004D106480068401C044908600121024827
:1051800000F034F810BD00000004004014000020BE
:105190007FB505460C4601210220FEF79FFEADF8C3
:1051A000045002940020ADF80C00ADF80600012276
:1051B00011460D4800F032F801A90B4800F038F80C
:1051C0001D208DF8000001208DF8030009208DF8C6
:1051D000010000208DF802006846FEF7B9FD0121AC
:1051E000014800F006F87FBD00040040CA43028277
:1051F000704721B1028842F00102028004E0028877
:105200004FF6FE731A400280704702460020138A50
:105210000B400BB1012000E0002070471AB18389D8
:105220000B43838102E083898B43838170470000B5
:1052300000220288184B98420ED0184B98420BD08F
:10524000B0F1804F08D0164B984205D0154B9842CC
:1052500002D0154B984204D14FF68F731A404B88F9
:105260001A43124B984207D0114B984204D04FF684
:10527000FF431A400B891A4302804B68C3620B88B4
:105280000385054B984202D0044B984201D18B7A9A
:10529000038601238382704700000140000401401F
:1052A0000004004000080040000C004000100040D6
:1052B00000140040F8B5054605B9F8BDEC680BE0F0
:1052C0002046FFF7F7FF207A0090D4E900633246CA
:1052D00003A0FBF7D1F82469002CF1D100BFECE763
:1052E0004368696C64204E6F646520414444523ABF
:1052F00020256C6C782C20697320616C6976653F81
:105300002025780D0A000000F8B50020009040F23A
:105310002551274800F021F9002847D0244800F003
:10532000D5F9C5B22348007828B12348008810B9C0
:105330000020204908701F48007878B91E4800886E
:10534000C82808D21C4801880088401C1A4A1080CE
:105350001A48455402E00020174908801848008880
:1053600000F4805010B34FF480761248007840B9B2
:10537000114800884D2804D146F0040601200D494B
:1053800008706A4631460F48006807F081FE0446FF
:10539000012C0AD100BF009830B120070A490860EB
:1053A000BFF34F8FBFF36F8F00BF00BFF8BD00008A
:1053B000004C00407C0000207A0000206C0A002095
:1053C000300000202C00002004ED00E038B5002063
:1053D000009040F22551154800F0BFF858B113482D
:1053E00000F074F9C5B2124801880088401C104AC8
:1053F0001080104845546A4604210F48006807F0A1
:1054000047FE0446012C0AD100BF009830B12007A6
:105410000A490860BFF34F8FBFF36F8F00BF40F2A0
:105420002551024800F075F838BD00000010014019
:1054300084000020340B00203C00002004ED00E03C
:1054400010B540F22551084800F087F858B10648D9
:1054500000F03CF9C4B2054801880088401C034AAA
:1054600010800348445410BD0044004078000020E0
:10547000A409002038B51D4D00200090002440F202
:1054800024411B4800F069F850B319480088C0B2A5
:1054900000901748001D0088C0B2009000211548F8
:1054A000FDF734FD13482838C06AC0F1FF00C0B2D0
:1054B000009000BF04E01048005D2855601CC4B295
:1054C0009DF800008442F6DB9DF8000085F8FF009F
:1054D000FF210848FDF708FE01210648FDF716FDEB
:1054E00010210648FEF79EF800BF38BDFC0B0020D7
:1054F0000048004028600240FC0D002000080240E7
:1055000001F40072B2F5007F00D100BFCA430280EF
:10551000704710B50022002340F66A14A14200D162
:1055200000BF0A1201249440A3B2DC43048010BDE2
:1055300021B1828942F40052828104E082894DF6D1
:10554000FF731A40828170471AB1838A0B438382AA
:1055500002E0838A8B438382704770B50246002441
:1055600000230025002040F66A16B14200D100BF9A
:10557000C1F3421501F01F03012606FA03F3012DC2
:1055800002D19689334006E0022D02D1168A3340BB
:1055900001E0968A33400C12012606FA04F41688BC
:1055A000344013B10CB1012000E0002070BDF0B513
:1055B0000346002400260025002040F66A17B94261
:1055C00000D100BF1846C1F3421401F01F060127A5
:1055D00007FA06F5012C01D10C3004E0022C01D1B0
:1055E000103000E014301AB107682F43076002E062
:1055F0000768AF430760F0BD2DE9FF4705460E463B
:105600000024A14600BFA046B08900B100BF2C8A8B
:1056100024F44054F08804432C82AC8941F20C609D
:105620008443B08831890843718908430443AC81BD
:10563000AC8A24F44074B0890443AC826846FEF717
:105640006DFC2048854202D01F48854202D1DDF81A
:105650000C9001E0DDF80890A88900F4004040B10A
:1056600009EBC90000EB091031684900B0FBF1F704
:1056700007E009EBC90000EB091031688900B0FBB5
:10568000F1F76420B7FBF0F004012009642101FB6D
:105690001078A88900F4004040B1322000EBC80027
:1056A000B0FBF1F000F00700044308E0322000EB0B
:1056B00008106421B0FBF1F000F00F0004432C81CE
:1056C000BDE8FF87001001400014014001468888B2
:1056D000C0F30800704700000BE000BF07490988CD
:1056E00001F040010029F9D00178044A121D11800F
:1056F000401C01780029F0D170470000004C0040A8
:1057000000BFFEE710B596B0044601210220FEF767
:10571000C5FB01218804FEF7E1FB07220A214A4864
:10572000FDF75BFF07220B214748FDF756FF4FF4BB
:105730004060149002208DF854008DF85500002030
:105740008DF8560001208DF8570014A93E48FDF74A
:10575000FCFE10940020ADF84400ADF84600ADF812
:105760004800ADF84C000C20ADF84A0010A93748AD
:10577000FFF742FF01213548FFF7DAFE0121480516
:10578000FEF78CFB3248FDF7CDFB00BF3048FDF73C
:1057900075FC0028FAD14FF0006001902B48001DE5
:1057A00002902C48039000200490FF2005900020D8
:1057B00006904FF4806007900020089009904FF405
:1057C00080700A9000020B9000200C9003200D9036
:1057D00000200E900F9001A91D48FDF759FC0022F2
:1057E00040F226611948FFF7E2FE002240F22551FF
:1057F0001648FFF7DCFE012240F224411348FFF770
:10580000D6FE27208DF8000001208DF8010003202E
:105810008DF8020001208DF803006846FEF798FA23
:10582000012240210948FFF78FFE01210748FFF7B9
:105830007FFE01210648FDF769FB4FF480710648A1
:10584000FBF7AAF816B010BD000402400048004063
:1058500028600240FC0D0020FC0B002000BF0188E6
:1058600001F040010029FAD07047000010B504464D
:1058700004A0FAF701FE4FF400610748006807F042
:1058800093FB10BDC7BFD6C6D0DDC3DFCAB1BCE431
:10589000B5BD0D0A000000002C00002003B40198E3
:1058A0004100009850EAC12018BF04204A0D18BFDB
:1058B00040F0010040F2FF72B2EB515F08BF40F0D0
:1058C0000200012808BF052002B07047410008020D
:1058D00018BF04200A0E18BF40F001004FF07F42AD
:1058E00032EA010108BF40F00200012808BF05208C
:1058F0007047000010B510EE104A4FF0194068498B
:10590000002200EB44002DED028B884257D8DFEDDA
:10591000650A14F0004F60EE200A14BFBEEE001AB4
:10592000B6EE001A71EE200AFDEEE00A10EE900AC3
:1059300000EE900AF8EEE00A9FED5B1A00EEC10A55
:105940009FED5A1A00EEC10ADFED590A9FED591A70
:1059500000EE201ADFED580A40EE010A9FED571ABB
:10596000574B00F0030100EE201A21EE000A7B44A1
:1059700003EB8103D3ED000A524B7B4403EB81031D
:1059800093ED001A504B41EE000A7B4403EB81017A
:10599000801091ED000A70EE800AEABB00EE100A5A
:1059A000B8EEC01ADFED491A9FED490ABDEC028B33
:1059B00001EE210ABCEEC00A20EE200A10BD4FF015
:1059C000FF40A0431BD04FF0CE40B0EB440F82BF4E
:1059D000B7EE000ABDEC028B10BD3E48B0EB440FA1
:1059E00028BF012293D20220FBF79FF814F0004F4A
:1059F00015D0BDEC028BBDE8104000F069BF14F576
:105A0000000F02BF9FED340ABDEC028B10BDBDEC50
:105A1000028BBDE8104000E007E000F04DBFBDEC98
:105A2000028BBDE8104000F04BBF00EBD073591063
:105A30004FF07E5202EBC15100EE101AA0EB630052
:105A400002EBC05060EE200A00EE100A20EE208A21
:105A500018EE100A88B118EE100AB0F1FF4F15D0F9
:105A600018EE100AFFF732FF042808BF00F030FFDD
:105A7000B0EE480ABDEC028B10BD0220FBF755F8D2
:105A8000BDEC028BBDE8104000F022BF0220FBF706
:105A90004CF8BDEC028BBDE8104000F011BF0000D7
:105AA0000000501E3BAAB8400070313EF4FD05379F
:105AB00012BB2A3D12BB2A3EFFFFFF3EFFFF7F3F86
:105AC000B69C0000BA9C00008A9C00000000004BBD
:105AD00000007E4E0000A0850000000000000000D5
