:020000040800F2
:10000000A8A00020B5030008E9430008353B00081C
:100010004D410008F5240008656300080000000059
:10002000000000000000000000000000F5020008D1
:10003000AD2D00080000000051030008E55600083F
:10004000CF030008CF030008CF030008854D000848
:10005000CF030008CF0300086D370008CF03000866
:10006000CF030008CF030008CF030008CF03000828
:10007000CF030008CF030008CF030008CF03000818
:10008000CF030008CF030008CF030008CF03000808
:10009000CF030008CF030008CF030008CF030008F8
:1000A000CF030008CF030008CF030008CF030008E8
:1000B0007F580008F5580008CF030008CF03000858
:1000C000CF030008CF030008CF030008CF030008C8
:1000D000CF030008B95F000855600008B160000850
:1000E000CF030008C9480008CF030008CF03000869
:1000F000CF030008CF030008CF030008CF03000898
:10010000CF030008CF030008CF030008CF03000887
:10011000BD5D0008CF030008CF030008CF0300082F
:10012000CF030008CF030008CF030008CF03000867
:10013000CF030008CF030008CF030008CF03000857
:10014000CF030008CF030008CF030008CF03000847
:10015000CF030008CF030008CF030008CF03000837
:10016000CF030008CF030008CF030008CF03000827
:10017000CF030008CF030008CF030008CF03000817
:10018000CF030008CF03000800F002F800F0A2F847
:100190000AA090E8000C82448344AAF10107DA45E2
:1001A00001D100F097F8AFF2090EBAE80F0013F092
:1001B000010F18BFFB1A43F001031847480801005C
:1001C000680801000A4410F8014B14F00F0508BF3D
:1001D00010F8015B240908BF10F8014B6D1E05D013
:1001E00010F8013B6D1E01F8013BF9D1641E03D0EC
:1001F000641E01F8015BFBD19142E4D3704700001B
:100200000023002400250026103A28BF78C1FBD81F
:10021000520728BF30C148BF0B6070476E2900F0FD
:10022000E484702900F07B82662910F0F78065294C
:1002300010F0F480672910F0F180612910F0F0804F
:1002400003681B0A28BF41F08001692900F0EC8196
:10025000642900F0E981752900F0E6816F2900F03A
:10026000E987782900F04782E92900F08387E429AB
:1002700000F08087F52900F07D87EF2900F0E68700
:10028000F82900F046820368DB0928BF41F08001AD
:10029000632900F0F286732900F0F786E32901F064
:1002A000F581F32901F0FA81002070471FB510F0A5
:1002B000B0F800F0D5FF0400002000210FF076FA1E
:1002C000401C6060002000210FF05AFAE0601FBD62
:1002D00010B510BD01F07CFA1146FFF7E7FF09F0F9
:1002E000DFFA01F0A3FA03B4FFF7F2FF03BC07F053
:1002F0005FF800002C4B19680868B0E8F04F80F3F5
:100300000988BFF36F8F4FF0000080F311887047AA
:100310000000000008480068006880F308884FF07B
:10032000000080F3148862B661B6BFF34F8FBFF34D
:100330006F8F00DF00BF00BF08ED00E0DFF80C00AA
:10034000016841F470010160704700BF88ED00E072
:10035000EFF30980BFF36F8F134B1A681EF0100F75
:1003600008BF20ED108A20E9F04F106009B44FF06B
:10037000500080F31188BFF34F8FBFF36F8F0DF0E4
:100380004FFC4FF0000080F3118809BC1968086821
:10039000B0E8F04F1EF0100F08BFB0EC108A80F3E9
:1003A0000988BFF36F8F704730010020EFF305809D
:1003B000704700000948804709480047FEE7FEE70C
:1003C000FEE7FEE7FEE7FEE7FEE7FEE7FEE7FEE705
:1003D00004480549054A064B70470000F5560008D9
:1003E00089010008A86E0020A8A00020A8700020A5
:1003F000A8700020704753EA020C00F069802DE9D4
:10040000F04B4FF00006002B1FBFB3FA83F503FA41
:1004100005F424FA05F65E4012BF1643B2FA82F5DF
:1004200002FA05F4C5F120051EBF22FA05FC44EAD4
:100430000C04203556EA044C4FEA144418BF641CDF
:100440004FF000084FF00009904271EB030C39D3D4
:10045000002919BFB1FA81F701FA07F6B0FA80F75F
:1004600000FA07F6C7F120071EBF20FA07FC46EA8C
:100470000C062037B6FBF4FCA7EB0507103F07F08E
:100480001F0BCBF120060CFA0BFB2CFA06F644BF2F
:10049000B3460026202FA4BF5E464FF0000B5BEA58
:1004A000060C08BF4FF0010B19EB0B09ABFB027CEC
:1004B00048EB0608C01B06FB02CC0BFB03CC71EB20
:1004C0000C01C1E70B46024641464846BDE8F08BA9
:1004D00013B54FF000004FF00001AFF30080BDE80E
:1004E0001C40704710B54C1084EA530404D54042B8
:1004F000C1F1000138BF491E1B4204D55242C3F16D
:10050000000338BF5B1EFFF776FF14F0804F04D066
:100510004042C1F1000138BF491E14F0004F04D021
:100520005242C3F1000338BF5B1E10BD0FB4044933
:1005300010B503AA029800F0ADFD10BC5DF814FBE5
:10054000C00000200FB4044910B503AA029800F0BF
:10055000A1FD10BC5DF814FBC00000200FB41CB559
:10056000084B06AA7B4469460090059800F063FD9D
:1005700004460020694600F071FD20461CBC5DF871
:1005800014FB0000F50A000070B504468569006898
:10059000C10601D5302600E02026C00707D070BD77
:1005A000D4E9012130469047206A401C20626D1E2C
:1005B000F6D570BD70B5044685690078C00707D1CF
:1005C00070BDD4E9012120209047206A401C2062A0
:1005D0006D1EF6D570BD70B50C460546012A05D0D6
:1005E0002878800600D5EA69002302E0012305E0AF
:1005F0005B1C934202D2E05C0028F9D1A869E6189E
:10060000C01AA861286A184428622846FFF7BCFF70
:1006100004E0D5E9012114F8010B9047B442F8D366
:100620002846FFF7C7FF70BD2DE9F04106460024BC
:1006300010687529314616A510D000F06BFA002815
:1006400002DA404213A507E031688A0701D512A5F6
:1006500002E0490704D511A5012401E000F063FA86
:1006600000210A2206F1240709E0B0FBF2FCB0FBEE
:10067000F2F302FB1C00303078541846491C002865
:10068000F3D123462A463046BDE8F04100F054BA83
:10069000000000002D0000002B00000020000000E2
:1006A000F0B40D460188090502D5214C7C4402E0D6
:1006B0001F4C7C440E34002100F1240608E002F0B7
:1006C0000F071209E75D42EA03721B097754491CC0
:1006D00052EA0307F3D102780023120704D5702DE4
:1006E00006D009B1022311342246F0BC00F024BA2E
:1006F00001231034F8E770B504460D462146106812
:1007000000F011FA024629462046BDE87040002359
:10071000C6E7D21D22F00703D3E90023C0E7036830
:10072000126843F0200303600823C3610023B7E786
:10073000F40001002DE9F05F894604464FF0000AFD
:10074000DFF874B1FB44C0F820A02046E168884778
:10075000002874D0252806D0D4E901219047206ACA
:10076000401C2062F1E700265F462046E16888478A
:100770002028054607DB312D05D2781910F8200C0A
:1007800008B10643F1E7B00701D526F00406C4F826
:100790001CA00027C4F818A02A2D09D0284606F06E
:1007A00000FE38B304EB8708303DC8F8185019E054
:1007B00059F8041B204604EB87029161E1688847E1
:1007C000012F054618D1E069002820DA26F020061E
:1007D0001DE0D8F8180000EB800005EB4000303831
:1007E000C8F818002046E1688847054606F0D9FD9C
:1007F0000028EED1012F0AD02E2D08D12046E16825
:1008000088477F1C0546022F46F02006C4DBA069FE
:10081000002803DA404246F00106A061F00701D04B
:1008200026F010066C2D0BD0682D09D04C2D39D038
:100830006A2D35D0742D35D07A2D33D016E038E0BE
:10084000E1682F4620468847B842054609D16C2FFB
:1008500026D04FF48060E16806432046884705466D
:1008600004E06C2F1AD04FF4807006430DB3A5F14D
:100870004100192802D8203546F400664A46294628
:10088000204626604E46FFF7C9FC80B101280BD0F8
:10089000F61D26F0070000F1080956E74020E4E7BE
:1008A0008020D8E70020D6E706F104094DE7284666
:1008B00052E7206ABDE8F09F8400010030B505468C
:1008C0000B462A4613F8014B12F8010B08B1A0425F
:1008D000F8D01CB1002802D06D1CF1E7284630BDCD
:1008E00040EA0103024630B59B0710D14FF00134B6
:1008F00000E008C208C91D1B9D4315EAC41FF8D0BB
:1009000013F0FF0102F8011B0DD01B0AF8E711F8E4
:10091000013B002B02F8013B05D011F8013B002BF5
:1009200002F8013BF3D130BD10B5431C02E010F8D2
:10093000011B71B18107FAD14FF0013202C88C1A44
:100940008C4314EAC211F9D0C01A0A0603D0C01EA3
:1009500010BDC01A10BD0A0401D0801E10BD0902CE
:10096000FCD0401E10BD032A40F2308010F0030C72
:1009700000F0158011F8013BBCF1020F624498BFF2
:1009800011F801CB00F8013B38BF11F8013BA2F18F
:10099000040298BF00F801CB38BF00F8013B11F00A
:1009A000030300F02580083AC0F0088051F8043BAA
:1009B000083A51F804CBA0E80810F5E7121D5CBF17
:1009C00051F8043B40F8043BAFF30080D20724BF4A
:1009D00011F8013B11F801CB48BF11F8012B24BFDE
:1009E00000F8013B00F801CB48BF00F8012B70472D
:1009F00010B5203AC0F00B80B1E81850203AA0E8BA
:100A00001850B1E81850A0E81850BFF4F5AF5FEAED
:100A1000027C24BFB1E81850A0E8185044BF18C9A0
:100A200018C0BDE810405FEA827C24BF51F8043B47
:100A300040F8043B08BF7047D20728BF31F8023B9B
:100A400048BF11F8012B28BF20F8023B48BF00F82F
:100A5000012B704702F0FF0343EA032242EA0242FD
:100A600000F002B84FF000020429C0F0128010F02C
:100A7000030C00F01B80CCF1040CBCF1020F18BF7A
:100A800000F8012BA8BF20F8022BA1EB0C0100F00D
:100A90000DB85FEAC17C24BF00F8012B00F8012BE0
:100AA00048BF00F8012B70474FF0000200B5134615
:100AB00094469646203922BFA0E80C50A0E80C507E
:100AC000B1F12001BFF4F7AF090728BFA0E80C502F
:100AD00048BF0CC05DF804EB890028BF40F8042B28
:100AE00008BF704748BF20F8022B11F0804F18BF95
:100AF00000F8012B7047704770477047704710B57A
:100B000000F0B2FB006810BD10B5044600F0ACFB6D
:100B1000046010BD09684A0501D540B27047C90597
:100B2000FCD500B2704709684A0501D5C0B27047CC
:100B3000C905FCD580B270472DE9F0470D469946AE
:100B40009246044600F124080168880604D5E0694D
:100B500021F01001216000E00120A84201DD471BC7
:100B600000E00027A1697A1902EB0900081AA061C8
:100B70002078C00602D42046FFF706FD002608E0D4
:100B8000D4E901211AF806009047206A401C761C1F
:100B900020624E45F4DB2078C0060AD52046FFF7D8
:100BA000F3FC06E0D4E9012130209047206A401C84
:100BB0002062381EA7F10107F4DC07E0D4E9012127
:100BC00018F805009047206A401C2062281EA5F1F5
:100BD0000105F3DC2046FFF7EDFC2078000602D586
:100BE0000220BDE8F0870120FBE711680268006A77
:100BF000530501D508700AE0D30501D5088006E049
:100C0000130603D5C217C1E9000200E00860012005
:100C1000704770472DE9FF4F0C461E464FF0FF37D7
:100C20008BB0D2E90001DDF860800A908A46C1F3FA
:100C30000A5505B93D46002108464FF00000BAF1BB
:100C4000000F00F4400005DA00EB80004FF4400193
:100C500001EA50004FEA9059B9F1010F00DDB946A1
:100C60000A9850EA4A000ED044F61050A5F2FF351B
:100C700045432F14B8F1000F1ED07542291E1EDD0A
:100C8000C9F100021CE0B8F1010F4FF0000001D0E3
:100C9000302103E0F24305E02154401CB042FBDB6D
:100CA00030460022002121540B99C1F80880C1E987
:100CB00000200FB0BDE8F08FBD1B6D1CDEE74A467B
:100CC00000DA694206A800F0EDFC06AB93E80700E5
:100CD00003AB83E8070050460A9900F0EDFD8DE86C
:100CE0000700A0F500501F3800900398002D09DD83
:100CF00042F21F014A46084403A90390684601F0E6
:100D00004CF808E0A0F500504A461F3803A90390AC
:100D1000684601F056F88DE807000004000C03D087
:100D20004FF0FF30410800E01046B8F1000F03D04B
:100D30000022009215461EE0751E05D400F098FAB8
:100D4000303262556D1EF9D5B3460122084302D0F8
:100D500000227F1C04E02078302801D100227F1E71
:100D6000002A099786D01DE0112D07DA00F080FADD
:100D7000303262556D1C50EA0102F5D1084302D0B1
:100D80000098C8B10EE00021681E05E0235C625C9B
:100D900063542254401E491C8142F7DBAB46A81B1A
:100DA000401E0990002004F80B000B98099AC0F827
:100DB0000880C0E9002B7CE711264FF0000859E7B6
:100DC0002DE9F04F88460446D21D22F0070191B06C
:100DD000D1E90001CDE90A0105F0DAFB02460B98E2
:100DE000C00F01D02D2007E02068810701D52B20FE
:100DF00002E0202101EAC000032A099001D0072A5D
:100E000005DB03464146204600F0F6FB0BE1207867
:100E1000800601D5E06900E00620B8F1650F814643
:100E200006D0B8F1660F18D0B8F1670F70D131E075
:100E30000020B9F1110F009001DB112301E009F14D
:100E400001030AAA01A90CA8FFF7E4FEDDE90C7072
:100E5000002609F10105834647E001204B4600903A
:100E60004FF000470AAA01A90CA8FFF7D3FEDDE95D
:100E70000DB00C995D46002610B909F101000D185E
:100E8000B9EB050003D4C0F1FF3609F10105A5EB6C
:100E900009002BE0B9F1010F01DA4FF00109002040
:100EA000B9F1110F0090484601DD112300E003461F
:100EB0000AAA01A90CA8FFF7ADFEDDE90C704D46AA
:100EC00000268346207800070AD4AB4500DA5D4649
:100ED00001A8012D04DD411911F8011C302907D0AA
:100EE0004F4502DA17F1040F04DA012082460FE0C1
:100EF0006D1EEEE7002F02DCED1B3E4403E0781C84
:100F0000A84200DD7D1CB81B00F1010A4FF000472C
:100F10002078000703D4AA4501DB4FF0FF3A0021F7
:100F2000B7F1004F0DF143088DF8431024D0022093
:100F30002B23002F01DA7F422D230A21021EA0F16C
:100F4000010000DC5FB197FBF1FC97FBF1F201FBC4
:100F50001C7C17460CF1300C08F801CDEEE7A8F127
:100F6000010003702188090501D5452100E06521B4
:100F7000A0F1010800F8011C09980FA9A1EB0807CE
:100F8000FF1D00B10120411901EBEA70A16938444D
:100F9000081A401EA0612078C00602D42046FFF740
:100FA000F3FA099828B1D4E901219047206A401C3E
:100FB00020622078C00622D52046FFF7E5FA1EE021
:100FC000002E04DBB34502DD01A8805D00E0302087
:100FD000D4E901219047206A401C2062761CAAF1C6
:100FE00001005FEA000A0AD100F03AF9C06801681E
:100FF000405CD4E901219047206A401C2062281EF1
:10100000A5F10105DCDC07E0D4E9012118F8010BAA
:101010009047206A401C2062381EA7F10107F3DCCC
:101020002046FFF7C7FA032011B043E601694A1CC6
:1010300002610878704700B58FB0CDE90131002119
:10104000059105497944CDE9031011466846FFF73B
:1010500071FB0FB000BD0000E5FFFFFF0A6802F85A
:10106000010B0A60704710B5436913B1AFF30080FC
:1010700001E0FFF7B0FA012010BD127800F1240161
:101080000A7000224A700122EDE711684FF0FF322A
:10109000E9E70000074B70B50D467B44FFF7CBFF37
:1010A0000446284600F06CFB10B14FF0FF3070BDD5
:1010B000204670BD878300002DE9FF5F15468A46F4
:1010C0000446DFF8AC80F8440027D8E900103E461B
:1010D000CDE9001010E03AF816106A4602A800F0B8
:1010E00053FB411C07D02178890603D5E2693918E2
:1010F00091420DD80744761C2078800602D5E0691D
:10110000B84205DDAE42E6DB3AF816000028E2D12F
:10111000A069C01BA0612046FFF736FAD8E900108D
:10112000CDE90010002017E03AF818106A4602A82E
:1011300000F02AFBB0F1FF3F81460BD000250DF1F6
:10114000080B05E0D4E901211BF8050090476D1C50
:101150004D45F7D308F10100B0428046E4DB206A38
:10116000384420622046FFF725FABDE8FF9F0000C3
:101170009EF700002DE9F0418046D21D22F00702C3
:101180000025D2E90002F52915A614D0011E72F13E
:10119000000106DA0023D0EB030063EB020211A684
:1011A00008E0D8F800108B0701D50FA602E0490728
:1011B00001D50EA601251146002408F1240704E0FC
:1011C00000F056F830323A55641C50EA0102F7D16B
:1011D0002B46324621464046BDE8F041FFF7ACBC05
:1011E000000000002D0000002B0000002000000087
:1011F00030B4002100F1240408E002F00705D20811
:10120000303542EA4372DB086554491C52EA030553
:10121000F3D10468002310A2250708D504F02004A8
:101220000C4304D0C46901230CA2641EC46130BC09
:10123000FFF782BC10B5044621461068FFF773FC27
:1012400002462046BDE810400023D1E7D21D22F01F
:101250000701D1E90023CBE70000000030000000C7
:1012600000487047646E002000487047446E0020BC
:1012700030B5B0F10A024FEA900E71F100034EEA68
:10128000817EB0EB0E0061EB91014FEA101E4EEA39
:10129000017E10EB0E0041EB11114FEA102E4EEAC9
:1012A000016E10EB0E0041EB11214FEA104E4EEA99
:1012B000014E10EB0E0041EB1141401841F10001CD
:1012C0004FEAD00040EA41704FEAD10110EB8005AF
:1012D0004FEA810444EA907444EB01046D1944EB35
:1012E0000404521BA3414FF0000348BF0A3200D54B
:1012F00030BD401C41F1000130BD00002DE9F04F30
:1013000004460D46D21D22F0070089B0D0E90092B4
:1013100048461746394605F03BF90246F80F01D01A
:101320002D2307E02068810701D52B2302E020212F
:1013300001EAC0038DF820300BB1012000E000204D
:10134000032A824601D0072A04DB2946204600F002
:1013500053F93DE12078800601D40D2500E0E569D0
:10136000C7F30A560D2D49DA00214FEA175B0846EC
:101370004FF00000002F00F4400007DA00EB80007F
:101380004FF4400100EBD07001EA600081150129A3
:1013900001DD4FF0FF3100224FEA850CBCF1180F40
:1013A00006D31346ACF118004FF08052C24003E060
:1013B0004FF4801323FA0CF30CF10C0CBCF1200F4A
:1013C00004D3ACF1200C09FA0CF001E007FA0CF0A0
:1013D00000294FF0004801DD18B90FE00ED140455B
:1013E0000CD319EB02095F4121B9404502D19F435B
:1013F00029EA0209BBEB175F00D0761C20880005A4
:1014000002D57B48784402E079487844193808AA24
:10141000302302F80A30037C0AF10101002E0AF1A0
:10142000020A53546A4602DC4FF0300101E04FF0EB
:1014300031014FF001088DF8001002D0A6F2FF36FE
:1014400003E059EA470100D06A4E002D02DC217802
:10145000090704D54FF002082E218DF80110C4466B
:1014600000210BE0C7F303433F01C35C491C6D1E21
:1014700002F80830052908F1010801DA002DF1DC35
:1014800000210CE000EB1973491C1B786D1E082924
:1014900002F808304FEA091908F1010801DA002DB5
:1014A000F0DC2178890602D514E0A8F10108E045B6
:1014B00005DD02EB080111F8011C3029F5D0B8F167
:1014C000000F07DD02EB080111F8011C2E2901D1E4
:1014D000A8F10108002D05DD3E2102F808106D1E5F
:1014E00008F10108407C002E02F8080008F101080C
:1014F00004DA2D20764202F8080002E02B2002F8E0
:1015000008000A214FF47A70864208F101080BDBCB
:1015100096FBF0F3303302F8083096FBF0F308F155
:10152000010800FB136601E0642E0CDB642096FBCF
:10153000F0F3303302F8083096FBF0F308F10108BD
:1015400000FB136601E00A2E06DB96FBF1F030305B
:1015500002F8080008F1010896FBF1F001FB1060A9
:10156000303002F80800A16908F1010808EB050213
:1015700002EB0A00081AA0612078C00602D42046B7
:10158000FFF702F8216A08AE01EB0A00206204E0CE
:10159000D4E9012116F8010B9047BAF1010AF7D2FC
:1015A0002078C00602D52046FEF7EEFF6E4609E021
:1015B00016F8010B3E280FD0D4E901219047206A8C
:1015C000401C2062B8F10108F2D22046FEF7F2FF7B
:1015D00009B00320BDE8F08F206A2844206203E0B0
:1015E000D4E90121302090476D1EEBD3F8E70000CD
:1015F00083F4000002FCFFFF2DE9F0411F46044682
:1016000003260168072A01F4006004DB08B116A56F
:1016100005E016A503E008B115A500E015A521F029
:1016200010002060A069C01EA0610FB1401EA06123
:101630002046FEF7A9FF4FB1D4E901213846904773
:10164000206A401C2062C01C206206E0206AFAE783
:10165000D4E9012115F8010B9047761EF8D22046F7
:10166000FEF7A8FFBDE8F0814E414E006E616E00AE
:10167000494E4600696E660010B5436913B1AFF379
:10168000008001E0FFF718FD012010BD128800F175
:10169000240182840022C2840122EDE711684FF008
:1016A000FF32E9E72DE9F047814616468AB0334814
:1016B00078440DC88DE80D0030487844801C03AC98
:1016C0000DC884E80D0041F69B300844372190FB9B
:1016D000F1F290FBF1F5A5F1800501FB12041B3C32
:1016E00002D56442012000E00020DFF890A080468F
:1016F0000027FA44AAF1BE0A0DE0E00709D03246FD
:10170000684607EB47010AEB810100F05AFB8DE8C0
:10171000070064107F1C002CEFD1184F7F44AC3FB2
:1017200018E0E80714D007EB04100DF1180A90E850
:101730000E008AE80E00C068F04201D198190890A6
:10174000324606A903A800F03CFB03AB83E8070080
:101750006D10641C002DE4D132466946B8F1000FCB
:1017600003A802D000F019FB01E000F02AFBC9E950
:101770000001C9F808200AB0BDE8F08768F200004F
:10178000007B00F08000704770B516460C46054699
:1017900000F044F8036893F80101012806D0FF2CFB
:1017A0000FD8185D68B101202C7070BDD3F8070107
:1017B0003246214603F2071303442846BDE8704031
:1017C00018474FF0FF3070BD00487047446E00204E
:1017D0007546FFF7F9FFAE4605006946534620F00F
:1017E0000700854618B020B5FEF7F2FDBDE82040A1
:1017F0004FF000064FF000074FF000084FF0000BCD
:1018000021F00701AC46ACE8C009ACE8C009ACE87F
:10181000C009ACE8C0098D467047000010B5FFF75D
:101820001FFD001D10BD00BF85DF00000446AFF3A3
:1018300000802046FEF757FD4FF0013C50F8042B86
:1018400051F8043B9A4221D1A2EB0C03934313EAD3
:10185000CC1317D150F8042B51F8043B9A4215D100
:10186000A2EB0C03934313EACC130BD150F8042BD7
:1018700051F8043B9A4209D1A2EB0C03934313EABB
:10188000CC13DBD04FF00000704700BFD01A01BA74
:10189000B1FA81F101F0180122FA01F0CB40C1F157
:1018A0002001DBB2C0B2C01A2CFA01F3D11A914365
:1018B00011EAC311E6D170475FEA400C08BF91F00E
:1018C000000F4FEA8C234FEAC12243EA51514FEAFD
:1018D0001C5018BF00F5F0404FEA300018BF41F02F
:1018E00000415FEA6C5C00F02980BCF1FF3F08BF5B
:1018F00040F080407047130C06BF12044FF0100CEC
:101900004FF0000C130E04BF12020CF1080C130F61
:1019100004BF12010CF1040C930F04BF92000CF1F0
:10192000020CD30F04BF52000CF1010C11464FF012
:101930000002A0F11F00A0EB0C00704711F0004F57
:1019400008BF704731F000413FF4D5AF0B0C06BF24
:1019500009044FF0100C4FF0000C0B0E04BF0902ED
:101960000CF1080C0B0F04BF09010CF1040C8B0FD8
:1019700004BF89000CF1020CCB0F04BF49000CF12D
:10198000010CCCF12003A0EB0C0022FA03F302FAC5
:101990000CF241EA030100F10100704720F07F4C96
:1019A00080EA030023F07F47ACEB070303F57C5389
:1019B00000F0004003F1FF032DE980494FEA154B89
:1019C00009B44FEA144325EA0B4E24EA03480FF208
:1019D000042606EB132749083E785FEA320203FB30
:1019E0000667C7F5000707FB06F64FEA54374FEACC
:1019F000D64606F1020607FB066CCCF1005C4FEA06
:101A00001C472CEA074C07FB06F40CFB06F504EB1D
:101A100015464FEA961634BF00204FF000404FEABB
:101A2000D13706FB07FC4FEA1C4C0CFB0BF7D21B13
:101A300003FB0CF761EB07010CFB0EF7B0EB074063
:101A400072EB17420CFB08F734BFA2EB0742B2EB74
:101A5000074261EB17414FEA0C444FEA910706FB3E
:101A600007FC4FEA1C4C0CFB0BF7B0EBC74072EBCA
:101A7000573203FB0CF734BFA2EBC742B2EBC742AD
:101A800061EB57310CFB0EF7B0EBC70072EB5772EE
:101A90000CFB08F734BFA2EBC702B2EBC70261EB45
:101AA0005771039F4FEA816141EA921104EBCC0424
:101AB0004FEAD1374FEA826206FB07FC42EA9012F6
:101AC0004FEA80604FEA1C4C0CFB0BF7D21B03FB68
:101AD0000CF761EB07010CFB0EF7B0EB074072EB64
:101AE00017420CFB08F734BFA2EB0742B2EB0742E8
:101AF00061EB17414FEA8C554FEA910704EB9C24A8
:101B000006FB07FC4FEA1C4C0CFB0BF7B0EBC74085
:101B100072EB573203FB0CF734BFA2EBC742B2EBB8
:101B2000C74261EB57310CFB0EF7B0EBC70072EB0D
:101B300057720CFB08F734BFA2EBC702B2EBC70227
:101B400061EB577115EB4C254FEA816141EA921127
:101B50004FEA82624FEAD13742EA901206FB07FC55
:101B600044F100044FEA80604FEA1C4C0CFB0BF779
:101B7000D21B03FB0CF761EB07010CFB0EF7B0EB7C
:101B8000074072EB17420CFB08F734BFA2EB074289
:101B9000B2EB074261EB174115EB1C154FEA81319F
:101BA00041EA92414FEA823242EA90424FEA803063
:101BB0004FEA0C7644F1000448EA03434EEA0B482E
:101BC0004FF0000EB2EB080C71EB030724BF624626
:101BD00039464EEB0E0E4FF0000B001852414941B2
:101BE0004BEB0B0BB2EB080C71EB03077BF1000B1B
:101BF00024BF624639464EEB0E0E4FF0000B001824
:101C0000524149414BEB0B0BB2EB080C71EB030754
:101C10007BF1000B24BF624639464EEB0E0E51EAB3
:101C2000020718BF46F0010616EB0E7655F10002CA
:101C300054F1000103D5BDE88901BDE80088BDE885
:101C40008901BDE80048B619524141EB0101A3F1F9
:101C50000103704780807F7E7D7C7B7A7978777600
:101C600076757473727171706F6E6E6D6C6C6B6A79
:101C70006A69686867666665646463636261616017
:101C8000605F5F5E5E5D5D5C5C5B5B5A5A59595894
:101C900058575756565555555454535352525251FE
:101CA000515050504F4F4F4E4E4D4D4D4C4C4C4B54
:101CB0004B4B4A4A4A49494948484847474747469B
:101CC00046464545454444444443434343424242D7
:101CD00042414141002B26D4770021D01CB54FEA68
:101CE000370703B44FF010004FF010014FF0000021
:101CF0000FBCBDE810400BF1010BBBF1010F08BF99
:101D00005FEA170722BF12F1010211F101014FF042
:101D1000004143F1000300F0004043EA0000704737
:101D2000F9D35708DAE746EA064613F1400F4FEABF
:101D300016461FDD13F1200FDFBF16430A460021B0
:101D400020335B42C8D0C3F1200746EA064602FAB8
:101D500007F74FEA164646EA0706C3F1200722FABC
:101D600003F201FA07F721FA03F14FF0000342EA08
:101D70000702B1E746EA020646EA06464FEA164679
:101D800046EA0106BCBF46EA0646360C4FF00003A1
:101D90004FF000024FF000019EE72DE9C048934646
:101DA00030B491E8380007C831EA400C48BF34EA43
:101DB000430C03D5FFF7F2FDFFF78CFFF0BCBDE845
:101DC00000882DE9C048934630B491E8380007C830
:101DD00010F0804F08BF13F0804F03D100F005F8DA
:101DE000FFF778FFF0BCBDE8008820F07F4780EA6D
:101DF000030023F07F4C07EB0C03A3F57C5300F0AA
:101E00000040A3F1FE0392F0000F00F0B38095F0C4
:101E1000000F00F077802DE901494FEA11404FEAA9
:101E2000144621EA004800FB06FC24EA064708FBAA
:101E300006F607FB08F800FB07F718EB06484CEB23
:101E4000164C4FEA124B18EB07484FEA15464CEB7D
:101E5000174022EA0B4E0BFB06FC25EA06470EFB59
:101E600006F607FB0EFE0BFB07F71EEB064E4CEBD0
:101E7000164C4FF000061EEB074E4CEB174B18EBC1
:101E80000B0840F1000018EB0E0B58EB000840F176
:101E900000008F1A4FF000013CBFC943661B14BFFE
:101EA000B5EB040C00213CBFC943F61B4FEA1744B5
:101EB0004EEA8E0E27EA04454FEA1C4704FB0762F0
:101EC0002CEA074C05FB07F70CFB05F604FB0CFCA2
:101ED00016EB074642EB174216EB0C4642EB1C4250
:101EE0001BEB060658EB0202414146EA9E0601D56D
:101EF000BDE80189B619524141EB0101A3F101038B
:101F0000BDE801894FEA14454FEA114724EA054626
:101F100021EA074C05FB07F406FB07F70CFB06F16B
:101F200005FB0CFC11EB074144EB17444FEA124749
:101F300011EB0C4144EB1C4422EA074C05FB07F271
:101F400006FB07F70CFB06F605FB0CFC16EB074639
:101F500042EB174216EB0C4642EB1C456A1854F153
:101F6000000148BF7047B619524141EB0101A3F18E
:101F70000103704795F0000F37D04FEA11424FEA46
:101F8000144721EA024624EA074C02FB07F106FB4C
:101F900007F70CFB06F402FB0CFC14EB074441EBC7
:101FA00017414FEA154714EB0C4441EB1C4125EA5D
:101FB000074C02FB07F506FB07F70CFB06F602FBD6
:101FC0000CFC16EB074645EB174516EB0C4645EBAC
:101FD0001C42121951F1000148BF7047B619524115
:101FE00041EB0101A3F1010370474FEA14454FEAA9
:101FF000114724EA054621EA074C05FB07F106FBD9
:1020000007F70CFB06F24FF0000605FB0CFC12EB89
:10201000074241EB174112EB0C4251EB1C4148BF08
:102020007047921841EB0101A3F1010370470000D2
:1020300008B518A0FEF786FA1C48016840681C4ADB
:10204000D2E9003259405040014321D117480838A5
:1020500001684068174B0CCB51405840014317D1E1
:10206000002001231A4699020090134800680CF0E2
:10207000EDF8124908600846008800F4806038B125
:102080000FA0FEF75FFA20210B4800680CF058F80B
:1020900008BD0000BDD3CAD5B5BD41434BD0CD4D21
:1020A0004143D6A1C1CB0D0A000000001D03002052
:1020B00020000020280000203400002038000020EC
:1020C000BDD3CAD5B5BDC1CBD5FDC8B7B5C4414395
:1020D0004B0D0A0010B500240F48006800B110BD78
:1020E0000CF02EFF012800D1F9E701200CF050FA86
:1020F000044604B9F3E70AF0C7FE0748006810B9C0
:102100000548046000240AF003FF14B120460BF0D8
:10211000F7F800BFE3E70000C001002000F028F856
:1021200004E003480BF068F900F022F8F9E700003A
:10213000A0BB0D0000200A4908809FED0A0A0A484A
:1021400080ED010A0020084908834883A1F8800037
:10215000A1F88200A1F884000448C1F88800704703
:102160001400002000000000C001002040771B0088
:1021700010B52DED048B84B0B3EE090A8DED030A82
:102180009FED330A8DED020A0024002001909FED9F
:10219000300AB0EE409A9FED2E0AB0EE408AB7EEBC
:1021A000000AF0EE408A00F057F801AA02A903A83D
:1021B00000F0B0F8012400F05FF8BDF804004FF61D
:1021C000FF71884207D19FED220A05F00DF904B096
:1021D000BDEC048B10BDBDF8040000EE100AB8EE93
:1021E000400AF7EE000A20EE200AB0EE409A74B1E1
:1021F0009DED030AF3EE090A70EE600A9FED151AD1
:10220000B7EE000A00EEC10AF0EE408A03E0B7EE36
:10221000000AF0EE408AF5EEC08AF1EE10FA03D221
:102220009FED0B0AF0EE408A29EE280AB0EE408AB4
:10223000B5EEC08AF1EE10FA03D29FED050AB0EEBA
:10224000408AB0EE480A05F0CFF800BFBFE70000B3
:10225000000000006F12833B10B5FFF73BFF0548FD
:10226000006828B1034908684FF0FF310CF09CFC6E
:1022700010BD0000C001002010B50548006830B155
:10228000034900231A46086819460CF049FA10BDA4
:10229000C001002010B52DED028BB0EE408A9FEDFD
:1022A000190AF0EE408A9FED181ADFED160AB0EE1B
:1022B000480A05F0D9F8B0EE408AB1EE080A38EEC7
:1022C000000ADFED120A20EE200ADFED110A80EE8F
:1022D000201AF0EE418A9FED0D1ADFED0A0AB0EEEA
:1022E000680A05F0C1F8F0EE408AB6EE000A38EE52
:1022F000800ABCEEC00A10EE100A80B2BDEC028B60
:1023000010BD0000000000000000C84200FF7F4731
:102310000000FA427EB50C23154C24880C2C02DBFD
:102320000024134D2C80124C248804EB4404114DDE
:1023300005EB840670CE8DE870000D4C2488641C7B
:102340000B4D2C802C4624880C2C01DB00242C8087
:1023500018B19DED000A80ED000A19B19DED010A4A
:1023600081ED000A12B1BDF8084014807EBD000066
:10237000140000201405010810B52DED028BB0EEFD
:10238000408A9FED190AF0EE408A9FED181ADFEDA2
:10239000180AB0EE480A05F067F8B0EE408A9FEDE3
:1023A000150A38EE000ADFED140A20EE200ADFEDF0
:1023B000130A80EE201AF0EE418A9FED0F1ADFED2E
:1023C0000A0AB0EE680A05F04FF8F0EE408AB6EE61
:1023D000000A38EE800ABCEEC00A10EE100A80B285
:1023E000BDEC028B10BD00000000000000000243A5
:1023F000000034C20000344200FF7F4700002F433A
:102400002DE9F04106460C46002716B10CB1A64254
:1024100001D1BDE8F081706918B90020A061746134
:10242000F7E7756920E0A54200D1F2E7D5E9001091
:10243000D4E9002351405840014305D10020A06158
:10244000204606F0FDFFE4E7A86900B90EE0AD699B
:10245000781C80B20746B0F5007F05DD0020A06142
:10246000204606F0EDFFD4E7002DDCD100BF1DB9FA
:102470000020A0617461CCE70020A061AC6100BFC6
:10248000C7E7000010B500240CE0601CC4B20A2CA1
:1024900005D1002406A0FEF755F8002010BD32201B
:1024A00006F014FE06F018F90028EED00120F5E73A
:1024B000CEB4BCECB2E2B5BD626D703238300D0AFC
:1024C0000000000010B5044604A0FEF73BF84021D0
:1024D000074800680BF034FE10BD000042656163E0
:1024E0006F6EB7A2CBCDCAB1BCE4B5BD0D0A00007A
:1024F0004C00002000BFFEE738B53CA0FEF722F8F4
:10250000404801684068404B0CCB51405840014363
:1025100047D00020012302464FF40C6100903B4855
:1025200000680BF093FE3A4908600846007800F016
:102530004000002831D00846007800F080000028D4
:102540002BD034A0FDF7FEFF4FF400612F48006848
:102550000BF0AEFD0CF004FD0446002003462246BD
:1025600001210090344800680DF09EF833A0FDF77B
:10257000E9FF2748008800F40060002834D10CF0FF
:10258000EFFC04464FF0FF3000232246022100906A
:10259000294800680DF088F826E02BA0FDF7D2FF4F
:1025A00022E01848083801684068294AD2E9003218
:1025B00059405040014317D1002001231A465902C7
:1025C0000090124800680BF041FE1149086008466F
:1025D000008800F4007038B11EA0FDF7B3FF0121A0
:1025E0000A4800680BF0ACFD38BD0000BDD3CAD569
:1025F000B5BD435453D0CD4D4143D6A1C1CB0D0AF7
:10260000000000001D0300202000002034000020F6
:1026100038000020BDD3CAD5B5BDC1CBB1F0B5C41B
:10262000BDDAB5E3B5C44354532CC7BFD6C6D0DD1D
:10263000C3DF0D0A0000000010010020BFAAC6F48D
:10264000B6A8CAB10D0A0000B6AAC6FA0D0A000063
:1026500028000020BDD3CAD5B5BDC1CBD5FDC8B7B4
:10266000B5C44354530D0A00F0B507460C46154651
:102670002946384600F008FC606908B96561F0BD7C
:10268000666900E0B669B0690028FBD1B56100BF9A
:10269000F5E710B5ADF5407D002401208DF8FC0173
:1026A0000020ADF8FE015A208DF800029DF8FC01D3
:1026B0008DF8F800BDF8FE01ADF8FA000620F4220E
:1026C00083A93D906846FEF793F97FA80FC807F0ED
:1026D00081FA0A2006F0FAFC16E0142006F0F6FC57
:1026E0000620F42283A93D906846FEF781F97FA871
:1026F0000FC807F06FFA601CC4B2142C04DD00246C
:1027000000200DF5407D10BD06213EA807F0ECF934
:102710000028E2D10120F4E710B50948FDF706FFD3
:10272000002404E0002006490855601C84B20548D6
:1027300000888442F6DB00200249088010BD0000BA
:10274000AC0B0020A8000020002004E00021064A75
:102750001154411C88B2054909888842F6DB0021E2
:10276000024A118070470000740C0020AA0000206B
:1027700010B542F2CF01092003F0D2F80020014940
:10278000086010BD1800002010B5ADF5407D002494
:1027900001208DF8FC010020ADF8FE0101208DF82C
:1027A00000029DF8FC018DF8F800BDF8FE01ADF8BF
:1027B000FA000320F42283A93D906846FEF718F939
:1027C0007FA80FC807F006FA0A2006F07FFC1AE07F
:1027D000142006F07BFC0320F42283A93D90684678
:1027E000FEF706F97FA80FC807F0F4F9601CC4B221
:1027F000142C08DD002408A0FDF7A4FE4FF6FF709E
:102800000DF5407D10BD03213EA807F06DF90028AD
:10281000DED1BDF8FE00F3E770726563697069741C
:102820006174696F6E206572726F72210D0A00000B
:1028300030B5ADF5417D044600258DF800420020FD
:10284000ADF8020202208DF804029DF800028DF816
:10285000FC00BDF80202ADF8FE000320F42284A9BA
:102860003D906846FEF7C4F880A80FC807F0B2F99B
:102870000A2006F02BFC19E0142006F027FC0320A8
:10288000F42284A93D906846FEF7B2F880A80FC8EC
:1028900007F0A0F9681CC5B2142D07DD00250AA0B9
:1028A000FDF750FE00200DF5417D30BD03213FA80E
:1028B00007F01AF90028DFD13FA80089BDF80211FE
:1028C00000EB0140EFE70000736F696C73656E7396
:1028D0006F72206572726F72210D0A0010B5ADF52E
:1028E000407D002403208DF8FC010020ADF8FE019E
:1028F00001208DF800029DF8FC018DF8F800BDF86C
:10290000FE01ADF8FA000320F42283A93D90684649
:10291000FEF76EF87FA80FC807F05CF90A2006F0F2
:10292000D5FB1AE0142006F0D1FB0320F42283A982
:102930003D906846FEF75CF87FA80FC807F04AF99B
:10294000601CC4B2142C08DD002408A0FDF7FAFDB9
:102950004FF6FF700DF5407D10BD03213EA807F036
:10296000C3F80028DED1BDF8FE00F3E757696E64B6
:1029700073446972656374696F6E206572726F72F9
:10298000210D0A0010B5ADF5407D002402208DF820
:10299000FC010020ADF8FE0101208DF800029DF839
:1029A000FC018DF8F800BDF8FE01ADF8FA00032037
:1029B000F42283A93D906846FEF71AF87FA80FC855
:1029C00007F008F90A2006F081FB1AE0142006F04F
:1029D0007DFB0320F42283A93D906846FEF708F8AA
:1029E0007FA80FC807F0F6F8601CC4B2142C08DDED
:1029F000002408A0FDF7A6FD4FF6FF700DF5407D01
:102A000010BD03213EA807F06FF80028DED1BDF805
:102A1000FE00F3E757696E64735370656564206563
:102A200072726F72210D0A0038B547A0FDF78AFD5A
:102A300000200123024680210090494800680BF0E5
:102A400005FC48490860484801684068474AD2E99F
:102A500000325940504001433AD14248007800F0DA
:102A60008000002834D14048083801684068404A56
:102A7000D2E9003259405040014329D13A4809383F
:102A8000407CD8B13BA0FDF75DFD4FF48031344868
:102A900000680BF055FB3448083804684368224648
:102AA000324903C904F086FC80212D4800680BF0F0
:102AB00047FB00212E4A1160516008E032A0FDF76B
:102AC00041FD4FF48031264800680BF039FB38BDDA
:102AD00000200123024640210090214800680BF0AD
:102AE000B5FB204908602048016840681F4B0CCBAB
:102AF0005140584001431ED11B48083801684068C6
:102B00001B4B0CCB51405840014314D11548007861
:102B100000F0400078B94FF40041114800680BF014
:102B20000FFB20A0FDF70EFD4FF480410C4800681C
:102B30000BF006FBCBE74FF40031094800680BF0BF
:102B4000FFFA00BFC3E70000BDD3CAD5B5BDCAFDBB
:102B5000BEDDD0CD4D4143D6A1C1CB0D0A00000052
:102B600034000020380000201D0300202000002039
:102B700028000020D0E8D2AAD7D4C9EDB7A2CBCD87
:102B800041434B0D0A000000D0E8D2AAD7D4C9EDCA
:102B9000B7A2CBCDCAFDBEDDD0CD4D4143D6A10DF0
:102BA0000A000000B5B1C7B0CAC7B7A2CBCDB7BD48
:102BB000B2A2C7D2BDD3CAD5B5BDC1CBD5FDC8B7AA
:102BC000B5C4444154410D0A0000000021B102681F
:102BD00042F00102026003E0026822F0010202609A
:102BE00070470000016821F00101016000210160CF
:102BF00041608160C1600161212141614A4988428F
:102C000004D13D21484A103A91608CE04649183180
:102C1000884205D14FF47461434A103A916082E0D2
:102C200041493031884205D14FF474113E4A103A7F
:102C3000916078E03C494831884205D14FF0746199
:102C4000394A103A91606EE037496031884204D1C8
:102C50003649354A103AD16065E0334978318842C7
:102C600004D13349304A103AD1605CE02E499031AA
:102C7000884204D12F492C4A103AD16053E02A49A6
:102C8000A831884205D14FF03D51274A103AD16012
:102C900049E02949884204D13D21274A083A116078
:102CA00041E025491831884205D14FF47461224A28
:102CB000083A116037E020493031884205D14FF49D
:102CC00074111D4A083A11602DE01B4948318842B1
:102CD00005D14FF07461184A083A116023E0164993
:102CE0006031884204D11149134A121F11601AE061
:102CF00011497831884204D10D490F4A121F1160E1
:102D000011E00D499031884204D10A490A4A121F44
:102D1000116008E00849A831884204D14FF03D51C4
:102D2000054A121F11607047106002403D000020EC
:102D3000400F002000003D201064024001460020AA
:102D40000A6802F001020AB1012000E00020704789
:102D500010B500220268134B1A40CC680B6823435D
:102D60004C6923438C692343CC6923430C6A234376
:102D70004C6A23438C6A23434C6B23438C6B234361
:102D80001A430260426922F00702D1E90B3423435F
:102D90001A4342610B6943604B6883608B68C36070
:102DA00010BD00003F801CF0416070477047F8B5CF
:102DB00007460C4607B104B9F8BD002000906A46EA
:102DC0002146384600F001FE009800B9F4E7A669F4
:102DD0000020A06100984069A04205D1009846619A
:102DE000204606F02DFBE7E70098456900E0AD6955
:102DF00015B1A869A042FAD11DB1AE61204606F016
:102E00001FFB00BFD8E700002DE9FC4180460D46BE
:102E1000002001902946404602F06EFA002419E095
:102E200001A80090104850F82400D0E90063324611
:102E3000284600F0E8FD019850B10198D0E9006300
:102E400032460AA0FDF77EFB28460199FFF7AFFF47
:102E5000601CC4B20B4800788442E1DB00200949C1
:102E60000870BDE8FC810000900600206E6F64656C
:102E700020256C6C782069732064656C65746564CA
:102E80000D0A00006600002078B506460C460020BA
:102E9000009006B104B978BD6A462146304600F07C
:102EA00094FD009800B9F6E700984069A04205D16A
:102EB000A069009948610020A061ECE7009845698D
:102EC00000E0AD6915B1A869A042FAD11DB1A069B1
:102ED000A8610020A06100BFDDE7000010B5002060
:102EE0000549086005A10748FDF7E8FC02490860AC
:102EF000FFF712FC10BD000080000020514D54521D
:102F000045435600AC0B0020F8B504460D46164666
:102F100046A003F0FFF94FF4FA7006F0D7F8FFF778
:102F2000FBFB46A003F0F6F94FF4FA7006F0CEF87A
:102F3000FFF7F2FB45A003F0EDF94FF4FA7006F04D
:102F4000C5F8FFF7E9FB4FF480614448FDF78AFDBF
:102F500040F25B7342A246A14048FDF7FFFA3F48AA
:102F600003F0D8F94FF4967006F0B0F846A14A483D
:102F7000FDF7A4FC494908600020494908601CE0AD
:102F800047480068401C46490860C82006F09EF883
:102F90003DA14148FDF792FC404908604048006867
:102FA000642809DD00203E49086008F0A3FE0120E6
:102FB00004F0F2F901F060FA00BF38480068002818
:102FC000DED000BFFFF7A8FB4FF480612348FDF778
:102FD00049FD2B46224633A120480096FDF7BEFA54
:102FE0001E4803F097F940F6B83006F06FF835A1A7
:102FF0002948FDF763FC294908600846006818B9AC
:10300000FFF78AFB0120F8BDFFF786FB2348006825
:1030100018B130A0FDF796FA01E00120F3E7FFF7C1
:103020007BFB33A0FDF78EFA0020ECE741542B51D7
:103030004944454143543D310D0A000041542B5150
:103040004D54434C4F53453D300D0A0041542B51D4
:103050004D54444953433D300D0A00009007002071
:1030600034372E3130392E3138352E3536000000C8
:1030700041542B514D544F50454E3D302C22257319
:10308000222C25640D0A00002B514D544F50454E03
:103090003A20302C30000000AC0B002080000020D3
:1030A0007800002041542B514D54434F4E4E3D303B
:1030B0002C222573222C222573222C222573220DEB
:1030C0000A0000002B514D54434F4E4E3A20302CF5
:1030D000302C3000B0A2C0EFD4C6CEEFC1AACDF8DC
:1030E000C6BDCCA8C1ACBDD3B3C9B9A60D0A0000FA
:1030F000C9E8B1B8D2D1BEADC1ACBDD3B5BDB0A2E7
:10310000C0EFD4C62CD7BCB1B8B7A2CBCDCAFDBED8
:10311000DD205B2E2E5D0D0A000000002DE9F04140
:1031200004460D461646324629462046FFF7ECFE79
:1031300007463846BDE8F08170B504460D464FF4A9
:1031400080613048FDF78EFC2846FDF7EDFB064612
:10315000334622462CA12B48FDF700FA294803F0FC
:10316000D9F84FF47A7005F0B1FF2FA12F48FDF781
:10317000A5FB2F49086000202E4908601DE02D485E
:103180000068401C2B4908604FF4967005F09EFFC4
:1031900025A12648FDF792FB2549086025480068CF
:1031A000642809DD00202349086008F0A3FD012000
:1031B00004F0F2F801F060F900BF1D480068002833
:1031C000DDD000BF284603F0A5F84FF4967005F057
:1031D0007DFF00BF1848008800F040000028F9D0AB
:1031E0001A201549091D08804FF4967005F06EFFEE
:1031F000FFF774FEFFF790FA10A0FDF7A3F9002087
:1032000070BD00009007002041542B514D54505583
:103210004245583D302C312C312C302C2225732244
:103220002C25640D0A0000003E000000AC0B0020BD
:10323000800000207800002000440040D3C3BBA7DA
:10324000CAFDBEDDB7A2CBCDB3C9B9A620205B4F66
:103250004B5D0D0A0000000010B508F04BFD4FF467
:103260007A7005F033FF4FF47A7005F02FFF4FF4BA
:10327000E13009F08BFB00F035FA322005F026FF33
:10328000BFA003F047F84FF4FA7005F01FFFBEA18E
:10329000BE48FDF713FBBE490860FFF73DFA00206A
:1032A000BC49086025E0BB480068401CB94908607B
:1032B000B9A0FDF747F9FFF72FFAB1A003F02AF8FC
:1032C0004FF4FA7005F002FFAFA1B048FDF7F6FA2F
:1032D000AF490860AF480068322809DD0020AD49D9
:1032E000086008F007FD012004F056F801F0C4F86A
:1032F00000BFA74800680028D5D000BFADA003F0EC
:1033000009F84FF4FA7005F0E1FEFFF705FA002026
:10331000A0490860A9A002F0FDFF4FF4FA7005F083
:10332000D5FEA9A19948FDF7C9FA9949086025E099
:1033300098480068401C97490860FFF7EDF99FA086
:1033400002F0E8FF4FF4FA7005F0C0FE9EA18F482E
:10335000FDF7B4FA8E4908608E48006832280CDD0B
:1033600000208C4908609CA0FDF7ECF808F0C2FC36
:10337000012004F011F801F07FF800BF84480068D4
:103380000028D5D000BFFFF7C7F996A002F0C2FF12
:103390004FF4FA7005F09AFEFFF7BEF994A002F020
:1033A000B9FF4FF4FA7005F091FEFFF7B5F992A05E
:1033B00002F0B0FF4FF4FA7005F088FE91A1734857
:1033C000FDF77CFA7249086091A17048FDF776FA22
:1033D0009249086000206F49086028E0FFF79CF9D7
:1033E0006C480068401C6B49086083A002F092FFA3
:1033F0004FF4FA7005F06AFE82A16448FDF75EFAA8
:103400006349086082A16148FDF758FA8349086062
:1034100060480068322809DD00205E49086008F035
:1034200069FC012003F0B8FF01F026F800BF5848FE
:10343000006818B9794800680028CFD000BFFFF7AE
:103440006BF977A002F066FF4FF4FA7005F03EFECC
:10345000FFF762F975A002F05DFF4FF47A7005F096
:1034600035FEFFF759F975A002F054FF4FF47A705A
:1034700005F02CFE44A14548FDF720FA44490860B8
:103480000846006850B141496FA0FDF75BF84FF462
:103490007A7005F01BFEFFF73FF909E03B4977A082
:1034A000FDF750F84FF4967005F010FEFFF734F971
:1034B000FFF732F975A002F02DFF4FF47A7005F096
:1034C00005FEFFF729F975A002F024FF4FF4FA700A
:1034D00005F0FCFDFFF720F974A002F01BFF4FF48C
:1034E000967005F0F3FD28A12848FDF7E7F9284973
:1034F0000860FFF711F971A002F00CFF4FF496700D
:1035000005F0E4FD70A12148FDF7D8F920490860D5
:10351000FFF702F900201F49086022E01D480068FB
:10352000401C1C490860FFF7F7F864A002F0F2FEA7
:103530004FF4967005F0CAFD63A11448FDF7BEF97B
:103540001349086013480068642809DD0020114908
:10355000086008F0CFFB012003F01EFF00F08CFF95
:1035600000BF0B4800680028D8D000BF59A002F067
:10357000D1FE4FF4FA7005F0A9FDFFF7CDF810BDAC
:1035800041540D0A000000004F4B0000AC0B00201E
:1035900080000020780000200D0AB5A5C6ACBBFA5B
:1035A000D5FDD4DAC1ACBDD3B5BDC4A3BFE92E2EC1
:1035B0002E0D0A00415445310D0A000041542B43A1
:1035C00050494E3F0D0A00002B4350494E3A2052BD
:1035D00045414459000000007265736574203467EA
:1035E0000D0A000041542B4353510D0A0000000006
:1035F0004154490D0A00000041542B435245473FB6
:103600000D0A00002B435245473A20302C31000070
:103610002B435245473A20302C35000084000020CF
:1036200041542B434F50533F0D0A000041542B513E
:1036300049434C4F53453D300D0A000041542B4344
:10364000494D490D0A0000003D3D3D3D3D3D3D3D9C
:103650003D3D3D3D0D0ACED2B5C4BFA8BAC5CAC7CF
:10366000203A202573200D0A3D3D3D3D3D3D3D3D29
:103670003D3D3D3D3D3D3D0D0A000000BFA8B4ED80
:10368000CEF3203A202573200D0A000041542B511F
:103690004944454143543D310D0A000041542B51EA
:1036A000494143543D310D0A0000000041542B4371
:1036B000474154543D310D0A0000000041542B4352
:1036C000474154543F0D0A002B43474154543A207C
:1036D0003100000041542B434750414444520D0AED
:1036E000000000001CB50121084600F079FF02200F
:1036F000009001208DF8040000208DF806000320C2
:103700008DF805006946034800F0A1F9012002493F
:1037100008601CBD000002408402404210B54FF416
:103720008071024800F002FA10BD0000001402404F
:103730001CB50121202000F013FF4FF48070009091
:1037400001208DF8040000208DF806008DF805009A
:103750008DF807006946044800F079F94FF480714C
:10376000014800F0DFF91CBD0014024010B506A0AE
:10377000FCF7E8FE142005F0EDFC06480068012087
:1037800000F00AF810BD0000BDF8C8EBD6D0B6CFE7
:10379000200D0A0000024042014908607047000005
:1037A000143C0140002123498279002A3AD00A467C
:1037B000126803689A430B461A600A1D1268036870
:1037C0009A430B1D1A60027911440A6803681A4370
:1037D0000A60184A0832126803689A43154B083386
:1037E0001A601A1D126803689A43124B0C331A6050
:1037F0004279102A0ED11A1F126803681A430D4B22
:1038000008331A601A1D126803681A43094B0C33F7
:103810001A600DE00749427911440A6803681A43A7
:103820000A6005E0027911440A6803689A430A6055
:1038300070470000003C01400149086070470000EB
:103840000C3C024070B504460A460026092502B920
:1038500009E0012A01D1160205E0022A01D116026F
:1038600001E04FF4407600F09FF80546092D28D17D
:103870001548006820F44070134908600846006845
:10388000304308600846006820F0F80008600846E9
:10389000006844F0020108430B49086008460068CC
:1038A00040F48030086000F07FF805460648006864
:1038B00020F00200044908600846006820F0F80083
:1038C0000860284670BD0000103C024009201349E2
:1038D000096801F48031B1F5803F01D101201CE07D
:1038E0000E49096801F0100109B1062015E00B49E5
:1038F000096801F4807109B102200EE007490968E6
:1039000001F0EF0109B1072007E00449096801F05F
:10391000020109B1082000E0092070470C3C024078
:103920000348006840F0004001490860704700000B
:10393000103C024030B502460C46092500F034F830
:103940000546092D19D10E48006820F440700C4935
:1039500008600846006840F4807008600846006807
:1039600040F001000860148000F01EF8054604488D
:10397000006820F0010002490860284630BD0000C0
:10398000103C02400548006800F0004028B104489F
:1039900002490C390860034808607047103C024037
:1039A00023016745AB89EFCD08B509200090FFF7EB
:1039B0008DFF009002E0FFF789FF00909DF8000066
:1039C0000128F8D09DF8000008BDF0B504460F4668
:1039D00016460020306014B10FB1A74200D1F0BDEF
:1039E00065690CE0BD4201D13460F8E732463946E2
:1039F0002846FFF7EAFF306800B1F0E7AD69002D17
:103A0000F0D100BFEBE72DE9F84104461746984690
:103A1000079D002028600CB9BDE8F881D4E90001B9
:103A2000784081EA0801084301D12C60F4E7666917
:103A300009E03A46434630460095FFF7E4FF286820
:103A400000B1E9E7B669002EF3D100BFE4E7F0B5B5
:103A50000A4600210023002400BF3DE0012505FAAD
:103A600001F3156805EA03049C4234D105684F0050
:103A70000326BE40B543056015794E00B540066883
:103A8000354305601579012D02D01579022D16D127
:103A900085684F000326BE40B543856055794E00CA
:103AA000B540866835438560456801268E40B5433C
:103AB0004560456896798E40B6B235434560C56825
:103AC0004F000326BE40B543C560D5794E00B540D2
:103AD000C6683543C560491C1029BFD3F0BDF0B599
:103AE000002300244D07ED0E02FA05F3CE1000F17D
:103AF000200555F826504E07F70E0F26BE40B54359
:103B0000CF1000F1200646F82750CE1000F1200516
:103B100055F8265045EA0304CE1000F1200545F87B
:103B20002640F0BD418370470183704742694A4097
:103B30004261704700BFFEE710B500200F490860E2
:103B40000F48006820F440200D49086008460068CE
:103B500040F48020086000200A49C1F8A402022035
:103B600005F0D4FA012005490860022005F0CEFADC
:103B700001200549C1F8A00210BD0000A00240428A
:103B80000008024000004142000040421CB50121F3
:103B9000052000F0E5FC4FF40070009001208DF846
:103BA00004008DF8060003208DF8050001208DF833
:103BB000070069460848FFF74AFF4FF480700090FD
:103BC00069460648FFF743FF01200549086005499B
:103BD000C1F8A4021CBD0000000802400000024021
:103BE000A00240420000414210B500200F49086089
:103BF0000F48006820F440200D490860084600681E
:103C000040F48020086001200A49C1F8A402022083
:103C100005F07CFA012005490860022005F076FADB
:103C200001200549C1F8A00210BD0000A0024042D9
:103C300000080240000041420000404270B50546C5
:103C400000241548006820F4402013490860084605
:103C500000680860002615E0002010490860042074
:103C600005F054FA01200E49C1F8A0026006040EC6
:103C70000C48006808B1601CC4B2012005F046FA87
:103C8000701CC6B2082EE7DB15B9FFF7ADFF01E0E7
:103C9000FFF752FF204670BD00080240A0024042DC
:103CA00000004042240241422DE9F0410546884689
:103CB00016461F46002400F085F8002141EA450120
:103CC000C8B200F04BF800F0C9F8404600F046F8E2
:103CD00000F0C4F800F076F8012101EB4501C8B20C
:103CE00000F03CF800F0BAF800BF0CE0701EA042F3
:103CF00004D10020FFF7A2FF385503E00120FFF7B1
:103D00009DFF3855641CB442F0DB00F081F8BDE83B
:103D1000F08170B504460D4600F054F8002141EAE8
:103D20004401C8B200F01AF800F098F8284600F0F4
:103D300015F800F093F800F045F8012101EB44017B
:103D4000C8B200F00BF800F089F80020FFF776FF0A
:103D5000064600F05DF8304670BD000070B50446C0
:103D60001448006820F440201249086008460068A2
:103D700040F48020086000200F490860002516E00C
:103D8000E0090E4908606006040E022005F0BEF945
:103D900001200B49C1F8A002022005F0B7F900206C
:103DA00005490860022005F0B1F9681CC5B2082D6C
:103DB000E6DB70BD00080240A0024042A40241427E
:103DC0000000404210B50F48006820F440200D4923
:103DD00008600846006840F48020086001200A4915
:103DE00008600A49C1F8A002042005F08FF90020FC
:103DF00005490860042005F089F900200349C1F84D
:103E0000A00210BD00080240A4024142000040424E
:103E100010B50F48006820F440200D49086008469E
:103E2000006840F48020086000200A4908600A49C0
:103E3000C1F8A402042005F069F9012005490860D1
:103E40000549C1F8A402022005F060F910BD000088
:103E500000080240A00240420000414210B5002488
:103E60001248006820F440201049086008460068A5
:103E7000086001200E49086005F048F901200D494D
:103E8000C1F8A00205F042F907E0601CC4B2FA2CA8
:103E900003DDFFF7BDFF012010BD05488038006835
:103EA0000028F2D10449086000BFF5E7000802408D
:103EB000A402414200004042A002404270B50446C4
:103EC0000D461646FFF77EFF002141EA4401C8B2C5
:103ED000FFF744FFFFF7C2FF18B1FFF799FF01207A
:103EE00070BD2846FFF73AFFFFF7B8FF3046FFF7EF
:103EF00035FFFFF7B3FF18B1FFF78AFF0120EFE7A7
:103F0000FFF786FF0020EBE710B50446FFF73EFE03
:103F100044F227120021204600F001F810BD70B5D0
:103F200005460E461446FFF74DFF002141EA4501C4
:103F3000C8B2FFF713FFFFF791FF18B1FFF768FF53
:103F4000012070BD3046FFF709FFFFF787FF18B16A
:103F5000FFF75EFF0220F4E72012FFF7FFFEFFF7F6
:103F60007DFF18B1FFF754FF0320EAE7E0B2FFF747
:103F7000F5FEFFF773FF18B1FFF74AFF0420E0E7F3
:103F8000FFF746FF0020DCE74CF6CC400149086013
:103F9000704700000030004010B500F013F810BD6D
:103FA00070B505460C4645F2555000F01FF82846FE
:103FB00000F010F8204600F013F800F003F8FFF7C7
:103FC000E3FF70BD4AF6AA2001490860704700006F
:103FD0000030004001494860704700000030004058
:103FE00001498860704700000030004001490860C6
:103FF00070470000003000401CB50121112000F086
:10400000AFFA1020009000208DF8040003208DF8F6
:10401000050001208DF8070069460648FFF717FDE7
:104020000120009002208DF8070069460248FFF742
:104030000EFD1CBD00100240000002401CB5012115
:10404000202000F08DFA01208DF8040002208DF868
:10405000050000208DF806004FF4C060009069460E
:104060000648FFF7F4FC4FF400710448FFF75CFDCD
:104070004FF480610148FFF757FD1CBD001402405A
:1040800070B5044600250CB1012000E00020044674
:1040900008F0FAFE1A48008840280FDA19481A4931
:1040A0000988445424B119480088401C17490880E5
:1040B00013480088401C1249088013E01148124937
:1040C0000988455C25B111480088401E0F490880C9
:1040D0000C480D490988445424B10C480088401C00
:1040E0000A49088008480088401C0749088008469B
:1040F0000088402801DB0020088008F009FF70BD1F
:104100003E00002090030020400000203C000020E2
:104110001CB50121022000F023FA4020009001206C
:104120008DF8040000208DF8060003208DF80500AE
:1041300001208DF8070069460348FFF788FC4021FD
:104140000148FFF7F1FC1CBD0004024000BFFEE780
:1041500070B50125002428E016A218A11AA0FEF7C8
:10416000DDFF05464FF47A7004F0B0FF214619A038
:10417000FCF7E8F9601C84B2322C16DD07F0BAFDBA
:10418000012080F3138800BF00BFBFF34F8F164894
:10419000006800F4E06015490843001D12490860FA
:1041A000BFF34F8F00BF00BFFEE7002DD4D100BF8B
:1041B00070BD00007075626C696300007465737493
:1041C0005F636C69656E740057534E5F47575F308D
:1041D00030310000C1ACBDD3B4CECAFD3A20256455
:1041E000B4CE0D0A000000000CED00E00000FA055E
:1041F0000FB430B58BB0FF211A48FCF733FC0EA882
:10420000808C0EA9498C0EAA128C0EABDB8BCDE9EB
:104210000632CDE90810DDF85210DDF84E00DDF869
:104220004A20DDF84630CDE90232CDE904010EA87E
:1042300080890EA94989CDE90010DDF83A40DDF802
:104240003E30224608A10748FCF788F9054912A02C
:10425000FCF778F9034911A0FEF76EFF0BB030BCF4
:104260005DF814FBA20400207B22706172616D7303
:10427000223A22256C6C7820257820257820257814
:10428000202578202578202578202578202578205D
:104290002578202578227D002573000073656E73D4
:1042A0006F722F6461746100FEB500240025012146
:1042B000080700F075F9012000F0F4F8012000F083
:1042C00019FC06463EB131463CA0FCF73BF9002103
:1042D000012000F071FE002000F00CFC85B249F2D4
:1042E0002850854206D1012000F04AFA00F082FDF4
:1042F0000020FEBD012000F027FA142004F0E6FEA5
:1043000008E0601CC4B20A2004F0E0FEB4F5FA7FB5
:1043100000DB04E0412000F0F7F90028F1D000BFF5
:10432000412000F0F1F920B14FF4807000F02EFA36
:1043300019E0002000F008FA012000F01BFA002428
:1043400008E0601CC4B20A2004F0C0FEC82C01DBE7
:104350000120CEE7612000F0D7F90028F1D04FF41A
:10436000007000F013FA012000F00AFA00F042FD9C
:10437000002000F0BFFB85B249F2285085421AD0D8
:104380007F20019000200090FF200290684600F0FE
:104390007FFB0023322226210F2000F0A7FC0423FC
:1043A0000B220721182000F08FFC49F22851002031
:1043B00000F002FE00BF00209BE700005254435F64
:1043C000424B505F445231286C61737420726573A4
:1043D0006574206D61726B6572293D3078253038C7
:1043E0006C780D0A000000007047000070B50021D5
:1043F00000230F22C4781CB3174C246804F4E06433
:10440000C4F5E064C4F30721C1F10404E3B20A4136
:1044100044789C40E1B28478144021430C07210E7B
:104420000E4C05786155047804F01F050124AC405A
:1044300005786D11AD0005F1E025C5F8004109E0F2
:10444000047804F01F050124AC40054D0678761170
:1044500045F8264070BD00000CED00E000E400E0EF
:1044600080E100E002490143024A11607047000008
:104470000000FA050CED00E0BFF34F8F064800681E
:1044800000F4E06005490843001D03490860BFF3DC
:104490004F8F00BFFEE700000CED00E00000FA05C2
:1044A00070477047014908627047000000000E42E3
:1044B0001CB50121082000F053F80121202000F054
:1044C0004FF80121402000F04BF8402000900120DF
:1044D0008DF8040000208DF8060003208DF80500FB
:1044E00001208DF8070069461A48FFF7B0FA10203E
:1044F000009001208DF8040000208DF806000320B4
:104500008DF8050002208DF8070069461248FFF774
:104510009EFA4FF48070009001208DF80400002076
:104520008DF8060003208DF8050002208DF80700A5
:1045300069460A48FFF78BFA40210648FFF7F4FA6C
:104540004FF480710548FFF7EFFA10210248FFF79A
:10455000EBFA1CBD000C024000140240001802409F
:1045600029B1064A12680243044B1A6004E0034A68
:1045700012688243014B1A607047000030380240D5
:1045800029B1064A12680243044B1A6004E0034A48
:1045900012688243014B1A607047000034380240B1
:1045A00029B1064A12680243044B1A6004E0034A28
:1045B00012688243014B1A60704700004038024085
:1045C00029B1064A12680243044B1A6004E0034A08
:1045D00012688243014B1A60704700002038024085
:1045E00029B1064A12680243044B1A6004E0034AE8
:1045F00012688243014B1A60704700004438024041
:1046000029B1064A12680243044B1A6004E0034AC7
:1046100012688243014B1A60704700002438024040
:10462000F0B5002100220024022500260223324F8B
:104630003F6807F00C0121B1042905D0082937D1C2
:1046400005E02E4F076036E02D4F076033E02A4F1C
:104650003F1F3F68C7F38056274F3F1F3F6807F053
:104660003F036EB1264FB7FBF3F7DFF88CC0ACF118
:10467000040CDCF800C0CCF3881C07FB0CF40CE045
:104680001E4FB7FBF3F7DFF870C0ACF1040CDCF899
:1046900000C0CCF3881C07FB0CF4174F3F1F3F688A
:1046A000C7F301477F1C7D00B4FBF5F7076002E00C
:1046B000124F076000BF00BF0F4F3F6807F0F001C7
:1046C0000909104F7A5C0768D74047600A4F3F6876
:1046D00007F4E051890A0B4F7A5C4768D74087603E
:1046E000054F3F6807F46041490B064F7A5C476805
:1046F000D740C760F0BD0000083802400024F40035
:1047000000127A002001002010B50146002200238B
:1047100000204A11012A02D10A4C236808E0022A2B
:1047200003D1084C7034236802E0064C74342368CB
:1047300001F01F02012494401C400CB1012000E054
:10474000002010BD003802400021094A117011708C
:10475000012802D0042808D103E00121044A117085
:1047600004E00521024A117000E000BF00BF70475D
:10477000703802400149086070470000800E4742CF
:1047800001490860704700003C0E4742002100F4D8
:104790004072B2F5407F08D1094A116821F4F8113E
:1047A000084A02401143064A1160054A68321268FD
:1047B000C0F30B031A43024B68331A6070470000C2
:1047C00008380240FFFCFF0F30B10749096841F08B
:1047D0000401054A116005E00349096821F004015C
:1047E000014A116070470000000806500146002091
:1047F000034A12680A400AB1012000E00020704715
:104800000408065001480068704700000808065078
:1048100070B504460D4600F009F8291B491CB0FB91
:10482000F1F201FB1200204470BD000010B50AF047
:1048300087FB012814D00AF093FB04460AE00AF033
:104840008FFB001B0A2802D90AF08AFB10BD012049
:1048500008F0D2FD0120FFF7C9FF0028EFD011E0DA
:10486000002409E00A2004F051FC601C04460749BA
:10487000884201D30020E9E70120FFF7B7FF0028B5
:10488000F0D000BFFFF7BEFFE0E70000A086010008
:1048900010B5002401214020FFF772FE0120FFF730
:1048A00093FF0AE0601C84B2642004F02FFC42F203
:1048B0001070844201DB012010BD0120FFF796FF3C
:1048C0000028EFD00020F7E710B54FF4807000F01B
:1048D00073F8012802D1000200F01EF84FF40030F6
:1048E000FEF75AFF10BD014600BF080900EB80002B
:1048F000420001F00F001044C0B270470146002290
:1049000004E0501CC2B2A1F10A00C1B20A29F8DACF
:10491000100741EA1060704781B241F08001044AFB
:10492000126802F0800262EA0101014A11607047D8
:104930000C280040002101098AB242F08002044B99
:104940001B6803F0800363EA0202014B1A607047A0
:104950000C28004008B50022009200200021104AD7
:10496000126802F04002CAB9421E0D4B1A6000BF25
:104970000B4A126802F04001009A521C0092009A01
:10498000B2F5803F01D00029F2D0054A126802F04A
:1049900040020AB1012002E0002000E0012008BD31
:1049A0000C2800400348006820F08000014908609E
:1049B000704700000C28004010B50146002000227E
:1049C000054B1B68054C03EA040202EA01030BB124
:1049D000012000E0002010BD0C2800407F3F0100B6
:1049E00030B501460020002200230C4C246804F05E
:1049F00004020A4C383C24680C4002EAD13544EAEF
:104A00000503064C343C246804EA11121BB194B22D
:104A10000CB1012000E0002030BD00004028004023
:104A20000148006870470000A0000020CA22174B10
:104A30001A6053221A6091B1144A1C3A126820F08D
:104A400004031A43114B1C3B1A60104A1C321268B3
:104A500000F004031A430D4B1C331A6011E00B4A9B
:104A60001C3A126820F004039A43084B1C3B1A605E
:104A7000064A1C32126800F004039A43034B1C33AD
:104A80001A60FF22014B1A60704700002428004082
:104A900030B504460025CA20154908605320086037
:104AA000FFF758FF00B91DE011481C38006820F0DE
:104AB00040000F491C390860084600682168084317
:104AC0000B491C3908600A491439A0680860084677
:104AD0000068A18840EA0140054914390860FFF7E1
:104AE00061FF0125FF2002490860284630BD000013
:104AF0002428004008B5014600200090044800909A
:104B0000009800EB810000900098006808BD00004C
:104B1000502800402DE9F04105460C4600260027AC
:104B20004DB9607800F01000102804D1607820F0B2
:104B300010000A30607005B908E06078FFF7D3FE16
:104B40000646A078FFF7CFFE064600BF55B1E078D5
:104B50000004617840EA0120A1780843217840EA06
:104B6000413611E0E078FFF7C9FE4FEA004860786F
:104B7000FFF7C4FE48EA0028A078FFF7BFFE48EA26
:104B80000008207848EA4036CA20124908605320BD
:104B90000860FFF7DFFE08B9002714E00E48304038
:104BA0000C4920390860FFF7FDFE0A481C380068F0
:104BB00000F0200030B900F01DF908B9002702E02C
:104BC000012700E00127FF20024908603846BDE8C0
:104BD000F0810000242800403FFFFF002DE9F04154
:104BE00005460C46002600274DB92E48006800F007
:104BF000400000B102E00020E07000BF0DE0294855
:104C0000006800F0400020B12078FFF76CFE0646F7
:104C100002E00020E07000BF00BF55B12078000422
:104C2000617840EA0120A1780843E17840EA014632
:104C300011E02078FFF762FE4FEA00486078FFF746
:104C40005DFE48EA0028A078FFF758FE48EA000811
:104C5000E07848EA0046CA2012491C310860532017
:104C60000860FFF777FE08B9002713E00E483040D0
:104C70000C4908390860FFF795FE0A48006800F003
:104C8000200030B900F0B6F808B9002702E001278B
:104C900000E00127FF2003491C3108603846BDE8C9
:104CA000F0810000082800407F7F7F00CA21054A6C
:104CB000116053211160034910390860FF21116010
:104CC0007047000024280040F8B504460D461746FA
:104CD0001E468DF802708DF801508DF800608DF839
:104CE000034069460020FFF715FFF8BDF8B50446FC
:104CF0000D4616461F468DF803708DF800408DF85E
:104D000001508DF8026069460020FFF767FFF8BD8B
:104D10003EB505460C46002000F0B4F8284600F0E9
:104D200099F82046FFF7C2FF4FF48040FFF702FEDC
:104D30004FF48000FEF730FD01218803FFF776FE77
:104D4000012000F09FF84FF48000019001208DF8C1
:104D50000A0000208DF8080008208DF8090001A83D
:104D6000FEF720FD03208DF8000001208DF80300E0
:104D700002208DF801008DF802006846FFF736FB2F
:104D80003EBD000010B54FF48040FFF729FE01281A
:104D900022D18003FFF7CEFD12480068401C114964
:104DA000086008460068302816D3002008600E49C5
:104DB000012000F001F900BFBFF34F8F0B480068DE
:104DC00000F4E0600A490843001D08490860BFF389
:104DD0004F8F00BF00BFFEE74FF48000FEF7DCFC02
:104DE00010BD00009C000020010026A20CED00E098
:104DF0000000FA0508B50022009200200021CA2216
:104E0000134B1A6053221A60114A183A126822F0A2
:104E1000A0020F4B183B1A6000BF0D4A183A1268E7
:104E200002F02001009A521C0092009AB2F5003F55
:104E300001D00029F1D0064A183A126802F0200287
:104E40000AB1012000E00020FF22014B1A6008BDDA
:104E500024280040CA210A4A1160532111600849E0
:104E60001C39096821F00701054A1C3A11601146F6
:104E7000096801431160FF21014A11607047000079
:104E80002428004018B5014600230093002200208A
:104E9000CA23194C23605323236049B1164B1C3B92
:104EA0001B6843F48063144C1C3C236001201FE00A
:104EB000114B1C3B1B6823F480630F4C1C3C23608C
:104EC00000BF0D4B183B1B6803F00402009B5B1CEA
:104ED0000093009BB3F5803F01D0002AF1D0064B30
:104EE000183B1B6803F004030BB9002000E001200D
:104EF000FF23014C236018BD242800402DE9FC5FEE
:104F000082464FF0000B00200190009000BF00BFD0
:104F1000BAF1000F01D1BDE8FC9F04F0D3FE834637
:104F200024480068C0F30E00019022480068C0F3D6
:104F3000064000900198411C0098401CA1FB0067AE
:104F4000BBF1000F05D0002186EA0100794008433B
:104F500009D1BAF5803F02D94FF6FF70DBE7AAF11D
:104F6000010080B2D7E70222002330463946FBF722
:104F700042FAAAFB0B2310EB0208594132463B468A
:104F80004046FBF738FA04460D46002384EA030046
:104F900085EA0301084301D1012400254FF4803143
:104FA0000020091BA84101D24FF48034601E80B25A
:104FB000B1E700001028004008B500220092044A22
:104FC0000092009A02EB80020092009A116008BDE4
:104FD0005028004038B559A0FBF7B4FA5D48016885
:104FE00040685D4AD2E9003259405040014346D002
:104FF0000020012302464FF40C61009057480068DE
:1050000009F024F9564908600846007800F040008D
:10501000002830D00846007800F0800058B351A036
:10502000FBF790FA4FF400614C48006809F040F833
:1050300009F096FF04460020034622460121009015
:105040004E4800680AF030FB4DA0FBF77BFA44485D
:10505000008800F4006000286ED109F081FF04464A
:105060004FF0FF30002322460221009043480068A1
:105070000AF01AFB60E045A0FBF764FA5CE0002050
:10508000012302464FF40C6100903448006809F097
:10509000DDF8334908600846007800F0400070B33E
:1050A0000846007800F0800048B30846008800F405
:1050B000006020B337A0FBF745FA8021274800683D
:1050C00008F0F6FF2348083801684068374AC2E90B
:1050D000001009F045FF0446002003462246012146
:1050E0000090334800680AF0DFFA1A4908390C6862
:1050F0004B682246184903C903F043FB1CE0FFE755
:105100001748007800F08000B0B9124808380368EA
:1051100042682648D0E900105940504001430BD165
:1051200024A0FBF70FFA0B480838046843682246AE
:10513000094903C903F025FB38BD0000BDD3CAD51A
:10514000B5BD525453D0CD4D4143D6A1C1CB0D0A6C
:10515000000000001D03002020000020340000207B
:1051600038000020BDD3CAD5B5BDC1CBB1F0B5C4A0
:10517000BDDAB5E3B5C45254530D0A001001002046
:10518000BFAAC6F4B6A8CAB10D0A0000B6AAC6FAEC
:105190000D0A0000BDD3CAD5B5BDC1CB525453A32F
:1051A000ACB7A2CBCD4354530D0A00002800002019
:1051B00014010020D6D8D0C2B7A2CBCD4354530D92
:1051C0000A00000030B5054605B930BD6C6905E040
:1051D0002046FFF7F7FF00202072A469002CF7D1CA
:1051E00000BFF2E710B5044606A0FBF7ABF980213B
:1051F0000A48006808F0A4FF0021094A11605160C4
:1052000010BD0000D6D8D6C3BDD3CAD5D7B4CCAC58
:10521000CAB1BCE4B5BD0D0A000000003400002096
:105220002800002010B5044604B910BD00206061BC
:1052300006F040FDC4E900010021A160E160FF200B
:1052400020740020207684F8E0000120A074FF2064
:10525000607400BFE9E7000001461C48814201D2AA
:10526000002070471A48814201D20820F9E7194806
:10527000814201D21020F4E71748814201D2182060
:10528000EFE71648814201D22020EAE71448814224
:1052900001D22820E5E71348814201D23020E0E71F
:1052A0001148814201D23820DBE71048814201D207
:1052B0004020D6E70E48814201D24820D1E70D4870
:1052C000814201D25020CCE75820CAE700400008B4
:1052D0000080000800C0000800000108000002086B
:1052E00000000408000006080000080800000A0882
:1052F00000000C0800000E0870B504460D4600269C
:1053000009F01EFE012802D009F02AFE06463246A8
:105310002946204600F002F870BD00002DE9F04754
:105320000546894616460DB9BDE8F0876C6920E050
:10533000324649462046FFF7F1FF3146204607F046
:10534000B1FAA8B1D4E900733A460CA0FBF7FAF819
:105350000F480078402809DA0E480D49097840F8CE
:1053600021400B480078401C09490870A46900E0FE
:10537000A469002CDCD100BFD6E700006E6F646525
:1053800020256C6C7820697320646561640D0A00C7
:10539000660000209006002010B5044604A0FBF72C
:1053A000D1F810210648006808F0CAFE10BD0000C0
:1053B000B6A8CAB1C6F7CAB1BCE4B5BD0D0A0000B3
:1053C0004C00002070B52DED088B86B000249FEDB9
:1053D000630A8DED050A9FED610A8DED040A002038
:1053E0000390FCF739FF06F081FF322003F06EFED8
:1053F00003AA04A905A8FCF78DFF9DED050AFCF79B
:10540000BBFF574948819DED040AFCF743FF54490F
:105410008881BDF80C10524881840146898901EBCE
:105420004102C2EBC1100AF026FC9FED4E0B53EC7B
:10543000102B0AF099FA9FED4D0B53EC102B0AF04C
:10544000D7F941EC180B46494989AF2201FB02F01C
:105450000AF011FC9FED430B53EC102B0AF084FA79
:105460009FED440B53EC102B0AF0C2F941EC190BE1
:105470008DED008B53EC192B40A0FBF763F8FDF783
:1054800001F830B1322003F021FE03F015F9044693
:1054900000E000243248C0F80E40D0F80E0000EEC4
:1054A000100AB8EE400ADFED3D0A80EE201A11EE38
:1054B000105A28460AF03CFF41EC180B53EC182B0D
:1054C00037A0FBF73FF8642003F000FE0520FDF74E
:1054D000AFF904462248C0F81240642003F0F6FDFC
:1054E0000620FDF7A5F904461D48C0F816406420C3
:1054F00003F0ECFD0720FDF79BF904461848C0F8BF
:105500001A40642003F0E2FDFDF73EF9044614481A
:10551000C483FDF7BEF8642003F0D8FD642003F0D7
:10552000D5FDFDF72FFA04460D480484642003F0EE
:10553000CDFDFDF7D3F904460948448406F0C4FEC6
:10554000FCF79AFE002007F0B1FB0646314618A092
:10555000FAF7F8FF06B0BDEC088B70BD0000000044
:10556000D003002000000000E0FFEF40000000003A
:10557000000018C000000000008046C054656D7037
:10558000657261747572653A2025662C2048756DC8
:1055900069646974793A25660D0A00000000804349
:1055A00070726573737572653A25660D0A000000A6
:1055B00073656E645F74696D6572C8CECEF1CAB9E9
:1055C000D3C3C7E9BFF6A3BA256C640D0A00000077
:1055D0000CB50020019000903448006840F4803001
:1055E0003249086000BF3148006800F40030009084
:1055F0000198401C0190009818B90198B0F5A04F8F
:10560000F1D12A48006800F4003010B10120009068
:1056100001E0002000900098012846D12348403046
:10562000006840F0805021494031086020480068FF
:1056300040F440401E4908601C48083000681B497F
:10564000083108600846006840F4004008600846D9
:10565000006840F4A05008601648091F0860081F41
:10566000006840F08070091F086000BF0F480068A4
:1056700000F000700028F9D040F205700E49086073
:105680000A480830006820F0030008490831086023
:105690000846006840F00200086000BF0348083078
:1056A000006800F00C000828F8D10CBD003802405A
:1056B0000070004008544007003C0240042808D114
:1056C0004FF0E021096941F004014FF0E02211613F
:1056D00007E04FF0E021096921F004014FF0E022DA
:1056E0001161704710B509F02BFC012801D008F0BA
:1056F00035FF10BD10B51548006840F4700013491F
:1057000008601348006840F001001149086000205B
:105710000F49083108600E4800680E4908400C49DE
:1057200008600D48091D0860081F006820F48020EB
:10573000091F0860002006490C310860FFF748FF88
:105740004FF0006001498039086010BD88ED00E02D
:1057500000380240FFFFF6FE10300024F0B50C4682
:10576000154600210022068C4FF6FE773E40068447
:10577000018B028C4FF60C7631407E1C06EA031634
:105780002E4331434FF6F576324044F00106324362
:1057900001830284F0BDF0B50C46154600210022BD
:1057A0000026078C4FF6EF7C07EA0C070784018B75
:1057B000028C4FF6FF7707EA041640F6FF473940A0
:1057C0004FF6FF7707EA033739434FF6FF7707EACB
:1057D000052739434FF65F773A4046F010073A43C2
:1057E00001830284F0BDF0B50C461546002100226D
:1057F0000026078C4FF6FF6C07EA0C070784818BA5
:10580000028C4FF6FF7707EA04264FF60C773940F3
:105810004FF6FF7707EA03172F4339434FF2FF573D
:105820003A4046F480773A4381830284F0BDF0B574
:105830000C461546002100220026078C4EF6FF7C00
:1058400007EA0C070784818B028C4FF6FF7707EA83
:10585000043640F6FF4739404FF6FF7707EA052741
:1058600039434FF6FF7707EA0337394345F6FF77A9
:105870003A4046F480573A4381830284F0BD10B524
:105880000121880700F057F9012801D1FDF746FFF3
:105890000121880700F075F810BD7FB505460C465C
:1058A00001210846FEF77CFEADF80450029400206A
:1058B000ADF80C00ADF8060001221146900700F08B
:1058C00083F901A94FF0804000F0B6F91C208DF853
:1058D000000001208DF8030004208DF80100002055
:1058E0008DF802006846FEF781FD0121880700F06F
:1058F0004BF87FBD10B50121074800F01CF90128C5
:1059000004D106480068401C04490860012102488F
:1059100000F037F810BD000000040040180000201F
:105920007FB505460C4601210220FEF739FEADF891
:10593000045002940020ADF80C00ADF806000122DE
:1059400011460D4800F040F901A90B4800F074F928
:105950001D208DF8000001208DF8030009208DF82E
:10596000010000208DF802006846FEF73FFD01218E
:10597000014800F009F87FBD00040040CA430282DC
:105980007047CA430282704721B1028842F0010287
:10599000028004E002884FF6FE731A4002807047CE
:1059A00010B504465548844208D101210846FEF747
:1059B00027FE00210120FEF723FE9DE0B4F1804F79
:1059C00008D101210846FEF7FBFD00210120FEF76A
:1059D000F7FD91E04A48844208D101210220FEF7F8
:1059E000EFFD00210220FEF7EBFD85E045488442F3
:1059F00008D101210420FEF7E3FD00210420FEF779
:105A0000DFFD79E04048844208D101210820FEF7FB
:105A1000D7FD00210820FEF7D3FD6DE03B4884420E
:105A200008D101211020FEF7CBFD00211020FEF748
:105A3000C7FD61E03648844208D101212020FEF7ED
:105A4000BFFD00212020FEF7BBFD55E03148844218
:105A500008D101210220FEF7D3FD00210220FEF72C
:105A6000CFFD49E02C48844209D101210804FEF70A
:105A7000C7FD00214FF48030FEF7C2FD3CE027480F
:105A8000844209D101214804FEF7BAFD00214FF4F8
:105A90000030FEF7B5FD2FE02148844209D10121F5
:105AA0008804FEF7ADFD00214FF48020FEF7A8FD2D
:105AB00022E01C48844208D101214020FEF780FDED
:105AC00000214020FEF77CFD16E01748844208D1F3
:105AD00001218020FEF774FD00218020FEF770FD7B
