:020000040800F2
:10000000689C0020690300082D390008653100084C
:10001000E9370008AD2100084D5900080000000034
:10002000000000000000000000000000A90200081D
:100030007D2C00080000000005030008A94C000802
:10004000830300088303000883030008A14200081B
:1000500083030008830300081D2F000883030008A2
:100060008303000883030008830300088303000858
:100070008303000883030008830300088303000848
:100080008303000883030008830300088303000838
:100090008303000883030008830300088303000828
:1000A0008303000883030008830300088303000818
:1000B000434E0008B94E000883030008830300087C
:1000C00083030008830300088303000883030008F8
:1000D00083030008C955000865560008C15600088A
:1000E00083030008E53D000883030008830300083C
:1000F00083030008830300088303000883030008C8
:1001000083030008830300088303000883030008B7
:10011000CD5300088303000883030008830300080D
:100120008303000883030008830300088303000897
:100130008303000883030008830300088303000887
:100140008303000883030008830300088303000877
:100150008303000883030008830300088303000867
:100160008303000883030008830300088303000857
:100170008303000883030008830300088303000847
:10018000830300088303000800F002F800F07DF804
:100190000AA090E8000C82448344AAF10107DA45E2
:1001A00001D100F072F8AFF2090EBAE80F0013F0B7
:1001B000010F18BFFB1A43F0010318474007010065
:1001C000600701000A444FF0000C10F8013B13F0E7
:1001D000070408BF10F8014B1D1108BF10F8015BA0
:1001E000641E05D010F8016B641E01F8016BF9D193
:1001F00013F0080F1EBF10F8014BAD1C0C1B09D1EA
:100200006D1E58BF01F801CBFAD505E014F8016B5B
:1002100001F8016B6D1EF9D59142D6D370470000ED
:100220000023002400250026103A28BF78C1FBD8FF
:10023000520728BF30C148BF0B607047662910F0D5
:10024000B48003681B0A28BF41F08001642900F0D4
:10025000DF81752900F0DC81782900F04082F829DF
:1002600000F04B82732900F0E086002070471FB534
:1002700010F091F800F0F0FE0400002000210FF0D3
:1002800025FAE0601FBD10B510BD00F0EDFF11466E
:10029000FFF7EDFF09F0F4F901F00BF803B4FFF7F5
:1002A000F2FF03BC06F09BFC2C4B19680868B0E811
:1002B000F04F80F30988BFF36F8F4FF0000080F399
:1002C000118870470000000008480068006880F34B
:1002D00008884FF0000080F3148862B661B6BFF35F
:1002E0004F8FBFF36F8F00DF00BF00BF08ED00E04E
:1002F000DFF80C00016841F470010160704700BF35
:1003000088ED00E0EFF30980BFF36F8F134B1A689D
:100310001EF0100F08BF20ED108A20E9F04F10608A
:1003200009B44FF0500080F31188BFF34F8FBFF333
:100330006F8F0DF04DFC4FF0000080F3118809BC69
:1003400019680868B0E8F04F1EF0100F08BFB0EC55
:10035000108A80F30988BFF36F8F70471001002067
:10036000EFF30580704700000948804709480047BF
:10037000FEE7FEE7FEE7FEE7FEE7FEE7FEE7FEE755
:10038000FEE7FEE704480549054A064B70470000B2
:10039000B94C000889010008686A0020689C0020A8
:1003A000686C0020686C0020704753EA020C00F073
:1003B00069802DE9F04B4FF00006002B1FBFB3FA08
:1003C00083F503FA05F424FA05F65E4012BF1643DE
:1003D000B2FA82F502FA05F4C5F120051EBF22FA31
:1003E00005FC44EA0C04203556EA044C4FEA144458
:1003F00018BF641C4FF000084FF00009904271EBE9
:10040000030C39D3002919BFB1FA81F701FA07F6B5
:10041000B0FA80F700FA07F6C7F120071EBF20FAEE
:1004200007FC46EA0C062037B6FBF4FCA7EB0507F1
:10043000103F07F01F0BCBF120060CFA0BFB2CFA38
:1004400006F644BFB3460026202FA4BF5E464FF0F9
:10045000000B5BEA060C08BF4FF0010B19EB0B0910
:10046000ABFB027C48EB0608C01B06FB02CC0BFB77
:1004700003CC71EB0C01C1E70B46024641464846EE
:10048000BDE8F08B13B54FF000004FF00001AFF363
:100490000080BDE81C407047B2F120030AD5C2F1CC
:1004A000200301FA02F120FA03F300FA02F041EA14
:1004B0000301704700FA03F14FF000007047B2F1FA
:1004C00020030AD5C2F1200320FA02F001FA03F357
:1004D00021FA02F140EA0300704721FA03F04FF0DD
:1004E0000001704710B54C1084EA530404D5404213
:1004F000C1F1000138BF491E1B4204D55242C3F16D
:10050000000338BF5B1EFFF750FF14F0804F04D08C
:100510004042C1F1000138BF491E14F0004F04D021
:100520005242C3F1000338BF5B1E10BD0FB4044933
:1005300010B503AA029800F07DFD10BC5DF814FB15
:10054000A00000200FB41CB5084B06AA7B446946E6
:100550000090059800F03FFD04460020694600F039
:100560004DFD20461CBC5DF814FB0000AD0A0000E8
:1005700070B5044685690068C10601D5302600E0E3
:100580002026C00707D070BDD4E90121304690472E
:10059000206A401C20626D1EF6D570BD70B5044601
:1005A00085690078C00707D170BDD4E901212020FA
:1005B0009047206A401C20626D1EF6D570BD70B554
:1005C0000C460546012A05D02878800600D5EA6940
:1005D000002302E0012305E05B1C934202D2E05CB1
:1005E0000028F9D1A869E618C01AA861286A184439
:1005F00028622846FFF7BCFF04E0D5E9012114F882
:10060000010B9047B442F8D32846FFF7C7FF70BDEF
:100610002DE9F0410646002410687529314616A5DB
:1006200010D0AFF30080002802DA404213A507E0A3
:1006300031688A0701D512A502E0490704D511A542
:10064000012401E0AFF3008000210A2206F1240713
:1006500009E0B0FBF2FCB0FBF2F302FB1C0030300F
:1006600078541846491C0028F3D123462A463046C0
:10067000BDE8F04100F042BA000000002D0000008B
:100680002B00000020000000F0B40D460188090591
:1006900002D5214C7C4402E01F4C7C440E340021E6
:1006A00000F1240608E002F00F071209E75D42EAB4
:1006B00003721B097754491C52EA0307F3D10278ED
:1006C0000023120704D5702D06D009B1022311347E
:1006D0002246F0BC00F012BA01231034F8E770B5DE
:1006E00004460D4621461068AFF3008002462946B5
:1006F0002046BDE870400023C6E7D21D22F0070364
:10070000D3E90023C0E70368126843F020030360C5
:100710000823C3610023B7E7060001002DE9F05F5D
:10072000894604464FF0000ADFF874B1FB44C0F874
:1007300020A02046E1688847002874D0252806D0EC
:10074000D4E901219047206A401C2062F1E700268D
:100750005F462046E16888472028054607DB312DA3
:1007600005D2781910F8200C08B10643F1E7B0075C
:1007700001D526F00406C4F81CA00027C4F818A070
:100780002A2D09D0284606F023FA38B304EB87084F
:10079000303DC8F8185019E059F8041B204604EB06
:1007A00087029161E1688847012F054618D1E06909
:1007B000002820DA26F020061DE0D8F8180000EB0B
:1007C000800005EB40003038C8F818002046E1688A
:1007D0008847054606F0FCF90028EED1012F0AD023
:1007E0002E2D08D12046E16888477F1C0546022F40
:1007F00046F02006C4DBA069002803DA404246F038
:100800000106A061F00701D026F010066C2D0BD078
:10081000682D09D04C2D39D06A2D35D0742D35D0A6
:100820007A2D33D016E038E0E1682F46204688471D
:10083000B842054609D16C2F26D04FF48060E1689C
:10084000064320468847054604E06C2F1AD04FF433
:10085000807006430DB3A5F14100192802D8203558
:1008600046F400664A462946204626604E46FFF773
:10087000E5FC80B101280BD0F61D26F0070000F141
:10088000080956E74020E4E78020D8E70020D6E7B3
:1008900006F104094DE7284652E7206ABDE8F09FBB
:1008A00096FF000030B505460B462A4613F8014B6B
:1008B00012F8010B08B1A042F8D01CB1002802D0F8
:1008C0006D1CF1E7284630BD40EA0103024630B511
:1008D0009B0710D14FF0013400E008C208C91D1B6E
:1008E0009D4315EAC41FF8D013F0FF0102F8011B65
:1008F0000DD01B0AF8E711F8013B002B02F8013B71
:1009000005D011F8013B002B02F8013BF3D130BDBB
:1009100010B5431C02E010F8011B71B18107FAD138
:100920004FF0013202C88C1A8C4314EAC211F9D07C
:10093000C01A0A0603D0C01E10BDC01A10BD0A049A
:1009400001D0801E10BD0902FCD0401E10BD032A3C
:1009500040F2308010F0030C00F0158011F8013BDC
:10096000BCF1020F624498BF11F801CB00F8013BC3
:1009700038BF11F8013BA2F1040298BF00F801CB87
:1009800038BF00F8013B11F0030300F02580083A5E
:10099000C0F0088051F8043B083A51F804CBA0E8B5
:1009A0000810F5E7121D5CBF51F8043B40F8043B0A
:1009B000AFF30080D20724BF11F8013B11F801CB3F
:1009C00048BF11F8012B24BF00F8013B00F801CB10
:1009D00048BF00F8012B704710B5203AC0F00B80DB
:1009E000B1E81850203AA0E81850B1E81850A0E833
:1009F0001850BFF4F5AF5FEA027C24BFB1E818508D
:100A0000A0E8185044BF18C918C0BDE810405FEAFC
:100A1000827C24BF51F8043B40F8043B08BF704778
:100A2000D20728BF31F8023B48BF11F8012B28BF7D
:100A300020F8023B48BF00F8012B704702F0FF038B
:100A400043EA032242EA024200F002B84FF00002F9
:100A50000429C0F0128010F0030C00F01B80CCF1D0
:100A6000040CBCF1020F18BF00F8012BA8BF20F83E
:100A7000022BA1EB0C0100F00DB85FEAC17C24BF92
:100A800000F8012B00F8012B48BF00F8012B70473C
:100A90004FF0000200B5134694469646203922BF17
:100AA000A0E80C50A0E80C50B1F12001BFF4F7AF62
:100AB000090728BFA0E80C5048BF0CC05DF804EB44
:100AC000890028BF40F8042B08BF704748BF20F8B2
:100AD000022B11F0804F18BF00F8012B70477047B0
:100AE00070477047704710B500F0BAFA006810BD43
:100AF00010B5044600F0B4FA046010BD2DE9F047CB
:100B00000D4699469246044600F12408016888067D
:100B100004D5E06921F01001216000E00120A84225
:100B200001DD471B00E00027A1697A1902EB0900EB
:100B3000081AA0612078C00602D42046FFF718FDED
:100B4000002608E0D4E901211AF806009047206A3F
:100B5000401C761C20624E45F4DB2078C0060AD586
:100B60002046FFF705FD06E0D4E90121302090473B
:100B7000206A401C2062381EA7F10107F4DC07E060
:100B8000D4E9012118F805009047206A401C206232
:100B9000281EA5F10105F3DC2046FFF7FFFC2078B5
:100BA000000602D50220BDE8F0870120FBE7704770
:100BB0002DE9FF4F0C461E464FF0FF378BB0D2E9B0
:100BC0000001DDF860800A908A46C1F30A5505B934
:100BD0003D46002108464FF00000BAF1000F00F436
:100BE000400005DA00EB80004FF4400101EA5000BC
:100BF0004FEA9059B9F1010F00DDB9460A9850EA61
:100C00004A000ED044F61050A5F2FF3545432F148C
:100C1000B8F1000F1ED07542291E1EDDC9F1000279
:100C20001CE0B8F1010F4FF0000001D0302103E0CB
:100C3000F24305E02154401CB042FBDB3046002269
:100C4000002121540B99C1F80880C1E900200FB0A0
:100C5000BDE8F08FBD1B6D1CDEE74A4600DA694235
:100C600006A800F087FA06AB93E8070003AB83E819
:100C7000070050460A9900F065FB8DE80700A0F5D3
:100C800000501F3800900398002D0ADD42F21F012A
:100C90004A460844002303A90390684600F0CEFDAD
:100CA00009E0A0F500504A461F38002303A903902D
:100CB000684600F0D8FD8DE807000004000C03D062
:100CC0004FF0FF30410800E01046B8F1000F03D0AC
:100CD0000022009215461EE0751E05D400F0C4F9EE
:100CE000303262556D1EF9D5B3460122084302D059
:100CF00000227F1C04E02078302801D100227F1ED2
:100D0000002A099784D01DE0112D07DA00F0ACF914
:100D1000303262556D1C50EA0102F5D1084302D011
:100D20000098C8B10EE00021681E05E0235C625CFB
:100D300063542254401E491C8142F7DBAB46A81B7A
:100D4000401E0990002004F80B000B98099AC0F887
:100D50000880C0E9002B7AE711264FF0000857E71A
:100D60002DE9F04F88460446D21D22F0070191B0CC
:100D7000D1E90001CDE90A0104F0FEFE02460B981C
:100D8000C00F01D02D2007E02068810701D52B205E
:100D900002E0202101EAC000032A099001D0072ABD
:100DA00005DB03464146204600F0A4F90BE120781C
:100DB000800601D5E06900E00620B8F1650F8146A4
:100DC00006D0B8F1660F18D0B8F1670F70D131E0D6
:100DD0000020B9F1110F009001DB112301E009F1AE
:100DE00001030AAA01A90CA8FFF7E2FEDDE90C70D5
:100DF000002609F10105834647E001204B4600909B
:100E00004FF000470AAA01A90CA8FFF7D1FEDDE9BF
:100E10000DB00C995D46002610B909F101000D18BE
:100E2000B9EB050003D4C0F1FF3609F10105A5EBCC
:100E300009002BE0B9F1010F01DA4FF001090020A0
:100E4000B9F1110F0090484601DD112300E003467F
:100E50000AAA01A90CA8FFF7ABFEDDE90C704D460C
:100E600000268346207800070AD4AB4500DA5D46A9
:100E700001A8012D04DD411911F8011C302907D00A
:100E80004F4502DA17F1040F04DA012082460FE021
:100E90006D1EEEE7002F02DCED1B3E4403E0781CE4
:100EA000A84200DD7D1CB81B00F1010A4FF000478D
:100EB0002078000703D4AA4501DB4FF0FF3A002158
:100EC000B7F1004F0DF143088DF8431024D00220F4
:100ED0002B23002F01DA7F422D230A21021EA0F1CD
:100EE000010000DC5FB197FBF1FC97FBF1F201FB25
:100EF0001C7C17460CF1300C08F801CDEEE7A8F188
:100F0000010003702188090501D5452100E0652114
:100F1000A0F1010800F8011C09980FA9A1EB08072E
:100F2000FF1D00B10120411901EBEA70A1693844AD
:100F3000081A401EA0612078C00602D42046FFF7A0
:100F400017FB099828B1D4E901219047206A401C79
:100F500020622078C00622D52046FFF709FB1EE05C
:100F6000002E04DBB34502DD01A8805D00E03020E7
:100F7000D4E901219047206A401C2062761CAAF126
:100F800001005FEA000A0AD100F066F8C068016853
:100F9000405CD4E901219047206A401C2062281E51
:100FA000A5F10105DCDC07E0D4E9012118F8010B0B
:100FB0009047206A401C2062381EA7F10107F3DC2D
:100FC0002046FFF7EBFA032011B041E601694A1C05
:100FD00002610878704700B58FB0CDE9013100217A
:100FE000059105497944CDE9031011466846FFF79C
:100FF00095FB0FB000BD0000E5FFFFFF0A6802F897
:10100000010B0A60704710B5436913B1AFF300805C
:1010100001E0FFF7D4FA012010BD127800F124019D
:101020000A7000224A700122EDE711684FF0FF328A
:10103000E9E70000074B70B50D467B44FFF7CBFF97
:101040000446284600F008F910B14FF0FF3070BD9B
:10105000204670BD3B7D000000487047286A002094
:1010600000487047086A002030B5B0F10A024FEA24
:10107000900E71F100034EEA817EB0EB0E0061EB41
:1010800091014FEA101E4EEA017E10EB0E0041EB7B
:1010900011114FEA102E4EEA016E10EB0E0041EBDB
:1010A00011214FEA104E4EEA014E10EB0E0041EBBB
:1010B0001141401841F100014FEAD00040EA41706F
:1010C0004FEAD10110EB80054FEA810444EA9074A5
:1010D00044EB01046D1944EB0404521BA3414FF08F
:1010E000000348BF0A3200D530BD401C41F1000169
:1010F00030BD00002DE9F0411F460446032601687B
:10110000072A01F4006004DB08B116A505E016A566
:1011100003E008B115A500E015A521F0100020603E
:10112000A069C01EA0610FB1401EA0612046FFF75C
:101130001FFA4FB1D4E9012138469047206A401C7C
:101140002062C01C206206E0206AFAE7D4E901218F
:1011500015F8010B9047761EF8D22046FFF71EFACD
:10116000BDE8F0814E414E006E616E00494E460072
:10117000696E66002DE9F047814616468AB035480B
:1011800078440DC88DE80D0032487844801C03ACCB
:101190000DC884E80D0041F69B300844372190FBD0
:1011A000F1F290FBF1F5A5F1800501FB12041B3C67
:1011B00002D56442012000E00020DFF898A08046BC
:1011C0000027FA44AAF1BE0A0EE0E0070AD0324630
:1011D000684607EB470101230AEB810100F043FB5E
:1011E0008DE8070064107F1C002CEED1194F7F445E
:1011F000AE3F19E0E80715D007EB04100DF1180A0F
:1012000090E80E008AE80E00C068F04201D19819FB
:1012100008903246012306A903A800F024FB03AB83
:1012200083E807006D10641C002DE3D14FF001032B
:1012300032466946B8F1000F03A802D000F0FEFA6A
:1012400001E000F010FBC9E90001C9F808200AB06C
:10125000BDE8F08790F60000007B00F0800070474A
:1012600000487047086A00207546FFF7F9FFAE4650
:1012700005006946534620F00700854618B020B5A2
:10128000FFF780F8BDE820404FF000064FF0000760
:101290004FF000084FF0000B21F00701AC46ACE81E
:1012A000C009ACE8C009ACE8C009ACE8C0098D468B
:1012B000704710B50446AFF300802046BDE81040EB
:1012C000FEF7ECBF4FF0013C50F8042B51F8043B03
:1012D0009A4221D1A2EB0C03934313EACC1317D10A
:1012E00050F8042B51F8043B9A4215D1A2EB0C03A1
:1012F000934313EACC130BD150F8042B51F8043B61
:101300009A4209D1A2EB0C03934313EACC13DBD02E
:101310004FF00000704700BFD01A01BAB1FA81F156
:1013200001F0180122FA01F0CB40C1F12001DBB23B
:10133000C0B2C01A2CFA01F3D11A914311EAC311B9
:10134000E6D170475FEA400C08BF91F0000F4FEA0A
:101350008C234FEAC12243EA51514FEA1C5018BF77
:1013600000F5F0404FEA300018BF41F000415FEA5D
:101370006C5C00F02980BCF1FF3F08BF40F080406A
:101380007047130C06BF12044FF0100C4FF0000C06
:10139000130E04BF12020CF1080C130F04BF12014C
:1013A0000CF1040C930F04BF92000CF1020CD30F4C
:1013B00004BF52000CF1010C11464FF00002A0F1E5
:1013C0001F00A0EB0C00704711F0004F08BF7047E2
:1013D00031F000413FF4D5AF0B0C06BF09044FF0CC
:1013E000100C4FF0000C0B0E04BF09020CF1080C9E
:1013F0000B0F04BF09010CF1040C8B0F04BF890013
:101400000CF1020CCB0F04BF49000CF1010CCCF124
:101410002003A0EB0C0022FA03F302FA0CF241EADB
:10142000030100F10100704720F07F4C80EA0300C7
:1014300023F07F47ACEB070303F57C5300F000403B
:1014400003F1FF032DE980494FEA154B09B44FEA38
:10145000144325EA0B4E24EA03480FF2042606EB58
:10146000132749083E785FEA320203FB0667C7F597
:10147000000707FB06F64FEA54374FEAD64606F157
:10148000020607FB066CCCF1005C4FEA1C472CEA15
:10149000074C07FB06F40CFB06F504EB15464FEA78
:1014A000961634BF00204FF000404FEAD13706FBBC
:1014B00007FC4FEA1C4C0CFB0BF7D21B03FB0CF791
:1014C00061EB07010CFB0EF7B0EB074072EB174224
:1014D0000CFB08F734BFA2EB0742B2EB074261EB0B
:1014E00017414FEA0C444FEA910706FB07FC4FEA0D
:1014F0001C4C0CFB0BF7B0EBC74072EB573203FBF5
:101500000CF734BFA2EBC742B2EBC74261EB5731D5
:101510000CFB0EF7B0EBC70072EB57720CFB08F731
:1015200034BFA2EBC702B2EBC70261EB5771039F56
:101530004FEA816141EA921104EBCC044FEAD137C2
:101540004FEA826206FB07FC42EA90124FEA806093
:101550004FEA1C4C0CFB0BF7D21B03FB0CF761EBA7
:1015600007010CFB0EF7B0EB074072EB17420CFBC8
:1015700008F734BFA2EB0742B2EB074261EB174119
:101580004FEA8C554FEA910704EB9C2406FB07FCBD
:101590004FEA1C4C0CFB0BF7B0EBC74072EB573219
:1015A00003FB0CF734BFA2EBC742B2EBC74261EBBF
:1015B00057310CFB0EF7B0EBC70072EB57720CFB08
:1015C00008F734BFA2EBC702B2EBC70261EB577159
:1015D00015EB4C254FEA816141EA92114FEA826294
:1015E0004FEAD13742EA901206FB07FC44F10004AF
:1015F0004FEA80604FEA1C4C0CFB0BF7D21B03FB3D
:101600000CF761EB07010CFB0EF7B0EB074072EB38
:1016100017420CFB08F734BFA2EB0742B2EB0742BC
:1016200061EB174115EB1C154FEA813141EA9241FC
:101630004FEA823242EA90424FEA80304FEA0C761B
:1016400044F1000448EA03434EEA0B484FF0000E11
:10165000B2EB080C71EB030724BF624639464EEB30
:101660000E0E4FF0000B0018524149414BEB0B0B93
:10167000B2EB080C71EB03077BF1000B24BF624651
:1016800039464EEB0E0E4FF0000B00185241494107
:101690004BEB0B0BB2EB080C71EB03077BF1000B70
:1016A00024BF624639464EEB0E0E51EA020718BFC0
:1016B00046F0010616EB0E7655F1000254F10001DA
:1016C00003D5BDE88901BDE80088BDE88901BDE812
:1016D0000048B619524141EB0101A3F101037047E3
:1016E00080807F7E7D7C7B7A79787776767574735F
:1016F000727171706F6E6E6D6C6C6B6A6A6968681E
:10170000676666656464636362616160605F5F5EB3
:101710005E5D5D5C5C5B5B5A5A5959585857575629
:10172000565555555454535352525251515050508E
:101730004F4F4F4E4E4D4D4D4C4C4C4B4B4B4A4AE0
:101740004A49494948484847474747464646454524
:10175000454444444443434343424242424141415D
:10176000002B9C4630D477002BD01CB54FEA3707AE
:1017700003B44FF010004FF01001BAF1000F06D083
:10178000BCF1000FDCBF40F0080040F008014FF052
:1017900000000FBCBDE810400BF1010BBBF1010FC5
:1017A00008BF5FEA170722BF12F1010211F1010120
:1017B0004FF0004143F1000300F0004043EA000015
:1017C0007047F9D35708D0E746EA064613F1400FB1
:1017D0004FEA16461FDD13F1200FDFBF16430A46FE
:1017E000002120335B42BED0C3F1200746EA064603
:1017F00002FA07F74FEA164646EA0706C3F1200742
:1018000022FA03F201FA07F721FA03F14FF000037D
:1018100042EA0702A7E746EA020646EA06464FEA18
:10182000164646EA0106BCBF46EA0646360C4FF0AD
:1018300000034FF000024FF0000194E72DE9804CC7
:101840009A46934670B491E8380007C831EA400CD4
:1018500048BF34EA430C03D5FFF7E6FDFFF780FFEE
:10186000F0BCBDE8008C2DE9804C9A46934670B4DC
:1018700091E8380007C810F0804F08BF13F0804F80
:1018800003D100F005F8FFF76BFFF0BCBDE8008C5A
:1018900020F07F4780EA030023F07F4C07EB0C0326
:1018A000A3F57C5300F00040A3F1FE0392F0000F7B
:1018B00000F0B38095F0000F00F077802DE901492A
:1018C0004FEA11404FEA144621EA004800FB06FCAB
:1018D00024EA064708FB06F607FB08F800FB07F7B3
:1018E00018EB06484CEB164C4FEA124B18EB074826
:1018F0004FEA15464CEB174022EA0B4E0BFB06FC59
:1019000025EA06470EFB06F607FB0EFE0BFB07F764
:101910001EEB064E4CEB164C4FF000061EEB074E2E
:101920004CEB174B18EB0B0840F1000018EB0E0BBB
:1019300058EB000840F100008F1A4FF000013CBF47
:10194000C943661B14BFB5EB040C00213CBFC9435F
:10195000F61B4FEA17444EEA8E0E27EA04454FEA7B
:101960001C4704FB07622CEA074C05FB07F70CFB3E
:1019700005F604FB0CFC16EB074642EB174216EB90
:101980000C4642EB1C421BEB060658EB020241419F
:1019900046EA9E0601D5BDE80189B619524141EBE0
:1019A0000101A3F10103BDE801894FEA14454FEAA3
:1019B000114724EA054621EA074C05FB07F406FB1C
:1019C00007F70CFB06F105FB0CFC11EB074144EBA0
:1019D00017444FEA124711EB0C4144EB1C4422EA36
:1019E000074C05FB07F206FB07F70CFB06F605FBA9
:1019F0000CFC16EB074642EB174216EB0C4642EB8B
:101A00001C456A1854F1000148BF7047B61952418D
:101A100041EB0101A3F10103704795F0000F37D0AE
:101A20004FEA11424FEA144721EA024624EA074CE2
:101A300002FB07F106FB07F70CFB06F402FB0CFCAC
:101A400014EB074441EB17414FEA154714EB0C44E4
:101A500041EB1C4125EA074C02FB07F506FB07F7A3
:101A60000CFB06F602FB0CFC16EB074645EB174594
:101A700016EB0C4645EB1C42121951F1000148BF10
:101A80007047B619524141EB0101A3F101037047C0
:101A90004FEA14454FEA114724EA054621EA074C6C
:101AA00005FB07F106FB07F70CFB06F24FF00006FB
:101AB00005FB0CFC12EB074241EB174112EB0C4209
:101AC00051EB1C4148BF7047921841EB0101A3F153
:101AD0000103704708B518A0FEF728FD1C480168EF
:101AE00040681C4AD2E9003259405040014321D19C
:101AF0001748083801684068174B0CCB51405840D4
:101B0000014317D1002001231A469902009013487F
:101B100000680CF041FB124908600846008800F498
:101B2000806038B10FA0FEF701FD20210B4800684E
:101B30000CF0ACFA08BD0000BDD3CAD5B5BD414319
:101B40004BD0CD4D4143D6A1C1CB0D0A00000000C2
:101B5000FD02002018000020200000202C000020A2
:101B600030000020BDD3CAD5B5BDC1CBD5FDC8B7A7
:101B7000B5C441434B0D0A0010B500240F4800685E
:101B800000B110BD0DF082F9012800D1F9E7012064
:101B90000CF0A4FC044604B9F3E70BF04DF9074838
:101BA000006810B90548046000240BF089F914B1ED
:101BB00020460BF07DFB00BFE3E70000A001002002
:101BC00000F00CFA04E003480BF0EEFB00F006FA1C
:101BD000F9E70000A0BB0D002DE9F04F2DED108BB3
:101BE0008BB0074600200A9009900025B7EE000A46
:101BF000F0EE408A9FEDB60AB0EE409AB7EE000ACA
:101C0000B0EE40AAB7EE000AF0EE40AA9FEDB00A8F
:101C1000F0EE409A9FEDAF0AB0EE40BA9FEDAE0AEB
:101C2000F0EE40BAB7EE000AB0EE40CAB7EE000AD6
:101C3000F0EE40CA9FEDA60AB0EE40DAB7EE000A19
:101C4000F0EE40DAA54EA64C9FEDA10AB0EE40EAB8
:101C50009FED9F0AF0EE40EA834682460890814657
:101C600007900690059004900390B04608EE100A85
:101C7000029001909B48D0F8885000F02DFA0AA9F4
:101C8000402001F0F8FB099000F036FA099810B1F5
:101C900042F6E0600A904FF47A7008EE100AB8EE4F
:101CA000480ADFED910A20EE200ABCEEC00A10EED1
:101CB000100A42F6F82108440290B8EE480ADFED17
:101CC0008B0A20EE200ABCEEC00A10EE100A08446F
:101CD00001900A990198814208D88248C0F888404A
:101CE00020460BB0BDEC108BBDE8F08F0A9902982E
:101CF00081420FD89FED7E0AB0EE40BA9FED7B0A7D
:101D0000F0EE40BAB7EE080AB0EE40CAB7EE000AED
:101D1000F0EE40CA9DED0A0AB8EEC00ADFED750A82
:101D200030EE600ADFED740A80EE201AF0EE418A90
:101D3000B7EE001ADFED710AB0EE680A04F075FF25
:101D4000F0EE408A04F086FFDFED6D0A80EE201A87
:101D5000B0EE419AB7EE001ADFED5D0AB0EE490A27
:101D600004F063FFB0EE409AFF2F01D0052F00DD95
:101D7000052700EE107AF8EE400A9FED621AB7EEE2
:101D8000000A01EE200AB0EE40AA01F0D1FCF0EE0C
:101D9000409AB7EE001ADFED4E0AB0EE690A04F081
:101DA00044FFF0EE409ADFED510AB7EE000A00EE74
:101DB000A90AF0EE40AAF1EE4C0A60EEA80AB0EED5
:101DC000600A03F005FF20EE0BFAF1EE6C0A60EEFC
:101DD000890AB0EE600A03F0FBFE0BEE80FAB0EE6B
:101DE0004FDA2AEE2A0AF0EE40DA00EE104AB8EE98
:101DF000400A60EE0D0A00EE106AB8EE400A40EEAE
:101E00002D0AB0EE60EA00EE105AB8EE400ADFED9F
:101E1000360A20EE200ADFED3B0A00EE8E0AF0EED5
:101E200040EABCEEEE0A10EE10BA224631465846A1
:101E300004F0F0FE8246DA4501D0012000E00020E7
:101E40000590D04607960694CDF8208075B300EE35
:101E5000105AB8EE400AF6EE000A20EE200ABCEE58
:101E6000C00A8DED070A00EE105AB8EE400AF7EEF0
:101E7000080A20EE200ABCEEC00A8DED060A07987B
:101E8000B04200D207960698A04200D90694404678
:101E9000DDE9062104F0BEFE08900898404501D017
:101EA000012000E000200490DDF820802246314629
:101EB000404604F0AFFE8146C14501D0012000E05C
:101EC00000200390C8460748C0F88880404608E7CD
:101ED000000000009A99193FCDCCCC3E40771B0002
:101EE00080CBA400A00100203333333FCDCC4C3E47
:101EF000CDCC4C3F00E02B4600007A44CDCC4C3D8D
:101F00000000E1449A99993E9FED090A094880ED45
:101F1000010A0020074908834883A1F88000A1F83E
:101F20008200A1F884000448C1F8880070470000CE
:101F300000000000A001002040771B0010B5002128
:101F4000254AB2F88020642A18DA08B1012300E09B
:101F50000023214AB2F882401C32135530B91C3A92
:101F6000B2F88420521C1C4BA3F884201A4AB2F801
:101F70008020521C184BA3F880201DE0164AB2F8AE
:101F800082301C32D15C31B91C3AB2F88420521E26
:101F9000114BA3F8842008B1012300E000230E4A6E
:101FA000B2F882401C32135530B91C3AB2F8842082
:101FB000521C094BA3F88420074AB2F88220521C15
:101FC000054BA3F882201A46B2F88220642A02DB6D
:101FD0000022A3F8822010BDA001002030B52DED15
:101FE000048B83B0B3EE090A8DED020A9FED380A27
:101FF0008DED010A002500249FED350AB0EE409AD0
:102000009FED330AB0EE408AB7EE000AF0EE408A48
:1020100000F062F80AF09CF9322006F0A7FB0AF003
:10202000A7F901AA02A9012002F0A4FB08B9012026
:1020300000E00020054600F011FB04460AF076F9A6
:1020400000F05AF84FF6FF70844207D19FED200A46
:1020500004F016FE03B0BDEC048B30BD00EE104A58
:10206000B8EE400AF7EE000A20EE200AB0EE409AE1
:1020700075B19DED020AF3EE090A70EE600A9FED5C
:10208000151AB7EE000A00EEC10AF0EE408A03E02E
:10209000B7EE000AF0EE408AF5EEC08AF1EE10FAD3
:1020A00003D29FED0B0AF0EE408A29EE280AB0EE2B
:1020B000408AB5EEC08AF1EE10FA03D29FED040A11
:1020C000B0EE408AB0EE480A04F0DAFD00BFC1E786
:1020D000000000006F12833B10B5FFF74DFD05486F
:1020E000006828B1034908684FF0FF310CF002FD89
:1020F00010BD0000A001002010B50548006830B1F7
:10210000034900231A46086819460CF0AFFA10BDBF
:10211000A00100202DE9F04106460C46002716B12B
:102120000CB1A64201D1BDE8F081706918B9002058
:10213000A0617461F7E7756920E0A54200D1F2E77C
:10214000D5E90010D4E9002351405840014305D19E
:102150000020A061204606F01DFEE4E7A86900B952
:102160000EE0AD69781C80B20746B0F5007F05DD52
:102170000020A061204606F00DFED4E7002DDCD142
:1021800000BF1DB90020A0617461CCE70020A061F0
:10219000AC6100BFC7E7000010B50446402102480B
:1021A00000680BF073FF10BD4400002000BFFEE785
:1021B00038B53CA0FEF7BAF9404801684068404B8A
:1021C0000CCB51405840014347D000200123024628
:1021D0004FF40C6100903B4800680BF0DDFF3A497A
:1021E00008600846007800F04000002831D008461A
:1021F000007800F0800000282BD034A0FEF796F97C
:102200004FF400612F4800680BF0F8FE0CF04EFE12
:10221000044600200346224601210090344800680D
:102220000DF0E8F933A0FEF781F92748008800F4A3
:102230000060002834D10CF039FE04464FF0FF3026
:102240000023224602210090294800680DF0D2F9AF
:1022500026E02BA0FEF76AF922E01848083801684A
:102260004068294AD2E9003259405040014317D111
:10227000002001231A4659020090124800680BF012
:102280008BFF114908600846008800F4007038B1DF
:102290001EA0FEF74BF901210A4800680BF0F6FE7C
:1022A00038BD0000BDD3CAD5B5BD435453D0CD4DC4
:1022B0004143D6A1C1CB0D0A00000000FD02002061
:1022C000180000202C00002030000020BDD3CAD50B
:1022D000B5BDC1CBB1F0B5C4BDDAB5E3B5C44354A7
:1022E000532CC7BFD6C6D0DDC3DF0D0A00000000E7
:1022F000F0000020BFAAC6F4B6A8CAB10D0A0000BB
:10230000B6AAC6FA0D0A000020000020BDD3CAD527
:10231000B5BDC1CBD5FDC8B7B5C44354530D0A00F4
:102320002DE9F04107460E4614464FF000081FB154
:1023300016B10CB1A64201D1BDE8F081314620466C
:1023400003F01EF800B1F7E72146384600F004FD1F
:10235000706918B90020A0617461EDE7756911E03A
:10236000A54202D10020A061E6E7A869A84200D1F9
:10237000E2E7AD6908F1010080B28046B0F5007F68
:1023800000DDD9E7A8690028EAD1A54201D1A06102
:10239000D2E70020A061AC6100BFCDE710B5ADF57C
:1023A000407D002401208DF8FC010020ADF8FE01E5
:1023B0005A208DF800029DF8FC018DF8F800BDF858
:1023C000FE01ADF8FA000620F42283A93D9068468C
:1023D000FEF702FB7FA80FC807F0E8FA0A2006F014
:1023E000C5F916E0142006F0C1F90620F42283A9ED
:1023F0003D906846FEF7F0FA7FA80FC807F0D6FABE
:10240000601CC4B2142C04DD002400200DF5407DB6
:1024100010BD06213EA807F053FA0028E2D10120A2
:10242000F4E70000002004E00021064A1154411C9A
:1024300088B2054909888842F6DB0021024A1180EA
:1024400070470000380800208A00002010B542F2D2
:10245000CF01092002F046FD00200149086010BDAF
:102460001400002030B5ADF5417D044600258DF8FF
:1024700000420220ADF8020201208DF804029DF80E
:1024800000028DF8FC00BDF80202ADF8FE0003204A
:10249000F42284A93D906846FEF79EFA80A80FC8F2
:1024A00007F084FA0A2006F061F919E0142006F01A
:1024B0005DF90320F42284A93D906846FEF78CFA6A
:1024C00080A80FC807F072FA681CC5B2142D07DD8A
:1024D000002508A0FEF72AF8681E0DF5417D30BDE5
:1024E00003213FA807F0ECF90028DFD1BDF8020175
:1024F000F3E70000736F696C73656E736F7220652C
:1025000072726F72210D0A0030B5ADF5417D04463F
:1025100000258DF800420020ADF8020202208DF85F
:1025200004029DF800028DF8FC00BDF80202ADF82F
:10253000FE000320F42284A93D906846FEF74CFA81
:1025400080A80FC807F032FA0A2006F00FF919E048
:10255000142006F00BF90320F42284A93D9068466C
:10256000FEF73AFA80A80FC807F020FA681CC5B237
:10257000142D07DD00250AA0FDF7D8FF681E0DF514
:10258000417D30BD03213FA807F09AF90028DFD133
:102590003FA80089BDF8021100EB0140EFE7000001
:1025A000736F696C73656E736F72206572726F7290
:1025B000210D0A0010B5ADF5407D002401208DF8F5
:1025C000FC010020ADF8FE0101208DF800029DF80D
:1025D000FC018DF8F800BDF8FE01ADF8FA0003200B
:1025E000F42283A93D906846FEF7F6F97FA80FC84C
:1025F00007F0DCF90A2006F0B9F81AE0142006F01A
:10260000B5F80320F42283A93D906846FEF7E4F96B
:102610007FA80FC807F0CAF9601CC4B2142C08DDEB
:10262000002408A0FDF782FF4FF6FF700DF5407DF6
:1026300010BD03213EA807F043F90028DED1BDF804
:10264000FE00F3E770726563697069746174696FA5
:102650006E206572726F72210D0A000010B5ADF523
:10266000407D002404208DF8FC010020ADF8FE011F
:1026700001208DF800029DF8FC018DF8F800BDF8EE
:10268000FE01ADF8FA000320F42283A93D906846CC
:10269000FEF7A2F97FA80FC807F088F90A2006F014
:1026A00065F81AE0142006F061F80320F42283A9EB
:1026B0003D906846FEF790F97FA80FC807F076F9BD
:1026C000601CC4B2142C08DD002408A0FDF72EFF06
:1026D0004FF6FF700DF5407D10BD03213EA807F0B9
:1026E000EFF80028DED1BDF8FE00F3E7526164691F
:1026F0006174696F6E206572726F72210D0A00003D
:1027000030B5ADF5417D044600258DF8004200202E
:10271000ADF8020202208DF804029DF800028DF847
:10272000FC00BDF80202ADF8FE000320F42284A9EB
:102730003D906846FEF750F980A80FC807F036F9BB
:102740000A2006F013F819E0142006F00FF8032011
:10275000F42284A93D906846FEF73EF980A80FC890
:1027600007F024F9681CC5B2142D07DD00250AA066
:10277000FDF7DCFE00200DF5417D30BD03213FA8B3
:1027800007F09EF80028DFD13FA80089BDF80211AC
:1027900000EB0140EFE70000736F696C73656E73C7
:1027A0006F72206572726F72210D0A0010B5ADF55F
:1027B000407D002403208DF8FC010020ADF8FE01CF
:1027C00001208DF800029DF8FC018DF8F800BDF89D
:1027D000FE01ADF8FA000320F42283A93D9068467B
:1027E000FEF7FAF87FA80FC807F0E0F80A2005F016
:1027F000BDFF1AE0142005F0B9FF0320F42283A9DD
:102800003D906846FEF7E8F87FA80FC807F0CEF8BD
:10281000601CC4B2142C08DD002408A0FDF786FE5D
:102820004FF6FF700DF5407D10BD03213EA807F067
:1028300047F80028DED1BDF8FE00F3E757696E6463
:1028400073446972656374696F6E206572726F722A
:10285000210D0A0010B5ADF5407D002402208DF851
:10286000FC010020ADF8FE0101208DF800029DF86A
:10287000FC018DF8F800BDF8FE01ADF8FA00032068
:10288000F42283A93D906846FEF7A6F87FA80FC8FA
:1028900007F08CF80A2005F069FF1AE0142005F013
:1028A00065FF0320F42283A93D906846FEF794F863
:1028B0007FA80FC807F07AF8601CC4B2142C08DD9A
:1028C000002408A0FDF732FE4FF6FF700DF5407DA5
:1028D00010BD03213EA806F0F3FF0028DED1BDF8AD
:1028E000FE00F3E757696E64735370656564206595
:1028F00072726F72210D0A0038B547A0FDF716FEFF
:1029000000200123024680210090494800680BF016
:1029100043FC48490860484801684068474AD2E992
:1029200000325940504001433AD14248007800F00B
:102930008000002834D14048083801684068404A87
:10294000D2E9003259405040014329D13A48093870
:10295000407CD8B13BA0FDF7E9FD4FF4803134480D
:1029600000680BF093FB344808380468436822463B
:10297000324903C904F035F980212D4800680BF075
:1029800085FB00212E4A1160516008E032A0FDF75E
:10299000CDFD4FF48031264800680BF077FB38BD41
:1029A00000200123024640210090214800680BF0DE
:1029B000F3FB204908602048016840681F4B0CCB9E
:1029C0005140584001431ED11B48083801684068F7
:1029D0001B4B0CCB51405840014314D11548007893
:1029E00000F0400078B94FF40041114800680BF046
:1029F0004DFB20A0FDF79AFD4FF480410C48006884
:102A00000BF044FBCBE74FF40031094800680BF0B2
:102A10003DFB00BFC3E70000BDD3CAD5B5BDCAFDAD
:102A2000BEDDD0CD4D4143D6A1C1CB0D0A00000083
:102A30002C00002030000020FD02002018000020A3
:102A400020000020D0E8D2AAD7D4C9EDB7A2CBCDC0
:102A500041434B0D0A000000D0E8D2AAD7D4C9EDFB
:102A6000B7A2CBCDCAFDBEDDD0CD4D4143D6A10D21
:102A70000A000000B5B1C7B0CAC7B7A2CBCDB7BD79
:102A8000B2A2C7D2BDD3CAD5B5BDC1CBD5FDC8B7DB
:102A9000B5C4444154410D0A0000000021B1026850
:102AA00042F00102026003E0026822F001020260CB
:102AB00070470000016821F0010101600021016000
:102AC00041608160C1600161212141614A498842C0
:102AD00004D13D21484A103A91608CE046491831B2
:102AE000884205D14FF47461434A103A916082E004
:102AF00041493031884205D14FF474113E4A103AB1
:102B0000916078E03C494831884205D14FF07461CA
:102B1000394A103A91606EE037496031884204D1F9
:102B20003649354A103AD16065E0334978318842F8
:102B300004D13349304A103AD1605CE02E499031DB
:102B4000884204D12F492C4A103AD16053E02A49D7
:102B5000A831884205D14FF03D51274A103AD16043
:102B600049E02949884204D13D21274A083A1160A9
:102B700041E025491831884205D14FF47461224A59
:102B8000083A116037E020493031884205D14FF4CE
:102B900074111D4A083A11602DE01B4948318842E2
:102BA00005D14FF07461184A083A116023E01649C4
:102BB0006031884204D11149134A121F11601AE092
:102BC00011497831884204D10D490F4A121F116012
:102BD00011E00D499031884204D10A490A4A121F76
:102BE000116008E00849A831884204D14FF03D51F6
:102BF000054A121F11607047106002403D0000201E
:102C0000400F002000003D201064024001460020DB
:102C10000A6802F001020AB1012000E000207047BA
:102C200010B500220268134B1A40CC680B6823438E
:102C30004C6923438C692343CC6923430C6A2343A7
:102C40004C6A23438C6A23434C6B23438C6B234392
:102C50001A430260426922F00702D1E90B34234390
:102C60001A4342610B6943604B6883608B68C360A1
:102C700010BD00003F801CF0416070477047F8B500
:102C800007460C4607B104B9F8BD002000906A461B
:102C90002146384600F0A8F9009800B9F4E7A66983
:102CA0000020A06100984069A04205D100984661CB
:102CB000204606F06FF8E7E70098456900E0AD6947
:102CC00015B1A869A042FAD11DB1AE61204606F047
:102CD00061F800BFD8E700002DE9FC4180460D46B1
:102CE000002001902946404601F0EEFD002419E045
:102CF00001A80090104850F82400D0E90063324643
:102D0000284600F08FF9019850B10198D0E900638E
:102D100032460AA0FDF70AFC28460199FFF7AFFFEB
:102D2000601CC4B20B4800788442E1DB00200949F2
:102D30000870BDE8FC810000700600206E6F6465BD
:102D400020256C6C782069732064656C65746564FB
:102D50000D0A00005F00002078B506460C460020F2
:102D6000009006B104B978BD6A462146304600F0AD
:102D70003BF9009800B9F6E700984069A04205D1F8
:102D8000A069009948610020A061ECE700984569BE
:102D900000E0AD6915B1A869A042FAD11DB1A069E2
:102DA000A8610020A06100BFDDE700001CB5164847
:102DB000007800B11CBD0121022000F05FFE4FF43D
:102DC0004070009001208DF804008DF8060003206B
:102DD0008DF8050001208DF8070069460B4800F0CA
:102DE00045F901221102094805F060FF0122510254
:102DF000064805F05BFF042005F0D8FC01200249DD
:102E0000087000BFD6E700007000002000040240F8
:102E100070B506460C460CB9012070BDFFF7C6FF21
:102E200005F0C8FEA02005F097FE05F007FF18B1D9
:102E300005F0E0FE0220F0E7304605F08DFE05F0DB
:102E4000FDFE18B105F0D6FE0320E6E705F0B2FE60
:102E5000A12005F081FE05F0F1FE18B105F0CAFED3
:102E60000420DAE7002005F043FE054605F0C2FE27
:102E700025700020D1E770B505460C46FFF796FF98
:102E800005F098FEA02005F067FE05F0D7FE18B10A
:102E900005F0B0FE012070BD284605F05DFE05F08E
:102EA000CDFE18B105F0A6FE0220F4E7204605F09D
:102EB00053FE05F0C3FE18B105F09CFE0320EAE7BF
:102EC00005F098FE05F016FF0020E4E710B54FF47A
:102ED0008071024800F042F910BD00000014024069
:102EE0001CB50121202000F0C9FD4FF48070009036
:102EF00001208DF8040000208DF806008DF80500F3
:102F00008DF807006946044800F0B0F84FF480716E
:102F1000014800F01FF91CBD0014024010B506A0C6
:102F2000FDF704FB142005F065FC0648006801204D
:102F300000F00AF810BD0000BDF8C8EBD6D0B6CF3F
:102F4000200D0A000002404201490860704700005D
:102F5000143C0140002123498279002A3AD00A46D4
:102F6000126803689A430B461A600A1D12680368C8
:102F70009A430B1D1A60027911440A6803681A43C8
:102F80000A60184A0832126803689A43154B0833DE
:102F90001A601A1D126803689A43124B0C331A60A8
:102FA0004279102A0ED11A1F126803681A430D4B7A
:102FB00008331A601A1D126803681A43094B0C3350
:102FC0001A600DE00749427911440A6803681A4300
:102FD0000A6005E0027911440A6803689A430A60AE
:102FE00070470000003C0140F0B504460F4616460D
:102FF0000020306014B10FB1A74200D1F0BD656967
:103000000CE0BD4201D13460F8E73246394628462B
:10301000FFF7EAFF306800B1F0E7AD69002DF0D1AD
:1030200000BFEBE72DE9F841044617469846079D97
:10303000002028600CB9BDE8F881D4E9000178408F
:1030400081EA0801084301D12C60F4E7666909E0D0
:103050003A46434630460095FFF7E4FF286800B142
:10306000E9E7B669002EF3D100BFE4E7F0B50A4600
:1030700000210023002400BF3DE0012505FA01F3F3
:10308000156805EA03049C4234D105684F00032605
:10309000BE40B543056015794E00B540066835431E
:1030A00005601579012D02D01579022D16D185689C
:1030B0004F000326BE40B543856055794E00B540AC
:1030C000866835438560456801268E40B543456076
:1030D000456896798E40B6B235434560C5684F0065
:1030E0000326BE40B543C560D5794E00B540C668DD
:1030F0003543C560491C1029BFD3F0BDF0B500238E
:1031000000244D07ED0E02FA05F3CE1000F1200564
:1031100055F826504E07F70E0F26BE40B543CF1088
:1031200000F1200646F82750CE1000F1200555F892
:10313000265045EA0304CE1000F1200545F826404C
:10314000F0BD0246002013690B400BB1012000E0E6
:1031500000207047418370470183704742694A40AD
:103160004261704700BFFEE710B500200F490860BC
:103170000F48006820F440200D49086008460068A8
:1031800040F48020086000200A49C1F8A40202200F
:1031900005F00CFB012005490860022005F006FB44
:1031A00001200549C1F8A00210BD0000A002404264
:1031B0000008024000004142000040421CB50121CD
:1031C000052000F05BFC4FF40070009001208DF8AA
:1031D00004008DF8060003208DF8050001208DF80D
:1031E000070069460848FFF741FF4FF480700090E0
:1031F00069460648FFF73AFF01200549086005497E
:10320000C1F8A4021CBD00000008024000000240FA
:10321000A00240420000414210B500200F49086062
:103220000F48006820F440200D49086008460068F7
:1032300040F48020086001200A49C1F8A40202205D
:1032400005F0B4FA012005490860022005F0AEFA45
:1032500001200549C1F8A00210BD0000A0024042B3
:103260000008024000004142000040422DE9F041C8
:1032700006460C461546002704E0304600F00AF8E2
:1032800004F8010B281EA5F10101CDB2F5D1384695
:10329000BDE8F08170B5054600241548006820F4AB
:1032A000402013490860084600680860002615E0C1
:1032B000002010490860042005F078FA01200E492A
:1032C000C1F8A0026006040E0C48006808B1601C3A
:1032D000C4B2012005F06AFA701CC6B2082EE7DB02
:1032E00015B9FFF799FF01E0FFF73EFF204670BDDB
:1032F00000080240A0024042000040422402414235
:1033000070B504461448006820F440201249086053
:103310000846006840F48020086000200F490860DB
:10332000002516E0E0090E4908606006040E022040
:1033300005F03CFA01200B49C1F8A002022005F07B
:1033400035FA002005490860022005F02FFA681CB4
:10335000C5B2082DE6DB70BD00080240A002404265
:10336000A40241420000404210B50F48006820F41A
:1033700040200D4908600846006840F4802008603D
:1033800001200A4908600A49C1F8A002042005F09A
:103390000DFA002005490860042005F007FA002016
:1033A0000349C1F8A00210BD00080240A402414236
:1033B0000000404210B50F48006820F440200D493D
:1033C00008600846006840F48020086000200A4930
:1033D00008600A49C1F8A402042005F0E7F90120B9
:1033E000054908600549C1F8A402022005F0DEF98C
:1033F00010BD000000080240A0024042000041420F
:1034000010B500241248006820F4402010490860DC
:1034100008460068086001200E49086005F0C6F9FA
:1034200001200D49C1F8A00205F0C0F907E0601CB9
:10343000C4B2FA2C03DDFFF7BDFF012010BD054823
:10344000803800680028F2D10449086000BFF5E721
:1034500000080240A402414200004042A002404253
:1034600010B50446FFF7AAFE44F2271200212046B9
:1034700000F065F810BD2DE9F84380460C460020A9
:103480000090002514B90A20BDE8F8836A4602219D
:10349000404600F012F805460DB12846F4E7BDF8A5
:1034A00000000521A0FB01600146042200233046F4
:1034B000FDF718F820600020E6E72DE9F04104460A
:1034C0000E4615460027B84615B90A20BDE8F0811A
:1034D000FFF74AFF002141EA4401C8B2FFF710FF9D
:1034E000FFF78EFF18B1FFF765FF0120EEE73046CA
:1034F000FFF706FFFFF784FF18B1FFF75BFF02201D
:10350000E4E7FFF731FF012101EB4401C8B2FFF707
:10351000F7FEFFF775FF18B1FFF74CFF0320D5E763
:103520000120FFF7B7FE07460020FFF7B3FE8046F5
:10353000FFF740FF48EA072028800020C6E770B563
:1035400005460E461446FFF70FFF002141EA4501EC
:10355000C8B2FFF7D5FEFFF753FF18B1FFF72AFFF8
:10356000012070BD3046FFF7CBFEFFF749FF18B1D1
:10357000FFF720FF0220F4E72012FFF7C1FEFFF75C
:103580003FFF18B1FFF716FF0320EAE7E0B2FFF7AD
:10359000B7FEFFF735FF18B1FFF70CFF0420E0E797
:1035A000FFF708FF0020DCE74CF6CC40014908603B
:1035B000704700000030004010B500F013F810BD57
:1035C00070B505460C4645F2555000F01FF82846E8
:1035D00000F010F8204600F013F800F003F8FFF7B1
:1035E000E3FF70BD4AF6AA20014908607047000059
:1035F0000030004001494860704700000030004042
:1036000001498860704700000030004001490860AF
:1036100070470000003000401CB50121112000F06F
:103620002DFA1020009000208DF8040003208DF862
:10363000050001208DF8070069460648FFF716FDD2
:103640000120009002208DF8070069460248FFF72C
:103650000DFD1CBD00100240000002401CB5012100
:10366000202000F00BFA01208DF8040002208DF8D4
:10367000050000208DF806004FF4C06000906946F8
:103680000648FFF7F3FC4FF400710448FFF764FDB0
:103690004FF480610148FFF75FFD1CBD001402403C
:1036A00070B5044600250CB1012000E0002004465E
:1036B00009F0C2FB1A48008840280FDA19481A4955
:1036C0000988445424B119480088401C17490880CF
:1036D00013480088401C1249088013E01148124921
:1036E0000988455C25B111480088401E0F490880B3
:1036F0000C480D490988445424B10C480088401CEA
:103700000A49088008480088401C07490880084684
:103710000088402801DB0020088009F0D1FB70BD43
:103720003600002070030020380000203400002004
:1037300010B52DED028B9FED1A0AB0EE408A09F00C
:103740007BFB1848008800280FDD1748008800EE32
:10375000100AF8EE400A1348008800EE100AB8EE8E
:10376000400A80EE801AB0EE418A09F0A9FBB5EE5E
:10377000C08AF1EE10FA03D29FED090AB0EE408A3A
:10378000B7EE000AB4EEC08AF1EE10FA03DDB7EE30
:10379000000AB0EE408AB0EE480ABDEC028B10BDC4
:1037A0000000000036000020340000201CB501217C
:1037B000022000F063F94020009001208DF8040001
:1037C00000208DF8060003208DF8050001208DF8FB
:1037D000070069460348FFF749FC40210148FFF70D
:1037E000BBFC1CBD0004024000BFFEE7FEB5002488
:1037F00000250121080700F061F9012000F0E0F840
:10380000012000F005FC06463EB131463CA0FCF725
:103810008DFE0021012000F05DFE002000F0F8FB8D
:1038200085B249F22850854206D1012000F036FACF
:1038300000F06EFD0020FEBD012000F013FA142000
:1038400004F094FF08E0601CC4B20A2004F08EFF6C
:10385000B4F5FA7F00DB04E0412000F0E3F9002832
:10386000F1D000BF412000F0DDF920B14FF48070AD
:1038700000F01AFA19E0002000F0F4F9012000F03D
:1038800007FA002408E0601CC4B20A2004F06EFFAE
:10389000C82C01DB0120CEE7612000F0C3F900282D
:1038A000F1D04FF4007000F0FFF9012000F0F6F9BC
:1038B00000F02EFD002000F0ABFB85B249F228504D
:1038C00085421AD07F20019000200090FF200290B6
:1038D000684600F06BFB0023322226210F2000F007
:1038E00093FC04230B220721182000F07BFC49F2F3
:1038F0002851002000F0EEFD00BF00209BE70000F3
:103900005254435F424B505F445231286C61737490
:10391000207265736574206D61726B6572293D302C
:10392000782530386C780D0A0000000070470000E0
:1039300070B5002100230F22C4781CB3174C2468F3
:1039400004F4E064C4F5E064C4F30721C1F10404A5
:10395000E3B20A4144789C40E1B2847814402143A8
:103960000C07210E0E4C05786155047804F01F05F4
:103970000124AC4005786D11AD0005F1E025C5F8D6
:10398000004109E0047804F01F050124AC40054D16
:103990000678761145F8264070BD00000CED00E079
:1039A00000E400E080E100E002490143024A1160C6
:1039B000704700000000FA050CED00E0704770470A
:1039C000014908627047000000000E421CB5012149
:1039D000082000F053F80121202000F04FF80121C9
:1039E000402000F04BF84020009001208DF80400AA
:1039F00000208DF8060003208DF8050001208DF8C9
:103A0000070069461A48FFF731FB1020009001209B
:103A10008DF8040000208DF8060003208DF80500C5
:103A200002208DF8070069461248FFF71FFB4FF48C
:103A30008070009001208DF8040000208DF80600B1
:103A400003208DF8050002208DF8070069460A481A
:103A5000FFF70CFB40210648FFF77EFB4FF4807117
:103A60000548FFF779FB10210248FFF775FB1CBDE5
:103A7000000C0240001402400018024029B1064A1E
:103A800012680243044B1A6004E0034A126882433E
:103A9000014B1A60704700003038024029B1064AD5
:103AA00012680243044B1A6004E0034A126882431E
:103AB000014B1A60704700003438024029B1064AB1
:103AC00012680243044B1A6004E0034A12688243FE
:103AD000014B1A60704700004038024029B1064A85
:103AE00012680243044B1A6004E0034A12688243DE
:103AF000014B1A60704700002038024029B1064A85
:103B000012680243044B1A6004E0034A12688243BD
:103B1000014B1A60704700004438024029B1064A40
:103B200012680243044B1A6004E0034A126882439D
:103B3000014B1A607047000024380240F0B50021A4
:103B400000220024022500260223324F3F6807F09E
:103B50000C0121B1042905D0082937D105E02E4FE9
:103B6000076036E02D4F076033E02A4F3F1F3F6864
:103B7000C7F38056274F3F1F3F6807F03F036EB1E2
:103B8000264FB7FBF3F7DFF88CC0ACF1040CDCF880
:103B900000C0CCF3881C07FB0CF40CE01E4FB7FBF5
:103BA000F3F7DFF870C0ACF1040CDCF800C0CCF324
:103BB000881C07FB0CF4174F3F1F3F68C7F30147F2
:103BC0007F1C7D00B4FBF5F7076002E0124F076031
:103BD00000BF00BF0F4F3F6807F0F0010909104F09
:103BE0007A5C0768D74047600A4F3F6807F4E051A6
:103BF000890A0B4F7A5C4768D7408760054F3F685A
:103C000007F46041490B064F7A5C4768D740C760AC
:103C1000F0BD0000083802400024F40000127A00D1
:103C20000001002010B501460022002300204A11A7
:103C3000012A02D10A4C236808E0022A03D1084C69
:103C40007034236802E0064C7434236801F01F02CC
:103C5000012494401C400CB1012000E0002010BD64
:103C6000003802400021094A11701170012802D069
:103C7000042808D103E00121044A117004E0052161
:103C8000024A117000E000BF00BF70477038024068
:103C90000149086070470000800E474201490860F2
:103CA000704700003C0E4742002100F44072B2F51C
:103CB000407F08D1094A116821F4F811084A0240EE
:103CC0001143064A1160054A68321268C0F30B03BB
:103CD0001A43024B68331A607047000008380240EC
:103CE000FFFCFF0F30B10749096841F00401054AA4
:103CF000116005E00349096821F00401014A1160DF
:103D0000704700000008065001460020034A126870
:103D10000A400AB1012000E0002070470408065064
:103D200001480068704700000808065070B5044656
:103D30000D4600F009F8291B491CB0FBF1F201FB0C
:103D40001200204470BD000010B50BF09FF8012850
:103D500014D00BF0ABF804460AE00BF0A7F8001BF8
:103D60000A2802D90BF0A2F810BD012009F01CFBB3
:103D70000120FFF7C9FF0028EFD011E0002409E07F
:103D80000A2004F013FD601C04460749884201D351
:103D90000020E9E70120FFF7B7FF0028F0D000BFBF
:103DA000FFF7BEFFE0E70000A086010010B5002489
:103DB00001214020FFF772FE0120FFF793FF0AE088
:103DC000601C84B2642004F0F1FC42F21070844262
:103DD00001DB012010BD0120FFF796FF0028EFD086
:103DE0000020F7E710B54FF4807000F073F8012859
:103DF00002D1000200F01EF84FF40030FFF7A4F8E3
:103E000010BD014600BF080900EB8000420001F030
:103E10000F001044C0B270470146002204E0501C5D
:103E2000C2B2A1F10A00C1B20A29F8DA100741EAC8
:103E30001060704781B241F08001044A126802F0BC
:103E4000800262EA0101014A116070470C280040BB
:103E5000002101098AB242F08002044B1B6803F082
:103E6000800363EA0202014B1A6070470C2800408D
:103E700008B50022009200200021104A126802F0CA
:103E80004002CAB9421E0D4B1A6000BF0B4A1268AD
:103E900002F04001009A521C0092009AB2F5803F55
:103EA00001D00029F2D0054A126802F040020AB19E
:103EB000012002E0002000E0012008BD0C280040A5
:103EC0000348006820F08000014908607047000046
:103ED0000C28004010B5014600200022054B1B684D
:103EE000054C03EA040202EA01030BB1012000E0E1
:103EF000002010BD0C2800407F3F010030B5014676
:103F00000020002200230C4C246804F004020A4C18
:103F1000383C24680C4002EAD13544EA0503064CDB
:103F2000343C246804EA11121BB194B20CB1012094
:103F300000E0002030BD000040280040014800683B
:103F40007047000080000020CA22174B1A605322DD
:103F50001A6091B1144A1C3A126820F004031A4303
:103F6000114B1C3B1A60104A1C32126800F004030B
:103F70001A430D4B1C331A6011E00B4A1C3A1268AD
:103F800020F004039A43084B1C3B1A60064A1C327B
:103F9000126800F004039A43034B1C331A60FF229B
:103FA000014B1A60704700002428004030B50446D9
:103FB0000025CA201549086053200860FFF758FF04
:103FC00000B91DE011481C38006820F040000F497E
:103FD0001C39086008460068216808430B491C39F1
:103FE00008600A491439A068086008460068A1887A
:103FF00040EA0140054914390860FFF761FF0125D7
:10400000FF2002490860284630BD000024280040F7
:1040100008B501460020009004480090009800EB8D
:10402000810000900098006808BD00005028004002
:104030002DE9F04105460C46002600274DB9607871
:1040400000F01000102804D1607820F010000A3031
:10405000607005B908E06078FFF7D3FE0646A078E7
:10406000FFF7CFFE064600BF55B1E0780004617847
:1040700040EA0120A1780843217840EA413611E066
:10408000E078FFF7C9FE4FEA00486078FFF7C4FE0A
:1040900048EA0028A078FFF7BFFE48EA0008207829
:1040A00048EA4036CA201249086053200860FFF7EA
:1040B000DFFE08B9002714E00E4830400C492039D3
:1040C0000860FFF7FDFE0A481C38006800F0200079
:1040D00030B900F01DF908B9002702E0012700E01F
:1040E0000127FF20024908603846BDE8F081000042
:1040F000242800403FFFFF002DE9F04105460C4613
:10410000002600274DB92E48006800F0400000B19D
:1041100002E00020E07000BF0DE02948006800F0D8
:10412000400020B12078FFF76CFE064602E0002038
:10413000E07000BF00BF55B120780004617840EA0C
:104140000120A1780843E17840EA014611E0207897
:10415000FFF762FE4FEA00486078FFF75DFE48EA2D
:104160000028A078FFF758FE48EA0008E07848EAFF
:104170000046CA2012491C31086053200860FFF72E
:1041800077FE08B9002713E00E4830400C49083983
:104190000860FFF795FE0A48006800F0200030B97B
:1041A00000F0B6F808B9002702E0012700E0012777
:1041B000FF2003491C3108603846BDE8F08100004B
:1041C000082800407F7F7F00CA21054A11605321E3
:1041D0001160034910390860FF2111607047000029
:1041E00024280040F8B504460D4617461E468DF8B3
:1041F00002708DF801508DF800608DF8034069461B
:104200000020FFF715FFF8BDF8B504460D46164629
:104210001F468DF803708DF800408DF801508DF821
:10422000026069460020FFF767FFF8BD3EB505460E
:104230000C46002000F0B4F8284600F099F820461B
:10424000FFF7C2FF4FF48040FFF702FE4FF48000FB
:10425000FEF77AFE01218803FFF776FE012000F0C9
:104260009FF84FF48000019001208DF80A00002093
:104270008DF8080008208DF8090001A8FEF76AFEF5
:1042800003208DF8000001208DF8030002208DF836
:1042900001008DF802006846FFF74AFB3EBD0000B2
:1042A00010B54FF48040FFF729FE012822D180038A
:1042B000FFF7CEFD12480068401C1149086008460F
:1042C0000068482816D3002008600E49012000F03D
:1042D00001F900BFBFF34F8F0B48006800F4E060A6
:1042E0000A490843001D08490860BFF34F8F00BF0B
:1042F00000BFFEE74FF48000FEF726FE10BD000071
:104300007C000020010026A20CED00E00000FA0570
:1043100008B50022009200200021CA22134B1A6027
:1043200053221A60114A183A126822F0A0020F4B69
:10433000183B1A6000BF0D4A183A126802F02001BB
:10434000009A521C0092009AB2F5003F01D0002959
:10435000F1D0064A183A126802F020020AB1012090
:1043600000E00020FF22014B1A6008BD2428004015
:10437000CA210A4A11605321116008491C39096891
:1043800021F00701054A1C3A1160114609680143F2
:104390001160FF21014A116070470000242800408D
:1043A00018B501460023009300220020CA23194CAF
:1043B00023605323236049B1164B1C3B1B6843F415
:1043C0008063144C1C3C236001201FE0114B1C3BFC
:1043D0001B6823F480630F4C1C3C236000BF0D4B13
:1043E000183B1B6803F00402009B5B1C0093009BBE
:1043F000B3F5803F01D0002AF1D0064B183B1B6873
:1044000003F004030BB9002000E00120FF23014C5E
:10441000236018BD242800402DE9FC5F82464FF040
:10442000000B00200190009000BF00BFBAF1000F08
:1044300001D1BDE8FC9F05F031FB834624480068AC
:10444000C0F30E00019022480068C0F306400090BF
:104450000198411C0098401CA1FB0067BBF1000FB4
:1044600005D0002186EA01007940084309D1BAF558
:10447000803F02D94FF6FF70DBE7AAF1010080B25E
:10448000D7E70222002330463946FBF78EFFAAFB0E
:104490000B2310EB0208594132463B464046FBF7DE
:1044A00084FF04460D46002384EA030085EA0301E5
:1044B000084301D1012400254FF480310020091B5D
:1044C000A84101D24FF48034601E80B2B1E70000F1
:1044D0001028004008B500220092044A0092009A79
:1044E00002EB80020092009A116008BD5028004043
:1044F00038B559A0FCF71AF85D48016840685D4A74
:10450000D2E9003259405040014346D000200123F7
:1045100002464FF40C6100905748006809F03CFED9
:10452000564908600846007800F04000002830D066
:104530000846007800F0800058B351A0FBF7F6FF62
:104540004FF400614C48006809F058FD0AF0AEFCD9
:104550000446002003462246012100904E48006890
:104560000BF048F84DA0FBF7E1FF4448008800F449
:10457000006000286ED10AF099FC04464FF0FF302D
:104580000023224602210090434800680BF032F8D5
:1045900060E045A0FBF7CAFF5CE000200123024673
:1045A0004FF40C6100903448006809F0F5FD334980
:1045B00008600846007800F0400070B308460078B4
:1045C00000F0800048B30846008800F4006020B383
:1045D00037A0FBF7ABFF80212748006809F00EFDEC
:1045E0002348083801684068374AC2E900100AF0D9
:1045F0005DFC04460020034622460121009033481A
:1046000000680AF0F7FF1A4908390C684B6822461F
:10461000184903C903F091FB1CE0FFE71748007835
:1046200000F08000B0B91248083803684268264894
:10463000D0E900105940504001430BD124A0FBF7B2
:1046400075FF0B480838046843682246094903C9C6
:1046500003F073FB38BD0000BDD3CAD5B5BD5254BD
:1046600053D0CD4D4143D6A1C1CB0D0A000000006F
:10467000FD020020180000202C0000203000002047
:10468000BDD3CAD5B5BDC1CBB1F0B5C4BDDAB5E3B4
:10469000B5C45254530D0A00F0000020BFAAC6F45E
:1046A000B6A8CAB10D0A0000B6AAC6FA0D0A0000E3
:1046B000BDD3CAD5B5BDC1CB525453A3ACB7A2CB61
:1046C000CD4354530D0A000020000020F4000020C8
:1046D000D6D8D0C2B7A2CBCD4354530D0A000000A8
:1046E00030B5054605B930BD6C6905E02046FFF7D9
:1046F000F7FF00202072A469002CF7D100BFF2E779
:1047000010B5044606A0FBF711FF80210A48006897
:1047100009F0BCFC0021094A1160516010BD000085
:10472000D6D8D6C3BDD3CAD5D7B4CCACCAB1BCE4F5
:10473000B5BD0D0A000000002C0000202000002064
:1047400010B5044604B910BD0020606107F0C2FB3B
:10475000C4E900010021A160E160FF202074002075
:10476000207684F8E0000120A074FF20607400BF70
:10477000E9E700002DE9F0412DED068B82B00746F8
:104780000D461646002000900190FF24A046FEF73B
:10479000EBFD8820FEF7B4FD022004F007F8FEF7D9
:1047A0002FFE38B1FEF706FE012002B0BDEC068BED
:1047B000BDE8F081FD20FEF7A3FD022003F0F6FF27
:1047C000FEF71EFE18B1FEF7F5FD0120EDE7FEF73E
:1047D000F1FD142003F0CAFFFEF7C6FD8920FEF7A5
:1047E0008FFD022003F0E2FFFEF70AFE18B1FEF78C
:1047F000E1FD0120D9E7062269463846FEF736FD7D
:10480000FEF7D8FD9DF801009DF8001040EA012058
:10481000264908600968AF2201FB02F00BF004FA98
:104820009FED230B53EC102B0BF060F89FED220B48
:1048300053EC102B0AF09EFF0AF06AFF28609DF8E7
:1048400004009DF8031040EA0120184948604968B7
:1048500001EB4102C2EBC1100BF0E6F99FED140B26
:1048600053EC102B0BF042F89FED150B53EC102B73
:104870000AF080FF0AF04CFF30600221684603F026
:1048800021FA04469DF80200A04201D001208CE7E5
:1048900002210DF1030003F015FA80469DF8050092
:1048A000404501D0012080E700207EE77400002011
:1048B00000000000E0FFEF4000000000008046C064
:1048C00000000000000018C070B504460D46002628
:1048D0000AF0DCFA012802D00AF0E8FA064632466D
:1048E0002946204600F002F870BD00002DE9F0478F
:1048F0000546894616460DB9BDE8F0876C6920E08B
:10490000324649462046FFF7F1FF3146204607F080
:10491000FBFFA8B1D4E900733A460CA0FBF706FEF2
:104920000F480078402809DA0E480D49097840F808
:1049300021400B480078401C09490870A46900E038
:10494000A469002CDCD100BFD6E700006E6F64655F
:1049500020256C6C7820697320646561640D0A0001
:104960005F0000207006002010B5044604A0FBF78D
:10497000DDFD10210648006809F088FB10BD00002D
:10498000B6A8CAB1C6F7CAB1BCE4B5BD0D0A0000ED
:104990004400002070B52DED048B82B00024FDF79B
:1049A0009BFB07F0D5FC4FF47A7003F0DFFE4FF469
:1049B0007A7003F0DBFE4FF47A7003F0D7FE4FF409
:1049C0007A7003F0D3FE4FF47A7003F0CFFE082024
:1049D000FDF79AFD04465A484481210C8181808963
:1049E00000EE100AB8EE400AF2EE040A80EE201A39
:1049F00011EE105A28460BF05DFC41EC180B5048A4
:104A0000408900EE100AB8EE400AF2EE040A80EE89
:104A1000201A11EE105A28460BF04CFC41EC190BF1
:104A20008DED008B53EC192B46A0FBF77FFD07F0B3
:104A30007DFC322003F09AFE07F08AFC4FF47A7076
:104A400003F094FE4FF47A7003F090FE4FF47A7006
:104A500003F08CFE4FF47A7003F088FE4FF47A7006
:104A600003F084FE0820FDF7FDFC0446A1B23448A3
:104A7000C0F80E10D0F80E0000EE100AB8EE400A92
:104A8000F2EE040A80EE201A11EE105A28460BF0BE
:104A900011FC41EC180B53EC182B32A0FBF746FD30
:104AA000642003F063FE0520FDF72AFE0446244837
:104AB000C0F81240642003F059FE0620FDF720FEE6
:104AC00004461F48C0F81640642003F04FFE07203C
:104AD000FDF716FE04461A48C0F81A40642003F099
:104AE00045FEFDF767FD04461548C483FDF756FCF7
:104AF000642003F03BFEFDF7B1FD044610488484BA
:104B0000642003F033FEFDF7A5FE04460C48048440
:104B1000642003F02BFEFDF749FE04460848448458
:104B200007F004FCFDF7E8FA002008F097F80646C5
:104B3000314610A0FBF7FAFC02B0BDEC048B70BD4F
:104B4000B003002054656D70657261747572653ACA
:104B50002025662C2048756D69646974793A25664C
:104B60000D0A000070726573737572653A25660DE3
:104B70000A00000073656E645F74696D6572C8CE6B
:104B8000CEF1CAB9D3C3C7E9BFF6A3BA256C640D89
:104B90000A0000000CB50020019000903448006825
:104BA00040F480303249086000BF3148006800F4AA
:104BB000003000900198401C0190009818B90198AD
:104BC000B0F5A04FF1D12A48006800F4003010B1D0
:104BD0000120009001E0002000900098012846D1BB
:104BE00023484030006840F080502149403108603F
:104BF0002048006840F440401E4908601C480830C6
:104C000000681B49083108600846006840F400400D
:104C100008600846006840F4A05008601648091F64
:104C20000860081F006840F08070091F086000BF1E
:104C30000F48006800F000700028F9D040F20570BD
:104C40000E4908600A480830006820F0030008494F
:104C5000083108600846006840F00200086000BFA4
:104C600003480830006800F00C000828F8D10CBD9B
:104C7000003802400070004008544007003C0240E9
:104C8000042808D14FF0E021096941F004014FF0F8
:104C9000E022116107E04FF0E021096921F00401F1
:104CA0004FF0E0221161704710B50AF0EFF80128CB
:104CB00001D009F0F9FB10BD10B51548006840F4AB
:104CC0007000134908601348006840F00100114962
:104CD000086000200F49083108600E4800680E493E
:104CE00008400C4908600D48091D0860081F00684D
:104CF00020F48020091F0860002006490C3108605C
:104D0000FFF748FF4FF0006001498039086010BD8F
:104D100088ED00E000380240FFFFF6FE103000246E
:104D2000F0B50C46154600210022068C4FF6FE77A2
:104D30003E400684018B028C4FF60C7631407E1C7F
:104D400006EA03162E4331434FF6F576324044F01F
:104D50000106324301830284F0BDF0B50C461546CE
:104D6000002100220026078C4FF6EF7C07EA0C0793
:104D70000784018B028C4FF6FF7707EA041640F692
:104D8000FF4739404FF6FF7707EA033739434FF6BD
:104D9000FF7707EA052739434FF65F773A4046F039
:104DA00010073A4301830284F0BDF0B50C46154666
:104DB000002100220026078C4FF6FF6C07EA0C0743
:104DC0000784818B028C4FF6FF7707EA04264FF6A3
:104DD0000C7739404FF6FF7707EA03172F43394323
:104DE0004FF2FF573A4046F480773A43818302847A
:104DF000F0BDF0B50C461546002100220026078CB8
:104E00004EF6FF7C07EA0C070784818B028C4FF675
:104E1000FF7707EA043640F6FF4739404FF6FF7741
:104E200007EA052739434FF6FF7707EA0337394387
:104E300045F6FF773A4046F480573A43818302842F
:104E4000F0BD10B50121880700F057F9012801D104
:104E5000FEF73CF80121880700F075F810BD7FB51A
:104E600005460C4601210846FEF728FEADF8045021
:104E700002940020ADF80C00ADF8060001221146A6
:104E8000900700F083F901A94FF0804000F0B6F9D7
:104E90001C208DF8000001208DF8030004208DF8FF
:104EA000010000208DF802006846FEF741FD012157
:104EB000880700F04BF87FBD10B50121074800F0CE
:104EC0001CF9012804D106480068401C0449086008
:104ED0000121024800F037F810BD00000004004036
:104EE000140000207FB505460C4601210220FEF784
:104EF000E5FDADF8045002940020ADF80C00ADF8CB
:104F00000600012211460D4800F040F901A90B48A6
:104F100000F074F91D208DF8000001208DF80300C9
:104F200009208DF8010000208DF802006846FEF788
:104F3000FFFC0121014800F009F87FBD000400409A
:104F4000CA4302827047CA430282704721B1028875
:104F500042F00102028004E002884FF6FE731A401C
:104F60000280704710B504465548844208D101219B
:104F70000846FEF7D3FD00210120FEF7CFFD9DE09E
:104F8000B4F1804F08D101210846FEF7A7FD0021AA
:104F90000120FEF7A3FD91E04A48844208D1012197
:104FA0000220FEF79BFD00210220FEF797FD85E021
:104FB0004548844208D101210420FEF78FFD0021DD
:104FC0000420FEF78BFD79E04048844208D101219E
:104FD0000820FEF783FD00210820FEF77FFD6DE02D
:104FE0003B48844208D101211020FEF777FD0021C3
:104FF0001020FEF773FD61E03648844208D101219C
:105000002020FEF76BFD00212020FEF767FD55E014
:105010003148844208D101210220FEF77FFD0021A2
:105020000220FEF77BFD49E02C48844209D1012192
:105030000804FEF773FD00214FF48030FEF76EFD8B
:105040003CE02748844209D101214804FEF766FD6F
:1050500000214FF40030FEF761FD2FE0214884422B
:1050600009D101218804FEF759FD00214FF4802069
:10507000FEF754FD22E01C48844208D10121402063
:10508000FEF72CFD00214020FEF728FD16E0174812
:10509000844208D101218020FEF720FD00218020DC
:1050A000FEF71CFD0AE01248844207D10121801559
:1050B000FEF714FD0021A015FEF710FD10BD000045
:1050C000000001400004004000080040000C0040C7
:1050D0000010004000140040000401400040014066
:1050E000004401400048014000180040001C0040FE
:1050F000002000400146086C704702460020138AD9
:105100000B400BB1012000E00020704770B5054650
:105110000C46208850B92389A28861882846FFF769
:10512000FFFDE188284600F03DF825E020880428AE
:105130000AD12389A28861882846FFF70EFEE188FC
:10514000284600F038F817E0208808280AD123897B
:10515000A28861882846FFF728FEE188284600F0EB
:1051600037F809E02389A28861882846FFF741FEC5
:10517000E188284600F035F870BD002101804180AB
:10518000012181800021C180018170471AB183898A
:105190000B43838102E083898B4383817047A0F8AE
:1051A00050107047028B4FF6F3731A400283028B44
:1051B0000A4302837047028B4FF2FF331A40028387
:1051C000028B4FF6FF7303EA01231A4302837047F1
:1051D000828B4FF6F3731A408283828B0A43828359
:1051E0007047828B4FF2FF331A408283828B4FF6D7
:1051F000FF7303EA01231A43828370470022028867
:10520000184B98420ED0184B98420BD0B0F1804FFB
:1052100008D0164B984205D0154B984202D0154B3A
:10522000984204D14FF68F731A404B881A43124BA1
:10523000984207D0114B984204D04FF6FF431A40D2
:105240000B891A4302804B68C3620B880385054BA8
:10525000984202D0044B984201D18B7A03860123F5
:1052600083827047000001400004014000040040B8
:1052700000080040000C00400010004000140040F6
:105280004FF0FF3141600021018001814180817236
:10529000704700002DE9F84305460DB9BDE8F883D5
:1052A0006C694FF0000820E02046FFF7F3FF207AFA
:1052B0000090D4E9006332460EA0FBF737F9A069ED
:1052C000A04206D1D4E90063324614A0FBF72EF9C0
:1052D0000DE0A46908F1010080B28046B0F5806F4E
:1052E00003DD1AA0FBF722F901E0002CDCD100BF9E
:1052F00000BFD3E74368696C64204E6F646520414A
:105300004444523A20256C6C782C20697320616CDF
:105310006976653F2025780D0A0000005472617699
:105320006572736554726565206572726F723A209A
:105330006E65787442726F74686572206C6F6F70FE
:1053400020617420256C6C780D0A0000547261761F
:1053500065727365547265652061626F727465640D
:105360003A20746F6F206D616E792062726F74687D
:10537000657273286C6F6F703F290D0A0000000082
:10538000F0B505460E46002705B10EB90020F0BD68
:10539000B54201D10120FAE76C6912E0314620469E
:1053A000FFF7EEFF08B10120F1E7A069A04200D1AC
:1053B00009E0A469781C80B20746B0F5007F00DDE3
:1053C00001E0002CEAD100BF0020E0E7F8B500279B
:1053D00000260020009040F22551704800F0E3F9CB
:1053E00000286ED06D4800F097FAC4B26C4800787F
:1053F00008BB00206B4908706B4908706B49088036
:105400006B480088C7280BDA694801880088401C6F
:10541000674A1080674844540021128881549BE0F9
:1054200065480068401C64490860002060490880A5
:105430006049087090E05B48007848B15C4800889B
:1054400030B90020574908705749087057490880FB
:105450005448007800287FD153480078052849D265
:10546000DFE800F0030D1D3049000020504908809E
:1054700050480470012008804B4908706BE0A52C4F
:1054800007D14C48447002204949088046490870B9
:1054900004E0484804700120454908805BE05A2C2C
:1054A00007D1444884700320414908803E49087070
:1054B00006E04048047001203D4908803A490870E0
:1054C00049E06AE0032C01DBC42C07DD00203849E9
:1054D000088036490880344908700AE03548C470AD
:1054E000042033490880201D3049088004202E49BB
:1054F000087030E000BF2E480088C8281ED22C4813
:1055000001880088401C2A4A10802A4844542748B1
:105510000088F8B11046008824490988884219DBC0
:10552000224800881146088001201E490870012782
:1055300000201D4908701D4908800BE01E480068C6
:10554000401C1D490860002019490880174908803F
:105550001549087000BF00BF1848008800F480504B
:10556000D8B10F480078C0B14FF480760FB146F043
:1055700004066A4631461248006808F0FBFD0546FD
:10558000012D0AD100BF009830B128070D490860ED
:10559000BFF34F8FBFF36F8F00BFF8BD004C0040CB
:1055A00099000020980000209A0000209C00002014
:1055B0008A000020380800209400002030000020DD
:1055C0002C00002004ED00E038B50020009040F2EF
:1055D00025511E4800F0E7F8F0B11C4800F09CF996
:1055E000C5B21B480088C7280CD21948018800881A
:1055F000401C174A1080174845540020154912884E
:10560000885409E014480068401C134908600020D1
:105610000F4908800F4908706A4604210F48006846
:1056200008F0A8FD0446012C0AD100BF009830B153
:1056300020070B490860BFF34F8FBFF36F8F00BF88
:1056400040F22551014800F08AF838BD00100140B1
:10565000A4000020000900208C000020440000204D
:1056600004ED00E010B540F22551114800F09BF820
:10567000E8B10F4800F050F9C4B20E480088C728BE
:105680000BDA0C4801880088401C0A4A10800A483E
:10569000445400211288815409E008480068401CE5
:1056A000064908600020034908800349087010BDBE
:1056B0000044004088000020700700209000002077
:1056C00038B51D4D00200090002440F224411B48B5
:1056D00000F069F850B319480088C0B2009017482C
:1056E000001D0088C0B2009000211548FDF7D6F9D2
:1056F00013482838C06AC0F1FF00C0B2009000BF54
:1057000004E01048005D2855601CC4B29DF80000FC
:105710008442F6DB9DF8000085F8FF00FF21084871
:10572000FDF7AAFA01210648FDF7B8F9102106484D
:10573000FDF712FD00BF38BDC80900200048004039
:1057400028600240C80B00200008024001F40072EB
:10575000B2F5007F00D100BFCA430280704710B588
:105760000022002340F66A14A14200D100BF0A12B1
:1057700001249440A3B2DC43048010BD21B182898E
:1057800042F40052828104E082894DF6FF731A4090
:10579000828170471AB1838A0B43838202E0838A35
:1057A0008B438382704770B5024600240023002596
:1057B000002040F66A16B14200D100BFC1F3421585
:1057C00001F01F03012606FA03F3012D02D1968989
:1057D000334006E0022D02D1168A334001E0968A5A
:1057E00033400C12012606FA04F41688344013B133
:1057F0000CB1012000E0002070BDF0B5034600248C
:1058000000260025002040F66A17B94200D100BFEB
:105810001846C1F3421401F01F06012707FA06F5E6
:10582000012C01D10C3004E0022C01D1103000E039
:1058300014301AB107682F43076002E00768AF43CE
:105840000760F0BD2DE9FF4705460E460024A1463E
:1058500000BFA046B08900B100BF2C8A24F4405498
:10586000F08804432C82AC8941F20C608443B088F8
:1058700031890843718908430443AC81AC8A24F41C
:105880004074B0890443AC826846FEF757F920485B
:10589000854202D01F48854202D1DDF80C9001E01C
:1058A000DDF80890A88900F4004040B109EBC90078
:1058B00000EB091031684900B0FBF1F707E009EB94
:1058C000C90000EB091031688900B0FBF1F76420D2
:1058D000B7FBF0F004012009642101FB1078A889CE
:1058E00000F4004040B1322000EBC800B0FBF1F002
:1058F00000F00700044308E0322000EB08106421A8
:10590000B0FBF1F000F00F0004432C81BDE8FF87ED
:10591000001001400014014001468888C0F30800CF
:10592000704700000BE000BF0749098801F0400103
:105930000029F9D00178044A121D1180401C017819
:105940000029F0D170470000004C004000BFFEE786
:1059500010B596B0044601210220FEF78FF8012110
:105960008804FEF7ABF807220A214A48FDF7C6FB78
:1059700007220B214748FDF7C1FB4FF4406014900C
:1059800002208DF854008DF8550000208DF8560047
:1059900001208DF8570014A93E48FDF767FB1094CD
:1059A0000020ADF84400ADF84600ADF84800ADF871
:1059B0004C000C20ADF84A0010A93748FFF742FF11
:1059C00001213548FFF7DAFE01214805FEF756F8B8
:1059D0003248FDF76FF800BF3048FDF717F900288F
:1059E000FAD14FF0006001902B48001D02902C4826
:1059F000039000200490FF200590002006904FF4B3
:105A0000806007900020089009904FF480700A9001
:105A100000020B9000200C9003200D9000200E90AF
:105A20000F9001A91D48FDF7FBF8002240F2266106
:105A30001948FFF7E2FE002240F225511648FFF711
:105A4000DCFE012240F224411348FFF7D6FE272056
:105A50008DF8000001208DF8010003208DF8020070
:105A600001208DF803006846FDF762FF0122402106
:105A70000948FFF78FFE01210748FFF77FFE01214C
:105A80000648FDF70BF84FF480710648FAF7DEFF81
:105A900016B010BD000402400048004028600240DB
:105AA000C80B0020C809002010B50446022C04DAF7
:105AB00009F0FCF9014941F8240010BDAC000020B8
:105AC00070B509F0F3F9054600240648056000BFEB
:105AD00004E0054840F82450601CC4B2022CF8DBF6
