:020000040800F2
:1000000010A20020D5030008653F0008D138000881
:10001000E53D0008B12100089550000800000000EF
:1000200000000000000000000000000015030008B0
:10003000152B00080000000071030008694A000841
:10004000EF030008EF030008EF030008EF030008C8
:10005000EF030008EF030008A9350008EF030008CC
:10006000EF030008EF030008EF030008EF030008A8
:10007000EF030008EF030008EF030008EF03000898
:10008000EF030008EF030008EF030008EF03000888
:10009000EF030008EF030008EF030008EF03000878
:1000A000EF030008EF030008EF030008EF03000868
:1000B000E14A00081D4B0008EF030008EF030008A9
:1000C000EF030008EF030008EF030008EF03000848
:1000D000EF030008394D0008AD4D0008E14D000860
:1000E000EF030008EF030008EF030008EF03000828
:1000F000EF030008EF030008EF030008EF03000818
:10010000EF030008EF030008EF030008EF03000807
:10011000C14C0008EF030008EF030008EF030008DC
:10012000EF030008EF030008EF030008EF030008E7
:10013000EF030008EF030008EF030008EF030008D7
:10014000EF030008EF030008EF030008EF030008C7
:10015000EF030008EF030008EF030008EF030008B7
:10016000EF030008EF030008EF030008EF030008A7
:10017000EF030008EF030008EF030008EF03000897
:10018000EF030008EF03000800F002F800F0B2F8F7
:100190000AA090E8000C82448344AAF10107DA45E2
:1001A00001D100F0A7F8AFF2090EBAE80F0013F082
:1001B000010F18BFFB1A43F001031847C0E4000009
:1001C000E0E400000A444FF0000C10F8013B13F08B
:1001D000070408BF10F8014B1D1108BF10F8015BA0
:1001E000641E05D010F8016B641E01F8016BF9D193
:1001F00013F0080F1EBF10F8014BAD1C0C1B09D1EA
:100200006D1E58BF01F801CBFAD505E014F8016B5B
:1002100001F8016B6D1EF9D59142D6D370470000ED
:100220000023002400250026103A28BF78C1FBD8FF
:10023000520728BF30C148BF0B6070476E2900F0DD
:10024000E584702900F0058266290DF08D87652907
:100250000DF08A8767290DF0878761290DF0868761
:1002600003681B0A28BF41F08001692900F07681EC
:10027000642900F07381752900F070816F2900F006
:10028000EC87782900F0D181E92900F08787E429FB
:1002900000F08487F52900F08187EF2900F0E987D5
:1002A000F82900F0D0810368DB0928BF41F0800104
:1002B000632900F0F686732900F0FB86E32901F03C
:1002C000F981F32901F0FE81002070471FB50DF080
:1002D00046FF00F0D9FF0400002000210DF00CF9CA
:1002E000401C6060002000210DF0F0F8E0601FBDB0
:1002F00010B510BD01F084FA1146FFF7E7FF07F0D3
:10030000B5FE01F0ABFA03B4FFF7F2FF03BC05F052
:10031000ABFE00002C4B19680868B0E8F04F80F382
:100320000988BFF36F8F4FF0000080F3118870478A
:100330000000000008480068006880F308884FF05B
:10034000000080F3148862B661B6BFF34F8FBFF32D
:100350006F8F00DF00BF00BF08ED00E0DFF80C008A
:10036000016841F470010160704700BF88ED00E052
:10037000EFF30980BFF36F8F134B1A681EF0100F55
:1003800008BF20ED108A20E9F04F106009B44FF04B
:10039000500080F31188BFF34F8FBFF36F8F0BF0C6
:1003A00061FB4FF0000080F3118809BC19680868F0
:1003B000B0E8F04F1EF0100F08BFB0EC108A80F3C9
:1003C0000988BFF36F8F7047E0000020EFF30580CE
:1003D000704700000948804709480047FEE7FEE7EC
:1003E000FEE7FEE7FEE7FEE7FEE7FEE7FEE7FEE7E5
:1003F00004480549054A064B70470000794A000841
:10040000890100081070002010A200201072002046
:1004100010720020704710B54C1084EA530404D5C4
:100420004042C1F1000138BF491E1B4204D552426F
:10043000C3F1000338BF5B1E00F0FBFA14F0804FDD
:1004400004D04042C1F1000138BF491E14F0004FF2
:1004500004D05242C3F1000338BF5B1E10BD000040
:100460000FB4044910B503AA029800F027FE10BC8F
:100470005DF814FB880000200FB4044910B503AAEE
:10048000029800F01BFE10BC5DF814FB88000020F1
:100490000FB41CB5084B06AA7B446946009005982A
:1004A00000F0DDFD04460020694600F0EBFD20462B
:1004B0001CBC5DF814FB0000E90B000070B504469D
:1004C00085690068C10601D5302600E02026C007F6
:1004D00007D070BDD4E9012130469047206A401C06
:1004E00020626D1EF6D570BD70B504468569007832
:1004F000C00707D170BDD4E9012120209047206AB0
:10050000401C20626D1EF6D570BD70B50C460546C8
:10051000012A05D02878800600D5EA69002302E088
:10052000012305E05B1C934202D2E05C0028F9D174
:10053000A869E618C01AA861286A184428622846E3
:10054000FFF7BCFF04E0D5E9012114F8010B904747
:10055000B442F8D32846FFF7C7FF70BD2DE9F0413C
:100560000646002410687529314616A510D000F003
:10057000E2FA002802DA404213A507E031688A0750
:1005800001D512A502E0490704D511A5012401E017
:1005900000F0DAFA00210A2206F1240709E0B0FB94
:1005A000F2FCB0FBF2F302FB1C003030785418462A
:1005B000491C0028F3D123462A463046BDE8F041C5
:1005C00000F0CBBA000000002D0000002B0000005E
:1005D00020000000F0B40D460188090502D5214C29
:1005E0007C4402E01F4C7C440E34002100F12406C0
:1005F00008E002F00F071209E75D42EA03721B09E7
:100600007754491C52EA0307F3D1027800231207FA
:1006100004D5702D06D009B1022311342246F0BC56
:1006200000F09BBA01231034F8E770B504460D467C
:100630002146106800F088FA024629462046BDE8A7
:1006400070400023C6E7D21D22F00703D3E9002340
:10065000C0E70368126843F0200303600823C36106
:100660000023B7E77CDE00002DE9F05F89460446F1
:100670004FF0000ADFF874B1FB44C0F820A0204618
:10068000E1688847002874D0252806D0D4E90121E4
:100690009047206A401C2062F1E700265F46204612
:1006A000E16888472028054607DB312D05D27819F7
:1006B00010F8200C08B10643F1E7B00701D526F089
:1006C0000406C4F81CA00027C4F818A02A2D09D0DD
:1006D000284605F0C2FC38B304EB8708303DC8F863
:1006E000185019E059F8041B204604EB8702916169
:1006F000E1688847012F054618D1E069002820DA13
:1007000026F020061DE0D8F8180000EB800005EB6D
:1007100040003038C8F818002046E1688847054690
:1007200005F09BFC0028EED1012F0AD02E2D08D118
:100730002046E16888477F1C0546022F46F02006C8
:10074000C4DBA069002803DA404246F00106A0613C
:10075000F00701D026F010066C2D0BD0682D09D0C3
:100760004C2D39D06A2D35D0742D35D07A2D33D01B
:1007700016E038E0E1682F4620468847B842054633
:1007800009D16C2F26D04FF48060E16806432046E3
:100790008847054604E06C2F1AD04FF4807006435A
:1007A0000DB3A5F14100192802D8203546F40066A2
:1007B0004A462946204626604E46FFF73FFD80B157
:1007C00001280BD0F61D26F0070000F1080956E7B6
:1007D0004020E4E78020D8E70020D6E706F10409AE
:1007E0004DE7284652E7206ABDE8F09F0CDE000086
:1007F00030B505460B462A4613F8014B12F8010B9B
:1008000008B1A042F8D01CB1002802D06D1CF1E75D
:10081000284630BD40EA0103024630B59B0710D19F
:100820004FF0013400E008C208C91D1B9D4315EAC2
:10083000C41FF8D013F0FF0102F8011B0DD01B0AF2
:10084000F8E711F8013B002B02F8013B05D011F845
:10085000013B002B02F8013BF3D130BD10B5431C26
:1008600002E010F8011B71B18107FAD14FF001329B
:1008700002C88C1A8C4314EAC211F9D0C01A0A06B5
:1008800003D0C01E10BDC01A10BD0A0401D0801EC6
:1008900010BD0902FCD0401E10BD032A40F230807A
:1008A00010F0030C00F0158011F8013BBCF1020FB1
:1008B000624498BF11F801CB00F8013B38BF11F832
:1008C000013BA2F1040298BF00F801CB38BF00F849
:1008D000013B11F0030300F02580083AC0F00880C6
:1008E00051F8043B083A51F804CBA0E80810F5E7AA
:1008F000121D5CBF51F8043B40F8043BAFF300808D
:10090000D20724BF11F8013B11F801CB48BF11F801
:10091000012B24BF00F8013B00F801CB48BF00F8D1
:10092000012B704710B5203AC0F00B80B1E8185089
:10093000203AA0E81850B1E81850A0E81850BFF4C9
:10094000F5AF5FEA027C24BFB1E81850A0E8185068
:1009500044BF18C918C0BDE810405FEA827C24BFBC
:1009600051F8043B40F8043B08BF7047D20728BF4A
:1009700031F8023B48BF11F8012B28BF20F8023B99
:1009800048BF00F8012B704702F0FF0343EA03223F
:1009900042EA024200F002B84FF000020429C0F01F
:1009A000128010F0030C00F01B80CCF1040CBCF1A1
:1009B000020F18BF00F8012BA8BF20F8022BA1EBF3
:1009C0000C0100F00DB85FEAC17C24BF00F8012BD8
:1009D00000F8012B48BF00F8012B70474FF00002D0
:1009E00000B5134694469646203922BFA0E80C5025
:1009F000A0E80C50B1F12001BFF4F7AF090728BF00
:100A0000A0E80C5048BF0CC05DF804EB890028BF7B
:100A100040F8042B08BF704748BF20F8022B11F0A4
:100A2000804F18BF00F8012B704770477047704720
:100A3000704753EA020C00F069802DE9F04B4FF04B
:100A40000006002B1FBFB3FA83F503FA05F424FA5E
:100A500005F65E4012BF1643B2FA82F502FA05F4BB
:100A6000C5F120051EBF22FA05FC44EA0C0420351E
:100A700056EA044C4FEA144418BF641C4FF00008B7
:100A80004FF00009904271EB030C39D3002919BFD4
:100A9000B1FA81F701FA07F6B0FA80F700FA07F623
:100AA000C7F120071EBF20FA07FC46EA0C062037D4
:100AB000B6FBF4FCA7EB0507103F07F01F0BCBF1CB
:100AC00020060CFA0BFB2CFA06F644BFB3460026B0
:100AD000202FA4BF5E464FF0000B5BEA060C08BF58
:100AE0004FF0010B19EB0B09ABFB027C48EB06083E
:100AF000C01B06FB02CC0BFB03CC71EB0C01C1E766
:100B00000B46024641464846BDE8F08B13B54FF010
:100B100000004FF00001AFF30080BDE81C407047BB
:100B200010B500F0B5FB006810BD10B5044600F02C
:100B3000AFFB046010BD09684A0501D540B270479B
:100B4000C905FCD500B2704709684A0501D5C0B295
:100B50007047C905FCD580B270472DE9F0470D46B6
:100B600099469246044600F124080168880604D597
:100B7000E06921F01001216000E00120A84201DDC0
:100B8000471B00E00027A1697A1902EB0900081A47
:100B9000A0612078C00602D42046FFF78FFC002613
:100BA00008E0D4E901211AF806009047206A401CA9
:100BB000761C20624E45F4DB2078C0060AD520461C
:100BC000FFF77CFC06E0D4E9012130209047206A41
:100BD000401C2062381EA7F10107F4DC07E0D4E9CD
:100BE000012118F805009047206A401C2062281E49
:100BF000A5F10105F3DC2046FFF776FC207800061E
:100C000002D50220BDE8F0870120FBE711680268E9
:100C1000006A530501D508700AE0D30501D50880A4
:100C200006E0130603D5C217C1E9000200E0086020
:100C30000120704770472DE9FF4F0C461E464FF0CC
:100C4000FF378BB0D2E90001DDF860800A908A4658
:100C5000C1F30A5505B93D46002108464FF0000092
:100C6000BAF1000F00F4400005DA00EB80004FF409
:100C7000400101EA50004FEA9059B9F1010F00DD3F
:100C8000B9460A9850EA4A000ED044F61050A5F230
:100C9000FF3545432F14B8F1000F1ED07542291EB1
:100CA0001EDDC9F100021CE0B8F1010F4FF0000099
:100CB00001D0302103E0F24305E02154401CB04252
:100CC000FBDB30460022002121540B99C1F808803B
:100CD000C1E900200FB0BDE8F08FBD1B6D1CDEE741
:100CE0004A4600DA694206A800F0F0FC06AB93E839
:100CF000070003AB83E8070050460A9900F0F8FDAF
:100D00008DE80700A0F500501F3800900398002DD3
:100D10000ADD42F21F014A460844002303A903905A
:100D2000684601F061F809E0A0F500504A461F3816
:100D3000002303A90390684601F06BF88DE80700D3
:100D40000004000C03D04FF0FF30410800E01046D3
:100D5000B8F1000F03D00022009215461EE0751E68
:100D600005D400F099FA303262556D1EF9D5B346BC
:100D70000122084302D000227F1C04E020783028A2
:100D800001D100227F1E002A099784D01DE0112D79
:100D900007DA00F081FA303262556D1C50EA010228
:100DA000F5D1084302D00098C8B10EE00021681EBA
:100DB00005E0235C625C63542254401E491C81425E
:100DC000F7DBAB46A81B401E0990002004F80B007F
:100DD0000B98099AC0F80880C0E9002B7AE7112621
:100DE0004FF0000857E72DE9F04F88460446D21D22
:100DF00022F0070191B0D1E90001CDE90A0104F028
:100E000017FA02460B98C00F01D02D2007E020688A
:100E1000810701D52B2002E0202101EAC000032A2E
:100E2000099001D0072A05DB03464146204600F021
:100E3000F7FB0BE12078800601D5E06900E0062091
:100E4000B8F1650F814606D0B8F1660F18D0B8F139
:100E5000670F70D131E00020B9F1110F009001DB74
:100E6000112301E009F101030AAA01A90CA8FFF767
:100E7000E2FEDDE90C70002609F10105834647E03A
:100E800001204B4600904FF000470AAA01A90CA888
:100E9000FFF7D1FEDDE90DB00C995D46002610B9D3
:100EA00009F101000D18B9EB050003D4C0F1FF36BC
:100EB00009F10105A5EB09002BE0B9F1010F01DAF9
:100EC0004FF001090020B9F1110F0090484601DDF3
:100ED000112300E003460AAA01A90CA8FFF7ABFE04
:100EE000DDE90C704D4600268346207800070AD4C1
:100EF000AB4500DA5D4601A8012D04DD411911F86A
:100F0000011C302907D04F4502DA17F1040F04DA2B
:100F1000012082460FE06D1EEEE7002F02DCED1B84
:100F20003E4403E0781CA84200DD7D1CB81B00F1A4
:100F3000010A4FF000472078000703D4AA4501DBDF
:100F40004FF0FF3A0021B7F1004F0DF143088DF843
:100F5000431024D002202B23002F01DA7F422D23BF
:100F60000A21021EA0F1010000DC5FB197FBF1FC39
:100F700097FBF1F201FB1C7C17460CF1300C08F8D2
:100F800001CDEEE7A8F1010003702188090501D524
:100F9000452100E06521A0F1010800F8011C099835
:100FA0000FA9A1EB0807FF1D00B10120411901EBBA
:100FB000EA70A1693844081A401EA0612078C00672
:100FC00002D42046FFF77AFA099828B1D4E9012122
:100FD0009047206A401C20622078C00622D5204617
:100FE000FFF76CFA1EE0002E04DBB34502DD01A81A
:100FF000805D00E03020D4E901219047206A401C48
:101000002062761CAAF101005FEA000A0AD100F012
:101010003BF9C0680168405CD4E901219047206A2F
:10102000401C2062281EA5F10105DCDC07E0D4E9A4
:10103000012118F8010B9047206A401C2062381EDD
:10104000A7F10107F3DC2046FFF74EFA032011B0A9
:1010500041E6000001694A1C02610878704700B54A
:101060008FB0CDE901310021059105497944CDE9E1
:10107000031011466846FFF7F7FA0FB000BD0000F5
:10108000E5FFFFFF0A6802F8010B0A60704710B520
:10109000436913B1AFF3008001E0FFF736FA012096
:1010A00010BD127800F124010A7000224A7001225A
:1010B000EDE711684FF0FF32E9E70000074B70B52C
:1010C0000D467B44FFF7CBFF0446284600F070FB3B
:1010D00010B14FF0FF3070BD204670BD8B6B00002B
:1010E0002DE9FF5F15468A460446DFF8AC80F844D8
:1010F0000027D8E900103E46CDE9001010E03AF88C
:1011000016106A4602A800F057FB411C07D0217850
:10111000890603D5E269391891420DD80744761C37
:101120002078800602D5E069B84205DDAE42E6DBF4
:101130003AF816000028E2D1A069C01BA061204641
:10114000FFF7BCF9D8E90010CDE90010002017E046
:101150003AF818106A4602A800F02EFBB0F1FF3FE3
:1011600081460BD000250DF1080B05E0D4E90121E3
:101170001BF8050090476D1C4D45F7D308F10100A1
:10118000B0428046E4DB206A384420622046FFF704
:10119000ABF9BDE8FF9F000036D400002DE9F04117
:1011A0008046D21D22F007020025D2E90002F5296F
:1011B00015A614D0011E72F1000106DA0023D0EB4F
:1011C000030063EB020211A608E0D8F800108B07B9
:1011D00001D50FA602E0490701D50EA6012511464B
:1011E000002408F1240704E000F056F830323A55A4
:1011F000641C50EA0102F7D12B4632462146404694
:10120000BDE8F041FFF7A9BC000000002D00000080
:101210002B0000002000000030B4002100F1240465
:1012200008E002F00705D208303542EA4372DB08D5
:101230006554491C52EA0305F3D10468002310A247
:10124000250707D5A40600D421B1C46901230DA246
:10125000641EC46130BCFFF780BC10B50446214653
:101260001068FFF771FC02462046BDE810400023DD
:10127000D2E7D21D22F00701D1E90023CCE700001C
:10128000000000003000000000487047CC6F0020D4
:1012900000487047AC6F002030B5B0F10A024FEA49
:1012A000900E71F100034EEA817EB0EB0E0061EB0F
:1012B00091014FEA101E4EEA017E10EB0E0041EB49
:1012C00011114FEA102E4EEA016E10EB0E0041EBA9
:1012D00011214FEA104E4EEA014E10EB0E0041EB89
:1012E0001141401841F100014FEAD00040EA41703D
:1012F0004FEAD10110EB80054FEA810444EA907473
:1013000044EB01046D1944EB0404521BA3414FF05C
:10131000000348BF0A3200D530BD401C41F1000136
:1013200030BD00002DE9F04F04460D46D21D22F0DD
:10133000070089B0D0E900974846394603F078FFA6
:101340000246F80F01D02D2307E02068810701D560
:101350002B2302E0202101EAC0038DF820300BB1DD
:10136000012000E00020032A824601D0072A04DB86
:101370002946204600F054F93FE12078800601D448
:101380000D2500E0E569C7F30A560D2D49DA002165
:101390004FEA175B08464FF00000002F00F44000B2
:1013A00007DA00EB80004FF4400100EBD07001EA57
:1013B00060008115012901DD4FF0FF3100224FEA65
:1013C000850CBCF1180F06D31346ACF118004FF092
:1013D0008052C24003E04FF4801323FA0CF30CF167
:1013E0000C0CBCF1200F04D3ACF1200C09FA0CF06A
:1013F00001E007FA0CF000294FF0004801DD18B9B0
:101400000FE00ED140450CD319EB02095F4121B921
:10141000404502D19F4329EA0209BBEB175F00D088
:10142000761C2088000502D57B48784402E07A4883
:101430007844193808AA302302F80A30037C0AF1EC
:101440000101002E0AF1020A53546A4602DC4FF0F1
:10145000300101E04FF031014FF001088DF800102C
:1014600002D0A6F2FF3603E059EA470100D06B4EE6
:10147000002D02DC2178090704D54FF002082E2147
:101480008DF80110C44600210BE0C7F303433F0170
:10149000C35C491C6D1E02F80830052908F10108DB
:1014A00001DA002DF1DC00210CE000EB1973491C7E
:1014B0001B786D1E082902F808304FEA091908F157
:1014C000010801DA002DF0DC21688B0602D516E058
:1014D000A8F10108E04505DD02EB080313F8013C23
:1014E000302BF5D0B8F1000F09DD02EB080313F83B
:1014F000013C2E2B03D1090701D4A8F10108002DCE
:1015000005DD3E2102F808106D1E08F10108407C3F
:10151000002E02F8080008F1010804DA2D207642B6
:1015200002F8080002E02B2002F808000A214FF41C
:101530007A70864208F101080BDB96FBF0F330333A
:1015400002F8083096FBF0F308F1010800FB13667F
:1015500001E0642E0CDB642096FBF0F3303302F8DC
:10156000083096FBF0F308F1010800FB136601E078
:101570000A2E06DB96FBF1F0303002F8080008F185
:10158000010896FBF1F001FB1060303002F8080012
:10159000A16908F1010808EB050202EB0A00081A2C
:1015A000A0612078C00602D42046FEF787FF216A9A
:1015B00008AE01EB0A00206204E0D4E9012116F82C
:1015C000010B9047BAF1010AF7D22078C00602D584
:1015D0002046FEF773FF6E4609E016F8010B3E2821
:1015E0000FD0D4E901219047206A401C2062B8F155
:1015F0000108F2D22046FEF777FF09B00320BDE8CC
:10160000F08F206A2844206203E0D4E901213020D1
:1016100090476D1EEBD3F8E71DD1000002FCFFFFE1
:101620002DE9F0411F46044603260168072A01F40C
:10163000006004DB08B116A505E016A503E008B1BB
:1016400015A500E015A521F010002060A069C01EBE
:10165000A0610FB1401EA0612046FEF72FFF4FB1E1
:10166000D4E9012138469047206A401C2062C01C02
:10167000206206E0206AFAE7D4E9012115F8010B9F
:101680009047761EF8D22046FEF72EFFBDE8F08187
:101690004E414E006E616E00494E4600696E660016
:1016A00010B5436913B1AFF3008001E0FFF718FDF7
:1016B000012010BD128800F1240182840022C2841E
:1016C0000122EDE711684FF0FF32E9E72DE9F0471D
:1016D000814616468AB0354878440DC88DE80D001D
:1016E00032487844801C03AC0DC884E80D0041F6F4
:1016F0009B300844372190FBF1F290FBF1F5A5F106
:10170000800501FB12041B3C02D56442012000E06D
:101710000020DFF898A080460027FA44AAF1BE0A0C
:101720000EE0E0070AD03246684607EB4701012386
:101730000AEB810100F06DFB8DE8070064107F1C4F
:10174000002CEED1194F7F44AE3F19E0E80715D0C9
:1017500007EB04100DF1180A90E80E008AE80E005D
:10176000C068F04201D1981908903246012306A9B9
:1017700003A800F04EFB03AB83E807006D10641C68
:10178000002DE3D14FF0010332466946B8F1000F56
:1017900003A802D000F028FB01E000F03AFBC9E901
:1017A0000001C9F808200AB0BDE8F08700CF0000AA
:1017B000007B00F08000704770B516460C46054669
:1017C00000F044F8036893F80101012806D0FF2CCB
:1017D0000FD8185D68B101202C7070BDD3F80701D7
:1017E0003246214603F2071303442846BDE8704001
:1017F00018474FF0FF3070BD00487047AC6F0020B5
:101800007546FFF7F9FFAE4605006946534620F0DE
:101810000700854618B020B5FEF7EAFDBDE8204078
:101820004FF000064FF000074FF000084FF0000B9C
:1018300021F00701AC46ACE8C009ACE8C009ACE84F
:10184000C009ACE8C0098D467047000010B5FFF72D
:101850001BFD001D10BD00BFA1BC000010B504465B
:10186000AFF300802046BDE81040FEF74CBD0000FD
:101870004FF0013C50F8042B51F8043B9A4221D11F
:10188000A2EB0C03934313EACC1317D150F8042BAB
:1018900051F8043B9A4215D1A2EB0C03934313EA8F
:1018A000CC130BD150F8042B51F8043B9A4209D1C8
:1018B000A2EB0C03934313EACC13DBD04FF00000F0
:1018C000704700BFD01A01BAB1FA81F101F01801D6
:1018D00022FA01F0CB40C1F12001DBB2C0B2C01A44
:1018E0002CFA01F3D11A914311EAC311E6D17047E2
:1018F0005FEA400C08BF91F0000F4FEA8C234FEADB
:10190000C12243EA51514FEA1C5018BF00F5F04084
:101910004FEA300018BF41F000415FEA6C5C00F014
:101920002980BCF1FF3F08BF40F080407047130C96
:1019300006BF12044FF0100C4FF0000C130E04BF42
:1019400012020CF1080C130F04BF12010CF1040C6D
:10195000930F04BF92000CF1020CD30F04BF52008E
:101960000CF1010C11464FF00002A0F11F00A0EB9A
:101970000C00704711F0004F08BF704731F0004174
:101980003FF4D5AF0B0C06BF09044FF0100C4FF01D
:10199000000C0B0E04BF09020CF1080C0B0F04BF66
:1019A00009010CF1040C8B0F04BF89000CF1020C2F
:1019B000CB0F04BF49000CF1010CCCF12003A0EBCC
:1019C0000C0022FA03F302FA0CF241EA030100F1DF
:1019D0000100704720F07F4C80EA030023F07F472E
:1019E000ACEB070303F57C5300F0004003F1FF0369
:1019F0002DE980494FEA154B09B44FEA144325EA13
:101A00000B4E24EA03480FF2042606EB132749087D
:101A10003E785FEA320203FB0667C7F5000707FB63
:101A200006F64FEA54374FEAD64606F1020607FBA0
:101A3000066CCCF1005C4FEA1C472CEA074C07FB14
:101A400006F40CFB06F504EB15464FEA961634BF78
:101A500000204FF000404FEAD13706FB07FC4FEA69
:101A60001C4C0CFB0BF7D21B03FB0CF761EB0701C3
:101A70000CFB0EF7B0EB074072EB17420CFB08F7BC
:101A800034BFA2EB0742B2EB074261EB17414FEACA
:101A90000C444FEA910706FB07FC4FEA1C4C0CFB79
:101AA0000BF7B0EBC74072EB573203FB0CF734BFB8
:101AB000A2EBC742B2EBC74261EB57310CFB0EF70A
:101AC000B0EBC70072EB57720CFB08F734BFA2EB08
:101AD000C702B2EBC70261EB5771039F4FEA816106
:101AE00041EA921104EBCC044FEAD1374FEA82620B
:101AF00006FB07FC42EA90124FEA80604FEA1C4C5A
:101B00000CFB0BF7D21B03FB0CF761EB07010CFB83
:101B10000EF7B0EB074072EB17420CFB08F734BF2F
:101B2000A2EB0742B2EB074261EB17414FEA8C553B
:101B30004FEA910704EB9C2406FB07FC4FEA1C4C80
:101B40000CFB0BF7B0EBC74072EB573203FB0CF703
:101B500034BFA2EBC742B2EBC74261EB57310CFB7B
:101B60000EF7B0EBC70072EB57720CFB08F734BFEF
:101B7000A2EBC702B2EBC70261EB577115EB4C2524
:101B80004FEA816141EA92114FEA82624FEAD1370E
:101B900042EA901206FB07FC44F100044FEA806021
:101BA0004FEA1C4C0CFB0BF7D21B03FB0CF761EB51
:101BB00007010CFB0EF7B0EB074072EB17420CFB72
:101BC00008F734BFA2EB0742B2EB074261EB1741C3
:101BD00015EB1C154FEA813141EA92414FEA8232FE
:101BE00042EA90424FEA80304FEA0C7644F100041A
:101BF00048EA03434EEA0B484FF0000EB2EB080CE4
:101C000071EB030724BF624639464EEB0E0E4FF0D0
:101C1000000B0018524149414BEB0B0BB2EB080C87
:101C200071EB03077BF1000B24BF624639464EEB94
:101C30000E0E4FF0000B0018524149414BEB0B0BBD
:101C4000B2EB080C71EB03077BF1000B24BF62467B
:101C500039464EEB0E0E51EA020718BF46F0010658
:101C600016EB0E7655F1000254F1000103D5BDE8E4
:101C70008901BDE80088BDE88901BDE80048B619C2
:101C8000524141EB0101A3F10103704780807F7E47
:101C90007D7C7B7A797877767675747372717170E2
:101CA0006F6E6E6D6C6C6B6A6A6968686766666594
:101CB0006464636362616160605F5F5E5E5D5D5C22
:101CC0005C5B5B5A5A595958585757565655555593
:101CD0005454535352525251515050504F4F4F4EF3
:101CE0004E4D4D4D4C4C4C4B4B4B4A4A4A49494941
:101CF0004848484747474746464645454544444483
:101D0000444343434342424242414141002B9C46AB
:101D100030D477002BD01CB54FEA370703B44FF00F
:101D200010004FF01001BAF1000F06D0BCF1000F07
:101D3000DCBF40F0080040F008014FF000000FBC8D
:101D4000BDE810400BF1010BBBF1010F08BF5FEACA
:101D5000170722BF12F1010211F101014FF00041FA
:101D600043F1000300F0004043EA00007047F9D35C
:101D70005708D0E746EA064613F1400F4FEA1646E9
:101D80001FDD13F1200FDFBF16430A460021203369
:101D90005B42BED0C3F1200746EA064602FA07F7C7
:101DA0004FEA164646EA0706C3F1200722FA03F275
:101DB00001FA07F721FA03F14FF0000342EA0702A4
:101DC000A7E746EA020646EA06464FEA164646EA0C
:101DD0000106BCBF46EA0646360C4FF000034FF042
:101DE00000024FF0000194E72DE9804C9A4693469B
:101DF00070B491E8380007C831EA400C48BF34EAB3
:101E0000430C03D5FFF7E6FDFFF780FFF0BCBDE80C
:101E1000008C2DE9804C9A46934670B491E83800C6
:101E200007C810F0804F08BF13F0804F03D100F0B7
:101E300005F8FFF76BFFF0BCBDE8008C20F07F4792
:101E400080EA030023F07F4C07EB0C03A3F57C53DF
:101E500000F00040A3F1FE0392F0000F00F0B38009
:101E600095F0000F00F077802DE901494FEA11400D
:101E70004FEA144621EA004800FB06FC24EA064724
:101E800008FB06F607FB08F800FB07F718EB064807
:101E90004CEB164C4FEA124B18EB07484FEA15462D
:101EA0004CEB174022EA0B4E0BFB06FC25EA0647DB
:101EB0000EFB06F607FB0EFE0BFB07F71EEB064EAE
:101EC0004CEB164C4FF000061EEB074E4CEB174B3D
:101ED00018EB0B0840F1000018EB0E0B58EB000854
:101EE00040F100008F1A4FF000013CBFC943661B50
:101EF00014BFB5EB040C00213CBFC943F61B4FEAED
:101F000017444EEA8E0E27EA04454FEA1C4704FBAD
:101F100007622CEA074C05FB07F70CFB05F604FBF0
:101F20000CFC16EB074642EB174216EB0C4642EB55
:101F30001C421BEB060658EB0202414146EA9E0694
:101F400001D5BDE80189B619524141EB0101A3F168
:101F50000103BDE801894FEA14454FEA114724EA1D
:101F6000054621EA074C05FB07F406FB07F70CFBC7
:101F700006F105FB0CFC11EB074144EB17444FEA5B
:101F8000124711EB0C4144EB1C4422EA074C05FBC1
:101F900007F206FB07F70CFB06F605FB0CFC16EB3D
:101FA000074642EB174216EB0C4642EB1C456A18FB
:101FB00054F1000148BF7047B619524141EB01018D
:101FC000A3F10103704795F0000F37D04FEA11429B
:101FD0004FEA144721EA024624EA074C02FB07F1C4
:101FE00006FB07F70CFB06F402FB0CFC14EB0744A2
:101FF00041EB17414FEA154714EB0C4441EB1C41F0
:1020000025EA074C02FB07F506FB07F70CFB06F673
:1020100002FB0CFC16EB074645EB174516EB0C468E
:1020200045EB1C42121951F1000148BF7047B61927
:10203000524141EB0101A3F1010370474FEA1445FE
:102040004FEA114724EA054621EA074C05FB07F150
:1020500006FB07F70CFB06F24FF0000605FB0CFC35
:1020600012EB074241EB174112EB0C4251EB1C41C2
:1020700048BF7047921841EB0101A3F1010370477B
:1020800008B518A0FEF7F8F91C48016840681C4A1A
:10209000D2E9003259405040014321D11748083855
:1020A00001684068174B0CCB51405840014317D191
:1020B000002001231A46990200901348006809F095
:1020C000F1FF124908600846008800F4806038B1CA
:1020D0000FA0FEF7D1F920210B48006809F05CFF42
:1020E00008BD0000BDD3CAD5B5BD41434BD0CD4DD1
:1020F0004143D6A1C1CB0D0A0000000041020020DF
:1021000018000020200000202C00002030000020BB
:10211000BDD3CAD5B5BDC1CBD5FDC8B7B5C4414344
:102120004B0D0A000A46C3680BB9C2607047C1680C
:1021300000E009690B69002BFBD10A6100BFF5E7DC
:1021400010B500240BE0601CC4B20A2C04D100249A
:1021500006A0FEF791F906E0322005F011FC05F02B
:1021600079F80028EFD000BF10BD0000CEB4BCEC61
:10217000B2E2B5BD626D703238300D0A0000000069
:1021800010B5044604A0FEF777F94021074800681F
:1021900009F002FF10BD0000426561636F6EB7A2D7
:1021A000CBCDCAB1BCE4B5BD0D0A00003C00002097
:1021B00000BFFEE738B53CA0FEF75EF94048016875
:1021C0004068404B0CCB51405840014347D0002061
:1021D000012302464FF40C6100903B48006809F06F
:1021E00061FF3A4908600846007800F04000002886
:1021F00031D00846007800F0800000282BD034A0B1
:10220000FEF73AF94FF400612F48006809F07CFEB0
:102210000AF04CFD044600200346224601210090AE
:10222000344800680BF0E6F833A0FEF725F927489C
:10223000008800F40060002834D10AF037FD04461D
:102240004FF0FF3000232246022100902948006809
:102250000BF0D0F826E02BA0FEF70EF922E018488C
:10226000083801684068294AD2E900325940504094
:10227000014317D1002001231A4659020090124849
:10228000006809F00FFF114908600846008800F453
:10229000007038B11EA0FEF7EFF801210A4800686F
:1022A00009F07AFE38BD0000BDD3CAD5B5BD435490
:1022B00053D0CD4D4143D6A1C1CB0D0A0000000043
:1022C00041020020180000202C00002030000020D7
:1022D000BDD3CAD5B5BDC1CBB1F0B5C4BDDAB5E388
:1022E000B5C44354532CC7BFD6C6D0DDC3DF0D0AD7
:1022F00000000000C4000020BFAAC6F4B6A8CAB1FE
:102300000D0A0000B6AAC6FA0D0A0000200000203F
:10231000BDD3CAD5B5BDC1CBD5FDC8B7B5C443542F
:10232000530D0A00F0B507460C46154629463846B7
:1023300000F05CFCE06808B9E560F0BDE66800E02C
:10234000366930690028FBD1356100BFF5E710B56B
:10235000ADF5407D002401208DF8FC010020ADF892
:10236000FE015A208DF800029DF8FC018DF8F8005E
:10237000BDF8FE01ADF8FA000620F42283A93D90D5
:102380006846FEF7CFFA7FA80FC805F015FF0A20B0
:1023900005F0F6FA16E0142005F0F2FA0620F42211
:1023A00083A93D906846FEF7BDFA7FA80FC805F0E7
:1023B00003FF601CC4B2142C04DD002400200DF5C2
:1023C000407D10BD06213EA805F080FE0028E2D128
:1023D0000120F4E710B50948FEF742F8002404E0B4
:1023E000002006490855601C84B2054800888442D4
:1023F000F6DB00200249088010BD0000140D00200B
:102400008400002010B50948FEF72AF8002404E0F3
:10241000002006490855601C84B2054800888442A3
:10242000F6DB00200249088010BD0000DC0D002012
:102430008600002010B542F2CF01092002F084FB93
:1024400000200149086010BD1400002010B5ADF552
:10245000407D002401208DF8FC010020ADF8FE0134
:1024600001208DF800029DF8FC018DF8F800BDF800
:10247000FE01ADF8FA000320F42283A93D906846DE
:10248000FEF750FA7FA80FC805F096FE0A2005F067
:1024900077FA16E0142005F073FA0320F42283A9DA
:1024A0003D906846FEF73EFA7FA80FC805F084FE0F
:1024B000601CC4B2142C04DD002408A0FDF7DCFF6E
:1024C00005E003213EA805F001FE0028E2D100BF8F
:1024D000BDF8FE000DF5407D10BD00007072656313
:1024E000697069746174696F6E206572726F7221B0
:1024F0000D0A000010B5ADF5407D002404208DF8D4
:10250000FC010020ADF8FE0101208DF800029DF8CD
:10251000FC018DF8F800BDF8FE01ADF8FA000320CB
:10252000F42283A93D906846FEF7FCF97FA80FC806
:1025300005F042FE0A2005F023FA16E0142005F00B
:102540001FFA0320F42283A93D906846FEF7EAF9BA
:102550007FA80FC805F030FE601CC4B2142C04DD47
:10256000002408A0FDF788FF05E003213EA805F040
:10257000ADFD0028E2D100BFBDF8FE000DF5407DA5
:1025800010BD0000526164696174696F6E206572EC
:10259000726F72210D0A000030B5ADF5417D044621
:1025A00000258DF800420020ADF8020202208DF8CF
:1025B00004029DF800028DF8FC00BDF80202ADF89F
:1025C000FE000320F42284A93D906846FEF7AAF994
:1025D00080A80FC805F0F0FD0A2005F0D1F919E038
:1025E000142005F0CDF90320F42284A93D9068461B
:1025F000FEF798F980A80FC805F0DEFD681CC5B28B
:10260000142D07DD00250AA0FDF736FF00200DF58B
:10261000417D30BD03213FA805F058FD0028DFD1E2
:102620003FA80089BDF8021100EB0140EFE7000070
:10263000736F696C73656E736F72206572726F72FF
:10264000210D0A0010B5ADF5407D002403208DF862
:10265000FC010020ADF8FE0101208DF800029DF87C
:10266000FC018DF8F800BDF8FE01ADF8FA0003207A
:10267000F42283A93D906846FEF754F97FA80FC85D
:1026800005F09AFD0A2005F07BF916E0142005F00C
:1026900077F90320F42283A93D906846FEF742F9BA
:1026A0007FA80FC805F088FD601CC4B2142C04DD9F
:1026B000002408A0FDF7E0FE05E003213EA805F098
:1026C00005FD0028E2D100BFBDF8FE000DF5407DFC
:1026D00010BD000057696E64734469726563746964
:1026E0006F6E206572726F72210D0A0010B5ADF524
:1026F000407D002402208DF8FC010020ADF8FE0191
:1027000001208DF800029DF8FC018DF8F800BDF85D
:10271000FE01ADF8FA000320F42283A93D9068463B
:10272000FEF700F97FA80FC805F046FD0A2005F066
:1027300027F916E0142005F023F90320F42283A9D9
:102740003D906846FEF7EEF87FA80FC805F034FD0F
:10275000601CC4B2142C04DD002408A0FDF78CFE1C
:1027600005E003213EA805F0B1FC0028E2D100BF3E
:10277000BDF8FE000DF5407D10BD000057696E6488
:10278000735370656564206572726F72210D0A0063
:1027900038B547A0FDF770FE0020012302468021D6
:1027A00000904948006809F07DFC484908604848A5
:1027B00001684068474AD2E900325940504001431D
:1027C0003AD14248007800F08000002834D14048D7
:1027D000083801684068404AD2E900325940504008
:1027E000014329D13A480938407CD8B13BA0FDF7D4
:1027F00043FE4FF480313448006809F0CDFB344883
:102800000838046843682246324903C903F02EFCA5
:1028100080212D48006809F0BFFB00212E4A11607D
:10282000516008E032A0FDF727FE4FF480312648C2
:10283000006809F0B1FB38BD0020012302464021A9
:1028400000902148006809F02DFC204908602048CC
:10285000016840681F4B0CCB5140584001431ED1CA
:102860001B480838016840681B4B0CCB514058404E
:10287000014314D11548007800F0400078B94FF4B6
:1028800000411148006809F087FB20A0FDF7F4FD26
:102890004FF480410C48006809F07EFBCBE74FF411
:1028A00000310948006809F077FB00BFC3E700006A
:1028B000BDD3CAD5B5BDCAFDBEDDD0CD4D4143D6D1
:1028C000A1C1CB0D0A0000002C0000203000002028
:1028D000410200201800002020000020D0E8D2AAE9
:1028E000D7D4C9EDB7A2CBCD41434B0D0A000000B0
:1028F000D0E8D2AAD7D4C9EDB7A2CBCDCAFDBEDDF0
:10290000D0CD4D4143D6A10D0A000000B5B1C7B0EE
:10291000CAC7B7A2CBCDB7BDB2A2C7D2BDD3CAD5A5
:10292000B5BDC1CBD5FDC8B7B5C4444154410D0AAE
:102930000000000021B1026842F00102026003E0E1
:10294000026822F00102026070470000016821F075
:10295000010101600021016041608160C16001618D
:10296000212141614A49884204D13D21484A103A17
:1029700091608CE046491831884205D14FF474616A
:10298000434A103A916082E041493031884205D192
:102990004FF474113E4A103A916078E03C49483156
:1029A000884205D14FF07461394A103A91606EE067
:1029B00037496031884204D13649354A103AD160EE
:1029C00065E033497831884204D13349304A103ABE
:1029D000D1605CE02E499031884204D12F492C4AC5
:1029E000103AD16053E02A49A831884205D14FF00E
:1029F0003D51274A103AD16049E02949884204D123
:102A00003D21274A083A116041E0254918318842A2
:102A100005D14FF47461224A083A116037E0204929
:102A20003031884205D14FF474111D4A083A1160C3
:102A30002DE01B494831884205D14FF07461184A96
:102A4000083A116023E016496031884204D11149E7
:102A5000134A121F11601AE011497831884204D1DB
:102A60000D490F4A121F116011E00D499031884243
:102A700004D10A490A4A121F116008E00849A83126
:102A8000884204D14FF03D51054A121F1160704732
:102A9000106002403D000020400F002000003D205B
:102AA00010640240014600200A6802F001020AB1E7
:102AB000012000E00020704710B500220268134B8F
:102AC0001A40CC680B6823434C6923438C69234329
:102AD000CC6923430C6A23434C6A23438C6A234307
:102AE0004C6B23438C6B23431A430260426922F0F0
:102AF0000702D1E90B3423431A4342610B69436057
:102B00004B6883608B68C36010BD00003F801CF081
:102B1000416070477047F8B506460C4606B104B9E7
:102B2000F8BD002000906A462146304600F021FEA4
:102B3000009800B9F4E70098C068A04206D1206967
:102B40000099C860204605F091F8E9E70098C5684B
:102B500000E02D6915B12869A042FAD125B120699C
:102B60002861204605F082F800BFD9E72DE9FC4135
:102B700080460D46002001902946404601F0B2FDF6
:102B8000002419E001A80090104850F82400D0E972
:102B900000633246284600F00AFE019850B10198C1
:102BA000D0E9006332460AA0FDF766FC2846019989
:102BB000FFF7B1FF601CC4B20B4800788442E1DB30
:102BC000002009490870BDE8FC810000F8070020DA
:102BD0006E6F646520256C6C782069732064656C69
:102BE000657465640D0A00004800002078B506464B
:102BF0000C460020009006B104B978BD6A46214613
:102C0000304600F0B6FD009800B9F6E70098C068BD
:102C1000A04205D120690099C86000202061ECE73E
:102C20000098C56800E02D6915B12869A042FAD165
:102C30001DB1206928610020206100BFDDE7000090
:102C400010B500200549086005A10748FDF7D0FD33
:102C500002490860FFF7BEFB10BD000064000020C1
:102C6000514D545245435600140D0020F8B5054609
:102C70000C4616466FA002F0E5F94FF4FA7004F026
:102C80007FFEFFF7A7FB6FA002F0DCF94FF4FA70AC
:102C900004F076FEFFF79EFB6EA002F0D3F94FF42E
:102CA000FA7004F06DFEFFF795FB4FF480616D48FC
:102CB000FDF772FE23462A466BA16A480096FDF78F
:102CC000E7FB684802F0BEF94FF4FA7004F058FED2
:102CD0006FA17048FDF78CFD6F49086000206F49B7
:102CE000086022E06D480068401C6C490860FFF7EE
:102CF00071FB5C4802F0A6F94FF4FA7004F040FE54
:102D000063A16448FDF774FD634908606348006887
:102D1000642809DD00206149086007F043F90120BB
:102D200003F096F901F066F900BF5B4800680028DF
:102D3000D8D000BFFFF74EFB59A002F083F94FF443
:102D4000967004F01DFE65A15248FDF751FD5249F1
:102D500008600020514908601DE050480068401C90
:102D60004E4908604FF4967004F00AFE5BA1494892
:102D7000FDF73EFD4849086048480068642809DDC1
:102D800000204649086007F00DF9012003F060F9C2
:102D900001F030F900BF404800680028DDD000BFD6
:102DA000FFF718FB4FF480612E48FDF7F5FD224632
:102DB0004EA12C48FDF76CFB2A4802F043F940F67F
:102DC000B83004F0DDFD4EA13248FDF711FD324967
:102DD00008600846006818B9FFF7FCFA0120F8BD42
:102DE000FFF7F8FA4FF480611E48FDF7D5FD234642
:102DF0002A4647A11B48FDF74BFB1A4802F022F96F
:102E00004FF47A7004F0BCFD4BA12248FDF7F0FCB2
:102E1000214908600846006818B14CA0FDF72CFB5A
:102E200001E00120DBE7FFF7D5FA4FA0FDF724FB17
:102E30000020D4E741542B514944454143543D318E
:102E40000D0A000041542B514D54434C4F53453D06
:102E5000300D0A0041542B514D54444953433D30E9
:102E60000D0A0000F808002041542B514D544346F0
:102E7000473D22414C4941555448222C302C2225B3
:102E800073222C222573222C222573220D0A000086
:102E90004F4B0000140D0020640000205C00002057
:102EA00041542B514D544F50454E3D302C22696FAB
:102EB000742D61732D6D7174742E636E2D73686142
:102EC0006E676861692E616C6979756E63732E63D4
:102ED0006F6D222C313838330D0A00002B514D54C0
:102EE0004F50454E3A20302C3000000041542B51B9
:102EF0004D54434F4E4E3D302C222573220D0A0077
:102F00002B514D54434F4E4E3A20302C302C300034
:102F100041542B514D545355423D302C312C222FCE
:102F200025732F25732F757365722F676574222C97
:102F300030200D0A000000002B514D545355423AE9
:102F400020302C312C302C3100000000B0A2C0EF1A
:102F5000D4C6CEEFC1AACDF8C6BDCCA8C1ACBDD3F6
:102F6000B3C9B9A60D0A0000C9E8B1B8D2D1BEAD47
:102F7000C1ACBDD3B5BDB0A2C0EFD4C62CD7BCB1D7
:102F8000B8B7A2CBCDCAFDBEDD205B2E2E5D0D0AEB
:102F9000000000002DE9F04104460D461646324679
:102FA00029462046FFF762FE07463846BDE8F08115
:102FB00070B504460D4616464FF480612D48FDF766
:102FC000EBFC2B4622462CA12A48FDF761FA294842
:102FD00002F038F84FF47A7004F0D2FC35A136488C
:102FE000FDF706FC354908600020354908601DE002
:102FF00033480068401C324908604FF4967004F072
:10300000BFFC2CA12C48FDF7F3FB2C4908602C4891
:103010000068642809DD00202949086006F0C2FF25
:10302000012003F015F800F0E5FF00BF2348006819
:103030000028DDD000BF304602F004F84FF496704F
:1030400004F09EFC00BF1F48008800F040000028EC
:10305000F9D01A201B49091D08804FF4967004F01E
:103060008FFCFFF7EDFDFFF7B5F917A0FDF704FAA8
:10307000002070BDF808002041542B514D5450558C
:10308000423D302C302C302C302C222F7379732F72
:1030900025732F25732F7468696E672F6576656EAB
:1030A000742F70726F70657274792F706F737422E1
:1030B0000D0A00003E000000140D002064000020F6
:1030C0005C00002000440040D3C3BBA7CAFDBEDDA6
:1030D000B7A2CBCDB3C9B9A620205B4F4B5D0D0A7B
:1030E0000000000010B506F05DFF4FF47A7004F0A8
:1030F00047FC4FF47A7004F043FC4FF4E13007F0E2
:10310000EFFB00F035FA322004F03AFCBFA001F0EA
:1031100099FF4FF4FA7004F033FCBEA1BE48FDF7EE
:1031200067FBBE490860FFF755F90020BC490860FD
:1031300025E0BB480068401CB9490860B9A0FDF70C
:103140009BF9FFF747F9B1A001F07CFF4FF4FA704B
:1031500004F016FCAFA1B048FDF74AFBAF49086088
:10316000AF480068322809DD0020AD49086006F04C
:1031700019FF012002F06CFF00F03CFF00BFA748E0
:1031800000680028D5D000BFADA001F05BFF4FF470
:10319000FA7004F0F5FBFFF71DF90020A049086064
:1031A000A9A001F04FFF4FF4FA7004F0E9FBA9A1C8
:1031B0009948FDF71DFB9949086025E0984800688B
:1031C000401C97490860FFF705F99FA001F03AFFFE
:1031D0004FF4FA7004F0D4FB9EA18F48FDF708FB72
:1031E0008E4908608E48006832280CDD00208C492A
:1031F00008609CA0FDF740F906F0D4FE012002F023
:1032000027FF00F0F7FE00BF844800680028D5D0F3
:1032100000BFFFF7DFF896A001F014FF4FF4FA703B
:1032200004F0AEFBFFF7D6F894A001F00BFF4FF4CB
:10323000FA7004F0A5FBFFF7CDF892A001F002FFB1
:103240004FF4FA7004F09CFB91A17348FDF7D0FA9B
:103250007249086091A17048FDF7CAFA9249086066
:1032600000206F49086028E0FFF7B4F86C48006858
:10327000401C6B49086083A001F0E4FE4FF4FA7033
:1032800004F07EFB82A16448FDF7B2FA634908604E
:1032900082A16148FDF7ACFA834908606048006884
:1032A000322809DD00205E49086006F07BFE01201F
:1032B00002F0CEFE00F09EFE00BF5848006818B92C
:1032C000794800680028CFD000BFFFF783F877A0C7
:1032D00001F0B8FE4FF4FA7004F052FBFFF77AF8F1
:1032E00075A001F0AFFE4FF47A7004F049FBFFF7D0
:1032F00071F875A001F0A6FE4FF47A7004F040FB5F
:1033000044A14548FDF774FA44490860084600683E
:1033100050B141496FA0FDF7AFF84FF47A7004F057
:103320002FFBFFF757F809E03B4977A0FDF7A4F81A
:103330004FF4967004F024FBFFF74CF8FFF74AF8BF
:1033400075A001F07FFE4FF47A7004F019FBFFF7CF
:1033500041F875A001F076FE4FF4FA7004F010FB0E
:10336000FFF738F874A001F06DFE4FF4967004F08A
:1033700007FB28A12848FDF73BFA28490860FFF71A
:1033800029F871A001F05EFE4FF4967004F0F8FA8F
:1033900070A12148FDF72CFA20490860FFF71AF8C0
:1033A00000201F49086022E01D480068401C1C499D
:1033B0000860FFF70FF864A001F044FE4FF4967028
:1033C00004F0DEFA63A11448FDF712FA134908600D
:1033D00013480068642809DD00201149086006F0E0
:1033E000E1FD012002F034FE00F004FE00BF0B48B6
:1033F00000680028D8D000BF59A001F023FE4FF488
:10340000FA7004F0BDFAFEF7E5FF10BD41540D0A55
:10341000000000004F4B0000140D0020640000204D
:103420005C0000200D0AB5A5C6ACBBFAD5FDD4DA08
:10343000C1ACBDD3B5BDC4A3BFE92E2E2E0D0A006D
:10344000415445310D0A000041542B4350494E3F31
:103450000D0A00002B4350494E3A20524541445931
:103460000000000072657365742034670D0A000067
:1034700041542B4353510D0A000000004154490DA3
:103480000A00000041542B435245473F0D0A0000FB
:103490002B435245473A20302C3100002B435245F4
:1034A000473A20302C3500006800002041542B435F
:1034B0004F50533F0D0A000041542B5149434C4F8C
:1034C00053453D300D0A000041542B43494D490DF1
:1034D0000A0000003D3D3D3D3D3D3D3D3D3D3D3D06
:1034E0000D0ACED2B5C4BFA8BAC5CAC7203A202596
:1034F00073200D0A3D3D3D3D3D3D3D3D3D3D3D3D46
:103500003D3D3D0D0A000000BFA8B4EDCEF3203ACA
:10351000202573200D0A000041542B514944454198
:1035200043543D310D0A000041542B51494143544D
:103530003D310D0A0000000041542B4347415454D3
:103540003D310D0A0000000041542B4347415454C3
:103550003F0D0A002B43474154543A2031000000EC
:1035600041542B434750414444520D0A000000008F
:103570001CB50121084600F0DBFD0220009001206F
:103580008DF8040000208DF8060003208DF805005A
:103590006946034800F02FF90120024908601CBD6C
:1035A000000002408402404210B506A0FCF764FF10
:1035B000142004F029FA06480068012000F00AF8F7
:1035C00010BD0000BDF8C8EBD6D0B6CF200D0A0064
:1035D000000240420149086070470000143C01406D
:1035E00001490860704700000C3C024070B5044679
:1035F0000A460026092502B909E0012A01D116026E
:1036000005E0022A01D1160201E04FF4407600F0F5
:103610009FF80546092D28D11548006820F4407010
:10362000134908600846006830430860084600688F
:1036300020F0F80008600846006844F002010843E2
:103640000B4908600846006840F48030086000F0CC
:103650007FF805460648006820F00200044908602B
:103660000846006820F0F8000860284670BD000099
:10367000103C024009201349096801F48031B1F57A
:10368000803F01D101201CE00E49096801F01001C2
:1036900009B1062015E00B49096801F4807109B1F0
:1036A00002200EE00749096801F0EF0109B1072087
:1036B00007E00449096801F0020109B1082000E0AF
:1036C000092070470C3C02400348006840F000406D
:1036D0000149086070470000103C024030B50246C6
:1036E0000C46092500F034F80546092D19D10E487D
:1036F000006820F440700C4908600846006840F4F7
:10370000807008600846006840F00100086014807E
:1037100000F01EF805460448006820F00100024948
:103720000860284630BD0000103C02400548006893
:1037300000F0004028B1044802490C3908600348F1
:1037400008607047103C024023016745AB89EFCD0C
:1037500008B509200090FFF78DFF009002E0FFF709
:1037600089FF00909DF800000128F8D09DF8000026
:1037700008BDF0B504460F4616460020306014B16F
:103780000FB1A74200D1F0BDE5680CE0BD4201D108
:103790003460F8E7324639462846FFF7EAFF3068DA
:1037A00000B1F0E72D69002DF0D100BFEBE72DE966
:1037B000F841044617469846079D002028600CB93A
:1037C000BDE8F881D4E90001784081EA08010843A6
:1037D00001D12C60F4E7E66809E03A4643463046FA
:1037E0000095FFF7E4FF286800B1E9E73669002E8D
:1037F000F3D100BFE4E7F0B50A460021002300241E
:1038000000BF3DE0012505FA01F3156805EA030450
:103810009C4234D105684F000326BE40B543056085
:1038200015794E00B5400668354305601579012DC0
:1038300002D01579022D16D185684F000326BE40AF
:10384000B543856055794E00B5408668354385603F
:10385000456801268E40B5434560456896798E409F
:10386000B6B235434560C5684F000326BE40B54338
:10387000C560D5794E00B540C6683543C560491C62
:103880001029BFD3F0BDF0B5002300244D07ED0E85
:1038900002FA05F3CE1000F1200555F826504E0728
:1038A000F70E0F26BE40B543CF1000F1200646F8B4
:1038B0002750CE1000F1200555F8265045EA0304A4
:1038C000CE1000F1200545F82640F0BD0183704779
:1038D00000BFFEE710B500200F4908600F480068E0
:1038E00020F040400D4908600846006840F08040E4
:1038F000086000200A49C1F8BC02022004F060F808
:10390000012005490860022004F05AF8012004490A
:10391000C1F8B80210BD0000B8824142000C02405C
:10392000008041421CB50121082000F0D1FB4FF47A
:103930004040009001208DF804008DF8060003201F
:103940008DF8050001208DF8070069460448FFF74F
:1039500052FF0120034908600349C1F8BC021CBDA5
:10396000000C0240B88241420080414210B5002064
:103970000F4908600F48006820F040400D4908607A
:103980000846006840F08040086001200A49C1F8FC
:10399000BC02022004F014F801200549086002204E
:1039A00004F00EF801200449C1F8B80210BD00006F
:1039B000B8824142000C0240008041422DE9F041B2
:1039C00006460C461546002704E0304600F00AF88B
:1039D00004F8010B281EA5F10101CDB2F5D138463E
:1039E000BDE8F08170B5054600241648006820F057
:1039F000404014490860084600680860002616E048
:103A0000002011490860042003F0DAFF01200F496B
:103A1000C1F8B8026006040E0B487C38006808B193
:103A2000601CC4B2012003F0CBFF701CC6B2082E8C
:103A3000E6DB15B9FFF79AFF01E0FFF74BFF2046E1
:103A400070BD0000000C0240B8824142008041423B
:103A50002DE9F0410546884616461F46002400F031
:103A600085F8002141EA4501C8B200F04BF800F0AA
:103A7000C9F8404600F046F800F0C4F800F076F8C7
:103A8000012101EB4501C8B200F03CF800F0BAF8A2
:103A900000BF0CE0701EA04204D10020FFF7A2FF7F
:103AA000385503E00120FFF79DFF3855641CB442F0
:103AB000F0DB00F081F8BDE8F08170B504460D46FA
:103AC00000F054F8002141EA4401C8B200F01AF8AD
:103AD00000F098F8284600F015F800F093F800F090
:103AE00045F8012101EB4401C8B200F00BF800F0E9
:103AF00089F80020FFF776FF064600F05DF83046B3
:103B000070BD000070B504461548006820F04040C4
:103B1000134908600846006840F0804008600020B3
:103B200010490860002517E0E0090E49091D0860EA
:103B30006006040E022003F043FF01200A49C1F889
:103B4000B802022003F03CFF002006490860022072
:103B500003F036FF681CC5B2082DE5DB70BD000020
:103B6000000C0240B88241420080414210B50F482B
:103B7000006820F040400D4908600846006840F0A9
:103B80008040086001200A4908600A49C1F8B8026B
:103B9000042003F015FF002005490860042003F00D
:103BA0000FFF00200349C1F8B80210BD000C02400D
:103BB000BC8241420080414210B50F48006820F0AD
:103BC00040400D4908600846006840F080400860A9
:103BD00000200A4908600A49C1F8BC02042003F029
:103BE000EFFE0120054908600549C1F8BC0202202A
:103BF00003F0E6FE10BD0000000C0240B882414216
:103C00000080414210B500241348006820F0404075
:103C10001149086008460068086001200F490860E3
:103C200003F0CEFE01200E49C1F8B80203F0C8FE31
:103C300007E0601CC4B2FA2C03DDFFF7BDFF0120D2
:103C400010BD0648803800680028F2D10349091FDA
:103C5000086000BFF4E70000000C0240BC82414253
:103C60000080414270B504460D461646FFF77EFFC0
:103C7000002141EA4401C8B2FFF744FFFFF7C2FF49
:103C800018B1FFF799FF012070BD2846FFF73AFFF2
:103C9000FFF7B8FF3046FFF735FFFFF7B3FF18B166
:103CA000FFF78AFF0120EFE7FFF786FF0020EBE731
:103CB0004CF6CC40014908607047000000300040DD
:103CC00010B500F013F810BD70B505460C4645F26E
:103CD000555000F01FF8284600F010F8204600F07C
:103CE00013F800F003F8FFF7E3FF70BD4AF6AA20CF
:103CF00001490860704700000030004001494860F9
:103D000070470000003000400149886070470000A3
:103D1000003000400149086070470000003000405A
:103D20001CB50121112000F0D3F9102000900020D3
:103D30008DF8040003208DF8050001208DF80700A0
:103D400069460648FFF757FD0120009002208DF8D4
:103D5000070069460248FFF74EFD1CBD00100240F7
:103D6000000002401CB50121202000F0B1F9012023
:103D70008DF8040002208DF8050000208DF8060063
:103D80004FF4C060009069460648FFF734FD4FF4D9
:103D900000710448FFF79AFD4FF480610148FFF776
:103DA00095FD1CBD001402401CB50121022000F04D
:103DB0008FF94020009001208DF8040000208DF83C
:103DC000060003208DF8050001208DF807006946E4
:103DD0000348FFF710FD40210148FFF777FD1CBDA8
:103DE0000004024000BFFEE770B50125002428E072
:103DF00016A21FA120A0FFF7CDF805464FF47A7058
:103E000003F0BEFD21461FA0FCF736FB601C84B208
:103E1000322C16DD06F0C6F8012080F3138800BFAF
:103E200000BFBFF34F8F1C48006800F4E0601B49DF
:103E30000843001D18490860BFF34F8F00BF00BF43
:103E4000FEE7002DD4D100BF70BD000066323637CA
:103E500037616465663163623766303361383335A4
:103E6000363936653933373864643366000000000C
:103E700047575F30310000006B30707577777547BA
:103E800034475400C1ACBDD3B4CECAFD3A2025643A
:103E9000B4CE0D0A000000000CED00E00000FA05B1
:103EA0000FB430B58BB04FF480611B48FCF774FD44
:103EB0000EA8808C0EA9498C0EAA128C0EABDB8B3F
:103EC000CDE90632CDE90810DDF85210DDF84E00DC
:103ED000DDF84A20DDF84630CDE90232CDE90401B3
:103EE0000EA880890EA94989CDE90010DDF83A4075
:103EF000DDF83E30224609A10748FCF7C9FA06481A
:103F0000FCF7AEFA044A12A113A0FFF751F80BB068
:103F100030BC5DF814FB00008E0300207B706172E2
:103F2000616D733A7B463A22256C6C7820257820A7
:103F300025782025782025782025782025782025AB
:103F400078202578202578202578227D7D000000A6
:103F500047575F30310000006B30707577777547D9
:103F6000344754007047000070B5002100230F2231
:103F7000C4781CB3174C246804F4E064C4F5E0640E
:103F8000C4F30721C1F10404E3B20A4144789C4020
:103F9000E1B28478144021430C07210E0E4C0578C1
:103FA0006155047804F01F050124AC4005786D11BB
:103FB000AD0005F1E025C5F8004109E0047804F002
:103FC0001F050124AC40054D0678761145F82640C2
:103FD00070BD00000CED00E000E400E080E100E0D6
:103FE00002490143024A1160704700000000FA05CF
:103FF0000CED00E0BFF34F8F0648006800F4E0606E
:1040000005490843001D03490860BFF34F8F00BFF7
:10401000FEE700000CED00E00000FA057047704775
:104020001CB50121082000F053F80121202000F0E8
:104030004FF80121402000F04BF840200090012073
:104040008DF8040000208DF8060003208DF805008F
:1040500001208DF8070069461A48FFF7CCFB1020B5
:10406000009001208DF8040000208DF80600032048
:104070008DF8050002208DF8070069461248FFF709
:10408000BAFB4FF40050009001208DF8040000208E
:104090008DF8060003208DF8050002208DF807003A
:1040A00069460A48FFF7A7FB40210648FFF70EFCC8
:1040B0004FF400510548FFF709FC10210248FFF7B3
:1040C00005FC1CBD000C0240001402400018024018
:1040D00029B1064A12680243044B1A6004E0034AFD
:1040E00012688243014B1A6070470000303802406A
:1040F00029B1064A12680243044B1A6004E0034ADD
:1041000012688243014B1A60704700003438024045
:1041100029B1064A12680243044B1A6004E0034ABC
:1041200012688243014B1A60704700004038024019
:1041300029B1064A12680243044B1A6004E0034A9C
:1041400012688243014B1A607047000044380240F5
:10415000F0B5002100220024022500260223324F60
:104160003F6807F00C0121B1042905D0082937D197
:1041700005E02E4F076036E02D4F076033E02A4FF1
:104180003F1F3F68C7F38056274F3F1F3F6807F028
:104190003F036EB1264FB7FBF3F7DFF88CC0ACF1ED
:1041A000040CDCF800C0CCF3881C07FB0CF40CE01A
:1041B0001E4FB7FBF3F7DFF870C0ACF1040CDCF86E
:1041C00000C0CCF3881C07FB0CF4174F3F1F3F685F
:1041D000C7F301477F1C7D00B4FBF5F7076002E0E1
:1041E000124F076000BF00BF0F4F3F6807F0F0019C
:1041F0000909104F7A5C0768D74047600A4F3F684B
:1042000007F4E051890A0B4F7A5C4768D740876012
:10421000054F3F6807F46041490B064F7A5C4768D9
:10422000D740C760F0BD0000083802400024F40009
:1042300000127A00D000002030B10749096841F02F
:104240000401054A116005E00349096821F00401F1
:10425000014A116070470000000806500146002026
:10426000034A12680A400AB1012000E000207047AA
:10427000040806500148006870470000080806500E
:1042800070B504460D4600F008F8291B491CB0FB28
:10429000F1F201FB1200204470BD10B500BF0120F7
:1042A000FFF7DCFF0028FAD0FFF7E4FF10BD10B5E0
:1042B000A82003F043FB01214020FFF719FF012054
:1042C000FFF7BAFF0AE0601C84B2642003F078FBB9
:1042D00042F21070844201DB012010BD0120FFF783
:1042E000BDFF0028EFD00020F7E7000038B559A047
:1042F000FCF7C2F85D48016840685D4AD2E90032C7
:1043000059405040014346D00020012302464FF45B
:104310000C6100905748006807F0C4FE56490860D9
:104320000846007800F04000002830D008460078A9
:1043300000F0800058B351A0FCF79EF84FF40061E4
:104340004C48006807F0E0FD08F0B0FC044600208F
:1043500003462246012100904E48006809F04AF8C1
:104360004DA0FCF789F84448008800F4006000285C
:104370006ED108F09BFC04464FF0FF30002322462C
:10438000022100904348006809F034F860E045A03D
:10439000FCF772F85CE00020012302464FF40C6148
:1043A00000903448006807F07DFE334908600846F5
:1043B000007800F0400070B30846007800F08000FC
:1043C00048B30846008800F4006020B337A0FCF72B
:1043D00053F880212748006807F096FD23480838E5
:1043E00001684068374AC2E9001008F05FFC0446E3
:1043F000002003462246012100903348006808F05F
:10440000F9FF1A4908390C684B682246184903C954
:1044100002F087FF1CE0FFE71748007800F08000FB
:10442000B0B912480838036842682648D0E900103D
:104430005940504001430BD124A0FCF71DF80B4814
:104440000838046843682246094903C902F069FF35
:1044500038BD0000BDD3CAD5B5BD525453D0CD4DE3
:104460004143D6A1C1CB0D0A00000000410200204B
:10447000180000202C00002030000020BDD3CAD539
:10448000B5BDC1CBB1F0B5C4BDDAB5E3B5C45254C6
:10449000530D0A00C4000020BFAAC6F4B6A8CAB1D2
:1044A0000D0A0000B6AAC6FA0D0A0000BDD3CAD58F
:1044B000B5BDC1CB525453A3ACB7A2CBCD435453DB
:1044C0000D0A000020000020C8000020D6D8D0C26D
:1044D000B7A2CBCD4354530D0A00000030B50546BA
:1044E00005B930BDEC6805E02046FFF7F7FF002076
:1044F00020722469002CF7D100BFF2E710B5044602
:1045000006A0FBF7B9FF80210A48006807F044FDC8
:104510000021094A1160516010BD0000D6D8D6C3F1
:10452000BDD3CAD5D7B4CCACCAB1BCE4B5BD0D0AB5
:10453000000000002C000020200000200FB410B567
:104540000020079005F00EFDCDE902010021049145
:104550000591FF208DF8180000208DF820008DF8BF
:10456000680001208DF81A00FF208DF8190010BC9A
:104570005DF814FB2DE9FC410446002000900190F9
:104580000025FF26FF27FFF7F1FA8820FFF7BAFA88
:10459000022003F015FAFFF735FB20B1FFF70CFB03
:1045A0000120BDE8FC81FD20FFF7ACFA022003F0FA
:1045B00007FAFFF727FB18B1FFF7FEFA0120F0E733
:1045C000FFF7FAFA142003F0DBF9FFF7CFFA89209E
:1045D000FFF798FA022003F0F3F9FFF713FB18B185
:1045E000FFF7EAFA0120DCE7062269462046FFF7DA
:1045F000E5F9FFF7E1FA9DF804009DF8031040EAA1
:1046000001209DF8011001EB00409DF8001040EAE8
:1046100001250221684602F055FE06469DF802007B
:10462000B04201D00120BCE702210DF1030002F0ED
:1046300049FE07469DF80500B84201D00120B0E7C9
:104640002846AEE701461C48814201D2002070474F
:104650001A48814201D20820F9E71948814201D263
:104660001020F4E71748814201D21820EFE71648DE
:10467000814201D22020EAE71448814201D2282059
:10468000E5E71348814201D23020E0E7114881423A
:1046900001D23820DBE71048814201D24020D6E722
:1046A0000E48814201D24820D1E70D48814201D213
:1046B0005020CCE75820CAE70040000800800008DE
:1046C00000C0000800000108000002080000040803
:1046D000000006080000080800000A0800000C0896
:1046E00000000E082DE9F041054688460DB9BDE8E9
:1046F000F081EC6818E041462046FFF7F3FF207A8E
:1047000088B9D4E90063324609A0FBF7B5FE0D482D
:104710000D49097840F821400B480078401C0A49AF
:104720000870246900E02469002CE4D100BFDEE7B2
:104730006E6F646520256C6C7820697320646561F8
:10474000640D0A00F80700204800002010B5044658
:1047500004A0FBF791FE10210648006807F01CFC3E
:1047600010BD0000B6A8CAB1C6F7CAB1BCE4B5BD59
:104770000D0A00003C00002070B52DED088B82B0C2
:1047800000BF05F073FE322003F0FAF805F07EFE5C
:104790000120FFF7EFFE044652484481210C81813D
:1047A0000146898901EB4102C2EBC11009F009F908
:1047B0009FED4D0B53EC102B08F07CFF9FED4C0B45
:1047C00053EC102B08F0BAFE41EC180B454949890F
:1047D000AF2201FB02F009F0F4F89FED430B53EC1C
:1047E000102B08F067FF9FED440B53EC102B08F0E3
:1047F000A5FE41EC190B8DED008B53EC192B40A05D
:10480000FBF73AFEFDF79CFC322003F0B9F802F00A
:1048100011FD04463348C0F80E40D0F80E0000EEFB
:10482000100AB8EE400ADFED3E0A80EE201A11EEC3
:10483000105A284609F022FC41EC180B53EC182BB7
:1048400038A0FBF719FE642003F09AF80520FDF765
:10485000A3FE04462348C0F81240642003F090F8F9
:104860000620FDF799FE04461E48C0F81640642055
:1048700003F086F80720FDF78FFE04461948C0F8BC
:104880001A40642003F07CF8FDF7E0FD044615496A
:10489000CC83FDF75CFD642003F072F8FDF72AFE7F
:1048A000044610498C84642003F06AF8FDF71EFF6B
:1048B00004460C490C84642003F062F8FDF7C2FE44
:1048C000044608494C8405F0BFFD002006F098F925
:1048D0000646314617A0FBF7CFFD02B0BDEC088BB2
:1048E00070BD0000D002002000000000E0FFEF409B
:1048F00000000000000018C000000000008046C05A
:1049000054656D70657261747572653A2025662C08
:104910002048756D69646974793A25660D0A00004E
:104920000000804370726573737572653A25660D79
:104930000A00000073656E645F74696D6572C8CEAD
:10494000CEF1CAB9D3C3C7E9BFF6A3BA256C640DCB
:104950000A0000000CB50020019000903448006867
:1049600040F480303249086000BF3148006800F4EC
:10497000003000900198401C0190009818B90198EF
:10498000B0F5A04FF1D12A48006800F4003010B112
:104990000120009001E0002000900098012846D1FD
:1049A00023484030006840F0805021494031086081
:1049B0002048006840F440401E4908601C48083008
:1049C00000681B49083108600846006840F4004050
:1049D00008600846006840F4A05008601648091FA7
:1049E0000860081F006840F08070091F086000BF61
:1049F0000F48006800F000700028F9D040F2057000
:104A00000E4908600A480830006820F00300084991
:104A1000083108600846006840F00200086000BFE6
:104A200003480830006800F00C000828F8D10CBDDD
:104A3000003802400070004008544007003C02402B
:104A4000042808D14FF0E021096941F004014FF03A
:104A5000E022116107E04FF0E021096921F0040133
:104A60004FF0E0221161704710B508F00FF90128EE
:104A700001D007F099FC10BD10B51548006840F44E
:104A80007000134908601348006840F001001149A4
:104A9000086000200F49083108600E4800680E4980
:104AA00008400C4908600D48091D0860081F00688F
:104AB00020F48020091F0860002006490C3108609E
:104AC000FFF748FF4FF0006001498039086010BDD2
:104AD00088ED00E000380240FFFFF6FE10300024B1
:104AE00010B50121064800F06CF8012802D105A09C
:104AF000FBF7C2FC0121880700F054F810BD00004C
:104B00000004004054494D32D3C5CFC8BCB6CEAA2C
:104B100034D5FDD4DAD4CBD0D00D0A0010B50121A4
:104B2000074800F04EF8012804D106480068401CF0
:104B3000044908600121024800F034F810BD00006B
:104B400000040040140000207FB505460C460121FA
:104B50000220FFF7DDFAADF8045002940020ADF812
:104B60000C00ADF80600012211460D4800F032F8A5
:104B700001A90B4800F038F81D208DF80000012035
:104B80008DF8030009208DF8010000208DF8020047
:104B90006846FFF7E9F90121014800F006F87FBDFA
:104BA00000040040CA430282704721B1028842F0EB
:104BB0000102028004E002884FF6FE731A40028070
:104BC000704702460020138A0B400BB1012000E021
:104BD000002070471AB183890B43838102E08389E7
:104BE0008B4383817047000000220288184B984253
:104BF0000ED0184B98420BD0B0F1804F08D0164B16
:104C0000984205D0154B984202D0154B984204D1DA
:104C10004FF68F731A404B881A43124B984207D0B5
:104C2000114B984204D04FF6FF431A400B891A43A8
:104C300002804B68C3620B880385054B984202D003
:104C4000044B984201D18B7A0386012383827047FB
:104C50000000014000040140000400400008004042
:104C6000000C00400010004000140040F8B505465C
:104C700005B9F8BDEC680BE02046FFF7F7FF207A96
:104C80000090D4E90063324603A0FBF7F5FB2469EA
:104C9000002CF1D100BFECE74368696C64204E6FD3
:104CA000646520414444523A20256C6C782C20697C
:104CB0007320616C6976653F2025780D0A0000003D
:104CC00038B50020009040F22551154800F0FBF85F
:104CD00028B3134800F0B0F9C5B212480188008823
:104CE000401C104A1080104845541048008800F4B9
:104CF0008050A0B16A464FF482710D48006807F0F9
:104D0000BFF90446012C0AD100BF009830B120073A
:104D100008490860BFF34F8FBFF36F8F00BF38BDE6
:104D2000004C004086000020DC0D002030000020F8
:104D30002C00002004ED00E038B50020009040F287
:104D40002551154800F0BFF858B1134800F074F928
:104D5000C5B2124801880088401C104A10801048D3
:104D600045546A4604210F48006807F089F9044653
:104D7000012C0AD100BF009830B120070A49086011
:104D8000BFF34F8FBFF36F8F00BF40F22551024832
:104D900000F075F838BD0000001001408C000020C4
:104DA000A40E00203C00002004ED00E010B540F20D
:104DB0002551084800F087F858B1064800F03CF942
:104DC000C4B2054801880088401C034A108003488B
:104DD000445410BD0044004084000020140D002005
:104DE00038B51D4D00200090002440F224411B489E
:104DF00000F069F850B319480088C0B20090174815
:104E0000001D0088C0B2009000211548FDF792FDFA
:104E100013482838C06AC0F1FF00C0B2009000BF3C
:104E200004E01048005D2855601CC4B29DF80000E5
:104E30008442F6DB9DF8000085F8FF00FF2108485A
:104E4000FDF766FE01210648FDF774FD10210648B6
:104E5000FEF73CFD00BF38BD6C0F0020004800404D
:104E6000286002406C1100200008024001F400722A
:104E7000B2F5007F00D100BFCA430280704710B571
:104E80000022002340F66A14A14200D100BF0A129A
:104E900001249440A3B2DC43048010BD21B1828977
:104EA00042F40052828104E082894DF6FF731A4079
:104EB000828170471AB1838A0B43838202E0838A1E
:104EC0008B438382704770B502460024002300257F
:104ED000002040F66A16B14200D100BFC1F342156E
:104EE00001F01F03012606FA03F3012D02D1968972
:104EF000334006E0022D02D1168A334001E0968A43
:104F000033400C12012606FA04F41688344013B11B
:104F10000CB1012000E0002070BDF0B50346002474
:104F200000260025002040F66A17B94200D100BFD4
:104F30001846C1F3421401F01F06012707FA06F5CF
:104F4000012C01D10C3004E0022C01D1103000E022
:104F500014301AB107682F43076002E00768AF43B7
:104F60000760F0BD2DE9FF4705460E460024A14627
:104F700000BFA046B08900B100BF2C8A24F4405481
:104F8000F08804432C82AC8941F20C608443B088E1
:104F900031890843718908430443AC81AC8A24F405
:104FA0004074B0890443AC826846FFF7D1F82048CA
:104FB000854202D01F48854202D1DDF80C9001E005
:104FC000DDF80890A88900F4004040B109EBC90061
:104FD00000EB091031684900B0FBF1F707E009EB7D
:104FE000C90000EB091031688900B0FBF1F76420BB
:104FF000B7FBF0F004012009642101FB1078A889B7
:1050000000F4004040B1322000EBC800B0FBF1F0EA
:1050100000F00700044308E0322000EB0810642190
:10502000B0FBF1F000F00F0004432C81BDE8FF87D6
:10503000001001400014014001468888C0F30800B8
:10504000704700000BE000BF0749098801F04001EC
:105050000029F9D00178044A121D1180401C017802
:105060000029F0D170470000004400400BE000BF71
:105070000749098801F040010029F9D00178044A64
:10508000121D1180401C01780029F0D170470000EA
:10509000004C004000BFFEE710B596B00446012169
:1050A0000220FFF715F801218804FFF731F80722E5
:1050B0000A214A48FEF7E7FB07220B214748FEF783
:1050C000E2FB4FF44060149002208DF854008DF8FC
:1050D000550000208DF8560001208DF8570014A9C6
:1050E0003E48FEF788FB10940020ADF84400ADF870
:1050F0004600ADF84800ADF84C000C20ADF84A0071
:1051000010A93748FFF72EFF01213548FFF7C6FEEB
:1051100001214805FEF7DCFF3248FDF717FC00BF10
:105120003048FDF7BFFC0028FAD14FF00060019035
:105130002B48001D02902C48039000200490FF2073
:105140000590002006904FF48060079000200890A2
:1051500009904FF480700A9000020B9000200C9090
:1051600003200D9000200E900F9001A91D48FDF71F
:10517000A3FC002240F226611948FFF7CEFE002270
:1051800040F225511648FFF7C8FE012240F22441A3
:105190001348FFF7C2FE27208DF8000001208DF88C
:1051A000010003208DF8020001208DF803006846FD
:1051B000FEF7DAFE012240210948FFF77BFE0121BC
:1051C0000748FFF76BFE01210648FDF7B3FB4FF4DC
:1051D00080710648FBF7E0FB16B010BD00040240EA
:1051E00000480040286002406C1100206C0F002035
:1051F00000BF018801F040010029FAD0704700008B
:1052000010B5044604A0FBF737F94FF400610748D6
:10521000006806F0C1FE10BDC7BFD6C6D0DDC3DF33
:10522000CAB1BCE4B5BD0D0A000000002C0000208E
:1052300003B401984100009850EAC12018BF04202F
:105240004A0D18BF40F0010040F2FF72B2EB515F0F
:1052500008BF40F00200012808BF052002B07047D7
:105260002DE9F04D2DED040B2DED0E8B96B0DDE903
:105270002550279CDDF890A025F0004624F000483A
:10528000BAF1000F14BF0121002101EB4502FC49D6
:1052900053184A1093422AD3002814BF0123002335
:1052A00003EB44030B44F7498B4220D358EA000137
:1052B0009FEDF59B76D0DFF8D8B35D4503D1BAF109
:1052C000000F05D188E0BAF1000F08BF002100D01F
:1052D000012101EB450111F5001F08D8002814BF7A
:1052E0000121002101EB440111F5001F0BD99DEDB7
:1052F000261B9DED240B16B0BDEC0E8B04B0BDE853
:10530000F04D00F069BE0027002DBCBFE149884583
:1053100021DAE1498845A8BF02271CDAC3451ADC17
:10532000DE4901EB2851142908DDC1F1340220FACD
:1053300002F101FA02F282420DD108E058B9C1F13E
:10534000140228FA02F101FA02F2424503D101F0F7
:105350000101C1F1020756EA0A0124D1002C22DA28
:10536000002D18BF022F01D0012F0AD00220FBF719
:10537000DCFB16B0BDEC0E8B04B0BDE8F04D00F0C8
:1053800013BE0220FBF7D1FB00F00EFE51EC100B18
:1053900008F0C8F841EC100B16B0BDEC0E8B04B051
:1053A000BDE8F08D18E09FEDBEAB9FEDBF8B0028F0
:1053B00071D1B848804522D105F1804010F58010A8
:1053C00008BFBAF1000F07D0B3450ADC002CA8BF14
:1053D0009DED260BE0DA0DE0B0EE490AF0EE690A29
:1053E000DAE7002C06DA9DED260B51EC100B08F0E5
:1053F00099F86FE0AE48784490ED000BCCE7D845C3
:105400004DD1002C48DA2EB186423AD1BAF1000FC4
:1054100042D126E0BAF1000F13D00220FBF785FB42
:1054200000F0F6FD8DED020B9DED240B8DED000BD4
:1054300010EE900A039961F31E0003909DED020B9C
:10544000AAE78DED02AB9DED240B1AEE901A10EE3B
:10545000900A8DED000B61F31E0003909DED020B91
:105460009AE78DED028B9DED240B18EE901A10EE4D
:10547000900A8DED000B61F31E0003909DED020B71
:105480008AE709DA9DED240B51EC190B53EC102B34
:1054900008F010F91EE020E09DED240B7CE7864229
:1054A0001BDAB4F1804F0DD0A4F10050B0F1FF50E1
:1054B00013D1002D11DB9DED240B51EC100B04F0EA
:1054C000E9FF07E09DED240B53EC102B51EC100B82
:1054D00000F0C2BC41EC100B5EE79DED240B51ECDB
:1054E000100B02F0A1FBBAF1000FCDE90E0142D181
:1054F0009FED710B46B3A6F1E040B0F17F600CD098
:105500005E4538D1002D00DAA7B3022F0CBF012071
:105510004FF0FF3008F055FADCE7002D01DD002CDC
:105520000DDA002D01DD002C1FDB002D16DA002C1A
:1055300014DB012F08BF9FED620B3FF42DAFB0EEDF
:105540004A0AF0EE6A0A27E7022F18BF002D0CD096
:10555000012F0AD1002DFFF61FAF06E0002DB8BFC6
:10556000002C08DA012F3FF417AFB0EE480AF0EE36
:10557000680A11E71BE0012000EBE57050EA070123
:1055800015D0791EB0EE498AF0EE698A084308BF4B
:105590009FED4D8B4E480025804570DD4D494E48AE
:1055A000884514DDB0420DDB002C19DB2FE0012013
:1055B000FBF7BBFA16B0BDEC0E8B04B0BDE8F04DA6
:1055C00000F016BDB34502DC002C09DC1FE086426A
:1055D00002DA002C1BDA03E05E452BDD002C16DD21
:1055E0000220FBF7A2FA00F013FD8DED020B53EC45
:1055F0001A2B51EC180B08F04BFACDE90001039976
:10560000019861F31E0003909DED020BC4E6022099
:10561000FBF78BFA00F00CFD10EE901A18EE900AD2
:105620008DED020B8DED008B61F31E0003909DED5F
:10563000020BB1E69DED0E0B53EC192B51EC100B48
:1056400008F032FC9FED260BCDE9080153EC102B3E
:105650009DED080B51EC100B08F01AFA9FED221B80
:1056600053EC112B08F048FB9DED081B53EC112B5C
:1056700008F00EFA9FED1E1B53EC112B3CE08CE062
:10568000FFFF1F00FFFF0F00000000000000F03FC1
:105690000000F03F0000F07F0000404301FCFFFFEE
:1056A000000000000000F07F00000000000000008B
:1056B00036910000000000000000000000000080A3
:1056C000000000000000F0FF000000000000F0BF3C
:1056D0000000E0410000F043FFFFEF3F000000004A
:1056E000000000000000D03F555555555555D53F99
:1056F000000000000000E03F08F0FEFA9DED080BFE
:1057000041EC1A0B53EC102B51EC100B08F0C0F9C4
:1057100053EC1A2B08F0BCF941EC1A0B9FEDFE0B71
:1057200053EC102B9DED080B51EC100B08F0B0F969
:1057300041EC1B0B9FEDFA0B51EC1A0B53EC102BA9
:1057400008F0A6F941EC1A0B9FEDF70B53EC102B68
:105750009DED080B51EC100B08F09AF953EC1A2B45
:1057600008F0A2FB41EC1A0B51EC1B0B53EC1A2B6B
:1057700007F0E4FE0690CDE906519DED060B53ECD3
:105780001B2B51EC100B08F08FFB53EC1A2B08F07D
:10579000B3FA41EC100B00F0A1B90020B6F5801F60
:1057A0000EDA9FEDE30B53EC102B9DED0E0B51EC3D
:1057B000100B08F06DF9CDE90E016FF034000E46C4
:1057C00000EB2650A0F2FF37C6F31300DA4940F091
:1057D0007F6646F040568842D8BF002408DDD7498E
:1057E0008142C8BF012403DC0024A6F580167F1C7B
:1057F000D348784400EBC4000F9690ED00CB9DEDAC
:105800000E0B53EC1C2B51EC100B08F04DFB9DEDD7
:105810000E0B41EC1B0B53EC1C2B51EC100B07F047
:105820008DFE41EC100B51EC190B53EC102B07F0D3
:1058300041FF41EC1D0B51EC1B0B53EC1D2B08F0F1
:1058400027F941EC1A0BBF488DED10AB7844109549
:1058500090ED000B4FF0005040EA660000EB8440F2
:105860008DED080B00F5002009909DED080B53EC21
:105870001C2B51EC100B08F017FB9DED0E1B53EC8D
:10588000112B08F039FA41EC100B53EC102B9DED65
:10589000100B51EC100B08F0FBF89DED080B41ECE0
:1058A0001C0B53EC102B9DED100B51EC100B08F062
:1058B000EFF853EC1B2B08F01FFA53EC1C2B08F0ED
:1058C000F3FA53EC1D2B08F0E3F841EC1C0B53ECFE
:1058D0001A2B51EC1A0B08F0DBF841EC1B0B9A4821
:1058E0000621B0EE4B0AF0EE6B0A784400F0E0FAC5
:1058F000B0EE401AF0EE601AB0EE41DAF0EE61DA86
:1059000053EC1B2B51EC1B0B08F0C2F853EC1D2B76
:1059100008F0BEF89DED100B41EC1B0B53EC1A2B5D
:1059200051EC100B07F00AFE53EC1C2B08F0B0F8FA
:1059300053EC1B2B07F002FE9DED100B41EC1B0BF3
:1059400053EC102B51EC100B08F0A2F841EC1D0B9E
:105950009FED7FEB53EC1E2B07F0F0FD53EC1B2B60
:1059600007F0ECFD0890CDE908519DED080B53ECD4
:105970001E2B51EC100B08F097FA53EC1D2B08F07E
:1059800093FA53EC1B2B08F0B7F99DED080B41EC93
:105990001D0B53EC102B9DED100B51EC100B08F070
:1059A00077F841EC1B0B53EC1A2B51EC1D0B08F054
:1059B0006FF89DED080B41EC1A0B53EC102B51ECDA
:1059C0001C0B08F065F853EC1A2B07F0B7FD41ECFF
:1059D0001A0B51EC1B0B53EC1A2B07F0AFFD0C907C
:1059E000CDE90C519DED0C0B53EC1B2B51EC100B26
:1059F00008F05AFA53EC1A2B08F07EF941EC1B0B15
:105A00009FED550B53EC102B9DED0C0B51EC100B37
:105A100008F03EF841EC1A0B9FED510B51EC1B0BBB
:105A200053EC102B08F034F841EC1B0B9FED4E0BA0
:105A300053EC102B9DED0C0B51EC100B08F028F8DB
:105A400053EC1B2B07F07AFD41EC100B48487844CF
:105A500000EBC40090ED001B51EC100B53EC112B2C
:105A600007F06CFD41EC1B0B384607F0AAFFCDE9AF
:105A7000080153EC1B2B51EC1A0B07F05FFD41ECB6
:105A8000100B3C48784400EBC40090ED00CB51EC87
:105A9000100B53EC1C2B07F051FD9DED081B53EC34
:105AA000112B07F04BFD0690CDE906519DED080B3B
:105AB00053EC102B9DED060B51EC100B08F0F4F994
:105AC00053EC1C2B08F0F0F953EC1A2B08F0ECF90E
:105AD00053EC1B2B08F010F941EC100B9DED261B2D
