:020000040800F2
:10000000683B0020F902000855130008530D000852
:1000100051130008FF0900088F1D000800000000B0
:10002000000000000000000000000000390200088D
:10003000E10B00080000000095020008ED17000821
:1000400013030008130300081303000855160008E3
:100050001303000813030008350C000813030008FD
:100060001303000813030008130300081303000818
:100070001303000813030008130300081303000808
:1000800013030008130300081303000813030008F8
:1000900013030008130300081303000813030008E8
:1000A00013030008130300081303000813030008D8
:1000B00065180008DD180008130300081303000882
:1000C00013030008130300081303000813030008B8
:1000D00013030008951A0008091B00083D1B0008BF
:1000E00013030008DD1500081303000813030008BC
:1000F0001303000813030008130300081303000888
:100100001303000813030008130300081303000877
:10011000D119000813030008130300081303000893
:100120001303000813030008130300081303000857
:100130001303000813030008130300081303000847
:100140001303000813030008130300081303000837
:100150001303000813030008130300081303000827
:100160001303000813030008130300081303000817
:100170001303000813030008130300081303000807
:10018000130300081303000800F002F800F044F81D
:100190000AA090E8000C82448344AAF10107DA45E2
:1001A00001D100F039F8AFF2090EBAE80F0013F0F0
:1001B000010F18BFFB1A43F001031847D02D0000B0
:1001C000F02D0000103A24BF78C878C1FAD8520741
:1001D00024BF30C830C144BF04680C6070470000C1
:1001E0000023002400250026103A28BF78C1FBD840
:1001F000520728BF30C148BF0B607047642900F028
:10020000F780732900F0B283002070471FB502F019
:10021000AFFE1FBD10B510BD00F0C6FB1146FFF7C5
:10022000F5FF01F0F9FE00F0E4FB03B4FFF7F2FF85
:1002300003BC01F062FE00002C4B19680868B0E8AE
:10024000F04F80F30988BFF36F8F4FF0000080F309
:10025000118870470000000008480068006880F3BB
:1002600008884FF0000080F3148862B661B6BFF3CF
:100270004F8FBFF36F8F00DF00BF00BF08ED00E0BE
:10028000DFF80C00016841F470010160704700BFA5
:1002900088ED00E0EFF30980BFF36F8F134B1A680E
:1002A0001EF0100F08BF20ED108A20E9F04F1060FB
:1002B00009B44FF0500080F31188BFF34F8FBFF3A4
:1002C0006F8F02F0A3F94FF0000080F3118809BC92
:1002D00019680868B0E8F04F1EF0100F08BFB0ECC6
:1002E000108A80F30988BFF36F8F70475800002091
:1002F000EFF3058070470000094880470948004730
:10030000FEE7FEE7FEE7FEE7FEE7FEE7FEE7FEE7C5
:10031000FEE7FEE704480549054A064B7047000022
:10032000FD1700088901000868090020683B0020CB
:10033000680B0020680B0020704710B54C1084EA51
:10034000530404D54042C1F1000138BF491E1B428D
:1003500004D55242C3F1000338BF5B1E00F00CFA13
:1003600014F0804F04D04042C1F1000138BF491E53
:1003700014F0004F04D05242C3F1000338BF5B1E9B
:1003800010BD00000FB4044910B503AA029800F094
:10039000F1FA10BC5DF814FB4000002070B50C466B
:1003A0000546012A05D02878800600D5EA69002391
:1003B00002E0012305E05B1C934202D2E05C0028CE
:1003C000F9D1A869E618C01AA861286A18442862F9
:1003D0002846AFF3008004E0D5E9012114F8010BB1
:1003E0009047B442F8D32846AFF3008070BD0000B8
:1003F0002DE9F0410646002410687529314616A5FE
:1004000010D0AFF30080002802DA404213A507E0C5
:1004100031688A0701D512A502E0490704D511A564
:10042000012401E0AFF3008000210A2206F1240735
:1004300009E0B0FBF2FCB0FBF2F302FB1C00303031
:1004400078541846491C0028F3D123462A463046E2
:10045000BDE8F04100F007BA000000002D000000E8
:100460002B000000200000002DE9F05F89460446C3
:100470004FF0000ADFF874B1FB44C0F820A020461A
:10048000E1688847002874D0252806D0D4E90121E6
:100490009047206A401C2062F1E700265F46204614
:1004A000E16888472028054607DB312D05D27819F9
:1004B00010F8200C08B10643F1E7B00701D526F08B
:1004C0000406C4F81CA00027C4F818A02A2D09D0DF
:1004D000284601F00BFD38B304EB8708303DC8F81F
:1004E000185019E059F8041B204604EB870291616B
:1004F000E1688847012F054618D1E069002820DA15
:1005000026F020061DE0D8F8180000EB800005EB6F
:1005100040003038C8F818002046E1688847054692
:1005200001F0E4FC0028EED1012F0AD02E2D08D1D5
:100530002046E16888477F1C0546022F46F02006CA
:10054000C4DBA069002803DA404246F00106A0613E
:10055000F00701D026F010066C2D0BD0682D09D0C5
:100560004C2D39D06A2D35D0742D35D07A2D33D01D
:1005700016E038E0E1682F4620468847B842054635
:1005800009D16C2F26D04FF48060E16806432046E5
:100590008847054604E06C2F1AD04FF4807006435C
:1005A0000DB3A5F14100192802D8203546F40066A4
:1005B0004A462946204626604E46FFF71FFE80B178
:1005C00001280BD0F61D26F0070000F1080956E7B8
:1005D0004020E4E78020D8E70020D6E706F10409B0
:1005E0004DE7284652E7206ABDE8F09FFE2A00004A
:1005F000032A40F2308010F0030C00F0158011F84F
:10060000013BBCF1020F624498BF11F801CB00F826
:10061000013B38BF11F8013BA2F1040298BF00F87A
:1006200001CB38BF00F8013B11F0030300F0258037
:10063000083AC0F0088051F8043B083A51F804CB5E
:10064000A0E80810F5E7121D5CBF51F8043B40F824
:10065000043BAFF30080D20724BF11F8013B11F82F
:1006600001CB48BF11F8012B24BF00F8013B00F873
:1006700001CB48BF00F8012B704710B5203AC0F0FD
:100680000B80B1E81850203AA0E81850B1E8185093
:10069000A0E81850BFF4F5AF5FEA027C24BFB1E8D0
:1006A0001850A0E8185044BF18C918C0BDE8104041
:1006B0005FEA827C24BF51F8043B40F8043B08BF4A
:1006C0007047D20728BF31F8023B48BF11F8012B11
:1006D00028BF20F8023B48BF00F8012B70474FF0BD
:1006E00000020429C0F0128010F0030C00F01B80FF
:1006F000CCF1040CBCF1020F18BF00F8012BA8BF0D
:1007000020F8022BA1EB0C0100F00DB85FEAC17CD0
:1007100024BF00F8012B00F8012B48BF00F8012B83
:1007200070474FF0000200B51346944696462039B4
:1007300022BFA0E80C50A0E80C50B1F12001BFF49A
:10074000F7AF090728BFA0E80C5048BF0CC05DF800
:1007500004EB890028BF40F8042B08BF704748BF4E
:1007600020F8022B11F0804F18BF00F8012B7047C2
:10077000704770477047704753EA020C00F0698079
:100780002DE9F04B4FF00006002B1FBFB3FA83F5A5
:1007900003FA05F424FA05F65E4012BF1643B2FAD6
:1007A00082F502FA05F4C5F120051EBF22FA05FC08
:1007B00044EA0C04203556EA044C4FEA144418BFAE
:1007C000641C4FF000084FF00009904271EB030CDD
:1007D00039D3002919BFB1FA81F701FA07F6B0FA47
:1007E00080F700FA07F6C7F120071EBF20FA07FCC2
:1007F00046EA0C062037B6FBF4FCA7EB0507103FD2
:1008000007F01F0BCBF120060CFA0BFB2CFA06F6B7
:1008100044BFB3460026202FA4BF5E464FF0000B16
:100820005BEA060C08BF4FF0010B19EB0B09ABFBA1
:10083000027C48EB0608C01B06FB02CC0BFB03CC7A
:1008400071EB0C01C1E70B46024641464846BDE844
:10085000F08B13B54FF000004FF00001AFF30080B4
:10086000BDE81C4070472DE9F0470D469946924679
:10087000044600F124080168880604D5E06921F0E7
:100880001001216000E00120A84201DD471B00E0CB
:100890000027A1697A1902EB0900081AA0612078E3
:1008A000C00602D42046AFF30080002608E0D4E959
:1008B00001211AF806009047206A401C761C20622D
:1008C0004E45F4DB2078C0060AD52046AFF3008001
:1008D00006E0D4E9012130209047206A401C2062C4
:1008E000381EA7F10107F4DC07E0D4E9012118F86C
:1008F00005009047206A401C2062281EA5F10105D2
:10090000F3DC2046AFF300802078000602D50220F9
:10091000BDE8F0870120FBE701694A1C0261087805
:10092000704700B58FB0CDE901310021059105492F
:100930007944CDE9031011466846FFF795FD0FB0E5
:1009400000BD0000E5FFFFFF10B5436913B1AFF331
:10095000008001E0FFF722FD012010BD127800F1B8
:1009600024010A7000224A700122EDE711684FF05D
:10097000FF32E9E7074B70B50D467B44FFF7D1FF27
:100980000446284600F008F810B14FF0FF3070BD63
:10099000204670BD27160000007B00F080007047E5
:1009A00000487047080900207546FFF7F9FFAE467A
:1009B00005006946534620F00700854618B020B56B
:1009C000FFF7A8FCBDE820404FF000064FF00007FD
:1009D0004FF000084FF0000B21F00701AC46ACE8E7
:1009E000C009ACE8C009ACE8C009ACE8C0098D4654
:1009F00070470446AFF300802046FFF716FC00BFA7
:100A0000FEE721B1026842F00102026003E00268E1
:100A100022F0010202607047016821F001010160CB
:100A20000021016041608160C1600161212141615B
:100A30004A49884204D13D21484A103A91608CE0ED
:100A400046491831884205D14FF47461434A103A3F
:100A5000916082E041493031884205D14FF47411F0
:100A60003E4A103A916078E03C494831884205D1CD
:100A70004FF07461394A103A91606EE03749603145
:100A8000884204D13649354A103AD16065E033498D
:100A90007831884204D13349304A103AD1605CE061
:100AA0002E499031884204D12F492C4A103AD16006
:100AB00053E02A49A831884205D14FF03D51274AD9
:100AC000103AD16049E02949884204D13D21274AA2
:100AD000083A116041E025491831884205D14FF4A8
:100AE0007461224A083A116037E020493031884267
:100AF00005D14FF474111D4A083A11602DE01B49CD
:100B00004831884205D14FF07461184A083A1160A3
:100B100023E016496031884204D11149134A121F5B
:100B200011601AE011497831884204D10D490F4A09
:100B3000121F116011E00D499031884204D10A4919
:100B40000A4A121F116008E00849A831884204D1FE
:100B50004FF03D51054A121F11607047106002406E
:100B60003D000020400F002000003D2010640240A6
:100B7000014600200A6802F001020AB1012000E0EB
:100B80000020704710B500220268134B1A40CC6851
:100B90000B6823434C6923438C692343CC6923436B
:100BA0000C6A23434C6A23438C6A23434C6B2343D4
:100BB0008C6B23431A430260426922F00702D1E999
:100BC0000B3423431A4342610B6943604B688360D3
:100BD0008B68C36010BD00003F801CF0416070470F
:100BE0007047000010B54FF48071024800F0ADF876
:100BF00010BD0000001402401CB50121202000F0AF
:100C000049FC4FF48070009001208DF80400002012
:100C10008DF806008DF805008DF807006946044838
:100C200000F024F84FF48071014800F08AF81CBDF0
:100C30000014024010B506A0FFF7A4FB142001F039
:100C4000A5F906480068012000F00AF810BD000070
:100C5000BDF8C8EBD6D0B6CF200D0A000002404246
:100C60000149086070470000143C0140F0B50A4695
:100C700000210023002400BF3DE0012505FA01F317
:100C8000156805EA03049C4234D105684F00032629
:100C9000BE40B543056015794E00B5400668354342
:100CA00005601579012D02D01579022D16D18568C0
:100CB0004F000326BE40B543856055794E00B540D0
:100CC000866835438560456801268E40B54345609A
:100CD000456896798E40B6B235434560C5684F0089
:100CE0000326BE40B543C560D5794E00B540C66801
:100CF0003543C560491C1029BFD3F0BDF0B50023B2
:100D000000244D07ED0E02FA05F3CE1000F1200588
:100D100055F826504E07F70E0F26BE40B543CF10AC
:100D200000F1200646F82750CE1000F1200555F8B6
:100D3000265045EA0304CE1000F1200545F8264070
:100D4000F0BD418370470183704742694A40426168
:100D5000704700BFFEE7000010B500200F49086093
:100D60000F48006820F440200D49086008460068DC
:100D700040F48020086000200A49C1F8A402022043
:100D800001F0E0F8012005490860022001F0DAF8DE
:100D900001200549C1F8A00210BD0000A002404298
:100DA0000008024000004142000040421CB5012101
:100DB000052000F06FFB4FF40070009001208DF8CB
:100DC00004008DF8060003208DF8050001208DF841
:100DD000070069460848FFF749FF4FF4807000900C
:100DE00069460648FFF742FF0120054908600549AA
:100DF000C1F8A4021CBD000000080240000002402F
:100E0000A00240420000414210B500200F49086096
:100E10000F48006820F440200D490860084600682B
:100E200040F48020086001200A49C1F8A402022091
:100E300001F088F8012005490860022001F082F8DD
:100E400001200549C1F8A00210BD0000A0024042E7
:100E500000080240000041420000404270B50546D3
:100E600000241548006820F4402013490860084613
:100E700000680860002615E0002010490860042082
:100E800001F060F801200E49C1F8A0026006040ECE
:100E90000C48006808B1601CC4B2012001F052F88F
:100EA000701CC6B2082EE7DB15B9FFF7ADFF01E0F5
:100EB000FFF752FF204670BD00080240A0024042EA
:100EC000000040422402414270B5044614480068C4
:100ED00020F44020124908600846006840F4802051
:100EE000086000200F490860002516E0E0090E495F
:100EF00008606006040E022001F024F801200B496E
:100F0000C1F8A002022001F01DF800200549086088
:100F1000022001F017F8681CC5B2082DE6DB70BD91
:100F200000080240A0024042A402414200004042A8
:100F300010B50F48006820F440200D4908600846AD
:100F4000006840F48020086001200A4908600A49CE
:100F5000C1F8A002042000F0F5FF00200549086058
:100F6000042000F0EFFF00200349C1F8A00210BDEB
:100F700000080240A40241420000404210B50F4860
:100F8000006820F440200D4908600846006840F4DD
:100F90008020086000200A4908600A49C1F8A402BC
:100FA000042000F0CFFF0120054908600549C1F881
:100FB000A402022000F0C6FF10BD0000000802409D
:100FC000A00240420000414210B5002412480068CF
:100FD00020F440201049086008460068086001209D
:100FE0000E49086000F0AEFF01200D49C1F8A002D3
:100FF00000F0A8FF07E0601CC4B2FA2C03DDFFF785
:10100000BDFF012010BD0548803800680028F2D1DE
:101010000449086000BFF5E700080240A40241420D
:1010200000004042A002404210B50446FFF7BEFE59
:1010300044F227120021204600F0F2F810BD38B526
:101040000546002000906946284600F04DF8044609
:101050000CB1204638BDBDF8000045F24941884238
:1010600001D06420F6E70020F4E72DE9F84380463C
:101070000C4600200090002514B90A20BDE8F88332
:101080006A460221404600F064F805460DB1284644
:10109000F4E7BDF800000521A0FB01600146042231
:1010A00000233046FFF749F920600020E6E7F8B555
:1010B00007460C4615460020009000260DB90A2070
:1010C000F8BD0CB90B20FBE76946384600F083F801
:1010D00006460EB13046F3E722460098C11700F0ED
:1010E0006FFF28600020EBE770B505460C462246EE
:1010F000FE21284600F02DF870BD2DE9FC4706467C
:1011000089461446002001900090002514B90A2059
:10111000BDE8FC8701A93046FFF7A7FF05460DB1E2
:101120002846F5E76A4649463046FFF7C0FF0546C0
:101130000DB12846ECE7DDE9001080FB01700146A7
:101140004FF47A7200233846FFF7F7F8206000204A
:10115000DEE72DE9F04104460E4615460027B84665
:1011600015B90A20BDE8F081FFF7E2FE002141EA4F
:101170004401C8B2FFF7A8FEFFF726FF18B1FFF73A
:10118000FDFE0120EEE73046FFF79EFEFFF71CFF55
:1011900018B1FFF7F3FE0220E4E7FFF7C9FE0121D3
:1011A00001EB4401C8B2FFF78FFEFFF70DFF18B146
:1011B000FFF7E4FE0320D5E70120FFF74FFE0746C7
:1011C0000020FFF74BFE8046FFF7D8FE48EA0720D5
:1011D00028800020C6E72DE9F84306460C4600208B
:1011E00000908146002514B90A20BDE8F8836A46BC
:1011F00001213046FFF7ADFF05460DB12846F4E763
:10120000BDF800000FFA80F9052089FB0070014647
:10121000022200233846FFF790F820600020E4E720
:1012200070B505460E461446FFF782FE002141EADE
:101230004501C8B2FFF748FEFFF7C6FE18B1FFF739
:101240009DFE012070BD3046FFF73EFEFFF7BCFE5D
:1012500018B1FFF793FE0220F4E72012FFF734FEE7
:10126000FFF7B2FE18B1FFF789FE0320EAE7E0B20C
:10127000FFF72AFEFFF7A8FE18B1FFF77FFE042054
:10128000E0E7FFF77BFE0020DCE700001CB5012152
:10129000112000F0FFF81020009000208DF80400CD
:1012A00003208DF8050001208DF8070069460648E7
:1012B000FFF7DCFC0120009002208DF80700694652
:1012C0000248FFF7D3FC1CBD0010024000000240A2
:1012D0001CB50121202000F0DDF801208DF804006C
:1012E00002208DF8050000208DF806004FF4C06044
:1012F000009069460648FFF7B9FC4FF400710448B6
:10130000FFF721FD4FF480610148FFF71CFD1CBD74
:10131000001402401CB50121022000F0BBF840205F
:10132000009001208DF8040000208DF806000320B5
:101330008DF8050001208DF8070069460348FFF786
:1013400095FC40210148FFF7FEFC1CBD0004024053
:1013500000BFFEE77047000070B5002100230F2298
:10136000C4781CB3174C246804F4E064C4F5E0644A
:10137000C4F30721C1F10404E3B20A4144789C405C
:10138000E1B28478144021430C07210E0E4C0578FD
:101390006155047804F01F050124AC4005786D11F7
:1013A000AD0005F1E025C5F8004109E0047804F03E
:1013B0001F050124AC40054D0678761145F82640FE
:1013C00070BD00000CED00E000E400E080E100E012
:1013D00002490143024A1160704700000000FA050B
:1013E0000CED00E01CB50121082000F053F80121AC
:1013F000202000F04FF80121402000F04BF8402061
:10140000009001208DF8040000208DF806000320D4
:101410008DF8050001208DF8070069461A48FFF78E
:1014200025FC1020009001208DF8040000208DF88C
:10143000060003208DF8050002208DF8070069469C
:101440001248FFF713FC4FF48070009001208DF8D4
:10145000040000208DF8060003208DF8050002200E
:101460008DF8070069460A48FFF700FC402106484E
:10147000FFF769FC4FF480710548FFF764FC102109
:101480000248FFF760FC1CBD000C02400014024043
:101490000018024029B1064A12680243044B1A6040
:1014A00004E0034A12688243014B1A60704700004F
:1014B0003038024029B1064A12680243044B1A60D0
:1014C00004E0034A12688243014B1A60704700002F
:1014D0004038024029B1064A12680243044B1A60A0
:1014E00004E0034A12688243014B1A60704700000F
:1014F00044380240F0B500210022002402250026D5
:101500000223324F3F6807F00C0121B1042905D0B6
:10151000082937D105E02E4F076036E02D4F0760D0
:1015200033E02A4F3F1F3F68C7F38056274F3F1FC6
:101530003F6807F03F036EB1264FB7FBF3F7DFF8C4
:101540008CC0ACF1040CDCF800C0CCF3881C07FBA9
:101550000CF40CE01E4FB7FBF3F7DFF870C0ACF1F2
:10156000040CDCF800C0CCF3881C07FB0CF4174F0C
:101570003F1F3F68C7F301477F1C7D00B4FBF5F7B1
:10158000076002E0124F076000BF00BF0F4F3F68C7
:1015900007F0F0010909104F7A5C0768D7404760EF
:1015A0000A4F3F6807F4E051890A0B4F7A5C47689D
:1015B000D7408760054F3F6807F46041490B064FED
:1015C0007A5C4768D740C760F0BD00000838024029
:1015D0000024F40000127A004600002010B54FF4F9
:1015E000807000F023F8012805D1000200F010F807
:1015F00003A0FEF7C7FE4FF40030FFF731FB10BD2C
:1016000068656C6C6F776F726C64210D0A00000066
:1016100081B241F08001044A126802F0800262EA5D
:101620000101014A116070470C28004010B50146C5
:1016300000200022054B1B68054C03EA040202EA65
:1016400001030BB1012000E0002010BD0C28004078
:101650007F3F010010B54FF48060FFF7E7FF0128DE
:1016600027D18002FFF7D4FF1448016814A0FEF7C9
:1016700089FE12480068401C10490860084600684E
:10168000022816D300200860012080F3138800BFD1
:1016900000BFBFF34F8F0E48006800F4E0600D49B3
:1016A0000843001D0A490860BFF34F8F00BF00BF09
:1016B000FEE74FF48000FFF7D3FA10BD30000020A2
:1016C00077616B6520757020256421210D0A00006B
:1016D0000CED00E00000FA050CB500200190009030
:1016E0003448006840F480303249086000BF314817
:1016F000006800F4003000900198401C01900098B0
:1017000018B90198B0F5A04FF1D12A48006800F44B
:10171000003010B10120009001E0002000900098FE
:10172000012846D123484030006840F080502149CC
:10173000403108602048006840F440401E4908607D
:101740001C48083000681B490831086008460068DA
:1017500040F4004008600846006840F4A05008606B
:101760001648091F0860081F006840F08070091FB4
:10177000086000BF0F48006800F000700028F9D032
:1017800040F205700E4908600A480830006820F0F1
:1017900003000849083108600846006840F002006C
:1017A000086000BF03480830006800F00C000828FB
:1017B000F8D10CBD003802400070004008544007CA
:1017C000003C0240042808D14FF0E021096941F0B3
:1017D00004014FF0E022116107E04FF0E0210969B8
:1017E00021F004014FF0E0221161704710B501F0C3
:1017F000C3F8012801D001F003F810BD10B5154859
:10180000006840F47000134908601348006840F015
:1018100001001149086000200F49083108600E4896
:1018200000680E4908400C4908600D48091D086011
:10183000081F006820F48020091F08600020064966
:101840000C310860FFF748FF4FF000600149803914
:10185000086010BD88ED00E000380240FFFFF6FE92
:101860001030002410B50121880700F05CF8012831
:1018700001D1FFF7B7F90121880700F045F810BD45
:101880007FB505460C4601210846FFF713FEADF86B
:10189000045002940020ADF80C00ADF806000122BF
:1018A0001146900700F048F801A94FF0804000F081
:1018B0004DF81C208DF8000001208DF80300042055
:1018C0008DF8010000208DF802006846FFF744FD06
:1018D0000121880700F01BF87FBD000010B5012131
:1018E000074800F020F8012804D106480068401C91
:1018F000044908600121024800F006F810BD00000C
:101900000004004000000020CA430282704721B159
:10191000028842F00102028004E002884FF6FE7362
:101920001A400280704702460020138A0B400BB118
:10193000012000E0002070471AB183890B438381A6
:1019400002E083898B438381704700000022028874
:10195000184B98420ED0184B98420BD0B0F1804FE4
:1019600008D0164B984205D0154B984202D0154B23
:10197000984204D14FF68F731A404B881A43124B8A
:10198000984207D0114B984204D04FF6FF431A40BB
:101990000B891A4302804B68C3620B880385054B91
:1019A000984202D0044B984201D18B7A03860123DE
:1019B00083827047000001400004014000040040A1
:1019C00000080040000C00400010004000140040DF
:1019D000F8B50020009040F22551274800F018F992
:1019E000002847D0244800F0CDF9C5B2234800783C
:1019F00028B12348008810B90020204908701F48EA
:101A0000007878B91E480088C82808D21C48018888
:101A10000088401C1A4A10801A48455402E00020F1
:101A2000174908801848008800F4805010B34FF41C
:101A300080761248007840B9114800884D2804D1BA
:101A400046F0040601200D4908706A4631460F48E9
:101A5000006800F0C3FE0446012C0AD100BF0098C4
:101A600030B120070A490860BFF34F8FBFF36F8F73
:101A700000BF00BFF8BD0000004C00403C0000204B
:101A80003A00002094010020200000201C000020CB
:101A900004ED00E038B50020009040F225511548D3
:101AA00000F0B6F858B1134800F06CF9C5B212480E
:101AB00001880088401C104A1080104845546A462E
:101AC00004210F48006800F089FE0446012C0AD169
:101AD00000BF009830B120070A490860BFF34F8F5C
:101AE000BFF36F8F00BF40F22551024800F06CF841
:101AF00038BD000000100140440000205C020020BE
:101B00002400002004ED00E010B540F22551084803
:101B100000F07EF858B1064800F034F9C4B2054828
:101B200001880088401C034A10800348445410BDBB
:101B30000044004038000020CC00002038B51D4D86
:101B400000200090002440F224411B4800F060F87F
:101B500050B319480088C0B200901748001D008893
:101B6000C0B2009000211548FEF74BFF13482838FB
:101B7000C06AC0F1FF00C0B2009000BF04E010488E
:101B8000005D2855601CC4B29DF800008442F6DB5D
:101B90009DF8000085F8FF00FF210848FFF71EF8B8
:101BA00001210648FEF72DFF10210648FFF7CBF86C
:101BB00000BF38BD240300200048004028600240D8
:101BC000240500200008024010B50022002340F642
:101BD0006A14A14200D100BF0A1201249440A3B2AA
:101BE000DC43048010BD21B1828942F4005282811D
:101BF00004E082894DF6FF731A40828170471AB162
:101C0000838A0B43838202E0838A8B4383827047FB
:101C100070B50246002400230025002040F66A1615
:101C2000B14200D100BFC1F3421501F01F030126EC
:101C300006FA03F3012D02D19689334006E0022D06
:101C400002D1168A334001E0968A33400C120126F5
:101C500006FA04F41688344013B10CB1012000E0F8
:101C6000002070BDF0B503460024002600250020AA
:101C700040F66A17B94200D100BF1846C1F34214BA
:101C800001F01F06012707FA06F5012C01D10C30DF
:101C900004E0022C01D1103000E014301AB10768C2
:101CA0002F43076002E00768AF430760F0BD000004
:101CB0002DE9FF4705460E460024A14600BFA04679
:101CC000B08900B100BF2C8A24F44054F08804434A
:101CD0002C82AC8941F20C608443B088318908437E
:101CE000718908430443AC81AC8A24F44074B08900
:101CF0000443AC826846FFF7FDFB2048854202D0D2
:101D00001F48854202D1DDF80C9001E0DDF8089013
:101D1000A88900F4004040B109EBC90000EB0910AC
:101D200031684900B0FBF1F707E009EBC90000EBAF
:101D3000091031688900B0FBF1F76420B7FBF0F0BF
:101D400004012009642101FB1078A88900F40040F7
:101D500040B1322000EBC800B0FBF1F000F007000A
:101D6000044308E0322000EB08106421B0FBF1F0DE
:101D700000F00F0004432C81BDE8FF8700100140F4
:101D80000014014001468888C0F30800704700BF76
:101D9000FEE7000010B596B0044601210220FFF7CF
:101DA00079FB01218804FFF785FB07220A214A48B5
:101DB000FEF7A4FF07220B214748FEF79FFF4FF4D1
:101DC0004060149002208DF854008DF855000020DA
:101DD0008DF8560001208DF8570014A93E48FEF7F3
:101DE00045FF10940020ADF84400ADF84600ADF872
:101DF0004800ADF84C000C20ADF84A0010A9374857
:101E0000FFF756FF01213548FFF7EDFE0121480598
:101E1000FFF740FB3248FEF7FFFD00BF3048FEF7FA
:101E2000A7FE0028FAD14FF0006001902B48001D5A
:101E300002902C48039000200490FF200590002081
:101E400006904FF4806007900020089009904FF4AE
:101E500080700A9000020B9000200C9003200D90DF
:101E600000200E900F9001A91D48FEF78BFE002266
:101E700040F226611948FFF7F5FE002240F2255195
:101E80001648FFF7EFFE012240F224411348FFF706
:101E9000E9FE27208DF8000001208DF801000320C5
:101EA0008DF8020001208DF803006846FFF754FA10
:101EB000012240210948FFF7A2FE01210748FFF750
:101EC00092FE01210648FEF79CFD4FF48071064802
:101ED000FEF705FC16B010BD0004024000480040AB
:101EE00028600240240500202403002030380A28FE
:101EF00001D2012070470020704700BF70470000EA
:101F000070B504460420FFF75DFC0C4804702546BC
:101F10004FF47A7045430120094908804FF0E020D2
:101F2000006940F002004FF0E02108610846456179
:101F3000006940F00100086170BD0000340000201D
:101F40003600002070B5034600224FF0E026756988
:101F50000D4E367803FB06F44FF0E026B16910E031
:101F60004FF0E026B06988420BD0884202D20E1AA8
:101F7000324402E02E1A0E4432440146A24200D3FB
:101F800000E0EDE700BF70BD3400002030B504462E
:101F9000002504E04FF47A70FFF7D4FF6D1CA542D2
:101FA000F8D330BD00BF054A128802F04002002A73
:101FB000F9D0C2B2014B9A80704700000010014076
:101FC0002DE9F04705460E46144614B90020BDE839
:101FD000F08700210846691A76EB00000DDBA14668
:101FE00004EBD9704010471946EBE07122464FEAE6
:101FF000E4733846FEF7A1F9E9E7A24604EBDA708C
:1020000040102F1A66EBE07122464FEAE47338461F
:10201000FEF793F9DBE700001CB54FF44070FFF7C3
:10202000D7F9A820FFF76CFF3220FFF7AFFFFEF7CC
:10203000E3FD40F22B1144F61F00FFF721FC4FF4A3
:10204000E13000F003F9FFF765F94FF49650FFF720
:10205000A1FEFFF7C7F9FFF73BF9FFF717F940209B
:10206000FEF7E2FF1CE04020FEF7E9FF88B901A976
:102070004020FEF7FAFF0BA00199FEF783F96A46AC
:102080000A214020FFF739F80BA00099FEF77AF9F2
:1020900002E00DA0FEF776F94FF47A70FFF776FFB5
:1020A000E1E7000042757320566F6C746167653A12
:1020B000202564206D560A00506F7765723A2025FE
:1020C00064206D570A000000494E41323236206EBE
:1020D0006F7420666F756E64210A00002DE9F0416F
:1020E00004460F4615464FF00008A66B206C48B911
:1020F000206800282CD1A06800F038FD8046002020
:10210000A06025E07DB93946226C6068FEF770FA60
:10211000216C606808446060D4E90101884217D3EB
:102120002068606014E03946226CE068FEF760FACF
:10213000216CE068411AE1602168E068884203D2BE
:10214000216CA068411AE160022D01D106B1761E12
:10215000701CA0634046BDE8F0810000F1B5009816
:10216000846C00262CB940F6E83223A127A0FEF7A4
:1021700009F9A06BE16B884201D2012000E0002048
:1021800028B940F6E9321CA120A0FEF7FBF8A06BAD
:10219000E16B88422DD294F94550002269462046D1
:1021A000FFF79CFF0646681C60B9606A08B9012009
:1021B00000E00020E0B904F1240000F057FDB8B1C0
:1021C000012615E000F0AEF80746BD420FD27F2D84
:1021D00001D0012000E0002028B940F6094206A104
:1021E0000AA0FEF7CFF8681C40B284F8450000BF93
:1021F00000BF3046F8BD00002E2E5C467265655269
:10220000544F535C71756575652E63004572726F2E
:10221000723A2025732C2025640D0A0009480068B5
:10222000006808B9012000E0002020B14FF0FF3025
:102230000549086005E003480068C0680068024975
:10224000086070475C0000208800002010B588B04E
:10225000044601210846FFF71DF901211020FFF770
:1022600039F9072209212348FEF748FD07220A21F0
:102270002048FEF743FD4FF4C060069002208DF821
:102280001C008DF81D0000208DF81E0001208DF827
:102290001F0006A91748FEF7E9FC02940020ADF8DC
:1022A0000C00ADF80E00ADF81000ADF814000C20D5
:1022B000ADF8120002A91048FFF7FAFC01210E4800
:1022C000FFF791FC012240F225510B48FFF7CAFCB1
:1022D00025208DF8040006208DF8050000208DF8DB
:1022E000060001208DF8070001A8FFF735F808B0B7
:1022F00010BD0000000002400010014001460A69C4
:10230000D1E901309860D1E90103586050688842F2
:1023100001D188685060002008611068401E10607C
:10232000106870470148006870470000680000208E
:1023300070B504460D462946204600F0DBF970BD15
:1023400010B500BF502080F31188BFF34F8FBFF34B
:102350006F8F00BF0B480068401C0A4908600846A0
:10236000006801280DD108480068C0B208B90120F2
:1023700000E0002028B940F2B91204A10EA0FEF737
:1023800001F810BDB400002004ED00E02E2E5C46E4
:1023900072656552544F535C706F727461626C6504
:1023A0005C525644535C41524D5F434D34465C7021
:1023B0006F72742E630000004572726F723A2025AE
:1023C000732C2025640D0A0010B50B48006828B94D
:1023D0004FF4E07209A114A0FDF7D4FF064800688D
:1023E000401E054908600846006820B9002080F3B7
:1023F000118800BF00BF10BDB40000202E2E5C4627
:1024000072656552544F535C706F727461626C6593
:102410005C525644535C41524D5F434D34465C70B0
:102420006F72742E630000004572726F723A20253D
:10243000732C2025640D0A0070B5FDF759FF054681
:10244000102D11D305F1E02090F8F04310480078EA
:10245000844201DB012000E0002028B940F24D3227
:102460000CA117A0FDF78EFF1948006800F4E0608A
:1024700018490968884201D8012000E0002028B9E5
:1024800040F25D3203A10EA0FDF77CFF70BD00009D
:10249000C40000202E2E5C4672656552544F535C7A
:1024A000706F727461626C655C525644535C415249
:1024B0004D5F434D34465C706F72742E63000000B4
:1024C0004572726F723A2025732C2025640D0A0024
:1024D0000CED00E0C800002070B505460E463948F6
:1024E000006808B1012000E0002028B940F6AC42A5
:1024F00035A13AA0FDF746FF46F000402860EC68A1
:102500002CB940F6B44230A134A0FDF73BFF286956
:10251000D5E901219160D5E9011251604168A942D4
:1025200001D1A9684160002129610168491E01604B
:10253000FFF774FE6069D4E902128A60D4E90221CF
:102540004A60211D42688A4201D1E168416000224F
:1025500062610168491E016094F82C1001208840D6
:1025600022490968084321490860E16A01EB8101B9
:102570001F4A02EB81014868A0608268E260211D69
:10258000826851608160E16A01EB8101184A02EBC7
:1025900081026261E16A01EB8101154A52F8211062
:1025A000491CE26A02EB8202114B43F822101149E6
:1025B000E06A0968C96A884202D901200E490860A8
:1025C00070BD0000940000202E2E5C46726565529E
:1025D000544F535C7461736B732E63004572726F5A
:1025E000723A2025732C2025640D0A00700000200B
:1025F00024060020580000207C00002002480068CB
:10260000401C0149086070479400002010B528481C
:10261000006818B101202749086047E000202549DB
:102620000860254800682549086008460068244974
:10263000096888420BD92349096801F15400496DA2
:102640001E4A12681E4B1B68D21A114401601B48B7
:1026500000681B4908601C480068B0FA80F0C0F1AF
:102660001F0404EB8400194951F8200008B101202F
:1026700000E0002028B940F6F63215A119A0FDF7B8
:1026800081FE04EB8401114A02EB81004168496834
:10269000416000F1080142688A4202D141684968FC
:1026A00041604168C968074A116000BF10BD000061
:1026B000940000207C000020000000209C000020EE
:1026C0009800002058000020700000202406002000
:1026D0002E2E5C4672656552544F535C7461736B69
:1026E000732E63004572726F723A2025732C202579
:1026F000640D0A002DE9FE4F074688460020019030
:102700003C4600902FB940F2222229A12FA0FDF7CC
:1027100039FE08F07F4008B9012000E0002028B908
:1027200040F2232222A129A0FDF72CFE04F1040986
:1027300009F108000290FFF761FFD9F80C602068EA
:1027400040EA0800206026E0D6F804B03568002092
:10275000009005F07F4A25F07F450AF0806028B997
:102760002068284040B10120009005E02068284002
:10277000A84201D101200090009858B10AF0807061
:1027800010B1019828430190206840F00071304654
:10279000FFF7A2FE5E4602988642D5D120680199D5
:1027A0008843206000F002FB2068BDE8FE8F000037
:1027B0002E2E5C4672656552544F535C6576656E8D
:1027C000745F67726F7570732E6300004572726F6D
:1027D000723A2025732C2025640D0A002DE9F04162
:1027E00004460D46164633462A462146034800F065
:1027F000A5FB07463846BDE8F081000031230008FC
:1028000010B500BF502080F31188BFF34F8FBFF386
:102810006F8F00BF00F0C0F818B14FF0805004492E
:10282000086000BF002080F3118800BF10BD0000C9
:1028300004ED00E02DE9FC5F81468B4615461E46FF
:102840004C462CB940F2234242A147A0FDF79AFD25
:10285000BBF1000F01D1206C08B9012000E000207D
:1028600028B940F224423BA13FA0FDF78BFD022E88
:1028700002D1E06B012801D1012000E0002028B93D
:1028800040F2254233A138A0FDF77CFDFFF7D4FDCF
:1028900000BF5020EFF3118180F31188BFF34F8FF9
:1028A000BFF36F8F00BF0F46A06BE16B884201D36F
:1028B000022E45D194F94580A06B019032465946CD
:1028C0002046FFF70BFC08F10100E8B9A06C60B1ED
:1028D000022E02D1019800282FD12046FFF73EFC9E
:1028E00058B355B30120286027E0606A08B9012079
:1028F00000E0002008BB04F1240000F0B7F9E0B1CB
:10290000DDB10120286018E0FFF70CFD0090009871
:10291000804511D2B8F17F0F01D0012000E00020E6
:1029200028B940F2AE420BA10FA0FDF72BFD08F134
:10293000010040B284F8450000BF4FF0010A01E0F9
:102940004FF0000A00BF87F3118800BF5046BDE872
:10295000FC9F00002E2E5C4672656552544F535CFE
:1029600071756575652E63004572726F723A202528
:10297000732C2025640D0A000549096809B9012056
:1029800005E00449096809B9022000E00020704709
:1029900074000020940000202DE9F0414FF0000861
:1029A0005E48006800287DD15D480068451C5C4891
:1029B0000560EDB95B480068006808B9012000E0D7
:1029C000002028B940F6B72257A15CA0FDF7DAFC39
:1029D000544807685D480068524908605B480760D2
:1029E0005B480068401C5A490860FFF717FC00BFAD
:1029F00058480068854277D300BF4A48006800689D
:102A000008B9012000E0002020B14FF0FF3051490B
:102A1000086068E043480068C068C4686668B542FA
:102A200002D24C4806605EE06069D4E902128A6016
:102A3000D4E902214A60211D42688A4201D1E1683D
:102A40004160002262610168491E0160A06A98B17C
:102A5000A06AD4E907128A60D4E907214A6004F128
:102A6000180142688A4201D1216A41600022A262B3
:102A70000168491E016000BF94F82C1001208840B5
:102A800035490968084334490860E16A01EB81016E
:102A9000324A02EB81014868A0608268E260211D31
:102AA000826800E032E051608160E16A01EB8101FF
:102AB0002A4A02EB81026261E16A01EB8101274A45
:102AC00052F82110491CE26A02EB8202234B43F8C0
:102AD00022102349E06A0968C96A88428DD94FF0FB
:102AE00001088AE700E000BF1D480068C06A00EBEB
:102AF00080001A4951F82000012801D94FF001083F
:102B00001848006808B14FF0010804E01648006852
:102B1000401C154908604046BDE8F0819400002043
:102B20006C0000205C0000202E2E5C467265655211
:102B3000544F535C7461736B732E63004572726FF4
:102B4000723A2025732C2025640D0A0060000020B5
:102B50008000002088000020700000202406002053
:102B6000580000207C0000207800002070B5054649
:102B70002C460026002D5ED030480068844201D1EA
:102B8000012000E0002028B941F248022CA131A028
:102B9000FDF7F8FB206D28B941F2490228A12DA0CC
:102BA000FDF7F0FB206D401E2065E16CE06A884275
:102BB00041D0206D00283ED1201DFFF79FFB40B97A
:102BC00094F82C1001208840264909688143254843
:102BD0000160E06CE062E06AC0F12000A06194F85E
:102BE0002C10012088401F49096808431D490860CE
:102BF000E16A01EB81011C4A02EB81014868A06097
:102C00008268E260211D826851608160E16A01EBA7
:102C10008101154A02EB81026261E16A01EB8101E7
:102C2000114A52F82110491CE26A02EB82020E4B53
:102C300043F822100126304670BD000058000020E5
:102C40002E2E5C4672656552544F535C7461736BF3
:102C5000732E63004572726F723A2025732C202503
:102C6000640D0A00700000202406002070B506469E
:102C7000F068C4682CB940F674423DA141A0FDF74C
:102C800081FBA06AD4E907128A60D4E907214A606F
:102C900004F1180142688A4201D1216A4160002290
:102CA000A2620168491E01603A48006800283FD1CD
:102CB0006069D4E902128A60D4E902214A60211DC8
:102CC00042688A4201D1E168416000226261016884
:102CD000491E016094F82C10012088402E49096893
:102CE00008432D490860E16A01EB81012B4A02EBA0
:102CF00081014868A0608268E260211D826851609D
:102D00008160E16A01EB8101244A02EB8102626188
:102D1000E16A01EB8101214A52F82110491CE26A63
:102D200002EB82021D4B43F82210FFF777FA10E006
:102D30001B494868E0618268226204F118018268D8
:102D400051608160164AA26211460968491C1160EF
:102D500000BF1449E06A0968C96A884204D901259C
:102D600001201149086000E00025284670BD0000E0
:102D70002E2E5C4672656552544F535C7461736BC2
:102D8000732E63004572726F723A2025732C2025D2
:102D9000640D0A009400002070000020240600202A
:102DA000CC080020580000207C00002070B50024D2
:102DB00000265048006828B940F685024EA153A06D
:102DC000FDF7E0FAFFF7BCFA4A480068401E49499F
:102DD00008600846006800287ED150480068002836
:102DE0007AD05BE04E48C068C468A06AD4E9071294
:102DF0008A60D4E907214A6004F1180142688A42D6
:102E000001D1216A41600022A2620168491E01606D
:102E10006069D4E902128A60D4E902214A60211D66
:102E200042688A4201D1E168416000226261016822
:102E3000491E016094F82C10012088403949096826
:102E4000084338490860E16A01EB8101364A02EB28
:102E500081014868A0608268E260211D826851603B
:102E60008160E16A01EB81012F4A02EB810262611C
:102E7000E16A01EB81012C4A52F82110491CE26AF7
:102E800002EB8202284B43F822102849E06A0968C5
:102E9000C96A884202D30120254908602048006899
:102EA00008B9012000E0002000289BD00CB1FFF7FA
:102EB000B5F92048056865B100BFFFF76DFD10B199
:102EC00001201B4908606D1E002DF6D10020194914
:102ED00008601748006800E008E038B101263007B4
:102EE00015490860BFF34F8FBFF36F8FFFF76CFA80
:102EF000304670BD940000202E2E5C4672656552EF
:102F0000544F535C7461736B732E63004572726F20
:102F1000723A2025732C2025640D0A0068000020D9
:102F2000CC0800207000002024060020580000205B
:102F30007C0000207800002004ED00E02DE9FF4136
:102F400004460D4616461F466FF00100009001949E
:102F50000295039600233A46694604480068FFF745
:102F600069FC8046404604B0BDE8F081A80000201E
:102F70004FF04070E1EE100A7047040000080000B6
:102F8000000000000002000100001000AC2F00084B
:102F900000000020CC000000C401000878300008C8
:102FA000CC0000209C3A0000E00100080000000076
:102FB0000000000000000000000000000000000011
:102FC0000000000000000000000000000000000001
:102FD00000000000000000000000000000000000F1
:102FE00000000000000000000000000000000000E1
:102FF00000000000000001020304010203040607B0
:1030000008090000000000000000000000000000AF
:1030100000000000000000000000000000000000B0
:1030200000000000000000000000000000000000A0
:103030000000000000000000000000001F00000071
:103040000000000000000000000000000000000080
:103050000000000000000000000000000000000070
:10306000AAAAAAAA000000000000000000000000B8
:08307000000000000000000058
:040000050800018965
:00000001FF
