:020000040800F2
:10000000F89D0020D5030008253400080D2F0008B6
:100010002134000885210008054500080000000083
:1000200000000000000000000000000015030008B0
:10003000B92A00080000000071030008013F000811
:10004000EF030008EF030008EF030008EF030008C8
:10005000EF030008EF030008E52B0008EF0300089A
:10006000EF030008EF030008EF030008EF030008A8
:10007000EF030008EF030008EF030008EF03000898
:10008000EF030008EF030008EF030008EF03000888
:10009000EF030008EF030008EF030008EF03000878
:1000A000EF030008EF030008EF030008EF03000868
:1000B000793F0008B53F0008EF030008EF03000890
:1000C000EF030008EF030008EF030008EF03000848
:1000D000EF030008D14100084542000879420008BA
:1000E000EF030008EF030008EF030008EF03000828
:1000F000EF030008EF030008EF030008EF03000818
:10010000EF030008EF030008EF030008EF03000807
:1001100059410008EF030008EF030008EF0300084F
:10012000EF030008EF030008EF030008EF030008E7
:10013000EF030008EF030008EF030008EF030008D7
:10014000EF030008EF030008EF030008EF030008C7
:10015000EF030008EF030008EF030008EF030008B7
:10016000EF030008EF030008EF030008EF030008A7
:10017000EF030008EF030008EF030008EF03000897
:10018000EF030008EF03000800F002F800F0B2F8F7
:100190000AA090E8000C82448344AAF10107DA45E2
:1001A00001D100F0A7F8AFF2090EBAE80F0013F082
:1001B000010F18BFFB1A43F00103184708DE0000C7
:1001C00028DE00000A444FF0000C10F8013B13F049
:1001D000070408BF10F8014B1D1108BF10F8015BA0
:1001E000641E05D010F8016B641E01F8016BF9D193
:1001F00013F0080F1EBF10F8014BAD1C0C1B09D1EA
:100200006D1E58BF01F801CBFAD505E014F8016B5B
:1002100001F8016B6D1EF9D59142D6D370470000ED
:100220000023002400250026103A28BF78C1FBD8FF
:10023000520728BF30C148BF0B6070476E2900F0DD
:10024000E584702900F0058266290DF03384652964
:100250000DF0308467290DF02D8461290DF02C8478
:1002600003681B0A28BF41F08001692900F07681EC
:10027000642900F07381752900F070816F2900F006
:10028000EB87782900F0D181E92900F08587E429FE
:1002900000F08287F52900F07F87EF2900F0E887DA
:1002A000F82900F0D0810368DB0928BF41F0800104
:1002B000632900F0F486732900F0F986E32901F040
:1002C000F781F32901F0FC81002070471FB50DF084
:1002D000ECFB00F0D7FF0400002000210CF0B2FD81
:1002E000401C6060002000210CF096FDE0601FBD06
:1002F00010B510BD01F07EFA1146FFF7E7FF07F0D9
:100300003BFB01F0A5FA03B4FFF7F2FF03BC05F0D5
:10031000D2F800002C4B19680868B0E8F04F80F361
:100320000988BFF36F8F4FF0000080F3118870478A
:100330000000000008480068006880F308884FF05B
:10034000000080F3148862B661B6BFF34F8FBFF32D
:100350006F8F00DF00BF00BF08ED00E0DFF80C008A
:10036000016841F470010160704700BF88ED00E052
:10037000EFF30980BFF36F8F134B1A681EF0100F55
:1003800008BF20ED108A20E9F04F106009B44FF04B
:10039000500080F31188BFF34F8FBFF36F8F0BF0C6
:1003A00007F84FF0000080F3118809BC196808684D
:1003B000B0E8F04F1EF0100F08BFB0EC108A80F3C9
:1003C0000988BFF36F8F7047C8000020EFF30580E6
:1003D000704700000948804709480047FEE7FEE7EC
:1003E000FEE7FEE7FEE7FEE7FEE7FEE7FEE7FEE7E5
:1003F00004480549054A064B70470000113F0008B4
:1004000089010008F86B0020F89D0020F86D00209D
:10041000F86D0020704710B54C1084EA530404D5E1
:100420004042C1F1000138BF491E1B4204D552426F
:10043000C3F1000338BF5B1E00F0FBFA14F0804FDD
:1004400004D04042C1F1000138BF491E14F0004FF2
:1004500004D05242C3F1000338BF5B1E10BD000040
:100460000FB4044910B503AA029800F025FE10BC91
:100470005DF814FB700000200FB4044910B503AA06
:10048000029800F019FE10BC5DF814FB700000200B
:100490000FB41CB5084B06AA7B446946009005982A
:1004A00000F0DBFD04460020694600F0E9FD20462F
:1004B0001CBC5DF814FB0000E50B000070B50446A1
:1004C00085690068C10601D5302600E02026C007F6
:1004D00007D070BDD4E9012130469047206A401C06
:1004E00020626D1EF6D570BD70B504468569007832
:1004F000C00707D170BDD4E9012120209047206AB0
:10050000401C20626D1EF6D570BD70B50C460546C8
:10051000012A05D02878800600D5EA69002302E088
:10052000012305E05B1C934202D2E05C0028F9D174
:10053000A869E618C01AA861286A184428622846E3
:10054000FFF7BCFF04E0D5E9012114F8010B904747
:10055000B442F8D32846FFF7C7FF70BD2DE9F0413C
:100560000646002410687529314616A510D000F003
:10057000E2FA002802DA404213A507E031688A0750
:1005800001D512A502E0490704D511A5012401E017
:1005900000F0DAFA00210A2206F1240709E0B0FB94
:1005A000F2FCB0FBF2F302FB1C003030785418462A
:1005B000491C0028F3D123462A463046BDE8F041C5
:1005C00000F0CBBA000000002D0000002B0000005E
:1005D00020000000F0B40D460188090502D5214C29
:1005E0007C4402E01F4C7C440E34002100F12406C0
:1005F00008E002F00F071209E75D42EA03721B09E7
:100600007754491C52EA0307F3D1027800231207FA
:1006100004D5702D06D009B1022311342246F0BC56
:1006200000F09BBA01231034F8E770B504460D467C
:100630002146106800F088FA024629462046BDE8A7
:1006400070400023C6E7D21D22F00703D3E9002340
:10065000C0E70368126843F0200303600823C36106
:100660000023B7E7C8D700002DE9F05F89460446AC
:100670004FF0000ADFF874B1FB44C0F820A0204618
:10068000E1688847002874D0252806D0D4E90121E4
:100690009047206A401C2062F1E700265F46204612
:1006A000E16888472028054607DB312D05D27819F7
:1006B00010F8200C08B10643F1E7B00701D526F089
:1006C0000406C4F81CA00027C4F818A02A2D09D0DD
:1006D000284604F0E9FE38B304EB8708303DC8F83B
:1006E000185019E059F8041B204604EB8702916169
:1006F000E1688847012F054618D1E069002820DA13
:1007000026F020061DE0D8F8180000EB800005EB6D
:1007100040003038C8F818002046E1688847054690
:1007200004F0C2FE0028EED1012F0AD02E2D08D1F0
:100730002046E16888477F1C0546022F46F02006C8
:10074000C4DBA069002803DA404246F00106A0613C
:10075000F00701D026F010066C2D0BD0682D09D0C3
:100760004C2D39D06A2D35D0742D35D07A2D33D01B
:1007700016E038E0E1682F4620468847B842054633
:1007800009D16C2F26D04FF48060E16806432046E3
:100790008847054604E06C2F1AD04FF4807006435A
:1007A0000DB3A5F14100192802D8203546F40066A2
:1007B0004A462946204626604E46FFF73FFD80B157
:1007C00001280BD0F61D26F0070000F1080956E7B6
:1007D0004020E4E78020D8E70020D6E706F10409AE
:1007E0004DE7284652E7206ABDE8F09F58D7000041
:1007F00030B505460B462A4613F8014B12F8010B9B
:1008000008B1A042F8D01CB1002802D06D1CF1E75D
:10081000284630BD40EA0103024630B59B0710D19F
:100820004FF0013400E008C208C91D1B9D4315EAC2
:10083000C41FF8D013F0FF0102F8011B0DD01B0AF2
:10084000F8E711F8013B002B02F8013B05D011F845
:10085000013B002B02F8013BF3D130BD10B5431C26
:1008600002E010F8011B71B18107FAD14FF001329B
:1008700002C88C1A8C4314EAC211F9D0C01A0A06B5
:1008800003D0C01E10BDC01A10BD0A0401D0801EC6
:1008900010BD0902FCD0401E10BD032A40F230807A
:1008A00010F0030C00F0158011F8013BBCF1020FB1
:1008B000624498BF11F801CB00F8013B38BF11F832
:1008C000013BA2F1040298BF00F801CB38BF00F849
:1008D000013B11F0030300F02580083AC0F00880C6
:1008E00051F8043B083A51F804CBA0E80810F5E7AA
:1008F000121D5CBF51F8043B40F8043BAFF300808D
:10090000D20724BF11F8013B11F801CB48BF11F801
:10091000012B24BF00F8013B00F801CB48BF00F8D1
:10092000012B704710B5203AC0F00B80B1E8185089
:10093000203AA0E81850B1E81850A0E81850BFF4C9
:10094000F5AF5FEA027C24BFB1E81850A0E8185068
:1009500044BF18C918C0BDE810405FEA827C24BFBC
:1009600051F8043B40F8043B08BF7047D20728BF4A
:1009700031F8023B48BF11F8012B28BF20F8023B99
:1009800048BF00F8012B704702F0FF0343EA03223F
:1009900042EA024200F002B84FF000020429C0F01F
:1009A000128010F0030C00F01B80CCF1040CBCF1A1
:1009B000020F18BF00F8012BA8BF20F8022BA1EBF3
:1009C0000C0100F00DB85FEAC17C24BF00F8012BD8
:1009D00000F8012B48BF00F8012B70474FF00002D0
:1009E00000B5134694469646203922BFA0E80C5025
:1009F000A0E80C50B1F12001BFF4F7AF090728BF00
:100A0000A0E80C5048BF0CC05DF804EB890028BF7B
:100A100040F8042B08BF704748BF20F8022B11F0A4
:100A2000804F18BF00F8012B704770477047704720
:100A3000704753EA020C00F069802DE9F04B4FF04B
:100A40000006002B1FBFB3FA83F503FA05F424FA5E
:100A500005F65E4012BF1643B2FA82F502FA05F4BB
:100A6000C5F120051EBF22FA05FC44EA0C0420351E
:100A700056EA044C4FEA144418BF641C4FF00008B7
:100A80004FF00009904271EB030C39D3002919BFD4
:100A9000B1FA81F701FA07F6B0FA80F700FA07F623
:100AA000C7F120071EBF20FA07FC46EA0C062037D4
:100AB000B6FBF4FCA7EB0507103F07F01F0BCBF1CB
:100AC00020060CFA0BFB2CFA06F644BFB3460026B0
:100AD000202FA4BF5E464FF0000B5BEA060C08BF58
:100AE0004FF0010B19EB0B09ABFB027C48EB06083E
:100AF000C01B06FB02CC0BFB03CC71EB0C01C1E766
:100B00000B46024641464846BDE8F08B13B54FF010
:100B100000004FF00001AFF30080BDE81C407047BB
:100B200010B500F0B3FB006810BD10B5044600F02E
:100B3000ADFB046010BD09684A0501D540B270479D
:100B4000C905FCD500B2704709684A0501D5C0B295
:100B50007047C905FCD580B270472DE9F0470D46B6
:100B600099469246044600F124080168880604D597
:100B7000E06921F01001216000E00120A84201DDC0
:100B8000471B00E00027A1697A1902EB0900081A47
:100B9000A0612078C00602D42046FFF78FFC002613
:100BA00008E0D4E901211AF806009047206A401CA9
:100BB000761C20624E45F4DB2078C0060AD520461C
:100BC000FFF77CFC06E0D4E9012130209047206A41
:100BD000401C2062381EA7F10107F4DC07E0D4E9CD
:100BE000012118F805009047206A401C2062281E49
:100BF000A5F10105F3DC2046FFF776FC207800061E
:100C000002D50220BDE8F0870120FBE711680268E9
:100C1000006A530501D508700AE0D30501D50880A4
:100C200006E0130603D5C217C1E9000200E0086020
:100C30000120704770472DE9FF4F0C461E464FF0CC
:100C4000FF378BB0D2E90001DDF860800A908A4658
:100C5000C1F30A5505B93D46002108464FF0000092
:100C6000BAF1000F00F4400005DA00EB80004FF409
:100C7000400101EA50004FEA9059B9F1010F00DD3F
:100C8000B9460A9850EA4A000ED044F61050A5F230
:100C9000FF3545432F14B8F1000F1ED07542291EB1
:100CA0001EDDC9F100021CE0B8F1010F4FF0000099
:100CB00001D0302103E0F24305E02154401CB04252
:100CC000FBDB30460022002121540B99C1F808803B
:100CD000C1E900200FB0BDE8F08FBD1B6D1CDEE741
:100CE0004A4600DA694206A800F0EEFC06AB93E83B
:100CF000070003AB83E8070050460A9900F0EEFDB9
:100D00008DE80700A0F500501F3800900398002DD3
:100D100009DD42F21F014A46084403A903906846D0
:100D200001F04DF808E0A0F500504A461F3803A92D
:100D30000390684601F057F88DE807000004000CA6
:100D400003D04FF0FF30410800E01046B8F1000F2B
:100D500003D00022009215461EE0751E05D400F057
:100D600099FA303262556D1EF9D5B3460122084317
:100D700002D000227F1C04E02078302801D100221C
:100D80007F1E002A099786D01DE0112D07DA00F09A
:100D900081FA303262556D1C50EA0102F5D10843E8
:100DA00002D00098C8B10EE00021681E05E0235C67
:100DB000625C63542254401E491C8142F7DBAB46FF
:100DC000A81B401E0990002004F80B000B98099AFC
:100DD000C0F80880C0E9002B7CE711264FF000081E
:100DE00059E72DE9F04F88460446D21D22F007014D
:100DF00091B0D1E90001CDE90A0103F051FC0246AE
:100E00000B98C00F01D02D2007E02068810701D585
:100E10002B2002E0202101EAC000032A099001D022
:100E2000072A05DB03464146204600F0F7FB0BE1AD
:100E30002078800601D5E06900E00620B8F1650F52
:100E4000814606D0B8F1660F18D0B8F1670F70D19F
:100E500031E00020B9F1110F009001DB112301E016
:100E600009F101030AAA01A90CA8FFF7E4FEDDE9D4
:100E70000C70002609F10105834647E001204B462E
:100E800000904FF000470AAA01A90CA8FFF7D3FE73
:100E9000DDE90DB00C995D46002610B909F101009D
:100EA0000D18B9EB050003D4C0F1FF3609F10105B7
:100EB000A5EB09002BE0B9F1010F01DA4FF00109B0
:100EC0000020B9F1110F0090484601DD112300E028
:100ED00003460AAA01A90CA8FFF7ADFEDDE90C70D4
:100EE0004D4600268346207800070AD4AB4500DA39
:100EF0005D4601A8012D04DD411911F8011C3029BE
:100F000007D04F4502DA17F1040F04DA01208246B8
:100F10000FE06D1EEEE7002F02DCED1B3E4403E008
:100F2000781CA84200DD7D1CB81B00F1010A4FF0BF
:100F300000472078000703D4AA4501DB4FF0FF3AB1
:100F40000021B7F1004F0DF143088DF8431024D074
:100F500002202B23002F01DA7F422D230A21021EBB
:100F6000A0F1010000DC5FB197FBF1FC97FBF1F20F
:100F700001FB1C7C17460CF1300C08F801CDEEE7A4
:100F8000A8F1010003702188090501D5452100E081
:100F90006521A0F1010800F8011C09980FA9A1EB37
:100FA0000807FF1D00B10120411901EBEA70A1699A
:100FB0003844081A401EA0612078C00602D420469A
:100FC000FFF77CFA099828B1D4E901219047206AFB
:100FD000401C20622078C00622D52046FFF76EFA1A
:100FE0001EE0002E04DBB34502DD01A8805D00E0B9
:100FF0003020D4E901219047206A401C2062761CF1
:10100000AAF101005FEA000A0AD100F03BF9C068CA
:101010000168405CD4E901219047206A401C2062AD
:10102000281EA5F10105DCDC07E0D4E9012118F850
:10103000010B9047206A401C2062381EA7F101076F
:10104000F3DC2046FFF750FA032011B043E600001E
:1010500001694A1C02610878704700B58FB0CDE97C
:1010600001310021059105497944CDE9031011466C
:101070006846FFF7F9FA0FB000BD0000E5FFFFFF7B
:101080000A6802F8010B0A60704710B5436913B192
:10109000AFF3008001E0FFF738FA012010BD1278AD
:1010A00000F124010A7000224A700122EDE7116864
:1010B0004FF0FF32E9E70000074B70B50D467B4467
:1010C000FFF7CBFF0446284600F06CFB10B14FF051
:1010D000FF3070BD204670BD1B6000002DE9FF5F32
:1010E00015468A460446DFF8AC80F8440027D8E964
:1010F00000103E46CDE9001010E03AF816106A469E
:1011000002A800F053FB411C07D02178890603D5C3
:10111000E269391891420DD80744761C2078800680
:1011200002D5E069B84205DDAE42E6DB3AF81600CA
:101130000028E2D1A069C01BA0612046FFF7BEF9DC
:10114000D8E90010CDE90010002017E03AF8181097
:101150006A4602A800F02AFBB0F1FF3F81460BD09F
:1011600000250DF1080B05E0D4E901211BF805006D
:1011700090476D1C4D45F7D308F10100B042804601
:10118000E4DB206A384420622046FFF7ADF9BDE871
:10119000FF9F000082CD00002DE9F0418046D21D66
:1011A00022F007020025D2E90002F52915A614D085
:1011B000011E72F1000106DA0023D0EB030063EB9D
:1011C000020211A608E0D8F800108B0701D50FA67F
:1011D00002E0490701D50EA601251146002408F1B9
:1011E000240704E000F056F830323A55641C50EA07
:1011F0000102F7D12B46324621464046BDE8F04178
:10120000FFF7ABBC000000002D0000002B00000029
:101210002000000030B4002100F1240408E002F0B6
:101220000705D208303542EA4372DB086554491C91
:1012300052EA0305F3D10468002310A2250708D55C
:1012400004F020040C4304D0C46901230CA2641EE2
:10125000C46130BCFFF781BC10B50446214610685C
:10126000FFF772FC02462046BDE810400023D1E79C
:10127000D21D22F00701D1E90023CBE700000000D6
:101280003000000000487047B46B002000487047F1
:10129000946B002030B5B0F10A024FEA900E71F164
:1012A00000034EEA817EB0EB0E0061EB91014FEA44
:1012B000101E4EEA017E10EB0E0041EB11114FEAB9
:1012C000102E4EEA016E10EB0E0041EB11214FEA99
:1012D000104E4EEA014E10EB0E0041EB114140184A
:1012E00041F100014FEAD00040EA41704FEAD101DC
:1012F00010EB80054FEA810444EA907444EB01044A
:101300006D1944EB0404521BA3414FF0000348BF86
:101310000A3200D530BD401C41F1000130BD000053
:101320002DE9F04F04460D46D21D22F0070089B08A
:10133000D0E9009248461746394603F0B1F9024613
:10134000F80F01D02D2307E02068810701D52B235A
:1013500002E0202101EAC0038DF820300BB101200A
:1013600000E00020032A824601D0072A04DB294638
:10137000204600F053F93DE12078800601D40D2588
:1013800000E0E569C7F30A560D2D49DA00214FEA5E
:10139000175B08464FF00000002F00F4400007DA0A
:1013A00000EB80004FF4400100EBD07001EA6000D8
:1013B0008115012901DD4FF0FF3100224FEA850C34
:1013C000BCF1180F06D31346ACF118004FF0805251
:1013D000C24003E04FF4801323FA0CF30CF10C0C21
:1013E000BCF1200F04D3ACF1200C09FA0CF001E0A1
:1013F00007FA0CF000294FF0004801DD18B90FE0A2
:101400000ED140450CD319EB02095F4121B940458B
:1014100002D19F4329EA0209BBEB175F00D0761C7B
:101420002088000502D57B48784402E0794878445A
:10143000193808AA302302F80A30037C0AF10101A6
:10144000002E0AF1020A53546A4602DC4FF03001C2
:1014500001E04FF031014FF001088DF8001002D08B
:10146000A6F2FF3603E059EA470100D06A4E002D8C
:1014700002DC2178090704D54FF002082E218DF8EF
:101480000110C44600210BE0C7F303433F01C35CD6
:10149000491C6D1E02F80830052908F1010801DA1F
:1014A000002DF1DC00210CE000EB1973491C1B78C6
:1014B0006D1E082902F808304FEA091908F10108E1
:1014C00001DA002DF0DC2178890602D514E0A8F1BC
:1014D0000108E04505DD02EB080111F8011C302987
:1014E000F5D0B8F1000F07DD02EB080111F8011C7F
:1014F0002E2901D1A8F10108002D05DD3E2102F8B9
:1015000008106D1E08F10108407C002E02F808004A
:1015100008F1010804DA2D20764202F8080002E002
:101520002B2002F808000A214FF47A70864208F155
:1015300001080BDB96FBF0F3303302F8083096FB22
:10154000F0F308F1010800FB136601E0642E0CDBE8
:10155000642096FBF0F3303302F8083096FBF0F38A
:1015600008F1010800FB136601E00A2E06DB96FB7A
:10157000F1F0303002F8080008F1010896FBF1F0B4
:1015800001FB1060303002F80800A16908F1010881
:1015900008EB050202EB0A00081AA0612078C006D9
:1015A00002D42046FEF78AFF216A08AE01EB0A004A
:1015B000206204E0D4E9012116F8010B9047BAF14A
:1015C000010AF7D22078C00602D52046FEF776FF42
:1015D0006E4609E016F8010B3E280FD0D4E9012130
:1015E0009047206A401C2062B8F10108F2D22046E0
:1015F000FEF77AFF09B00320BDE8F08F206A284487
:10160000206203E0D4E90121302090476D1EEBD326
:10161000F8E7000067CA000002FCFFFF2DE9F04177
:101620001F46044603260168072A01F4006004DB14
:1016300008B116A505E016A503E008B115A500E060
:1016400015A521F010002060A069C01EA0610FB197
:10165000401EA0612046FEF731FF4FB1D4E90121C1
:1016600038469047206A401C2062C01C206206E079
:10167000206AFAE7D4E9012115F8010B9047761E9C
:10168000F8D22046FEF730FFBDE8F0814E414E0013
:101690006E616E00494E4600696E660010B5436982
:1016A00013B1AFF3008001E0FFF718FD012010BD7A
:1016B000128800F1240182840022C2840122EDE715
:1016C00011684FF0FF32E9E72DE9F04781461646F1
:1016D0008AB0334878440DC88DE80D00304878440E
:1016E000801C03AC0DC884E80D0041F69B30084413
:1016F000372190FBF1F290FBF1F5A5F1800501FB9C
:1017000012041B3C02D56442012000E00020DFF8F7
:1017100090A080460027FA44AAF1BE0A0DE0E00737
:1017200009D03246684607EB47010AEB810100F019
:101730005AFB8DE8070064107F1C002CEFD1184F76
:101740007F44AC3F18E0E80714D007EB04100DF11C
:10175000180A90E80E008AE80E00C068F04201D135
:1017600098190890324606A903A800F03CFB03AB89
:1017700083E807006D10641C002DE4D132466946F1
:10178000B8F1000F03A802D000F019FB01E000F04F
:101790002AFBC9E90001C9F808200AB0BDE8F087B2
:1017A0004CC80000007B00F08000704770B5164602
:1017B0000C46054600F044F8036893F8010101283F
:1017C00006D0FF2C0FD8185D68B101202C7070BDB9
:1017D000D3F807013246214603F207130344284693
:1017E000BDE8704018474FF0FF3070BD00487047AB
:1017F000946B00207546FFF7F9FFAE460500694679
:10180000534620F00700854618B020B5FEF7F0FDDE
:10181000BDE820404FF000064FF000074FF00008F1
:101820004FF0000B21F00701AC46ACE8C009ACE872
:10183000C009ACE8C009ACE8C0098D46704700009B
:1018400010B5FFF71FFD001D10BD00BFF9B500006A
:101850000446AFF300802046FEF755FD4FF0013CF3
:1018600050F8042B51F8043B9A4221D1A2EB0C030F
:10187000934313EACC1317D150F8042B51F8043BCF
:101880009A4215D1A2EB0C03934313EACC130BD16C
:1018900050F8042B51F8043B9A4209D1A2EB0C03F7
:1018A000934313EACC13DBD04FF00000704700BF26
:1018B000D01A01BAB1FA81F101F0180122FA01F04F
:1018C000CB40C1F12001DBB2C0B2C01A2CFA01F347
:1018D000D11A914311EAC311E6D170475FEA400C77
:1018E00008BF91F0000F4FEA8C234FEAC12243EA70
:1018F00051514FEA1C5018BF00F5F0404FEA30003C
:1019000018BF41F000415FEA6C5C00F02980BCF137
:10191000FF3F08BF40F080407047130C06BF120421
:101920004FF0100C4FF0000C130E04BF12020CF11C
:10193000080C130F04BF12010CF1040C930F04BF29
:1019400092000CF1020CD30F04BF52000CF1010CF9
:1019500011464FF00002A0F11F00A0EB0C007047F1
:1019600011F0004F08BF704731F000413FF4D5AF90
:101970000B0C06BF09044FF0100C4FF0000C0B0EBF
:1019800004BF09020CF1080C0B0F04BF09010CF194
:10199000040C8B0F04BF89000CF1020CCB0F04BFA9
:1019A00049000CF1010CCCF12003A0EB0C0022FA51
:1019B00003F302FA0CF241EA030100F1010070475F
:1019C00020F07F4C80EA030023F07F47ACEB070355
:1019D00003F57C5300F0004003F1FF032DE980493B
:1019E0004FEA154B09B44FEA144325EA0B4E24EA9B
:1019F00003480FF2042606EB132749083E785FEAF6
:101A0000320203FB0667C7F5000707FB06F64FEA3D
:101A100054374FEAD64606F1020607FB066CCCF1B6
:101A2000005C4FEA1C472CEA074C07FB06F40CFB52
:101A300006F504EB15464FEA961634BF00204FF02A
:101A400000404FEAD13706FB07FC4FEA1C4C0CFB69
:101A50000BF7D21B03FB0CF761EB07010CFB0EF736
:101A6000B0EB074072EB17420CFB08F734BFA2EB58
:101A70000742B2EB074261EB17414FEA0C444FEAD1
:101A8000910706FB07FC4FEA1C4C0CFB0BF7B0EB75
:101A9000C74072EB573203FB0CF734BFA2EBC742CF
:101AA000B2EBC74261EB57310CFB0EF7B0EBC7004E
:101AB00072EB57720CFB08F734BFA2EBC702B2EB14
:101AC000C70261EB5771039F4FEA816141EA9211AE
:101AD00004EBCC044FEAD1374FEA826206FB07FCE5
:101AE00042EA90124FEA80604FEA1C4C0CFB0BF765
:101AF000D21B03FB0CF761EB07010CFB0EF7B0EBFD
:101B0000074072EB17420CFB08F734BFA2EB074209
:101B1000B2EB074261EB17414FEA8C554FEA910750
:101B200004EB9C2406FB07FC4FEA1C4C0CFB0BF758
:101B3000B0EBC74072EB573203FB0CF734BFA2EB9C
:101B4000C742B2EBC74261EB57310CFB0EF7B0EB6B
:101B5000C70072EB57720CFB08F734BFA2EBC70249
:101B6000B2EBC70261EB577115EB4C254FEA81616F
:101B700041EA92114FEA82624FEAD13742EA90126B
:101B800006FB07FC44F100044FEA80604FEA1C4C5E
:101B90000CFB0BF7D21B03FB0CF761EB07010CFBF3
:101BA0000EF7B0EB074072EB17420CFB08F734BF9F
:101BB000A2EB0742B2EB074261EB174115EB1C1594
:101BC0004FEA813141EA92414FEA823242EA904241
:101BD0004FEA80304FEA0C7644F1000448EA0343B0
:101BE0004EEA0B484FF0000EB2EB080C71EB030706
:101BF00024BF624639464EEB0E0E4FF0000B001824
:101C0000524149414BEB0B0BB2EB080C71EB030754
:101C10007BF1000B24BF624639464EEB0E0E4FF0AF
:101C2000000B0018524149414BEB0B0BB2EB080C77
:101C300071EB03077BF1000B24BF624639464EEB84
:101C40000E0E51EA020718BF46F0010616EB0E769B
:101C500055F1000254F1000103D5BDE88901BDE84A
:101C60000088BDE88901BDE80048B619524141EB42
:101C70000101A3F10103704780807F7E7D7C7B7A28
:101C80007978777676757473727171706F6E6E6D28
:101C90006C6C6B6A6A6968686766666564646363CE
:101CA00062616160605F5F5E5E5D5D5C5C5B5B5A54
:101CB0005A595958585757565655555554545353C1
:101CC00052525251515050504F4F4F4E4E4D4D4D1C
:101CD0004C4C4C4B4B4B4A4A4A4949494848484767
:101CE00047474746464645454544444444434343A5
:101CF0004342424242414141002B26D4770021D049
:101D00001CB54FEA370703B44FF010004FF0100135
:101D10004FF000000FBCBDE810400BF1010BBBF110
:101D2000010F08BF5FEA170722BF12F1010211F18C
:101D300001014FF0004143F1000300F0004043EA8D
:101D400000007047F9D35708DAE746EA064613F170
:101D5000400F4FEA16461FDD13F1200FDFBF164379
:101D60000A46002120335B42C8D0C3F1200746EA6F
:101D7000064602FA07F74FEA164646EA0706C3F197
:101D8000200722FA03F201FA07F721FA03F14FF0D4
:101D9000000342EA0702B1E746EA020646EA0646BF
:101DA0004FEA164646EA0106BCBF46EA0646360C2E
:101DB0004FF000034FF000024FF000019EE72DE9C5
:101DC000C048934630B491E8380007C831EA400C67
:101DD00048BF34EA430C03D5FFF7F2FDFFF78CFF51
:101DE000F0BCBDE800882DE9C048934630B491E8C6
:101DF000380007C810F0804F08BF13F0804F03D1A0
:101E000000F005F8FFF778FFF0BCBDE8008820F08F
:101E10007F4780EA030023F07F4C07EB0C03A3F518
:101E20007C5300F00040A3F1FE0392F0000F00F09D
:101E3000B38095F0000F00F077802DE901494FEA5B
:101E400011404FEA144621EA004800FB06FC24EA50
:101E5000064708FB06F607FB08F800FB07F718EB38
:101E600006484CEB164C4FEA124B18EB07484FEA6A
:101E700015464CEB174022EA0B4E0BFB06FC25EAFD
:101E800006470EFB06F607FB0EFE0BFB07F71EEBE5
:101E9000064E4CEB164C4FF000061EEB074E4CEB7B
:101EA000174B18EB0B0840F1000018EB0E0B58EB2A
:101EB000000840F100008F1A4FF000013CBFC943F9
:101EC000661B14BFB5EB040C00213CBFC943F61BD5
:101ED0004FEA17444EEA8E0E27EA04454FEA1C47A4
:101EE00004FB07622CEA074C05FB07F70CFB05F621
:101EF00004FB0CFC16EB074642EB174216EB0C46B4
:101F000042EB1C421BEB060658EB0202414146EA3B
:101F10009E0601D5BDE80189B619524141EB010188
:101F2000A3F10103BDE801894FEA14454FEA1147C7
:101F300024EA054621EA074C05FB07F406FB07F7F0
:101F40000CFB06F105FB0CFC11EB074144EB1744BD
:101F50004FEA124711EB0C4144EB1C4422EA074CB8
:101F600005FB07F206FB07F70CFB06F605FB0CFC6E
:101F700016EB074642EB174216EB0C4642EB1C45AC
:101F80006A1854F1000148BF7047B619524141EB3D
:101F90000101A3F10103704795F0000F37D04FEA1C
:101FA00011424FEA144721EA024624EA074C02FB99
:101FB00007F106FB07F70CFB06F402FB0CFC14EB25
:101FC000074441EB17414FEA154714EB0C4441EB32
:101FD0001C4125EA074C02FB07F506FB07F70CFB43
:101FE00006F602FB0CFC16EB074645EB174516EB15
:101FF0000C4645EB1C42121951F1000148BF7047D5
:10200000B619524141EB0101A3F1010370474FEAB8
:1020100014454FEA114724EA054621EA074C05FB1F
:1020200007F106FB07F70CFB06F24FF0000605FB75
:102030000CFC12EB074241EB174112EB0C4251EB47
:102040001C4148BF7047921841EB0101A3F1010305
:102050007047000008B518A0FEF70EFA1C4801688A
:1020600040681C4AD2E9003259405040014321D116
:102070001748083801684068174B0CCB514058404E
:10208000014317D1002001231A46990200901348FA
:10209000006809F0ADFC124908600846008800F4A9
:1020A000806038B10FA0FEF7E7F920210B480068E7
:1020B00009F018FC08BD0000BDD3CAD5B5BD414329
:1020C0004BD0CD4D4143D6A1C1CB0D0A000000003D
:1020D0002902002018000020200000202C000020F1
:1020E00030000020BDD3CAD5B5BDC1CBD5FDC8B722
:1020F000B5C441434B0D0A000A46C3680BB9C26020
:102100007047C16800E009690B69002BFBD10A61C7
:1021100000BFF5E710B500240BE0601CC4B20A2C28
:1021200004D1002406A0FEF7A7F906E0322004F04F
:102130006DFE04F0B5FA0028EFD000BF10BD00001E
:10214000CEB4BCECB2E2B5BD626D703238300D0A6F
:102150000000000010B5044604A0FEF78DF94021F0
:102160000748006809F0BEFB10BD000042656163CE
:102170006F6EB7A2CBCDCAB1BCE4B5BD0D0A0000ED
:102180003C00002000BFFEE738B53CA0FEF774F924
:10219000404801684068404B0CCB514058400143D7
:1021A00047D00020012302464FF40C6100903B48C9
:1021B000006809F01DFC3A4908600846007800F004
:1021C0004000002831D00846007800F08000002848
:1021D0002BD034A0FEF750F94FF400612F4800686F
:1021E00009F038FB0AF008FA0446002003462246AC
:1021F00001210090344800680AF0A2FD33A0FEF7E8
:102200003BF92748008800F40060002834D10AF028
:10221000F3F904464FF0FF300023224602210090DC
:10222000294800680AF08CFD26E02BA0FEF724F96F
:1022300022E01848083801684068294AD2E900328B
:1022400059405040014317D1002001231A4659023A
:1022500000901248006809F0CBFB1149086008465D
:10226000008800F4007038B11EA0FEF705F90121C6
:102270000A48006809F036FB38BD0000BDD3CAD556
:10228000B5BD435453D0CD4D4143D6A1C1CB0D0A6A
:102290000000000029020020180000202C0000206F
:1022A00030000020BDD3CAD5B5BDC1CBB1F0B5C497
:1022B000BDDAB5E3B5C44354532CC7BFD6C6D0DD91
:1022C000C3DF0D0A00000000AC000020BFAAC6F466
:1022D000B6A8CAB10D0A0000B6AAC6FA0D0A0000D7
:1022E00020000020BDD3CAD5B5BDC1CBD5FDC8B730
:1022F000B5C44354530D0A00F0B507460C461546C5
:102300002946384600F044FCE06808B9E560F0BDB5
:10231000E66800E0366930690028FBD1356100BF0E
:10232000F5E710B5ADF5407D002401208DF8FC01E6
:102330000020ADF8FE015A208DF800029DF8FC0146
:102340008DF8F800BDF8FE01ADF8FA000620F42281
:1023500083A93D906846FEF7E5FA7FA80FC805F00F
:10236000ADFB0A2004F052FD16E0142004F04EFDEF
:102370000620F42283A93D906846FEF7D3FA7FA891
:102380000FC805F09BFB601CC4B2142C04DD0024B4
:1023900000200DF5407D10BD06213EA805F018FB7C
:1023A0000028E2D10120F4E710B50948FEF758F8FB
:1023B000002404E0002006490855601C84B205484A
:1023C00000888442F6DB00200249088010BD00002E
:1023D000C40900206E00002010B542F2CF01092090
:1023E00001F0FEFD00200149086010BD140000202E
:1023F00010B5ADF5407D002401208DF8FC010020D2
:10240000ADF8FE0101208DF800029DF8FC018DF869
:10241000F800BDF8FE01ADF8FA000320F42283A90C
:102420003D906846FEF77EFA7FA80FC805F046FB90
:102430000A2004F0EBFC16E0142004F0E7FC032073
:10244000F42283A93D906846FEF76CFA7FA80FC876
:1024500005F034FB601CC4B2142C04DD002408A079
:10246000FEF70AF805E003213EA805F0B1FA0028BE
:10247000E2D100BFBDF8FE000DF5407D10BD0000AB
:1024800070726563697069746174696F6E206572DA
:10249000726F72210D0A000010B5ADF5407D002469
:1024A00004208DF8FC010020ADF8FE0101208DF81C
:1024B00000029DF8FC018DF8F800BDF8FE01ADF8B2
:1024C000FA000320F42283A93D906846FEF72AFA19
:1024D0007FA80FC805F0F2FA0A2004F097FC16E076
:1024E000142004F093FC0320F42283A93D90684655
:1024F000FEF718FA7FA80FC805F0E0FA601CC4B216
:10250000142C04DD002408A0FDF7B6FF05E003212C
:102510003EA805F05DFA0028E2D100BFBDF8FE003C
:102520000DF5407D10BD0000526164696174696FF2
:102530006E206572726F72210D0A000030B5ADF524
:10254000417D044600258DF800420020ADF80202CE
:1025500002208DF804029DF800028DF8FC00BDF801
:102560000202ADF8FE000320F42284A93D906846E3
:10257000FEF7D8F980A80FC805F0A0FA0A2004F0E9
:1025800045FC19E0142004F041FC0320F42284A946
:102590003D906846FEF7C6F980A80FC805F08EFA90
:1025A000681CC5B2142D07DD00250AA0FDF764FFE5
:1025B00000200DF5417D30BD03213FA805F008FA4C
:1025C0000028DFD13FA80089BDF8021100EB0140CF
:1025D000EFE70000736F696C73656E736F7220654F
:1025E00072726F72210D0A0010B5ADF5407D0024A6
:1025F00003208DF8FC010020ADF8FE0101208DF8CC
:1026000000029DF8FC018DF8F800BDF8FE01ADF860
:10261000FA000320F42283A93D906846FEF782F970
:102620007FA80FC805F04AFA0A2004F0EFFB16E075
:10263000142004F0EBFB0320F42283A93D906846AC
:10264000FEF770F97FA80FC805F038FA601CC4B215
:10265000142C04DD002408A0FDF70EFF05E0032183
:102660003EA805F0B5F90028E2D100BFBDF8FE0094
:102670000DF5407D10BD000057696E6473446972AA
:10268000656374696F6E206572726F72210D0A0046
:1026900010B5ADF5407D002402208DF8FC0100202E
:1026A000ADF8FE0101208DF800029DF8FC018DF8C7
:1026B000F800BDF8FE01ADF8FA000320F42283A96A
:1026C0003D906846FEF72EF97FA80FC805F0F6F991
:1026D0000A2004F09BFB16E0142004F097FB032073
:1026E000F42283A93D906846FEF71CF97FA80FC825
:1026F00005F0E4F9601CC4B2142C04DD002408A029
:10270000FDF7BAFE05E003213EA805F061F90028B7
:10271000E2D100BFBDF8FE000DF5407D10BD000008
:1027200057696E64735370656564206572726F7269
:10273000210D0A0038B547A0FDF79EFE00200123B9
:102740000246802100904948006809F051F9484943
:102750000860484801684068474AD2E90032594059
:10276000504001433AD14248007800F080000028F0
:1027700034D14048083801684068404AD2E9003204
:1027800059405040014329D13A480938407CD8B1DA
:102790003BA0FDF771FE4FF480313448006809F02A
:1027A000A1F834480838046843682246324903C90E
:1027B00002F083FE80212D48006809F093F8002183
:1027C0002E4A1160516008E032A0FDF755FE4FF42B
:1027D00080312648006809F085F838BD00200123C3
:1027E0000246402100902148006809F001F9204983
:1027F00008602048016840681F4B0CCB514058408E
:1028000001431ED11B480838016840681B4B0CCBA4
:1028100051405840014314D11548007800F0400061
:1028200078B94FF400411148006809F05BF820A026
:10283000FDF722FE4FF480410C48006809F052F881
:10284000CBE74FF400310948006809F04BF800BFAE
:10285000C3E70000BDD3CAD5B5BDCAFDBEDDD0CD2E
:102860004D4143D6A1C1CB0D0A0000002C00002031
:102870003000002029020020180000202000002045
:10288000D0E8D2AAD7D4C9EDB7A2CBCD41434B0DE6
:102890000A000000D0E8D2AAD7D4C9EDB7A2CBCDA8
:1028A000CAFDBEDDD0CD4D4143D6A10D0A000000CA
:1028B000B5B1C7B0CAC7B7A2CBCDB7BDB2A2C7D258
:1028C000BDD3CAD5B5BDC1CBD5FDC8B7B5C444418C
:1028D00054410D0A0000000021B1026842F00102DB
:1028E000026003E0026822F001020260704700000B
:1028F000016821F0010101600021016041608160F7
:10290000C1600161212141614A49884204D13D21D0
:10291000484A103A91608CE046491831884205D106
:102920004FF47461434A103A916082E0414930317A
:10293000884205D14FF474113E4A103A916078E014
:102940003C494831884205D14FF07461394A103A08
:1029500091606EE037496031884204D13649354A8A
:10296000103AD16065E033497831884204D1334967
:10297000304A103AD1605CE02E499031884204D14F
:102980002F492C4A103AD16053E02A49A831884295
:1029900005D14FF03D51274A103AD16049E029490D
:1029A000884204D13D21274A083A116041E0254977
:1029B0001831884205D14FF47461224A083A1160F7
:1029C00037E020493031884205D14FF474111D4A57
:1029D000083A11602DE01B494831884205D14FF07B
:1029E0007461184A083A116023E016496031884240
:1029F00004D11149134A121F11601AE011497831AC
:102A0000884204D10D490F4A121F116011E00D498F
:102A10009031884204D10A490A4A121F116008E025
:102A20000849A831884204D14FF03D51054A121F90
:102A300011607047106002403D000020400F0020F0
:102A400000003D2010640240014600200A6802F0A8
:102A500001020AB1012000E00020704710B50022F9
:102A60000268134B1A40CC680B6823434C6923431C
:102A70008C692343CC6923430C6A23434C6A234368
:102A80008C6A23434C6B23438C6B23431A430260B1
:102A9000426922F00702D1E90B3423431A43426111
:102AA0000B6943604B6883608B68C36010BD000096
:102AB0003F801CF0416070477047F8B506460C46F1
:102AC00006B104B9F8BD002000906A4621463046A0
:102AD00000F06DF9009800B9F4E70098C068A042D2
:102AE00006D120690099C860204604F005FBE9E79B
:102AF0000098C56800E02D6915B12869A042FAD197
:102B000025B120692861204604F0F6FA00BFD9E714
:102B10002DE9FC4180460D460020019029464046A3
:102B200001F02CF8002419E001A80090104850F89A
:102B30002400D0E900633246284600F056F9019897
:102B400050B10198D0E9006332460AA0FDF794FC29
:102B500028460199FFF7B1FF601CC4B20B4800780A
:102B60008442E1DB002009490870BDE8FC810000D7
:102B7000E00700206E6F646520256C6C7820697317
:102B80002064656C657465640D0A000048000020CF
:102B900078B506460C460020009006B104B978BD11
:102BA0006A462146304600F002F9009800B9F6E77F
:102BB0000098C068A04205D120690099C860002033
:102BC0002061ECE70098C56800E02D6915B128691F
:102BD000A042FAD11DB1206928610020206100BF08
:102BE000DDE7000010B506A0FDF746FC142004F058
:102BF00051F906480068012000F00AF810BD0000F5
:102C0000BDF8C8EBD6D0B6CF200D0A000002404276
:102C10000149086070470000143C01400149086008
:102C2000704700000C3C024070B504460A4600267E
:102C3000092502B909E0012A01D1160205E0022A9C
:102C400001D1160201E04FF4407600F09FF80546EE
:102C5000092D28D11548006820F4407013490860F8
:102C600008460068304308600846006820F0F80015
:102C700008600846006844F0020108430B490860F8
:102C80000846006840F48030086000F07FF8054690
:102C90000648006820F00200044908600846006801
:102CA00020F0F8000860284670BD0000103C02408B
:102CB00009201349096801F48031B1F5803F01D141
:102CC00001201CE00E49096801F0100109B106203D
:102CD00015E00B49096801F4807109B102200EE08A
:102CE0000749096801F0EF0109B1072007E004492D
:102CF000096801F0020109B1082000E009207047CD
:102D00000C3C02400348006840F000400149086064
:102D100070470000103C024030B502460C460925C1
:102D200000F034F80546092D19D10E48006820F44A
:102D300040700C4908600846006840F480700860E4
:102D40000846006840F001000860148000F01EF89A
:102D500005460448006820F0010002490860284642
:102D600030BD0000103C02400548006800F0004003
:102D700028B1044802490C390860034808607047CC
:102D8000103C024023016745AB89EFCD08B509200F
:102D90000090FFF78DFF009002E0FFF789FF0090A1
:102DA0009DF800000128F8D09DF8000008BDF0B59E
:102DB00004460F4616460020306014B10FB1A742FA
:102DC00000D1F0BDE5680CE0BD4201D13460F8E708
:102DD000324639462846FFF7EAFF306800B1F0E78F
:102DE0002D69002DF0D100BFEBE72DE9F841044635
:102DF00017469846079D002028600CB9BDE8F88169
:102E0000D4E90001784081EA0801084301D12C602F
:102E1000F4E7E66809E03A46434630460095FFF796
:102E2000E4FF286800B1E9E73669002EF3D100BF5E
:102E3000E4E7F0B50A4600210023002400BF3DE08E
:102E4000012505FA01F3156805EA03049C4234D113
:102E500005684F000326BE40B543056015794E0056
:102E6000B5400668354305601579012D02D0157906
:102E7000022D16D185684F000326BE40B5438560FC
:102E800055794E00B5408668354385604568012612
:102E90008E40B5434560456896798E40B6B235435D
:102EA0004560C5684F000326BE40B543C560D5796F
:102EB0004E00B540C6683543C560491C1029BFD3D4
:102EC000F0BDF0B5002300244D07ED0E02FA05F326
:102ED000CE1000F1200555F826504E07F70E0F26AC
:102EE000BE40B543CF1000F1200646F82750CE1063
:102EF00000F1200555F8265045EA0304CE1000F1F4
:102F0000200545F82640F0BD0183704700BFFEE76D
:102F100010B500200F4908600F48006820F04040BD
:102F20000D4908600846006840F0804008600020B5
:102F30000A49C1F8BC02022003F088FF01200549BC
:102F40000860022003F082FF01200449C1F8B802A2
:102F500010BD0000B8824142000C02400080414296
:102F60001CB50121082000F0FFFA4FF4404000900A
:102F700001208DF804008DF8060003208DF805006F
:102F800001208DF8070069460448FFF752FF012031
:102F9000034908600349C1F8BC021CBD000C024093
:102FA000B88241420080414210B500200F490860BC
:102FB0000F48006820F040400D490860084600684E
:102FC00040F08040086001200A49C1F8BC0202209C
:102FD00003F03CFF012005490860022003F036FFA2
:102FE00001200449C1F8B80210BD0000B882414276
:102FF000000C0240008041422DE9F04106460C469B
:103000001546002704E0304600F00AF804F8010BEA
:103010002800A5F10101CDB2F5D13846BDE8F08117
:1030200070B5054600241648006820F04040144959
:103030000860084600680860002616E00020114974
:103040000860042003F002FF01200F49C1F8B80214
:103050006006040E0B487C38006808B1601CC4B2DE
:10306000012003F0F3FE701CC6B2082EE6DB15B992
:10307000FFF79AFF01E0FFF74BFF204670BD00000D
:10308000000C0240B8824142008041422DE9F041EB
:103090000546884616461F46002400F085F80021A4
:1030A00041EA4501C8B200F04BF800F0C9F84046CB
:1030B00000F046F800F0C4F800F076F8012101EBCA
:1030C0004501C8B200F03CF800F0BAF800BF0CE0CF
:1030D000701EA04204D10020FFF7A2FF385503E084
:1030E0000120FFF79DFF3855641CB442F0DB00F06F
:1030F00081F8BDE8F08170B504460D4600F054F843
:10310000002141EA4401C8B200F01AF800F098F832
:10311000284600F015F800F093F800F045F801217A
:1031200001EB4401C8B200F00BF800F089F8002070
:10313000FFF776FF064600F05DF8304670BD0000F0
:1031400070B504461548006820F0404013490860F7
:103150000846006840F08040086000201049086080
:10316000002517E0E0090E49091D08606006040EFD
:10317000022003F06BFE01200A49C1F8B8020220C8
:1031800003F064FE002006490860022003F05EFEA2
:10319000681CC5B2082DE5DB70BD0000000C0240C4
:1031A000B88241420080414210B50F48006820F0CB
:1031B00040400D4908600846006840F080400860C3
:1031C00001200A4908600A49C1F8B802042003F046
:1031D0003DFE002005490860042003F037FE002072
:1031E0000349C1F8B80210BD000C0240BC82414244
:1031F0000080414210B50F48006820F040400D4962
:1032000008600846006840F08040086000200A49D5
:1032100008600A49C1F8BC02042003F017FE01202F
:10322000054908600549C1F8BC02022003F00EFE02
:1032300010BD0000000C0240B882414200804142B3
:1032400010B500241348006820F040401149086080
:1032500008460068086001200F49086003F0F6FD89
:1032600001200E49C1F8B80203F0F0FD07E0601C30
:10327000C4B2FA2C03DDFFF7BDFF012010BD0648E4
:10328000803800680028F2D10349091F086000BF98
:10329000F4E70000000C0240BC8241420080414241
:1032A00070B504460D461646FFF77EFF002141EA41
:1032B0004401C8B2FFF744FFFFF7C2FF18B1FFF7A0
:1032C00099FF012070BD2846FFF73AFFFFF7B8FFCE
:1032D0003046FFF735FFFFF7B3FF18B1FFF78AFF5E
:1032E0000120EFE7FFF786FF0020EBE74CF6CC402C
:1032F00001490860704700000030004010B500F040
:1033000013F810BD70B505460C4645F2555000F057
:103310001FF8284600F010F8204600F013F800F0DF
:1033200003F8FFF7E3FF70BD4AF6AA2001490860E1
:1033300070470000003000400149486070470000BD
:1033400000300040014988607047000000300040B4
:103350000149086070470000003000401CB50121A1
:10336000112000F001F91020009000208DF80400D9
:1033700003208DF8050001208DF8070069460648F6
:10338000FFF757FD0120009002208DF807006946E5
:103390000248FFF74EFD1CBD001002400000024035
:1033A0001CB50121202000F0DFF801208DF8040079
:1033B00002208DF8050000208DF806004FF4C06053
:1033C000009069460648FFF734FD4FF40071044849
:1033D000FFF79AFD4FF480610148FFF795FD1CBD92
:1033E000001402401CB50121022000F0BDF840206D
:1033F000009001208DF8040000208DF806000320C5
:103400008DF8050001208DF8070069460348FFF795
:1034100010FD40210148FFF777FD1CBD000402406C
:1034200000BFFEE77047000070B5002100230F22A7
:10343000C4781CB3174C246804F4E064C4F5E06459
:10344000C4F30721C1F10404E3B20A4144789C406B
:10345000E1B28478144021430C07210E0E4C05780C
:103460006155047804F01F050124AC4005786D1106
:10347000AD0005F1E025C5F8004109E0047804F04D
:103480001F050124AC40054D0678761145F826400D
:1034900070BD00000CED00E000E400E080E100E021
:1034A00002490143024A1160704700000000FA051A
:1034B0000CED00E0704770471CB50121082000F0BA
:1034C00053F80121202000F04FF80121402000F0A6
:1034D0004BF84020009001208DF8040000208DF86A
:1034E000060003208DF8050001208DF807006946CD
:1034F0001A48FFF79EFC1020009001208DF8040070
:1035000000208DF8060003208DF8050002208DF8BC
:10351000070069461248FFF78CFC4FF400500090FA
:1035200001208DF8040000208DF8060003208DF89E
:10353000050002208DF8070069460A48FFF779FC6C
:1035400040210648FFF7E0FC4FF400510548FFF723
:10355000DBFC10210248FFF7D7FC1CBD000C024029
:10356000001402400018024029B1064A12680243C2
:10357000044B1A6004E0034A12688243014B1A604C
:10358000704700003038024029B1064A12680243F1
:10359000044B1A6004E0034A12688243014B1A602C
:1035A000704700003438024029B1064A12680243CD
:1035B000044B1A6004E0034A12688243014B1A600C
:1035C000704700004038024029B1064A12680243A1
:1035D000044B1A6004E0034A12688243014B1A60EC
:1035E0007047000044380240F0B50021002200245A
:1035F000022500260223324F3F6807F00C0121B15B
:10360000042905D0082937D105E02E4F076036E0A0
:103610002D4F076033E02A4F3F1F3F68C7F38056A6
:10362000274F3F1F3F6807F03F036EB1264FB7FBA0
:10363000F3F7DFF88CC0ACF1040CDCF800C0CCF37D
:10364000881C07FB0CF40CE01E4FB7FBF3F7DFF808
:1036500070C0ACF1040CDCF800C0CCF3881C07FB94
:103660000CF4174F3F1F3F68C7F301477F1C7D00D5
:10367000B4FBF5F7076002E0124F076000BF00BF20
:103680000F4F3F6807F0F0010909104F7A5C076897
:10369000D74047600A4F3F6807F4E051890A0B4F53
:1036A0007A5C4768D7408760054F3F6807F4604100
:1036B000490B064F7A5C4768D740C760F0BD0000F1
:1036C000083802400024F40000127A00B8000020FC
:1036D00030B10749096841F00401054A116005E06D
:1036E0000349096821F00401014A11607047000094
:1036F0000008065001460020034A12680A400AB139
:10370000012000E0002070470408065001480068CE
:10371000704700000808065070B504460D4600F0DA
:1037200008F8291B491CB0FBF1F201FB12002044F0
:1037300070BD10B500BF0120FFF7DCFF0028FAD0F4
:10374000FFF7E4FF10BD10B5A82003F03DFB0121F9
:103750004020FFF719FF0120FFF7BAFF0AE0601CC5
:1037600084B2642003F072FB42F21070844201DBE9
:10377000012010BD0120FFF7BDFF0028EFD0002081
:10378000F7E7000038B559A0FCF776FE5D48016800
:1037900040685D4AD2E9003259405040014346D06A
:1037A0000020012302464FF40C6100905748006846
:1037B00008F01EF9564908600846007800F04000FD
:1037C000002830D00846007800F0800058B351A09F
:1037D000FCF752FE4FF400614C48006808F03AF8DC
:1037E00008F00AFF0446002003462246012100900B
:1037F0004E48006809F0A4FA4DA0FCF73DFE44488D
:10380000008800F4006000286ED108F0F5FE044640
:103810004FF0FF3000232246022100904348006809
:1038200009F08EFA60E045A0FCF726FE5CE000207F
:10383000012302464FF40C6100903448006808F000
:10384000D7F8334908600846007800F0400070B3AC
:103850000846007800F0800048B30846008800F46D
:10386000006020B337A0FCF707FE802127480068DE
:1038700007F0F0FF2348083801684068374AC2E97A
:10388000001008F0B9FE044600200346224601213C
:1038900000903348006809F053FA1A4908390C6857
:1038A0004B682246184903C902F061FF1CE0FFE79C
:1038B0001748007800F08000B0B912480838036853
:1038C00042682648D0E900105940504001430BD1CE
:1038D00024A0FCF7D1FD0B48083804684368224651
:1038E000094903C902F043FF38BD0000BDD3CAD562
:1038F000B5BD525453D0CD4D4143D6A1C1CB0D0AD5
:103900000000000029020020180000202C000020E8
:1039100030000020BDD3CAD5B5BDC1CBB1F0B5C410
:10392000BDDAB5E3B5C45254530D0A00AC00002013
:10393000BFAAC6F4B6A8CAB10D0A0000B6AAC6FA54
:103940000D0A0000BDD3CAD5B5BDC1CB525453A397
:10395000ACB7A2CBCD4354530D0A00002000002089
:10396000B0000020D6D8D0C2B7A2CBCD4354530D5F
:103970000A00000030B5054605B930BDEC6805E029
:103980002046FFF7F7FF002020722469002CF7D1B2
:1039900000BFF2E710B5044606A0FCF76DFD8021DC
:1039A0000A48006807F09EFF0021094A1160516033
:1039B00010BD0000D6D8D6C3BDD3CAD5D7B4CCACC1
:1039C000CAB1BCE4B5BD0D0A000000002C00002007
:1039D000200000200FB410B50020079005F09CFFD8
:1039E000CDE90201002104910591FF208DF8180016
:1039F00000208DF820008DF8680001208DF81A0055
:103A0000FF208DF8190010BC5DF814FB2DE9FC4176
:103A100004460020009001900025FF26FF27FFF7B5
:103A2000C3FB8820FFF78CFB022003F00FFAFFF79F
:103A300007FC20B1FFF7DEFB0120BDE8FC81FD2083
:103A4000FFF77EFB022003F001FAFFF7F9FB18B144
:103A5000FFF7D0FB0120F0E7FFF7CCFB142003F0C9
:103A6000D5F9FFF7A1FB8920FFF76AFB022003F0DD
:103A7000EDF9FFF7E5FB18B1FFF7BCFB0120DCE730
:103A8000062269462046FFF7B7FAFFF7B3FB9DF819
:103A900004009DF8031040EA01209DF8011001EB9D
:103AA00000409DF8001040EA01250221684602F01E
:103AB0002FFE06469DF80200B04201D00120BCE76F
:103AC00002210DF1030002F023FE07469DF80500D8
:103AD000B84201D00120B0E72846AEE701461C48B5
:103AE000814201D2002070471A48814201D2082049
:103AF000F9E71948814201D21020F4E717488142C2
:103B000001D21820EFE71648814201D22020EAE7CF
:103B10001448814201D22820E5E71348814201D2AE
:103B20003020E0E71148814201D23820DBE710481D
:103B3000814201D24020D6E70E48814201D248207E
:103B4000D1E70D48814201D25020CCE75820CAE786
:103B5000004000080080000800C0000800000108C4
:103B60000000020800000408000006080000080821
:103B700000000A0800000C0800000E082DE9F041C2
:103B8000054688460DB9BDE8F081EC6818E041466D
:103B90002046FFF7F3FF207A88B9D4E90063324664
:103BA00009A0FCF769FC0D480D49097840F821404F
:103BB0000B480078401C0A490870246900E0246919
:103BC000002CE4D100BFDEE76E6F646520256C6CCD
:103BD0007820697320646561640D0A00E0070020A5
:103BE0004800002010B5044604A0FCF745FC102155
:103BF0000648006807F076FE10BD0000B6A8CAB1FE
:103C0000C6F7CAB1BCE4B5BD0D0A00003C000020F7
:103C100070B52DED088B82B000BF06F027F9322079
:103C200003F0F4F806F032F90120FFF7EFFE044646
:103C300052484481210C81810146898901EB41026E
:103C4000C2EBC11009F063FB9FED4D0B53EC102B41
:103C500009F0D6F99FED4C0B53EC102B09F014F939
:103C600041EC180B45494989AF2201FB02F009F0EC
:103C70004EFB9FED430B53EC102B09F0C1F99FED68
:103C8000440B53EC102B09F0FFF841EC190B8DEDB0
:103C9000008B53EC192B40A0FCF7EEFBFEF73AFA31
:103CA000322003F0B3F802F0EBFC04463348C0F8CE
:103CB0000E40D0F80E0000EE100AB8EE400ADFED1C
:103CC0003E0A80EE201A11EE105A284609F07CFEBA
:103CD00041EC180B53EC182B38A0FCF7CDFB6420FB
:103CE00003F094F80520FEF729FC04462348C0F8A9
:103CF0001240642003F08AF80620FEF71FFC0446F9
:103D00001E48C0F81640642003F080F80720FEF734
:103D100015FC04461948C0F81A40642003F076F8F0
:103D2000FEF766FB04461549CC83FEF7FAFA6420D9
:103D300003F06CF8FEF7B0FB044610498C84642055
:103D400003F064F8FEF7A4FC04460C490C846420DC
:103D500003F05CF8FEF748FC044608494C8406F082
:103D600073F8002006F0F2FB0646314617A0FCF778
:103D700083FB02B0BDEC088B70BD0000B8020020D0
:103D800000000000E0FFEF4000000000000018C04D
:103D900000000000008046C054656D70657261745B
:103DA0007572653A2025662C2048756D69646974C2
:103DB000793A25660D0A0000000080437072657331
:103DC000737572653A25660D0A00000073656E64AE
:103DD0005F74696D6572C8CECEF1CAB9D3C3C7E945
:103DE000BFF6A3BA256C640D0A0000000CB50020D4
:103DF000019000903448006840F4803032490860F7
:103E000000BF3148006800F4003000900198401C69
:103E10000190009818B90198B0F5A04FF1D12A4847
:103E2000006800F4003010B10120009001E0002093
:103E300000900098012846D123484030006840F0A7
:103E400080502149403108602048006840F44040DB
:103E50001E4908601C48083000681B49083108608A
:103E60000846006840F4004008600846006840F4D6
:103E7000A05008601648091F0860081F006840F03D
:103E80008070091F086000BF0F48006800F00070D4
:103E90000028F9D040F205700E4908600A48083041
:103EA000006820F0030008490831086008460068EF
:103EB00040F00200086000BF03480830006800F0CE
:103EC0000C000828F8D10CBD0038024000700040FA
:103ED00008544007003C0240042808D14FF0E0217C
:103EE000096941F004014FF0E022116107E04FF051
:103EF000E021096921F004014FF0E02211617047CF
:103F000010B508F069FB012801D007F0F3FE10BDE1
:103F100010B51548006840F4700013490860134854
:103F2000006840F001001149086000200F49083185
:103F300008600E4800680E4908400C4908600D48AA
:103F4000091D0860081F006820F48020091F086010
:103F5000002006490C310860FFF748FF4FF0006071
:103F600001498039086010BD88ED00E0003802404A
:103F7000FFFFF6FE1030002410B50121064800F0C6
:103F80006CF8012802D105A0FCF776FA0121880718
:103F900000F054F810BD00000004004054494D32B8
:103FA000D3C5CFC8BCB6CEAA34D5FDD4DAD4CBD0D5
:103FB000D00D0A0010B50121074800F04EF8012885
:103FC00004D106480068401C0449086001210248E9
:103FD00000F034F810BD0000000400401400002080
:103FE0007FB505460C4601210220FFF7DDFAADF84A
:103FF000045002940020ADF80C00ADF80600012238
:1040000011460D4800F032F801A90B4800F038F8CD
:104010001D208DF8000001208DF8030009208DF887
:10402000010000208DF802006846FFF7FDF901212C
:10403000014800F006F87FBD00040040CA43028238
:10404000704721B1028842F00102028004E0028838
:104050004FF6FE731A400280704702460020138A12
:104060000B400BB1012000E0002070471AB183899A
:104070000B43838102E083898B4383817047000077
:1040800000220288184B98420ED0184B98420BD051
:10409000B0F1804F08D0164B984205D0154B98428E
:1040A00002D0154B984204D14FF68F731A404B88BB
:1040B0001A43124B984207D0114B984204D04FF646
:1040C000FF431A400B891A4302804B68C3620B8876
:1040D0000385054B984202D0044B984201D18B7A5C
:1040E00003860123838270470000014000040140E1
:1040F0000004004000080040000C00400010004098
:1041000000140040F8B5054605B9F8BDEC680BE0B1
:104110002046FFF7F7FF207A0090D4E9006332468B
:1041200003A0FCF7A9F92469002CF1D100BFECE74A
:104130004368696C64204E6F646520414444523A80
:1041400020256C6C782C20697320616C6976653F42
:104150002025780D0A00000038B50020009040F2BC
:104160002551154800F0FBF828B3134800F0B0F9CA
:10417000C5B2124801880088401C104A10801048BF
:1041800045541048008800F48050A0B16A464FF4AE
:1041900082710D48006807F019FC0446012C0AD111
:1041A00000BF009830B1200708490860BFF34F8F67
:1041B000BFF36F8F00BF38BD004C00406E00002081
:1041C000C4090020300000202C00002004ED00E095
:1041D00038B50020009040F22551154800F0BFF896
:1041E00058B1134800F074F9C5B21248018800882C
:1041F000401C104A1080104845546A4604210F485C
:10420000006807F0E3FB0446012C0AD100BF0098C8
:1042100030B120070A490860BFF34F8FBFF36F8F9B
:1042200000BF40F22551024800F075F838BD00008B
:1042300000100140740000208C0A00203C00002087
:1042400004ED00E010B540F22551084800F087F871
:1042500058B1064800F03CF9C4B20548018800880E
:10426000401C034A10800348445410BD00440040E1
:104270006C000020FC08002038B51D4D0020009087
:10428000002440F224411B4800F069F850B319485B
:104290000088C0B200901748001D0088C0B200908E
:1042A00000211548FEF718FB13482838C06AC0F1F2
:1042B000FF00C0B2009000BF04E01048005D285528
:1042C000601CC4B29DF800008442F6DB9DF800003B
:1042D00085F8FF00FF210848FEF7ECFB01210648A6
:1042E000FEF7FAFA10210648FEF70EFE00BF38BDB1
:1042F000540B00200048004028600240540D00206C
:104300000008024001F40072B2F5007F00D100BF46
:10431000CA430280704710B50022002340F66A1499
:10432000A14200D100BF0A1201249440A3B2DC4391
:10433000048010BD21B1828942F40052828104E0E0
:1043400082894DF6FF731A40828170471AB1838AC1
:104350000B43838202E0838A8B438382704770B56C
:104360000246002400230025002040F66A16B142D0
:1043700000D100BFC1F3421501F01F03012606FA68
:1043800003F3012D02D19689334006E0022D02D1BC
:10439000168A334001E0968A33400C12012606FA51
:1043A00004F41688344013B10CB1012000E0002061
:1043B00070BDF0B50346002400260025002040F61D
:1043C0006A17B94200D100BF1846C1F3421401F088
:1043D0001F06012707FA06F5012C01D10C3004E075
:1043E000022C01D1103000E014301AB107682F43BD
:1043F000076002E00768AF430760F0BD2DE9FF47A3
:1044000005460E460024A14600BFA046B08900B173
:1044100000BF2C8A24F44054F08804432C82AC89D9
:1044200041F20C608443B0883189084371890843A4
:104430000443AC81AC8A24F44074B0890443AC8258
:104440006846FFF7D1F82048854202D01F488542D0
:1044500002D1DDF80C9001E0DDF80890A88900F4A5
:10446000004040B109EBC90000EB09103168490078
:10447000B0FBF1F707E009EBC90000EB0910316868
:104480008900B0FBF1F76420B7FBF0F004012009CC
:10449000642101FB1078A88900F4004040B132206B
:1044A00000EBC800B0FBF1F000F00700044308E0A7
:1044B000322000EB08106421B0FBF1F000F00F0097
:1044C00004432C81BDE8FF87001001400014014027
:1044D00001468888C0F30800704700000BE000BF69
:1044E0000749098801F040010029F9D00178044A00
:1044F000121D1180401C01780029F0D17047000086
:10450000004C004000BFFEE710B596B00446012104
:104510000220FFF729F801218804FFF745F8072258
:104520000A214A48FEF7CDFC07220B214748FEF737
:10453000C8FC4FF44060149002208DF854008DF8B0
:10454000550000208DF8560001208DF8570014A961
:104550003E48FEF76EFC10940020ADF84400ADF824
:104560004600ADF84800ADF84C000C20ADF84A000C
:1045700010A93748FFF742FF01213548FFF7DAFE5F
:1045800001214805FEF7F0FF3248FEF7B1F900BF00
:104590003048FEF759FA0028FAD14FF00060019038
:1045A0002B48001D02902C48039000200490FF200F
:1045B0000590002006904FF480600790002008903E
:1045C00009904FF480700A9000020B9000200C902C
:1045D00003200D9000200E900F9001A91D48FEF7BA
:1045E0003DFA002240F226611948FFF7E2FE002260
:1045F00040F225511648FFF7DCFE012240F224412B
:104600001348FFF7D6FE27208DF8000001208DF813
:10461000010003208DF8020001208DF80300684698
:10462000FEF702FF012240210948FFF78FFE01211A
:104630000748FFF77FFE01210648FEF74DF94FF4CA
:1046400080710648FCF7A8F916B010BD00040240BE
:104650000048004028600240540D0020540B002008
:1046600000BF018801F040010029FAD07047000026
:1046700010B5044604A0FBF7FFFE4FF400610748A5
:10468000006807F02FF910BDC7BFD6C6D0DDC3DF65
:10469000CAB1BCE4B5BD0D0A000000002C0000202A
:1046A00003B401984100009850EAC12018BF0420CB
:1046B0004A0D18BF40F0010040F2FF72B2EB515FAB
:1046C00008BF40F00200012808BF052002B0704773
:1046D0002DE9F04D2DED040B2DED0C8B96B0DDE9A1
:1046E0002350259CDDF888A025F0004624F00048E2
:1046F000BAF1000F14BF0121002101EB4502FE4970
:1047000053184A1093422AD3002814BF01230023D0
:1047100003EB44030B44F9498B4220D358EA0001D0
:104720009FEDF78B6FD0DFF8E0B35D4503D1BAF1B1
:10473000000F05D187E0BAF1000F08BF002100D0BB
:10474000012101EB450111F5001F08D8002814BF15
:104750000121002101EB440111F5001F0BD99DED52
:10476000241B9DED220B16B0BDEC0C8B04B0BDE8F4
:10477000F04D00F05DBE0027002DBCBFE349884529
:1047800021DAE3498845A8BF02271CDAC3451ADCB1
:10479000E04901EB2851142908DDC1F1340220FA67
:1047A00002F101FA02F282420DD108E058B9C1F1DA
:1047B000140228FA02F101FA02F2424503D101F093
:1047C0000101C1F1020756EA0A011DD1002C1BDAD2
:1047D000002D18BF022F01D0012F0AD00220FCF7B4
:1047E000A4F916B0BDEC0C8B04B0BDE8F04D00F0A0
:1047F00007BE0220FCF799F900F002FE51EC100B05
:1048000008F036FB83E01EE09FEDC39B9FEDC4AB39
:10481000002872D1BD4880452DD105F1804010F5AA
:10482000801008BFBAF1000F0DD0B34515DC002C85
:10483000A1BF9DED240B16B0BDEC0C8B04B0A8BF3E
:10484000BDE8F08D12E0B0EE480AF0EE680A16B04E
:10485000BDEC0C8B04B0BDE8F08D002C06DA9DEDAC
:10486000240B51EC100B08F003FB50E0AE487844E9
:1048700090ED000BEBE7D8454FD1002C4ADA2EB172
:1048800086423BD1BAF1000F44D126E0BAF1000FC5
:1048900013D00220FCF749F900F0E6FD8DED020B84
:1048A0009DED220B8DED000B10EE900A039961F344
:1048B0001E0003909DED020BC9E78DED029B9DED5F
:1048C000220B19EE901A10EE900A8DED000B61F399
:1048D0001E0003909DED020BB9E78DED02AB9DED3F
:1048E000220B1AEE901A10EE900A8DED000B61F378
:1048F0001E0003909DED020BA9E729E00ADA9DED69
:10490000220B51EC180B53EC102B08F079FB41EC07
:10491000100B9CE79DED220B99E7864218DAB4F163
:10492000804F0DD0A4F10050B0F1FF5010D1002DF8
:104930000EDB9DED220B51EC100B05F0ABFAE6E718
:104940009DED220B53EC102B51EC100B00F0AEBC84
:104950009DED220B51EC100B02F0ACFBBAF1000FF5
:10496000CDE90C0134D19FED720BDEB1A6F1E04030
:10497000B0F17F602CD1002D01DD002C0DDA002D6F
:1049800001DD002C1FDB002D16DA002C14DB012FBB
:1049900008BF9FED690B3FF45AAFB0EE490AF0EE45
:1049A000690A54E7022F18BF002D0CD0012F0AD13D
:1049B000002DFFF64CAF06E0002DB8BF002C07DA43
:1049C000012F3FF444AFB0EE4A0AF0EE6A0A3EE728
:1049D000012000EBE57A5AEA07000CD05848002580
:1049E00080457CDD57495848884514DDB0420DDBD1
:1049F000002C19DB2BE00120FCF797F816B0BDEC7A
:104A00000C8B04B0BDE8F04D00F01EBDB34502DCD8
:104A1000002C09DC1BE0864202DA002C17DA03E0E6
:104A20005E4527DD002C12DD0220FCF77EF800F049
:104A30001BFD10EE901A19EE900A8DED020B8DED14
:104A4000009B61F31E0003909DED020BFFE6022028
:104A5000FCF76BF800F018FD10EE901A18EE900AB3
:104A60008DED020B8DED008B61F31E0003909DED2B
:104A7000020BECE69DED220B53EC182B51EC100BC6
:104A800008F0B8FE9FED320BCDE90A0153EC102B74
:104A90009DED0A0B51EC100B08F0A0FC9FED2E1BB6
:104AA00053EC112B08F0CEFD9DED0A1B53EC112B9E
:104AB00008F094FC9FED2A1B53EC112B08F0C2FD6B
:104AC0009DED0A0B41EC190B53EC102B51EC100B24
:104AD00008F084FC53EC192B08F080FC00E07EE029
:104AE0009FED210B41EC1A0B53EC102B9DED0A0BA3
:104AF00051EC100B3CE00000FFFF1F00FFFF0F0018
:104B0000000000000000F03F0000F03F0000F07FD8
:104B10000000404301FCFFFF000000000000F07FA8
:104B200000000000000000000696000000000000E9
:104B30000000000000000080000000000000F0FF06
:104B40000000E0410000F043FFFFEF3F00000000E5
:104B5000000000000000D03F555555555555D53F34
:104B6000000000000000E03F000000604715F73F34
:104B700008F034FC41EC190B9FEDFD0B51EC1A0BC6
:104B800053EC102B08F02AFC41EC1A0B9FEDFA0BAA
:104B900053EC102B9DED0A0B51EC100B08F01EFC92
:104BA00053EC1A2B08F026FE41EC1A0B51EC190BB2
:104BB00053EC1A2B08F068F90690CDE906519DEDEB
:104BC000060B53EC192B51EC100B08F013FE53ECB1
:104BD0001A2B08F037FD41EC100B00F09FB90020B4
:104BE000B6F5801F0EDA9FEDE60B53EC102B9DED12
:104BF0000C0B51EC100B08F0F1FBCDE90C016FF040
:104C000034000E4600EB2650A0F2FF38C6F3130026
:104C1000DD4940F07F6646F040568842D8BF002408
:104C200009DDDA498142C8BF012404DC0024A6F56D
:104C3000801608F10108D648784400EBC4000D96B0
:104C400090ED00BB9DED0C0B53EC1B2B51EC100BAE
:104C500008F0D0FD9DED0C0B41EC1A0B53EC1B2B17
:104C600051EC100B08F010F941EC100B51EC180B43
:104C700053EC102B08F0C4F941EC1C0B51EC1A0B4F
:104C800053EC1C2B08F0AAFB41EC190BC1488DED2D
:104C9000109B7844109590ED000B4FF0005040EAC7
:104CA000660000EB84408DED0A0B00F500200B90B0
:104CB0009DED0A0B53EC1B2B51EC100B08F09AFDE9
:104CC0009DED0C1B53EC112B08F0BCFC41EC100BC0
:104CD00053EC102B9DED100B51EC100B08F07EFBEC
:104CE0009DED0A0B41EC1B0B53EC102B9DED100BB3
:104CF00051EC100B08F072FB53EC1A2B08F0A2FCDD
:104D000053EC1B2B08F076FD53EC1C2B08F066FBD4
:104D100041EC1B0B53EC192B51EC190B08F05EFB0B
:104D200041EC1A0B9C480621B0EE4A0AF0EE6A0AE2
:104D3000784400F0E9FAB0EE40CAF0EE60CA53ECF5
:104D40001A2B51EC1A0B08F049FB53EC1C2B08F002
:104D500045FB9DED100B41EC1A0B53EC192B51EC5C
:104D6000100B08F091F853EC1B2B08F037FB53ECB9
:104D70001A2B08F089F89DED100B41EC1A0B53EC3F
:104D8000102B51EC100B08F029FB41EC1C0B9FED94
:104D900084DB53EC1D2B08F077F853EC1A2B08F04A
:104DA00073F80A90CDE90A519DED0A0B53EC1D2BC7
:104DB00051EC100B08F01EFD53EC1C2B08F01AFDF3
:104DC00053EC1A2B08F03EFC9DED0A0B41EC1C0B3A
:104DD00053EC102B9DED100B51EC100B08F0FEFA6C
:104DE00041EC1A0B53EC192B51EC1C0B08F0F6FAA2
:104DF0009DED0A0B41EC190B53EC102B51EC1B0BE6
:104E000008F0ECFA53EC192B08F03EF841EC190BC2
:104E100051EC1A0B53EC192B08F036F81090CDE931
:104E200010519DED100B53EC1A2B51EC100B08F0A8
:104E3000E1FC53EC192B08F005FC41EC190B9FED3C
:104E40005A0B53EC102B9DED100B51EC100B08F08E
:104E5000C5FA41EC1A0B9FED560B51EC190B53ECB4
:104E6000102B08F0BBFA41EC190B9FED530B53ECE0
:104E7000102B9DED100B51EC100B08F0AFFA53EC1A
:104E8000192B08F001F841EC100B4D48784400EB69
:104E9000C40090ED001B51EC100B53EC112B07F0EC
:104EA000F3FF41EC190B404608F031FACDE90A0155
:104EB00053EC192B51EC1A0B07F0E6FF41EC100BE9
:104EC0004048784400EBC40090ED00BB51EC100B5F
:104ED00053EC1B2B07F0D8FF9DED0A1B53EC112B55
:104EE00007F0D2FF0690CDE906519DED0A0B53EC79
:104EF000102B9DED060B51EC100B08F07BFC53ECD6
:104F00001B2B08F077FC53EC1A2B08F073FC53ECC6
:104F1000192B08F097FB41EC100B00BF781EB0EE88
:104F200048AAF0EE68AA5AEA000008BF9FED268B57
:104F30009DED241B53EC102B8DED001B00959DED7A
:104F4000240B51EC100B08F049FA9DED000B41ECDD
:104F5000190B53EC102B9DED240B51EC100B08F0AA
:104F600049FC9DED061B53EC112B08F037FA2FE09E
:104F7000FE822B654715F73F44DF5DF80BAE543ECC
:104F800000000000000040438E9803007AB60B003A
:104F9000AC910000E2910000E490000000000000ED
:104FA0000000000000000840000000E009C7EE3FDC
:104FB000FD033ADC09C7EE3FF5015B14E02F3EBE6E
:104FC000788F0000328F0000000000000000F0BF6A
:104FD00053EC192B07F058FF9DED060B41EC190B14
:104FE00053EC102B9DED000B51EC100B08F0F6F973
:104FF000CDE910019DED100B51EC190B53EC102B6A
:1050000007F042FFCDE902010C46AB498C422FDB91
:10501000611A084318D19DED100B53EC102B9DED38
:10502000020B51EC100B08F0E5FB41EC1B0B9FED64
:10503000A40B51EC190B53EC102B07F025FF53EC8C
:105040001B2B08F0C9FA2DD20220FBF76EFD00F0F1
:105050000BFA10EE901A18EE900A8DED020B8DED02
:10506000008B61F31E0003909DED020BFFF7EFBB79
:10507000954A24F00041914214D3944921440843B5
:105080007FF4E5AC9DED100B53EC102B9DED020B66
:1050900051EC100B08F0AEFB53EC192B08F09CFA06
:1050A0007FF6D5AC24F0004089498A4A002601EBFE
:1050B000205182422BDA481C4FF4801121FA00F073
:1050C0002044854AC0F30A517A44A1F2FF3192ED9F
:1050D000000B824A8DED0A0BCA4020EA0202C0F39F
:1050E000130040F48010C1F1140120FA01F60B9274
:1050F000002CB8BF76429DED0A0B53EC102B9DEDB2
:10510000100B51EC100B08F075FBCDE910019DED73
:10511000100B51EC190B53EC102B07F0B5FE9FED63
:10512000700B0A90CDE90A5153EC102B9DED0A0B40
:1051300051EC100B08F052F941EC1B0B9FED6A0B80
:1051400053EC102B9DED0A0B51EC100B08F046F9B7
:105150009DED100B41EC1C0B53EC102B9DED0A0B3D
:1051600051EC100B08F046FB53EC192B08F06AFACF
:105170009FED5F1B53EC112B08F030F953EC1C2B07
:1051800007F082FE41EC190B51EC1B0B53EC192B71
:1051900007F07AFECDE902019DED020B53EC1B2BCB
:1051A00051EC100B08F026FB53EC192B08F04AFACF
:1051B0009DED020B41EC190B53EC102B51EC100B35
:1051C00008F00CF9CDE90A014B489DED0A0B0521C9
:1051D000784400F099F89DED0A1B51EC100B53EC4C
:1051E000112B08F0FBF89DED021B53EC112B08F07E
:1051F00029FACDE906019DED020B53EC192B51EC78
:10520000100B08F0EBF853EC192B07F03DFE9FED67
:105210003C0B41EC190B53EC102B9DED060B51ECA4
:10522000100B08F0E7FA9DED060B41EC1B0B53EC5D
:10523000102B9DED020B51EC100B08F0CFF853EC46
:105240001B2B07F0DDFE53EC192B08F0D3FA9DED74
:10525000021B53EC112B08F0CDFA53EC1A2B08F07B
:10526000F1F9CDE9020101EB065001150029C8BF93
:10527000039015DC9DED020B324651EC100B08F04B
:105280004FFCFFF70DFA042808BF00F0FDF8324686
:105290009DED020B51EC100B08F042FCCDE9020130
:1052A0009DED020B51EC180B53EC102B08F096F807
:1052B000FFF72DBB00000000000090400000000040
:1052C000FE822B654715973C00CC904000346F3F21
:1052D00001FCFFFF0000E03FAC8D0000FFFF0F006E
:1052E00000000000432EE63F396CA80C615C20BE34
:1052F000EF39FAFE422EE63F748C000000000000F9
:10530000000000000000004070B504462DED028B47
:105310004D1E00EBC500B0EE408AF0EE608A90EDC5
:10532000000B35F0060017D053EC182B51EC100B86
:1053300008F054F841EC100B6D1E04EBC50090ED25
:10534000001B51EC100B53EC112B07F09DFD41ECB1
:10535000100B35F00600E7D1022D36D0042D1CD0FD
:10536000062D1CBFBDEC028B70BD53EC182B51EC0D
:10537000100B08F033F894ED0A1B53EC112B07F0D7
:1053800083FD53EC182B08F029F894ED081B53EC1F
:10539000112B07F079FD41EC100B53EC182B51EC5D
:1053A000100B08F01BF894ED061B53EC112B07F0C3
:1053B0006BFD53EC182B08F011F894ED040B53EC33
:1053C000102B07F061FD41EC100B53EC182B51EC46
:1053D000100B08F003F894ED021B53EC112B07F0AF
:1053E00053FD53EC182B07F0F9FF94ED001B53EC21
:1053F000112B07F049FDBDEC028B41EC100B70BD89
:105400009FED070B10B553EC102B9FED070B51ECE4
:10541000100B07F0F5FD41EC100B10BD0000000073
:105420000000000000000000000000000000F03F4D
:1054300010B553EC112B51EC100B07F025FD41EC8E
:10544000100B10BD000000009FED050B10B553ECD4
:10545000102B51EC100B07F0D3FD41EC100B10BDDD
:1054600000000000000000009FED050B10B553EC9C
:10547000102B51EC100B07F0B1FF41EC100B10BDDD
:1054800000000000000000709FED050B10B553EC0C
:10549000102B51EC100B07F0A1FF41EC100B10BDCD
:1054A000000000000000001030380A2801D201205E
:1054B00070470020704700BF7047F0B593B00446B6
:1054C0000D4616461F46684601F0E6FF01208DF89E
:1054D0000000CDF80140CDF80550CDF80960CDF8B9
:1054E0000D70684601F06CFF13B0F0BD2DE9FC4172
:1054F00004460D4616461F464FF000080020019056
:1055000000902046294604F057FC8046B8F1FF0F72
:105510004FD1314890F86000042824DA2E4890F8E2
:105520006010203000EB011030C02B4890F8601064
:10553000203000EB01104772274890F860102030AF
:1055400000EB011006720121234890F86020203002
:1055500000EB0210C160204890F86000401C1E491A
:1055600081F8600035E0694601A804F0E5FB9DF88C
:10557000000086422DDC184820309DF8041000EB16
:10558000011030C0144820309DF8041000EB0110C9
:105590004772114820309DF8041000EB011006728C
:1055A00001210D4820309DF8042000EB0210C1605D
:1055B0000FE00948203000EB081047720648203001
:1055C00000EB0810067201210348203000EB0810A0
:1055D000C160BDE8FC8100007807002010B58EB0E6
:1055E0000446342101A8FBF7F9F9E3B2220A1DA110
:1055F00001A8FAF74DFF01A8FEF770FF4FF4FA700B
:1056000001F004FC1CA11D48FBF7F2F81C490860DE
:1056100020E01C480068401C1A4908601AA0FAF7EC
:105620002BFFFCF7C1FE01A8FEF758FF4FF4FA70FC
:1056300001F0ECFB10A11148FBF7DAF81049086003
:1056400010480068592805DD00200E490860022036
:105650000EB010BD0A4800680028DAD0FCF7A4FE9E
:105660000020F5E741542B414444523D2530325847
:105670002C253032580D0A004F4B0000C409002081
:1056800038000020340000200D0AB5A5C6ACBBFAD6
:10569000D5FDD4DAD6D8D0C2C5E4D6C3B5D8D6B7EE
:1056A0002E2E2E0D0A00000010B5FCF77DFE22A064
:1056B000FEF714FF4FF47A7001F0A8FB20A12148F7
:1056C000FBF796F82049086000202049086022E096
:1056D0001E480068401C1D4908601DA0FAF7CCFE5A
:1056E000FCF762FE14A0FEF7F9FE4FF4FA7001F029
:1056F0008DFB13A11348FBF77BF81349086013488F
:105700000068322804DD002010490860022010BD26
:10571000012001F07BFB0C4800680028D8D0FCF782
:1057200043FE13A0FEF7DAFE4FF4FA7001F06EFBB1
:10573000FCF73AFE0020EAE741540D0A00000000A1
:105740004F4B0000C4090020380000203400002026
:105750000D0AB5A5C6ACBBFAD5FDD4DAD6D8D0C2F1
:10576000C1ACBDD3C4A3BFE92E2E2E0D0A0000008C
:10577000415445310D0A000010B58EB00446342165
:1057800001A8FBF72BF922461DA101A8FAF780FE1C
:1057900001A8FEF7A3FE4FF4FA7001F037FB1DA13C
:1057A0001D48FBF725F81D49086020E01C480068EB
:1057B000401C1B4908601BA0FAF75EFEFCF7F4FDD5
:1057C00001A8FEF78BFE4FF4FA7001F01FFB11A148
:1057D0001148FBF70DF81149086011480068FA28D4
:1057E00005DD00200E49086002200EB010BD0B48F8
:1057F00000680028DAD0FCF7D7FD0020F5E70000AC
:1058000041542B444154414B45593D253038580DA6
:105810000A0000004F4B0000C4090020380000209F
:10582000340000200D0AB5A5C6ACBBFAD5FDD4DA0C
:10583000D6D8D0C2C5E4D6C3C3D8D4BF2E2E2E0D21
:105840000A000000012001490860704798024342A5
:105850000020014908607047980243421CB50121AD
:105860000846FDF7B1FE01214020FDF77DFE4020F6
:10587000009001208DF8040000208DF80600032020
:105880008DF8050001208DF8070069460B48FDF7EB
:10589000D0FA4FF48050009000208DF804000320CF
:1058A0008DF8050001208DF8070069460448FDF7D2
:1058B000C0FA0120034908601CBD00000018024026
:1058C000000002409802434270B506460D46FFF7BD
:1058D000C5FF304604F004FDFFF7B4FF142001F0CB
:1058E00095FAFFF7E1FE04460020FFF777FE044635
:1058F000002000F0D5F82044C4B2032000F092FA52
:105900002044C4B21721002000F088FB2044C4B218
:10591000002000F073FC2044C4B2002000F014FA10
:105920002044C4B2032000F021F92044C4B2002076
:1059300000F0F6FB2044C4B20021072000F0E6FA94
:105940002044C4B2012000F033F82044C4B22846F9
:10595000FFF712FF2044C4B2012000F07DF920447B
:10596000C4B2FFF775FF34B10A2C04D004A0FAF7D3
:1059700083FD012070BD08A0FAF77EFD0020F9E745
:105980006C6F726120636F6E666967206661696C17
:1059900065640D0A000000006C6F726120636F6621
:1059A000696720737563636573730D0A00000000F7
:1059B00010B58EB00446342101A8FBF70FF814B1DE
:1059C000012C0AD104E022A101A8FAF761FD07E049
:1059D00022A101A8FAF75CFD02E003200EB010BD81
:1059E00000BF01A8FEF77AFD4FF4FA7001F00EFA3D
:1059F0001DA11E48FAF7FCFE1D49086020E01D4865
:105A00000068401C1B4908601BA0FAF735FDFCF735
:105A1000CBFC01A8FEF762FD4FF4FA7001F0F6F935
:105A200011A11248FAF7E4FE114908601148006814
:105A3000B0F5967F04DD00200E4908600220CDE716
:105A40000B4800680028DAD0FCF7AEFC0020C5E760
:105A500041542B4C42543D300D0A000041542B4C14
:105A600042543D310D0A00004F4B0000C409002094
:105A700038000020340000200D0AB5A5C6ACBBFAE2
:105A8000D5FDD4DAD6D8D0C2C5E4D6C3C4A3BFE905
:105A9000D0C5B5C0BCECB2E22E2E2E0D0A0000001F
:105AA00010B58EB00446342101A8FAF797FF2246BC
:105AB0001DA101A8FAF7ECFC01A8FEF70FFD4FF4B9
:105AC000FA7001F0A3F91CA11C48FAF791FE1C49D9
:105AD000086020E01B480068401C1A4908601AA0B2
