:020000040800F2
:1000000080A00020B503000889430008AD3B00082C
:10001000ED4000083D230008A56300080000000033
:10002000000000000000000000000000F5020008D1
:10003000412E00080000000051030008D9560008B6
:10004000CF030008CF030008CF030008254D0008A8
:10005000CF030008CF03000865390008CF0300086C
:10006000CF030008CF030008CF030008CF03000828
:10007000CF030008CF030008CF030008CF03000818
:10008000CF030008CF030008CF030008CF03000808
:10009000CF030008CF030008CF030008CF030008F8
:1000A000CF030008CF030008CF030008CF030008E8
:1000B00073580008E9580008CF030008CF03000870
:1000C000CF030008CF030008CF030008CF030008C8
:1000D000CF030008F95F000895600008F160000890
:1000E000CF03000869480008CF030008CF030008C9
:1000F000CF030008CF030008CF030008CF03000898
:10010000CF030008CF030008CF030008CF03000887
:10011000FD5D0008CF030008CF030008CF030008EF
:10012000CF030008CF030008CF030008CF03000867
:10013000CF030008CF030008CF030008CF03000857
:10014000CF030008CF030008CF030008CF03000847
:10015000CF030008CF030008CF030008CF03000837
:10016000CF030008CF030008CF030008CF03000827
:10017000CF030008CF030008CF030008CF03000817
:10018000CF030008CF03000800F002F800F0A2F847
:100190000AA090E8000C82448344AAF10107DA45E2
:1001A00001D100F097F8AFF2090EBAE80F0013F092
:1001B000010F18BFFB1A43F001031847580901004B
:1001C000780901000A4410F8014B14F00F0508BF2C
:1001D00010F8015B240908BF10F8014B6D1E05D013
:1001E00010F8013B6D1E01F8013BF9D1641E03D0EC
:1001F000641E01F8015BFBD19142E4D3704700001B
:100200000023002400250026103A28BF78C1FBD81F
:10021000520728BF30C148BF0B6070476E2900F0FD
:10022000E684702900F07D82662910F0C681652978
:1002300010F0C381672910F0C081612910F0BF81DF
:1002400003681B0A28BF41F08001692900F0EE8194
:10025000642900F0EB81752900F0E8816F2900F036
:10026000EB87782900F04982E92900F08587E429A5
:1002700000F08287F52900F07F87EF2900F0E887FA
:10028000F82900F048820368DB0928BF41F08001AB
:10029000632900F0F486732900F0F986E32901F060
:1002A000F781F32901F0FC81002070471FB510F0A1
:1002B0007AF900F0D7FF0400002000210FF00EFBB8
:1002C000401C6060002000210FF0F2FAE0601FBDCA
:1002D00010B510BD01F07EFA1146FFF7E7FF09F0F7
:1002E000E9FA01F0A5FA03B4FFF7F2FF03BC07F047
:1002F0007FF800002C4B19680868B0E8F04F80F3D5
:100300000988BFF36F8F4FF0000080F311887047AA
:100310000000000008480068006880F308884FF07B
:10032000000080F3148862B661B6BFF34F8FBFF34D
:100330006F8F00DF00BF00BF08ED00E0DFF80C00AA
:10034000016841F470010160704700BF88ED00E072
:10035000EFF30980BFF36F8F134B1A681EF0100F75
:1003600008BF20ED108A20E9F04F106009B44FF06B
:10037000500080F31188BFF34F8FBFF36F8F0DF0E4
:1003800019FD4FF0000080F3118809BC1968086856
:10039000B0E8F04F1EF0100F08BFB0EC108A80F3E9
:1003A0000988BFF36F8F704728010020EFF30580A5
:1003B000704700000948804709480047FEE7FEE70C
:1003C000FEE7FEE7FEE7FEE7FEE7FEE7FEE7FEE705
:1003D00004480549054A064B70470000E9560008E5
:1003E00089010008806E002080A00020807000201D
:1003F00080700020704753EA020C00F069802DE9FC
:10040000F04B4FF00006002B1FBFB3FA83F503FA41
:1004100005F424FA05F65E4012BF1643B2FA82F5DF
:1004200002FA05F4C5F120051EBF22FA05FC44EAD4
:100430000C04203556EA044C4FEA144418BF641CDF
:100440004FF000084FF00009904271EB030C39D3D4
:10045000002919BFB1FA81F701FA07F6B0FA80F75F
:1004600000FA07F6C7F120071EBF20FA07FC46EA8C
:100470000C062037B6FBF4FCA7EB0507103F07F08E
:100480001F0BCBF120060CFA0BFB2CFA06F644BF2F
:10049000B3460026202FA4BF5E464FF0000B5BEA58
:1004A000060C08BF4FF0010B19EB0B09ABFB027CEC
:1004B00048EB0608C01B06FB02CC0BFB03CC71EB20
:1004C0000C01C1E70B46024641464846BDE8F08BA9
:1004D00013B54FF000004FF00001AFF30080BDE80E
:1004E0001C407047B2F120030AD5C2F1200301FA83
:1004F00002F120FA03F300FA02F041EA0301704727
:1005000000FA03F14FF000007047B2F120030AD562
:10051000C2F1200320FA02F001FA03F321FA02F1FA
:1005200040EA0300704721FA03F04FF000017047E2
:100530000FB4044910B503AA029800F0ADFD10BC39
:100540005DF814FBB80000200FB4044910B503AAED
:10055000029800F0A1FD10BC5DF814FBB80000206B
:100560000FB41CB5084B06AA7B4469460090059859
:1005700000F063FD04460020694600F071FD20464E
:100580001CBC5DF814FB0000F50A000070B50446C1
:1005900085690068C10601D5302600E02026C00725
:1005A00007D070BDD4E9012130469047206A401C35
:1005B00020626D1EF6D570BD70B504468569007861
:1005C000C00707D170BDD4E9012120209047206ADF
:1005D000401C20626D1EF6D570BD70B50C460546F8
:1005E000012A05D02878800600D5EA69002302E0B8
:1005F000012305E05B1C934202D2E05C0028F9D1A4
:10060000A869E618C01AA861286A18442862284612
:10061000FFF7BCFF04E0D5E9012114F8010B904776
:10062000B442F8D32846FFF7C7FF70BD2DE9F0416B
:100630000646002410687529314616A510D000F032
:100640006BFA002802DA404213A507E031688A07F6
:1006500001D512A502E0490704D511A5012401E046
:1006600000F063FA00210A2206F1240709E0B0FB3A
:10067000F2FCB0FBF2F302FB1C0030307854184659
:10068000491C0028F3D123462A463046BDE8F041F4
:1006900000F054BA000000002D0000002B00000004
:1006A00020000000F0B40D460188090502D5214C58
:1006B0007C4402E01F4C7C440E34002100F12406EF
:1006C00008E002F00F071209E75D42EA03721B0916
:1006D0007754491C52EA0307F3D10278002312072A
:1006E00004D5702D06D009B1022311342246F0BC86
:1006F00000F024BA01231034F8E770B504460D4623
:100700002146106800F011FA024629462046BDE84D
:1007100070400023C6E7D21D22F00703D3E900236F
:10072000C0E70368126843F0200303600823C36135
:100730000023B7E7FE0101002DE9F05F894604467A
:100740004FF0000ADFF874B1FB44C0F820A0204647
:10075000E1688847002874D0252806D0D4E9012113
:100760009047206A401C2062F1E700265F46204641
:10077000E16888472028054607DB312D05D2781926
:1007800010F8200C08B10643F1E7B00701D526F0B8
:100790000406C4F81CA00027C4F818A02A2D09D00C
:1007A000284606F01EFE38B304EB8708303DC8F833
:1007B000185019E059F8041B204604EB8702916198
:1007C000E1688847012F054618D1E069002820DA42
:1007D00026F020061DE0D8F8180000EB800005EB9D
:1007E00040003038C8F818002046E16888470546C0
:1007F00006F0F7FD0028EED1012F0AD02E2D08D1EA
:100800002046E16888477F1C0546022F46F02006F7
:10081000C4DBA069002803DA404246F00106A0616B
:10082000F00701D026F010066C2D0BD0682D09D0F2
:100830004C2D39D06A2D35D0742D35D07A2D33D04A
:1008400016E038E0E1682F4620468847B842054662
:1008500009D16C2F26D04FF48060E1680643204612
:100860008847054604E06C2F1AD04FF48070064389
:100870000DB3A5F14100192802D8203546F40066D1
:100880004A462946204626604E46FFF7C7FC80B1FF
:1008900001280BD0F61D26F0070000F1080956E7E5
:1008A0004020E4E78020D8E70020D6E706F10409DD
:1008B0004DE7284652E7206ABDE8F09F8E0101000F
:1008C00030B505460B462A4613F8014B12F8010BCA
:1008D00008B1A042F8D01CB1002802D06D1CF1E78D
:1008E000284630BD40EA0103024630B59B0710D1CF
:1008F0004FF0013400E008C208C91D1B9D4315EAF2
:10090000C41FF8D013F0FF0102F8011B0DD01B0A21
:10091000F8E711F8013B002B02F8013B05D011F874
:10092000013B002B02F8013BF3D130BD10B5431C55
:1009300002E010F8011B71B18107FAD14FF00132CA
:1009400002C88C1A8C4314EAC211F9D0C01A0A06E4
:1009500003D0C01E10BDC01A10BD0A0401D0801EF5
:1009600010BD0902FCD0401E10BD032A40F23080A9
:1009700010F0030C00F0158011F8013BBCF1020FE0
:10098000624498BF11F801CB00F8013B38BF11F861
:10099000013BA2F1040298BF00F801CB38BF00F878
:1009A000013B11F0030300F02580083AC0F00880F5
:1009B00051F8043B083A51F804CBA0E80810F5E7D9
:1009C000121D5CBF51F8043B40F8043BAFF30080BC
:1009D000D20724BF11F8013B11F801CB48BF11F831
:1009E000012B24BF00F8013B00F801CB48BF00F801
:1009F000012B704710B5203AC0F00B80B1E81850B9
:100A0000203AA0E81850B1E81850A0E81850BFF4F8
:100A1000F5AF5FEA027C24BFB1E81850A0E8185097
:100A200044BF18C918C0BDE810405FEA827C24BFEB
:100A300051F8043B40F8043B08BF7047D20728BF79
:100A400031F8023B48BF11F8012B28BF20F8023BC8
:100A500048BF00F8012B704702F0FF0343EA03226E
:100A600042EA024200F002B84FF000020429C0F04E
:100A7000128010F0030C00F01B80CCF1040CBCF1D0
:100A8000020F18BF00F8012BA8BF20F8022BA1EB22
:100A90000C0100F00DB85FEAC17C24BF00F8012B07
:100AA00000F8012B48BF00F8012B70474FF00002FF
:100AB00000B5134694469646203922BFA0E80C5054
:100AC000A0E80C50B1F12001BFF4F7AF090728BF2F
:100AD000A0E80C5048BF0CC05DF804EB890028BFAB
:100AE00040F8042B08BF704748BF20F8022B11F0D4
:100AF000804F18BF00F8012B704770477047704750
:100B0000704710B500F0B2FB006810BD10B5044688
:100B100000F0ACFB046010BD09684A0501D540B285
:100B20007047C905FCD500B2704709684A0501D570
:100B3000C0B27047C905FCD580B270472DE9F047B7
:100B40000D4699469246044600F12408016888063D
:100B500004D5E06921F01001216000E00120A842E5
:100B600001DD471B00E00027A1697A1902EB0900AB
:100B7000081AA0612078C00602D42046FFF706FDBF
:100B8000002608E0D4E901211AF806009047206AFF
:100B9000401C761C20624E45F4DB2078C0060AD546
:100BA0002046FFF7F3FC06E0D4E90121302090470E
:100BB000206A401C2062381EA7F10107F4DC07E020
:100BC000D4E9012118F805009047206A401C2062F2
:100BD000281EA5F10105F3DC2046FFF7EDFC207887
:100BE000000602D50220BDE8F0870120FBE711686E
:100BF0000268006A530501D508700AE0D30501D5E3
:100C0000088006E0130603D5C217C1E9000200E020
:100C100008600120704770472DE9FF4F0C461E46C3
:100C20004FF0FF378BB0D2E90001DDF860800A9009
:100C30008A46C1F30A5505B93D46002108464FF0E2
:100C40000000BAF1000F00F4400005DA00EB80006C
:100C50004FF4400101EA50004FEA9059B9F1010FF9
:100C600000DDB9460A9850EA4A000ED044F610500A
:100C7000A5F2FF3545432F14B8F1000F1ED0754281
:100C8000291E1EDDC9F100021CE0B8F1010F4FF072
:100C9000000001D0302103E0F24305E02154401C64
:100CA000B042FBDB30460022002121540B99C1F8F1
:100CB0000880C1E900200FB0BDE8F08FBD1B6D1C9E
:100CC000DEE74A4600DA694206A800F0EDFC06AB12
:100CD00093E8070003AB83E8070050460A9900F049
:100CE000EDFD8DE80700A0F500501F380090039837
:100CF000002D09DD42F21F014A46084403A9039072
:100D0000684601F04CF808E0A0F500504A461F384C
:100D100003A90390684601F056F88DE80700000427
:100D2000000C03D04FF0FF30410800E01046B8F14E
:100D3000000F03D00022009215461EE0751E05D458
:100D400000F098FA303262556D1EF9D5B346012293
:100D5000084302D000227F1C04E02078302801D113
:100D600000227F1E002A099786D01DE0112D07DA88
:100D700000F080FA303262556D1C50EA0102F5D164
:100D8000084302D00098C8B10EE00021681E05E0BB
:100D9000235C625C63542254401E491C8142F7DB91
:100DA000AB46A81B401E0990002004F80B000B98CE
:100DB000099AC0F80880C0E9002B7CE711264FF0A3
:100DC000000859E72DE9F04F88460446D21D22F06D
:100DD000070191B0D1E90001CDE90A0105F0F8FB66
:100DE00002460B98C00F01D02D2007E02068810734
:100DF00001D52B2002E0202101EAC000032A09903E
:100E000001D0072A05DB03464146204600F0F6FBE9
:100E10000BE12078800601D5E06900E00620B8F1FA
:100E2000650F814606D0B8F1660F18D0B8F1670F8C
:100E300070D131E00020B9F1110F009001DB1123D6
:100E400001E009F101030AAA01A90CA8FFF7E4FED9
:100E5000DDE90C70002609F10105834647E0012019
:100E60004B4600904FF000470AAA01A90CA8FFF7D3
:100E7000D3FEDDE90DB00C995D46002610B909F1ED
:100E800001000D18B9EB050003D4C0F1FF3609F1DC
:100E90000105A5EB09002BE0B9F1010F01DA4FF0D4
:100EA00001090020B9F1110F0090484601DD11231E
:100EB00000E003460AAA01A90CA8FFF7ADFEDDE990
:100EC0000C704D4600268346207800070AD4AB45B7
:100ED00000DA5D4601A8012D04DD411911F8011C5D
:100EE000302907D04F4502DA17F1040F04DA012048
:100EF00082460FE06D1EEEE7002F02DCED1B3E4444
:100F000003E0781CA84200DD7D1CB81B00F1010A3B
:100F10004FF000472078000703D4AA4501DB4FF0CB
:100F2000FF3A0021B7F1004F0DF143088DF843104F
:100F300024D002202B23002F01DA7F422D230A2107
:100F4000021EA0F1010000DC5FB197FBF1FC97FBF2
:100F5000F1F201FB1C7C17460CF1300C08F801CDB6
:100F6000EEE7A8F1010003702188090501D54521AC
:100F700000E06521A0F1010800F8011C09980FA903
:100F8000A1EB0807FF1D00B10120411901EBEA7038
:100F9000A1693844081A401EA0612078C00602D416
:100FA0002046FFF7F3FA099828B1D4E901219047C8
:100FB000206A401C20622078C00622D52046FFF718
:100FC000E5FA1EE0002E04DBB34502DD01A8805DDA
:100FD00000E03020D4E901219047206A401C2062C3
:100FE000761CAAF101005FEA000A0AD100F03AF982
:100FF000C0680168405CD4E901219047206A401C28
:101000002062281EA5F10105DCDC07E0D4E90121FE
:1010100018F8010B9047206A401C2062381EA7F187
:101020000107F3DC2046FFF7C7FA032011B043E6BF
:1010300001694A1C02610878704700B58FB0CDE99C
:1010400001310021059105497944CDE9031011468C
:101050006846FFF771FB0FB000BD0000E5FFFFFF22
:101060000A6802F8010B0A60704710B5436913B1B2
:10107000AFF3008001E0FFF7B0FA012010BD127855
:1010800000F124010A7000224A700122EDE7116884
:101090004FF0FF32E9E70000074B70B50D467B4487
:1010A000FFF7CBFF0446284600F06CFB10B14FF071
:1010B000FF3070BD204670BD978300002DE9FF5FB3
:1010C00015468A460446DFF8AC80F8440027D8E984
:1010D00000103E46CDE9001010E03AF816106A46BE
:1010E00002A800F053FB411C07D02178890603D5E4
:1010F000E269391891420DD80744761C20788006A1
:1011000002D5E069B84205DDAE42E6DB3AF81600EA
:101110000028E2D1A069C01BA0612046FFF736FA83
:10112000D8E90010CDE90010002017E03AF81810B7
:101130006A4602A800F02AFBB0F1FF3F81460BD0BF
:1011400000250DF1080B05E0D4E901211BF805008D
:1011500090476D1C4D45F7D308F10100B042804621
:10116000E4DB206A384420622046FFF725FABDE818
:10117000FF9F0000AAF800002DE9F0418046D21D33
:1011800022F007020025D2E90002F52915A614D0A5
:10119000011E72F1000106DA0023D0EB030063EBBD
:1011A000020211A608E0D8F800108B0701D50FA69F
:1011B00002E0490701D50EA601251146002408F1D9
:1011C000240704E000F056F830323A55641C50EA27
:1011D0000102F7D12B46324621464046BDE8F04198
:1011E000FFF7ACBC000000002D0000002B00000049
:1011F0002000000030B4002100F1240408E002F0D7
:101200000705D208303542EA4372DB086554491CB1
:1012100052EA0305F3D10468002310A2250708D57C
:1012200004F020040C4304D0C46901230CA2641E02
:10123000C46130BCFFF782BC10B50446214610687B
:10124000FFF773FC02462046BDE810400023D1E7BB
:10125000D21D22F00701D1E90023CBE700000000F6
:101260003000000000487047406E00200048704782
:10127000206E002030B5B0F10A024FEA900E71F1F5
:1012800000034EEA817EB0EB0E0061EB91014FEA64
:10129000101E4EEA017E10EB0E0041EB11114FEAD9
:1012A000102E4EEA016E10EB0E0041EB11214FEAB9
:1012B000104E4EEA014E10EB0E0041EB114140186A
:1012C00041F100014FEAD00040EA41704FEAD101FC
:1012D00010EB80054FEA810444EA907444EB01046A
:1012E0006D1944EB0404521BA3414FF0000348BFA7
:1012F0000A3200D530BD401C41F1000130BD000074
:101300002DE9F04F04460D46D21D22F0070089B0AA
:10131000D0E9009248461746394605F059F9024689
:10132000F80F01D02D2307E02068810701D52B237A
:1013300002E0202101EAC0038DF820300BB101202A
:1013400000E00020032A824601D0072A04DB294658
:10135000204600F053F93DE12078800601D40D25A8
:1013600000E0E569C7F30A560D2D49DA00214FEA7E
:10137000175B08464FF00000002F00F4400007DA2A
:1013800000EB80004FF4400100EBD07001EA6000F8
:101390008115012901DD4FF0FF3100224FEA850C54
:1013A000BCF1180F06D31346ACF118004FF0805271
:1013B000C24003E04FF4801323FA0CF30CF10C0C41
:1013C000BCF1200F04D3ACF1200C09FA0CF001E0C1
:1013D00007FA0CF000294FF0004801DD18B90FE0C2
:1013E0000ED140450CD319EB02095F4121B94045AC
:1013F00002D19F4329EA0209BBEB175F00D0761C9C
:101400002088000502D57B48784402E0794878447A
:10141000193808AA302302F80A30037C0AF10101C6
:10142000002E0AF1020A53546A4602DC4FF03001E2
:1014300001E04FF031014FF001088DF8001002D0AB
:10144000A6F2FF3603E059EA470100D06A4E002DAC
:1014500002DC2178090704D54FF002082E218DF80F
:101460000110C44600210BE0C7F303433F01C35CF6
:10147000491C6D1E02F80830052908F1010801DA3F
:10148000002DF1DC00210CE000EB1973491C1B78E6
:101490006D1E082902F808304FEA091908F1010801
:1014A00001DA002DF0DC2178890602D514E0A8F1DC
:1014B0000108E04505DD02EB080111F8011C3029A7
:1014C000F5D0B8F1000F07DD02EB080111F8011C9F
:1014D0002E2901D1A8F10108002D05DD3E2102F8D9
:1014E00008106D1E08F10108407C002E02F808006B
:1014F00008F1010804DA2D20764202F8080002E023
:101500002B2002F808000A214FF47A70864208F175
:1015100001080BDB96FBF0F3303302F8083096FB42
:10152000F0F308F1010800FB136601E0642E0CDB08
:10153000642096FBF0F3303302F8083096FBF0F3AA
:1015400008F1010800FB136601E00A2E06DB96FB9A
:10155000F1F0303002F8080008F1010896FBF1F0D4
:1015600001FB1060303002F80800A16908F10108A1
:1015700008EB050202EB0A00081AA0612078C006F9
:1015800002D42046FFF702F8216A08AE01EB0A00F8
:10159000206204E0D4E9012116F8010B9047BAF16A
:1015A000010AF7D22078C00602D52046FEF7EEFFEA
:1015B0006E4609E016F8010B3E280FD0D4E9012150
:1015C0009047206A401C2062B8F10108F2D2204600
:1015D000FEF7F2FF09B00320BDE8F08F206A28442F
:1015E000206203E0D4E90121302090476D1EEBD347
:1015F000F8E700008FF5000002FCFFFF2DE9F04145
:101600001F46044603260168072A01F4006004DB34
:1016100008B116A505E016A503E008B115A500E080
:1016200015A521F010002060A069C01EA0610FB1B7
:10163000401EA0612046FEF7A9FF4FB1D4E9012169
:1016400038469047206A401C2062C01C206206E099
:10165000206AFAE7D4E9012115F8010B9047761EBC
:10166000F8D22046FEF7A8FFBDE8F0814E414E00BB
:101670006E616E00494E4600696E660010B54369A2
:1016800013B1AFF3008001E0FFF718FD012010BD9A
:10169000128800F1240182840022C2840122EDE735
:1016A00011684FF0FF32E9E72DE9F0478146164611
:1016B0008AB0334878440DC88DE80D00304878442E
:1016C000801C03AC0DC884E80D0041F69B30084433
:1016D000372190FBF1F290FBF1F5A5F1800501FBBC
:1016E00012041B3C02D56442012000E00020DFF818
:1016F00090A080460027FA44AAF1BE0A0DE0E00758
:1017000009D03246684607EB47010AEB810100F039
:101710005AFB8DE8070064107F1C002CEFD1184F96
:101720007F44AC3F18E0E80714D007EB04100DF13C
:10173000180A90E80E008AE80E00C068F04201D155
:1017400098190890324606A903A800F03CFB03ABA9
:1017500083E807006D10641C002DE4D13246694611
:10176000B8F1000F03A802D000F019FB01E000F06F
:101770002AFBC9E90001C9F808200AB0BDE8F087D2
:1017800074F30000007B00F08000704770B51646CF
:101790000C46054600F044F8036893F8010101285F
:1017A00006D0FF2C0FD8185D68B101202C7070BDD9
:1017B000D3F807013246214603F2071303442846B3
:1017C000BDE8704018474FF0FF3070BD00487047CB
:1017D000206E00207546FFF7F9FFAE46050069460A
:1017E000534620F00700854618B020B5FEF7F0FDFF
:1017F000BDE820404FF000064FF000074FF0000812
:101800004FF0000B21F00701AC46ACE8C009ACE892
:10181000C009ACE8C009ACE8C0098D4670470000BB
:1018200010B5FFF71FFD001D10BD00BFB1E00000A7
:101830000446AFF300802046FEF755FD4FF0013C13
:1018400050F8042B51F8043B9A4221D1A2EB0C032F
:10185000934313EACC1317D150F8042B51F8043BEF
:101860009A4215D1A2EB0C03934313EACC130BD18C
:1018700050F8042B51F8043B9A4209D1A2EB0C0317
:10188000934313EACC13DBD04FF00000704700BF46
:10189000D01A01BAB1FA81F101F0180122FA01F06F
:1018A000CB40C1F12001DBB2C0B2C01A2CFA01F367
:1018B000D11A914311EAC311E6D170475FEA400C97
:1018C00008BF91F0000F4FEA8C234FEAC12243EA90
:1018D00051514FEA1C5018BF00F5F0404FEA30005C
:1018E00018BF41F000415FEA6C5C00F02980BCF158
:1018F000FF3F08BF40F080407047130C06BF120442
:101900004FF0100C4FF0000C130E04BF12020CF13C
:10191000080C130F04BF12010CF1040C930F04BF49
:1019200092000CF1020CD30F04BF52000CF1010C19
:1019300011464FF00002A0F11F00A0EB0C00704711
:1019400011F0004F08BF704731F000413FF4D5AFB0
:101950000B0C06BF09044FF0100C4FF0000C0B0EDF
:1019600004BF09020CF1080C0B0F04BF09010CF1B4
:10197000040C8B0F04BF89000CF1020CCB0F04BFC9
:1019800049000CF1010CCCF12003A0EB0C0022FA71
:1019900003F302FA0CF241EA030100F1010070477F
:1019A00020F07F4C80EA030023F07F47ACEB070375
:1019B00003F57C5300F0004003F1FF032DE980495B
:1019C0004FEA154B09B44FEA144325EA0B4E24EABB
:1019D00003480FF2042606EB132749083E785FEA16
:1019E000320203FB0667C7F5000707FB06F64FEA5E
:1019F00054374FEAD64606F1020607FB066CCCF1D7
:101A0000005C4FEA1C472CEA074C07FB06F40CFB72
:101A100006F504EB15464FEA961634BF00204FF04A
:101A200000404FEAD13706FB07FC4FEA1C4C0CFB89
:101A30000BF7D21B03FB0CF761EB07010CFB0EF756
:101A4000B0EB074072EB17420CFB08F734BFA2EB78
:101A50000742B2EB074261EB17414FEA0C444FEAF1
:101A6000910706FB07FC4FEA1C4C0CFB0BF7B0EB95
:101A7000C74072EB573203FB0CF734BFA2EBC742EF
:101A8000B2EBC74261EB57310CFB0EF7B0EBC7006E
:101A900072EB57720CFB08F734BFA2EBC702B2EB34
:101AA000C70261EB5771039F4FEA816141EA9211CE
:101AB00004EBCC044FEAD1374FEA826206FB07FC05
:101AC00042EA90124FEA80604FEA1C4C0CFB0BF785
:101AD000D21B03FB0CF761EB07010CFB0EF7B0EB1D
:101AE000074072EB17420CFB08F734BFA2EB07422A
:101AF000B2EB074261EB17414FEA8C554FEA910771
:101B000004EB9C2406FB07FC4FEA1C4C0CFB0BF778
:101B1000B0EBC74072EB573203FB0CF734BFA2EBBC
:101B2000C742B2EBC74261EB57310CFB0EF7B0EB8B
:101B3000C70072EB57720CFB08F734BFA2EBC70269
:101B4000B2EBC70261EB577115EB4C254FEA81618F
:101B500041EA92114FEA82624FEAD13742EA90128B
:101B600006FB07FC44F100044FEA80604FEA1C4C7E
:101B70000CFB0BF7D21B03FB0CF761EB07010CFB13
:101B80000EF7B0EB074072EB17420CFB08F734BFBF
:101B9000A2EB0742B2EB074261EB174115EB1C15B4
:101BA0004FEA813141EA92414FEA823242EA904261
:101BB0004FEA80304FEA0C7644F1000448EA0343D0
:101BC0004EEA0B484FF0000EB2EB080C71EB030726
:101BD00024BF624639464EEB0E0E4FF0000B001844
:101BE000524149414BEB0B0BB2EB080C71EB030775
:101BF0007BF1000B24BF624639464EEB0E0E4FF0D0
:101C0000000B0018524149414BEB0B0BB2EB080C97
:101C100071EB03077BF1000B24BF624639464EEBA4
:101C20000E0E51EA020718BF46F0010616EB0E76BB
:101C300055F1000254F1000103D5BDE88901BDE86A
:101C40000088BDE88901BDE80048B619524141EB62
:101C50000101A3F10103704780807F7E7D7C7B7A48
:101C60007978777676757473727171706F6E6E6D48
:101C70006C6C6B6A6A6968686766666564646363EE
:101C800062616160605F5F5E5E5D5D5C5C5B5B5A74
:101C90005A595958585757565655555554545353E1
:101CA00052525251515050504F4F4F4E4E4D4D4D3C
:101CB0004C4C4C4B4B4B4A4A4A4949494848484787
:101CC00047474746464645454544444444434343C5
:101CD0004342424242414141002B26D4770021D069
:101CE0001CB54FEA370703B44FF010004FF0100156
:101CF0004FF000000FBCBDE810400BF1010BBBF131
:101D0000010F08BF5FEA170722BF12F1010211F1AC
:101D100001014FF0004143F1000300F0004043EAAD
:101D200000007047F9D35708DAE746EA064613F190
:101D3000400F4FEA16461FDD13F1200FDFBF164399
:101D40000A46002120335B42C8D0C3F1200746EA8F
:101D5000064602FA07F74FEA164646EA0706C3F1B7
:101D6000200722FA03F201FA07F721FA03F14FF0F4
:101D7000000342EA0702B1E746EA020646EA0646DF
:101D80004FEA164646EA0106BCBF46EA0646360C4E
:101D90004FF000034FF000024FF000019EE72DE9E5
:101DA000C048934630B491E8380007C831EA400C87
:101DB00048BF34EA430C03D5FFF7F2FDFFF78CFF71
:101DC000F0BCBDE800882DE9C048934630B491E8E6
:101DD000380007C810F0804F08BF13F0804F03D1C0
:101DE00000F005F8FFF778FFF0BCBDE8008820F0B0
:101DF0007F4780EA030023F07F4C07EB0C03A3F539
:101E00007C5300F00040A3F1FE0392F0000F00F0BD
:101E1000B38095F0000F00F077802DE901494FEA7B
:101E200011404FEA144621EA004800FB06FC24EA70
:101E3000064708FB06F607FB08F800FB07F718EB58
:101E400006484CEB164C4FEA124B18EB07484FEA8A
:101E500015464CEB174022EA0B4E0BFB06FC25EA1D
:101E600006470EFB06F607FB0EFE0BFB07F71EEB05
:101E7000064E4CEB164C4FF000061EEB074E4CEB9B
:101E8000174B18EB0B0840F1000018EB0E0B58EB4A
:101E9000000840F100008F1A4FF000013CBFC94319
:101EA000661B14BFB5EB040C00213CBFC943F61BF5
:101EB0004FEA17444EEA8E0E27EA04454FEA1C47C4
:101EC00004FB07622CEA074C05FB07F70CFB05F641
:101ED00004FB0CFC16EB074642EB174216EB0C46D4
:101EE00042EB1C421BEB060658EB0202414146EA5C
:101EF0009E0601D5BDE80189B619524141EB0101A9
:101F0000A3F10103BDE801894FEA14454FEA1147E7
:101F100024EA054621EA074C05FB07F406FB07F710
:101F20000CFB06F105FB0CFC11EB074144EB1744DD
:101F30004FEA124711EB0C4144EB1C4422EA074CD8
:101F400005FB07F206FB07F70CFB06F605FB0CFC8E
:101F500016EB074642EB174216EB0C4642EB1C45CC
:101F60006A1854F1000148BF7047B619524141EB5D
:101F70000101A3F10103704795F0000F37D04FEA3C
:101F800011424FEA144721EA024624EA074C02FBB9
:101F900007F106FB07F70CFB06F402FB0CFC14EB45
:101FA000074441EB17414FEA154714EB0C4441EB52
:101FB0001C4125EA074C02FB07F506FB07F70CFB63
:101FC00006F602FB0CFC16EB074645EB174516EB35
:101FD0000C4645EB1C42121951F1000148BF7047F5
:101FE000B619524141EB0101A3F1010370474FEAD9
:101FF00014454FEA114724EA054621EA074C05FB40
:1020000007F106FB07F70CFB06F24FF0000605FB95
:102010000CFC12EB074241EB174112EB0C4251EB67
:102020001C4148BF7047921841EB0101A3F1010325
:102030007047000008B518A0FEF786FA1C48016832
:1020400040681C4AD2E9003259405040014321D136
:102050001748083801684068174B0CCB514058406E
:10206000014317D1002001231A469902009013481A
:1020700000680CF083F9124908600846008800F4F3
:10208000806038B10FA0FEF75FFA20210B4800688E
:102090000CF0EEF808BD0000BDD3CAD5B5BD414374
:1020A0004BD0CD4D4143D6A1C1CB0D0A000000005D
:1020B0001503002018000020200000202C00002024
:1020C00030000020BDD3CAD5B5BDC1CBD5FDC8B742
:1020D000B5C441434B0D0A0010B500240F480068F9
:1020E00000B110BD0CF0C4FF012800D1F9E70120B8
:1020F0000CF0E6FA044604B9F3E70AF08FFF07484C
:10210000006810B90548046000240AF0CBFF14B140
:1021100020460BF0BFF900BFE3E70000B801002044
:1021200000F024F804E003480BF030FA00F01EF849
:10213000F9E70000A0BB0D009FED090A094880EDFA
:10214000010A0020074908834883A1F88000A1F80C
:102150008200A1F884000448C1F88800704700009C
:1021600000000000B801002040771B0030B52DEDC5
:10217000048B83B0B3EE090A8DED020A9FED380A95
:102180008DED010A002500249FED350AB0EE409A3E
:102190009FED330AB0EE408AB7EE000AF0EE408AB7
:1021A00000F062F80AF06CF9322006F03FFE0AF007
:1021B00077F901AA02A9012003F01EF808B901204D
:1021C00000E00020054600F02BFB04460AF046F92B
:1021D00000F05AF84FF6FF70844207D19FED200AB5
:1021E00005F022F903B0BDEC048B30BD00EE104ABF
:1021F000B8EE400AF7EE000A20EE200AB0EE409A50
:1022000075B19DED020AF3EE090A70EE600A9FEDCA
:10221000151AB7EE000A00EEC10AF0EE408A03E09C
:10222000B7EE000AF0EE408AF5EEC08AF1EE10FA41
:1022300003D29FED0B0AF0EE408A29EE280AB0EE99
:10224000408AB5EEC08AF1EE10FA03D29FED040A7F
:10225000B0EE408AB0EE480A05F0E6F800BFC1E7EC
:10226000000000006F12833B10B5FFF735FF0548F3
:10227000006828B1034908684FF0FF310CF02CFDCD
:1022800010BD0000B801002010B50548006830B14D
:10229000034900231A46086819460CF0D9FA10BD04
:1022A000B80100202DE9F04106460C46002716B182
:1022B0000CB1A64201D1BDE8F081706918B90020C7
:1022C000A0617461F7E7756920E0A54200D1F2E7EB
:1022D000D5E90010D4E9002351405840014305D10D
:1022E0000020A061204607F0B5F8E4E7A86900B92E
:1022F0000EE0AD69781C80B20746B0F5007F05DDC1
:102300000020A061204607F0A5F8D4E7002DDCD11D
:1023100000BF1DB90020A0617461CCE70020A0615E
:10232000AC6100BFC7E7000010B504464021024879
:1023300000680BF09DFF10BD4400002000BFFEE7C9
:1023400038B53CA0FEF700F9404801684068404BB2
:102350000CCB51405840014347D000200123024696
:102360004FF40C6100903B4800680CF007F83A49C4
:1023700008600846007800F04000002831D0084688
:10238000007800F0800000282BD034A0FEF7DCF8A5
:102390004FF400612F4800680BF022FF0CF078FE2C
:1023A000044600200346224601210090344800687C
:1023B0000DF012FA33A0FEF7C7F82748008800F4A2
:1023C0000060002834D10CF063FE04464FF0FF306B
:1023D0000023224602210090294800680DF0FCF9F4
:1023E00026E02BA0FEF7B0F822E018480838016874
:1023F0004068294AD2E9003259405040014317D180
:10240000002001231A4659020090124800680BF080
:10241000B5FF114908600846008800F4007038B123
:102420001EA0FEF791F801210A4800680BF020FF7A
:1024300038BD0000BDD3CAD5B5BD435453D0CD4D32
:102440004143D6A1C1CB0D0A0000000015030020B6
:10245000180000202C00002030000020BDD3CAD579
:10246000B5BDC1CBB1F0B5C4BDDAB5E3B5C4435415
:10247000532CC7BFD6C6D0DDC3DF0D0A0000000055
:1024800008010020BFAAC6F4B6A8CAB10D0A000010
:10249000B6AAC6FA0D0A000020000020BDD3CAD596
:1024A000B5BDC1CBD5FDC8B7B5C44354530D0A0063
:1024B0002DE9F04107460E4614464FF000081FB1C3
:1024C00016B10CB1A64201D1BDE8F08131462046DB
:1024D00003F06EFC00B1F7E72146384600F01EFD20
:1024E000706918B90020A0617461EDE7756911E0A9
:1024F000A54202D10020A061E6E7A869A84200D168
:10250000E2E7AD6908F1010080B28046B0F5007FD6
:1025100000DDD9E7A8690028EAD1A54201D1A06170
:10252000D2E70020A061AC6100BFCDE710B5ADF5EA
:10253000407D002401208DF8FC010020ADF8FE0153
:102540005A208DF800029DF8FC018DF8F800BDF8C6
:10255000FE01ADF8FA000620F42283A93D906846FA
:10256000FEF748FA7FA80FC807F03EFB0A2006F0E6
:102570005DFC16E0142006F059FC0620F42283A925
:102580003D906846FEF736FA7FA80FC807F02CFB8F
:10259000601CC4B2142C04DD002400200DF5407D25
:1025A00010BD06213EA807F0A9FA0028E2D10120BB
:1025B000F4E7000010B50948FDF7BAFF002404E075
:1025C000002006490855601C84B2054800888442F2
:1025D000F6DB00200249088010BD0000880B0020B7
:1025E000A0000020002004E00021064A1154411CF4
:1025F00088B2054909888842F6DB0021024A118029
:1026000070470000500C0020A200002010B542F2DC
:10261000CF01092003F07EF900200149086010BDB8
:102620001400002030B5ADF5417D044600258DF83D
:1026300000420220ADF802028DF804029DF800026B
:102640008DF8FC00BDF80202ADF8FE000320F42274
:1026500084A93D906846FEF7CDF980A80FC807F021
:10266000C3FA0A2006F0E2FB19E0142006F0DEFBB4
:102670000320F42284A93D906846FEF7BBF980A8A8
:102680000FC807F0B1FA681CC5B2142D07DD00258C
:1026900009A0FDF759FF681E0DF5417D30BD0321EE
:1026A0003FA807F02BFA0028DFD13FA80089BDF82A
:1026B000021100EB0140EFE7736F696C73656E7395
:1026C0006F72206572726F72210D0A0030B5ADF520
:1026D000417D044600258DF800420020ADF802023D
:1026E00002208DF804029DF800028DF8FC00BDF870
:1026F0000202ADF8FE000320F42284A93D90684652
:10270000FEF778F980A80FC807F06EFA0A2006F0E5
:102710008DFB19E0142006F089FB0320F42284A924
:102720003D906846FEF766F980A80FC807F05CFA8E
:10273000681CC5B2142D07DD00250AA0FDF704FFB3
:10274000681E0DF5417D30BD03213FA807F0D6F985
:102750000028DFD13FA80089BDF8021100EB01403D
:10276000EFE70000736F696C73656E736F722065BD
:1027700072726F72210D0A0010B5ADF5407D002414
:1027800001208DF8FC010020ADF8FE0101208DF83C
:1027900000029DF8FC018DF8F800BDF8FE01ADF8CF
:1027A000FA000320F42283A93D906846FEF722F93F
:1027B0007FA80FC807F018FA0A2006F037FB1AE0C6
:1027C000142006F033FB0320F42283A93D906846D1
:1027D000FEF710F97FA80FC807F006FA601CC4B214
:1027E000142C08DD002408A0FDF7AEFE4FF6FF70A4
:1027F0000DF5407D10BD03213EA807F07FF90028AC
:10280000DED1BDF8FE00F3E770726563697069742C
:102810006174696F6E206572726F72210D0A00001B
:1028200010B5ADF5407D002404208DF8FC0100209A
:10283000ADF8FE0101208DF800029DF8FC018DF835
:10284000F800BDF8FE01ADF8FA000320F42283A9D8
:102850003D906846FEF7CEF87FA80FC807F0C4F990
:102860000A2006F0E3FA1AE0142006F0DFFA03204B
:10287000F42283A93D906846FEF7BCF87FA80FC8F4
:1028800007F0B2F9601CC4B2142C08DD002408A0C3
:10289000FDF75AFE4FF6FF700DF5407D10BD032188
:1028A0003EA807F02BF90028DED1BDF8FE00F3E7C3
:1028B000526164696174696F6E206572726F722112
:1028C0000D0A000030B5ADF5417D044600258DF8B8
:1028D00000420020ADF8020202208DF804029DF8AB
:1028E00000028DF8FC00BDF80202ADF8FE000320E6
:1028F000F42284A93D906846FEF77CF880A80FC8B2
:1029000007F072F90A2006F091FA19E0142006F097
:102910008DFA0320F42284A93D906846FEF76AF8F8
:1029200080A80FC807F060F9681CC5B2142D07DD38
:1029300000250AA0FDF708FE00200DF5417D30BD01
:1029400003213FA807F0DAF80028DFD13FA800896B
:10295000BDF8021100EB0140EFE70000736F696CF6
:1029600073656E736F72206572726F72210D0A004B
:1029700010B5ADF5407D002403208DF8FC0100204A
:10298000ADF8FE0101208DF800029DF8FC018DF8E4
:10299000F800BDF8FE01ADF8FA000320F42283A987
:1029A0003D906846FEF726F87FA80FC807F01CF98F
:1029B0000A2006F03BFA1AE0142006F037FA03204A
:1029C000F42283A93D906846FEF714F87FA80FC84B
:1029D00007F00AF9601CC4B2142C08DD002408A01A
:1029E000FDF7B2FD4FF6FF700DF5407D10BD0321E0
:1029F0003EA807F083F80028DED1BDF8FE00F3E71B
:102A000057696E6473446972656374696F6E20659B
:102A100072726F72210D0A0010B5ADF5407D002471
:102A200002208DF8FC010020ADF8FE0101208DF898
:102A300000029DF8FC018DF8F800BDF8FE01ADF82C
:102A4000FA000320F42283A93D906846FDF7D2FFE7
:102A50007FA80FC807F0C8F80A2006F0E7F91AE0C7
:102A6000142006F0E3F90320F42283A93D90684680
:102A7000FDF7C0FF7FA80FC807F0B6F8601CC4B20E
:102A8000142C08DD002408A0FDF75EFD4FF6FF7052
:102A90000DF5407D10BD03213EA807F02FF800285A
:102AA000DED1BDF8FE00F3E757696E6473537065BD
:102AB0006564206572726F72210D0A0038B547A0F7
:102AC000FDF742FD00200123024680210090494885
:102AD00000680BF053FC48490860484801684068AA
:102AE000474AD2E900325940504001433AD1424866
:102AF000007800F08000002834D140480838016890
:102B00004068404AD2E9003259405040014329D13F
:102B10003A480938407CD8B13BA0FDF715FD4FF489
:102B20008031344800680BF0A3FB3448083804684F
:102B300043682246324903C904F05CFC80212D48D9
:102B400000680BF095FB00212E4A1160516008E0EF
:102B500032A0FDF7F9FC4FF48031264800680BF0F5
:102B600087FB38BD00200123024640210090214808
:102B700000680BF003FC20490860204801684068A9
:102B80001F4B0CCB5140584001431ED11B48083805
:102B9000016840681B4B0CCB51405840014314D195
:102BA0001548007800F0400078B94FF40041114812
:102BB00000680BF05DFB20A0FDF7C6FC4FF48041E0
:102BC0000C4800680BF054FBCBE74FF40031094888
:102BD00000680BF04DFB00BFC3E70000BDD3CAD5B2
:102BE000B5BDCAFDBEDDD0CD4D4143D6A1C1CB0D93
:102BF0000A0000002C0000203000002015030020F7
:102C00001800002020000020D0E8D2AAD7D4C9EDB7
:102C1000B7A2CBCD41434B0D0A000000D0E8D2AAA9
:102C2000D7D4C9EDB7A2CBCDCAFDBEDDD0CD4D41C5
:102C300043D6A10D0A000000B5B1C7B0CAC7B7A2FC
:102C4000CBCDB7BDB2A2C7D2BDD3CAD5B5BDC1CB5E
:102C5000D5FDC8B7B5C4444154410D0A0000000079
:102C600021B1026842F00102026003E0026822F032
:102C70000102026070470000016821F0010101605B
:102C80000021016041608160C160016121214161D9
:102C90004A49884204D13D21484A103A91608CE06B
:102CA00046491831884205D14FF47461434A103ABD
:102CB000916082E041493031884205D14FF474116E
:102CC0003E4A103A916078E03C494831884205D14B
:102CD0004FF07461394A103A91606EE037496031C3
:102CE000884204D13649354A103AD16065E033490B
:102CF0007831884204D13349304A103AD1605CE0DF
:102D00002E499031884204D12F492C4A103AD16083
:102D100053E02A49A831884205D14FF03D51274A56
:102D2000103AD16049E02949884204D13D21274A1F
:102D3000083A116041E025491831884205D14FF425
:102D40007461224A083A116037E0204930318842E4
:102D500005D14FF474111D4A083A11602DE01B494A
:102D60004831884205D14FF07461184A083A116021
:102D700023E016496031884204D11149134A121FD9
:102D800011601AE011497831884204D10D490F4A87
:102D9000121F116011E00D499031884204D10A4997
:102DA0000A4A121F116008E00849A831884204D17C
:102DB0004FF03D51054A121F1160704710600240EC
:102DC0003D000020400F002000003D201064024024
:102DD000014600200A6802F001020AB1012000E069
:102DE0000020704710B500220268134B1A40CC68CF
:102DF0000B6823434C6923438C692343CC692343E9
:102E00000C6A23434C6A23438C6A23434C6B234351
:102E10008C6B23431A430260426922F00702D1E916
:102E20000B3423431A4342610B6943604B68836050
:102E30008B68C36010BD00003F801CF0416070478C
:102E40007047F8B507460C4607B104B9F8BD002035
:102E500000906A462146384600F0EAFD009800B925
:102E6000F4E7A6690020A06100984069A04205D15E
:102E700000984661204606F0EDFAE7E700984569BC
:102E800000E0AD6915B1A869A042FAD11DB1AE61EB
:102E9000204606F0DFFA00BFD8E700002DE9FC412C
:102EA00080460D46002001902946404602F04EFA29
:102EB000002419E001A80090104850F82400D0E93F
:102EC00000633246284600F0D1FD019850B10198C8
:102ED000D0E9006332460AA0FDF736FB2846019987
:102EE000FFF7AFFF601CC4B20B4800788442E1DBFF
:102EF000002009490870BDE8FC8100008806002018
:102F00006E6F646520256C6C782069732064656C35
:102F1000657465640D0A00005F00002078B5064600
:102F20000C460020009006B104B978BD6A462146DF
:102F3000304600F07DFD009800B9F6E70098406942
:102F4000A04205D1A069009948610020A061ECE78A
:102F50000098456900E0AD6915B1A869A042FAD1B1
:102F60001DB1A069A8610020A06100BFDDE70000DD
:102F700010B500200549086005A10748FDF7A0FC31
:102F800002490860FFF716FB10BD00007800002022
:102F9000514D545245435600880B0020F8B5044665
:102FA0000D4616464FA003F0D5F94FF4FA7005F020
:102FB0003DFFFFF7FFFA4FA003F0CCF94FF4FA7092
:102FC00005F034FFFFF7F6FA4EA003F0C3F94FF413
:102FD000FA7005F02BFFFFF7EDFA4FF480614D48D2
:102FE000FDF742FD40F25B734BA24FA14948FDF74C
:102FF000B7FA484803F0AEF94FF4967005F016FFA3
:103000004FA15348FDF75CFC52490860002052492B
:1030100008601CE050480068401C4F490860C82008
:1030200005F004FF46A14A48FDF74AFC49490860FB
:1030300049480068642809DD00204749086008F015
:1030400071FE012004F0C8F901F0E6F900BF414823
:1030500000680028DED000BFFFF7ACFA4FF48061B3
:103060002C48FDF701FD3DA12A48FDF779FA2948D2
:1030700003F070F9C82005F0D9FEFFF79BFA4FF472
:1030800080612448FDF7F0FC2B4622463BA12148F5
:103090000096FDF765FA1F4803F05CF940F6B8307A
:1030A00005F0C4FE3DA12A48FDF70AFC2949086045
:1030B0000846006818B9FFF77DFA0120F8BDFFF750
:1030C00079FA2448006818B138A0FDF73DFA01E00C
:1030D0000120F3E7FFF76EFA3BA0FDF735FA002079
:1030E000ECE7000041542B514944454143543D31E4
:1030F0000D0A000041542B514D54434C4F53453D54
:10310000300D0A0041542B514D54444953433D3036
:103110000D0A00008807002034372E3130392E3157
:1031200038352E353600000041542B514D544F5048
:10313000454E3D302C222573222C25640D0A0000BB
:103140002B514D544F50454E3A20302C300000004A
:10315000880B0020780000207000002041542B5183
:103160004D544346473D226B656570616C697665D9
:10317000222C302C3630300D0A00000041542B51E7
:103180004D54434F4E4E3D302C222573222C222588
:1031900073222C222573220D0A0000002B514D545E
:1031A000434F4E4E3A20302C302C3000B0A2C0EFAE
:1031B000D4C6CEEFC1AACDF8C6BDCCA8C1ACBDD394
:1031C000B3C9B9A60D0A0000C9E8B1B8D2D1BEADE5
:1031D000C1ACBDD3B5BDB0A2C0EFD4C62CD7BCB175
:1031E000B8B7A2CBCDCAFDBEDD205B2E2E5D0D0A89
:1031F000000000002DE9F04104460D461646324617
:1032000029462046FFF7CAFE07463846BDE8F0814A
:1032100070B504460D464FF480613048FDF724FC3C
:103220002846FDF783FB0646334622462CA12B4851
:10323000FDF796F9294803F08DF84FF47A7005F000
:10324000F5FD2FA12F48FDF73BFB2F49086000201B
:103250002E4908601DE02D480068401C2B4908607D
:103260004FF4967005F0E2FD25A12648FDF728FBF6
:103270002549086025480068642809DD00202349A5
:10328000086008F04FFD012004F0A6F801F0C4F832
:1032900000BF1D4800680028DDD000BF284603F0AD
:1032A00059F84FF4967005F0C1FD00BF184800882A
:1032B00000F040000028F9D01A201549091D0880A7
:1032C0004FF4967005F0B2FDFFF752FEFFF772F96A
:1032D00010A0FDF739F9002070BD0000880700201C
:1032E00041542B514D5450554245583D302C302CB3
:1032F000302C302C222573222C25640D0A0000006E
:103300003E000000880B00207800002070000020A4
:1033100000440040D3C3BBA7CAFDBEDDB7A2CBCDDE
:10332000B3C9B9A620205B4F4B5D0D0A0000000019
:1033300010B508F0F7FC4FF47A7005F077FD4FF404
:103340007A7005F073FD4FF4E13009F0E9FB00F00D
:10335000C5FA322005F06AFDBFA002F0FBFF4FF472
:10336000FA7005F063FDBEA1BE48FDF7A9FABE499B
:103370000860FFF71FF90020BC49086025E0BB4842
:103380000068401CB9490860B9A0FDF7DDF8FFF7F7
:1033900011F9B1A002F0DEFF4FF4FA7005F046FD1E
:1033A000AFA1B048FDF78CFAAF490860AF4800689C
:1033B000322809DD0020AD49086008F0B3FC012087
:1033C00004F00AF801F028F800BFA74800680028B8
:1033D000D5D000BFADA002F0BDFF4FF4FA7005F0EC
:1033E00025FDFFF7E7F80020A0490860A9A002F03A
:1033F000B1FF4FF4FA7005F019FDA9A19948FDF746
:103400005FFA9949086025E098480068401C974990
:103410000860FFF7CFF89FA002F09CFF4FF4FA700E
:1034200005F004FD9EA18F48FDF74AFA8E49086019
:103430008E48006832280CDD00208C4908609CA072
:10344000FDF782F808F06EFC012003F0C5FF00F0E4
:10345000E3FF00BF844800680028D5D000BFFFF715
:10346000A9F896A002F076FF4FF4FA7005F0DEFCA2
:10347000FFF7A0F894A002F06DFF4FF4FA7005F08A
:10348000D5FCFFF797F892A002F064FF4FF4FA70B2
:1034900005F0CCFC91A17348FDF712FA724908605F
:1034A00091A17048FDF70CFA9249086000206F491D
:1034B000086028E0FFF77EF86C480068401C6B4904
:1034C000086083A002F046FF4FF4FA7005F0AEFCEE
:1034D00082A16448FDF7F4F96349086082A161485C
:1034E000FDF7EEF98349086060480068322809DD7D
:1034F00000205E49086008F015FC012003F06CFF15
:1035000000F08AFF00BF5848006818B97948006881
:103510000028CFD000BFFFF74DF877A002F01AFFC8
:103520004FF4FA7005F082FCFFF744F875A002F042
:1035300011FF4FF47A7005F079FCFFF73BF875A0A6
:1035400002F008FF4FF47A7005F070FC44A1454882
:10355000FDF7B6F9444908600846006850B1414992
:103560006FA0FCF7F1FF4FF47A7005F05FFCFFF7F6
:1035700021F809E03B4977A0FCF7E6FF4FF496708D
:1035800005F054FCFFF716F8FFF714F875A002F0E9
:10359000E1FE4FF47A7005F049FCFFF70BF875A0D7
:1035A00002F0D8FE4FF4FA7005F040FCFFF702F885
:1035B00074A002F0CFFE4FF4967005F037FC28A1FE
:1035C0002848FDF77DF928490860FEF7F3FF71A050
:1035D00002F0C0FE4FF4967005F028FC70A121485F
:1035E000FDF76EF920490860FEF7E4FF00201F494F
:1035F000086022E01D480068401C1C490860FEF776
:10360000D9FF64A002F0A6FE4FF4967005F00EFC00
:1036100063A11448FDF754F9134908601348006882
:10362000642809DD00201149086008F07BFB0120B7
:1036300003F0D2FE00F0F0FE00BF0B480068002847
:10364000D8D000BF59A002F085FE4FF4FA7005F003
:10365000EDFBFEF7AFFF10BD41540D0A0000000066
:103660004F4B0000880B00207800002070000020E5
:103670000D0AB5A5C6ACBBFAD5FDD4DAC1ACBDD335
:10368000B5BDC4A3BFE92E2E2E0D0A00415445310D
:103690000D0A000041542B4350494E3F0D0A0000D3
:1036A0002B4350494E3A20524541445900000000F6
:1036B00072657365742034670D0A000041542B4312
:1036C00053510D0A000000004154490D0A0000004A
:1036D00041542B435245473F0D0A00002B435245AE
:1036E000473A20302C3100002B435245473A2030D6
:1036F0002C3500007C00002041542B434F50533F99
:103700000D0A000041542B5149434C4F53453D3065
:103710000D0A000041542B43494D490D0A00000099
:103720003D3D3D3D3D3D3D3D3D3D3D3D0D0ACED206
:10373000B5C4BFA8BAC5CAC7203A202573200D0A50
:103740003D3D3D3D3D3D3D3D3D3D3D3D3D3D3D0DD9
:103750000A000000BFA8B4EDCEF3203A2025732064
:103760000D0A000041542B514944454143543D3119
:103770000D0A000041542B51494143543D310D0A7B
:103780000000000041542B43474154543D310D0A81
:103790000000000041542B43474154543F0D0A00A0
:1037A0002B43474154543A203100000041542B43ED
:1037B0004750414444520D0A000000001CB5164811
:1037C000007800B11CBD0121022000F099FE4FF4E9
:1037D0004070009001208DF804008DF80600032051
:1037E0008DF8050001208DF8070069460B4800F0B0
:1037F00061F901221102094805F0B8FD01225102C8
:10380000064805F0B3FD042005F030FB0120024915
:10381000087000BFD6E700008800002000040240C6
:1038200070B506460C460CB9012070BDFFF7C6FF07
:1038300005F020FDA02005F0EFFC05F05FFD18B1BC
:1038400005F038FD0220F0E7304605F0E5FC05F014
:1038500055FD18B105F02EFD0320E6E705F00AFD41
:10386000A12005F0D9FC05F049FD18B105F022FDB5
:103870000420DAE7002005F09BFC054605F01AFD60
:1038800025700020D1E770B505460C46FFF796FF7E
:1038900005F0F0FCA02005F0BFFC05F02FFD18B1ED
:1038A00005F008FD012070BD284605F0B5FC05F0C7
:1038B00025FD18B105F0FEFC0220F4E7204605F0D6
:1038C000ABFC05F01BFD18B105F0F4FC0320EAE7A2
:1038D00005F0F0FC05F06EFD0020E4E71CB50121C9
:1038E000084600F04DFE0220009001208DF80400F3
:1038F00000208DF8060003208DF805006946034876
:1039000000F0D8F80120024908601CBD0000024008
:103910008402404210B54FF48071024800F042F931
:1039200010BD0000001402401CB50121202000F051
:10393000E7FD4FF48070009001208DF80400002016
:103940008DF806008DF805008DF8070069460448DB
:1039500000F0B0F84FF48071014800F01FF91CBD71
:103960000014024010B506A0FCF7EEFD142005F08F
:10397000A1FA06480068012000F00AF810BD000016
:10398000BDF8C8EBD6D0B6CF200D0A0000024042E9
:103990000149086070470000143C014000212349A0
:1039A0008279002A3AD00A46126803689A430B4685
:1039B0001A600A1D126803689A430B1D1A60027987
:1039C00011440A6803681A430A60184A08321268E8
:1039D00003689A43154B08331A601A1D126803686E
:1039E0009A43124B0C331A604279102A0ED11A1FD7
:1039F000126803681A430D4B08331A601A1D1268C7
:103A000003681A43094B0C331A600DE007494279E9
:103A100011440A6803681A430A6005E002791144F8
:103A20000A6803689A430A6070470000003C01403E
:103A3000F0B504460F4616460020306014B10FB1B1
:103A4000A74200D1F0BD65690CE0BD4201D13460F0
:103A5000F8E7324639462846FFF7EAFF306800B1FA
:103A6000F0E7AD69002DF0D100BFEBE72DE9F8419B
:103A7000044617469846079D002028600CB9BDE80B
:103A8000F881D4E90001784081EA0801084301D1B6
:103A90002C60F4E7666909E03A46434630460095F3
:103AA000FFF7E4FF286800B1E9E7B669002EF3D11B
:103AB00000BFE4E7F0B50A4600210023002400BF60
:103AC0003DE0012505FA01F3156805EA03049C426F
:103AD00034D105684F000326BE40B5430560157913
:103AE0004E00B5400668354305601579012D02D0BA
:103AF0001579022D16D185684F000326BE40B543C7
:103B0000856055794E00B5408668354385604568C7
:103B100001268E40B5434560456896798E40B6B221
:103B200035434560C5684F000326BE40B543C560B8
:103B3000D5794E00B540C6683543C560491C10298B
:103B4000BFD3F0BDF0B5002300244D07ED0E02FAFF
:103B500005F3CE1000F1200555F826504E07F70E5C
:103B60000F26BE40B543CF1000F1200646F827507F
:103B7000CE1000F1200555F8265045EA0304CE107A
:103B800000F1200545F82640F0BD024600201369EB
:103B90000B400BB1012000E00020704741837047CB
:103BA0000183704742694A404261704700BFFEE7A7
:103BB00010B500200F4908600F48006820F440202D
:103BC0000D4908600846006840F480200860002025
:103BD0000A49C1F8A402022005F048F9012005496C
:103BE0000860022005F042F901200549C1F8A00251
:103BF00010BD0000A0024042000802400000414207
:103C0000000040421CB50121052000F079FC4FF472
:103C10000070009001208DF804008DF8060003204C
:103C20008DF8050001208DF8070069460848FFF768
:103C300041FF4FF48070009069460648FFF73AFF55
:103C40000120054908600549C1F8A4021CBD000017
:103C50000008024000000240A00240420000414231
:103C600010B500200F4908600F48006820F440207C
:103C70000D4908600846006840F480200860012073
:103C80000A49C1F8A402022005F0F0F80120054914
:103C90000860022005F0EAF801200549C1F8A002F9
:103CA00010BD0000A0024042000802400000414256
:103CB000000040422DE9F04106460C46154600271B
:103CC00004E0304600F00AF804F8010B2800A5F1E2
:103CD0000101CDB2F5D13846BDE8F08170B5054699
:103CE00000241548006820F4402013490860084665
:103CF00000680860002615E00020104908600420D4
:103D000005F0B4F801200E49C1F8A0026006040EC7
:103D10000C48006808B1601CC4B2012005F0A6F888
:103D2000701CC6B2082EE7DB15B9FFF799FF01E05A
:103D3000FFF73EFF204670BD00080240A00240424F
:103D4000000040422402414270B504461448006815
:103D500020F44020124908600846006840F48020A2
:103D6000086000200F490860002516E0E0090E49B0
:103D700008606006040E022005F078F801200B4967
:103D8000C1F8A002022005F071F800200549086082
:103D9000022005F06BF8681CC5B2082DE6DB70BD8B
:103DA00000080240A0024042A402414200004042FA
:103DB00010B50F48006820F440200D4908600846FF
:103DC000006840F48020086001200A4908600A4920
:103DD000C1F8A002042005F049F800200549086058
:103DE000042005F043F800200349C1F8A00210BDEB
:103DF00000080240A40241420000404210B50F48B2
:103E0000006820F440200D4908600846006840F42E
:103E10008020086000200A4908600A49C1F8A4020D
:103E2000042005F023F80120054908600549C1F880
:103E3000A402022005F01AF810BD0000000802409C
:103E4000A00240420000414210B500241248006820
:103E500020F44020104908600846006808600120EE
:103E60000E49086005F002F801200D49C1F8A002D2
:103E700004F0FCFF07E0601CC4B2FA2C03DDFFF77E
:103E8000BDFF012010BD0548803800680028F2D130
:103E90000449086000BFF5E700080240A40241425F
:103EA00000004042A002404210B50446FFF7AAFEBF
:103EB00044F227120021204600F001F810BD70B531
:103EC00005460E461446FFF773FF002141EA4501FF
:103ED000C8B2FFF739FFFFF7B7FF18B1FFF78EFF42
:103EE000012070BD3046FFF72FFFFFF7ADFF18B17F
:103EF000FFF784FF0220F4E72012FFF725FFFFF70A
:103F0000A3FF18B1FFF77AFF0320EAE7E0B2FFF75B
:103F10001BFFFFF799FF18B1FFF770FF0420E0E7E0
:103F2000FFF76CFF0020DCE74CF6CC40014908604D
:103F3000704700000030004010B500F013F810BDCD
:103F400070B505460C4645F2555000F01FF828465E
:103F500000F010F8204600F013F800F003F8FFF727
:103F6000E3FF70BD4AF6AA200149086070470000CF
:103F700000300040014948607047000000300040B8
:103F80000149886070470000003000400149086026
:103F900070470000003000401CB50121112000F0E6
:103FA000AFFA1020009000208DF8040003208DF857
:103FB000050001208DF8070069460648FFF77AFDE5
:103FC0000120009002208DF8070069460248FFF7A3
:103FD00071FD1CBD00100240000002401CB5012113
:103FE000202000F08DFA01208DF8040002208DF8C9
:103FF000050000208DF806004FF4C060009069466F
:104000000648FFF757FD4FF400710448FFF7C8FD5D
:104010004FF480610148FFF7C3FD1CBD001402404E
:1040200070B5044600250CB1012000E000200446D4
:1040300008F0F4FF1A48008840280FDA19481A4996
:104040000988445424B119480088401C1749088045
:1040500013480088401C1249088013E01148124997
:104060000988455C25B111480088401E0F49088029
:104070000C480D490988445424B10C480088401C60
:104080000A49088008480088401C074908800846FB
:104090000088402801DB0020088009F003F870BD8B
:1040A0003600002088030020380000203400002063
:1040B0001CB50121022000F023FA402000900120CD
:1040C0008DF8040000208DF8060003208DF805000F
:1040D00001208DF8070069460348FFF7EBFC4021FB
:1040E0000148FFF75DFD1CBD0004024000BFFEE774
:1040F00070B50125002428E016A218A11AA0FFF728
:1041000079F805464FF47A7004F090FE214619A024
:10411000FCF71AFA601C84B2322C16DD07F002FE9E
:10412000012080F3138800BF00BFBFF34F8F1648F4
:10413000006800F4E06015490843001D124908605A
:10414000BFF34F8F00BF00BFFEE7002DD4D100BFEB
:1041500070BD00007075626C6963000074657374F3
:104160005F636C69656E740057534E5F47575F30ED
:1041700030310000C1ACBDD3B4CECAFD3A202564B5
:10418000B4CE0D0A000000000CED00E00000FA05BE
:104190000FB430B58BB0FF211A48FCF765FC0EA8B0
:1041A000808C0EA9498C0EAA128C0EABDB8BCDE94C
:1041B0000632CDE90810DDF85210DDF84E00DDF8CA
:1041C0004A20DDF84630CDE90232CDE904010EA8DF
:1041D00080890EA94989CDE90010DDF83A40DDF863
:1041E0003E30224608A10748FCF7BAF9054912A05B
:1041F000FCF7AAF9034911A0FFF70AF80BB030BC8D
:104200005DF814FB9A0400207B22706172616D736B
:10421000223A22256C6C7820257820257820257874
:1042200020257820257820257820257820257820BD
:104230002578202578227D002573000073656E7334
:104240006F722F6461746100FEB5002400250121A6
:10425000080700F075F9012000F0F4F8012000F0E3
:1042600019FC06463EB131463CA0FCF76DF9002131
:10427000012000F071FE002000F00CFC85B249F234
:104280002850854206D1012000F04AFA00F082FD54
:104290000020FEBD012000F027FA142004F0C6FD26
:1042A00008E0601CC4B20A2004F0C0FDB4F5FA7F37
:1042B00000DB04E0412000F0F7F90028F1D000BF56
:1042C000412000F0F1F920B14FF4807000F02EFA97
:1042D00019E0002000F008FA012000F01BFA002489
:1042E00008E0601CC4B20A2004F0A0FDC82C01DB69
:1042F0000120CEE7612000F0D7F90028F1D04FF47B
:10430000007000F013FA012000F00AFA00F042FDFC
:10431000002000F0BFFB85B249F2285085421AD038
:104320007F20019000200090FF200290684600F05E
:104330007FFB0023322226210F2000F0A7FC04235C
:104340000B220721182000F08FFC49F22851002091
:1043500000F002FE00BF00209BE700005254435FC4
:10436000424B505F445231286C6173742072657304
:104370006574206D61726B6572293D307825303827
:104380006C780D0A000000007047000070B5002135
:1043900000230F22C4781CB3174C246804F4E06493
:1043A000C4F5E064C4F30721C1F10404E3B20A4197
:1043B00044789C40E1B28478144021430C07210EDC
:1043C0000E4C05786155047804F01F050124AC40BB
:1043D00005786D11AD0005F1E025C5F8004109E053
:1043E000047804F01F050124AC40054D06787611D1
:1043F00045F8264070BD00000CED00E000E400E050
:1044000080E100E002490143024A11607047000068
:104410000000FA050CED00E0BFF34F8F064800687E
:1044200000F4E06005490843001D03490860BFF33C
:104430004F8F00BFFEE700000CED00E00000FA0522
:1044400070477047014908627047000000000E4243
:104450001CB50121082000F053F80121202000F0B4
:104460004FF80121402000F04BF84020009001203F
:104470008DF8040000208DF8060003208DF805005B
:1044800001208DF8070069461A48FFF713FB10203A
:10449000009001208DF8040000208DF80600032014
:1044A0008DF8050002208DF8070069461248FFF7D5
:1044B00001FB4FF48070009001208DF80400002073
:1044C0008DF8060003208DF8050002208DF8070006
:1044D00069460A48FFF7EEFA40210648FFF760FBFD
:1044E0004FF480710548FFF75BFB10210248FFF78E
:1044F00057FB1CBD000C0240001402400018024093
:1045000029B1064A12680243044B1A6004E0034AC8
:1045100012688243014B1A60704700003038024035
:1045200029B1064A12680243044B1A6004E0034AA8
:1045300012688243014B1A60704700003438024011
:1045400029B1064A12680243044B1A6004E0034A88
:1045500012688243014B1A607047000040380240E5
:1045600029B1064A12680243044B1A6004E0034A68
:1045700012688243014B1A607047000020380240E5
:1045800029B1064A12680243044B1A6004E0034A48
:1045900012688243014B1A607047000044380240A1
:1045A00029B1064A12680243044B1A6004E0034A28
:1045B00012688243014B1A607047000024380240A1
:1045C000F0B5002100220024022500260223324FEC
:1045D0003F6807F00C0121B1042905D0082937D123
:1045E00005E02E4F076036E02D4F076033E02A4F7D
:1045F0003F1F3F68C7F38056274F3F1F3F6807F0B4
:104600003F036EB1264FB7FBF3F7DFF88CC0ACF178
:10461000040CDCF800C0CCF3881C07FB0CF40CE0A5
:104620001E4FB7FBF3F7DFF870C0ACF1040CDCF8F9
:1046300000C0CCF3881C07FB0CF4174F3F1F3F68EA
:10464000C7F301477F1C7D00B4FBF5F7076002E06C
:10465000124F076000BF00BF0F4F3F6807F0F00127
:104660000909104F7A5C0768D74047600A4F3F68D6
:1046700007F4E051890A0B4F7A5C4768D74087609E
:10468000054F3F6807F46041490B064F7A5C476865
:10469000D740C760F0BD0000083802400024F40095
:1046A00000127A001801002010B5014600220023F4
:1046B00000204A11012A02D10A4C236808E0022A8C
:1046C00003D1084C7034236802E0064C743423682C
:1046D00001F01F02012494401C400CB1012000E0B5
:1046E000002010BD003802400021094A11701170ED
:1046F000012802D0042808D103E00121044A1170E6
:1047000004E00521024A117000E000BF00BF7047BD
:10471000703802400149086070470000800E47422F
:1047200001490860704700003C0E4742002100F438
:104730004072B2F5407F08D1094A116821F4F8119E
:10474000084A02401143064A1160054A683212685D
:10475000C0F30B031A43024B68331A607047000022
:1047600008380240FFFCFF0F30B10749096841F0EB
:104770000401054A116005E00349096821F00401BC
:10478000014A1160704700000008065001460020F1
:10479000034A12680A400AB1012000E00020704775
:1047A00004080650014800687047000008080650D9
:1047B00070B504460D4600F009F8291B491CB0FBF2
:1047C000F1F201FB1200204470BD000010B50AF0A8
:1047D0004FFC012814D00AF05BFC04460AE00AF002
:1047E00057FC001B0A2802D90AF052FC10BD012018
:1047F00008F0CCFE0120FFF7C9FF0028EFD011E040
:10480000002409E00A2004F031FB601C044607493B
:10481000884201D30020E9E70120FFF7B7FF002815
:10482000F0D000BFFFF7BEFFE0E70000A086010068
:1048300010B5002401214020FFF772FE0120FFF790
:1048400093FF0AE0601C84B2642004F00FFB42F284
:104850001070844201DB012010BD0120FFF796FF9C
:104860000028EFD00020F7E710B54FF4807000F07B
:1048700073F8012802D1000200F01EF84FF4003056
:10488000FFF786F810BD014600BF080900EB800065
:10489000420001F00F001044C0B2704701460022F0
:1048A00004E0501CC2B2A1F10A00C1B20A29F8DA30
:1048B000100741EA1060704781B241F08001044A5C
:1048C000126802F0800262EA0101014A1160704739
:1048D0000C280040002101098AB242F08002044BFA
:1048E0001B6803F0800363EA0202014B1A60704701
:1048F0000C28004008B50022009200200021104A38
:10490000126802F04002CAB9421E0D4B1A6000BF85
:104910000B4A126802F04001009A521C0092009A61
:10492000B2F5803F01D00029F2D0054A126802F0AA
:1049300040020AB1012002E0002000E0012008BD91
:104940000C2800400348006820F0800001490860FE
:10495000704700000C28004010B5014600200022DE
:10496000054B1B68054C03EA040202EA01030BB184
:10497000012000E0002010BD0C2800407F3F010016
:1049800030B501460020002200230C4C246804F0BE
:1049900004020A4C383C24680C4002EAD13544EA4F
:1049A0000503064C343C246804EA11121BB194B28E
:1049B0000CB1012000E0002030BD00004028004084
:1049C000014800687047000098000020CA22174B79
:1049D0001A6053221A6091B1144A1C3A126820F0EE
:1049E00004031A43114B1C3B1A60104A1C32126814
:1049F00000F004031A430D4B1C331A6011E00B4AFC
:104A00001C3A126820F004039A43084B1C3B1A60BE
:104A1000064A1C32126800F004039A43034B1C330D
:104A20001A60FF22014B1A607047000024280040E2
:104A300030B504460025CA20154908605320086097
:104A4000FFF758FF00B91DE011481C38006820F03E
:104A500040000F491C390860084600682168084377
:104A60000B491C3908600A491439A06808600846D7
:104A70000068A18840EA0140054914390860FFF741
:104A800061FF0125FF2002490860284630BD000073
:104A90002428004008B501460020009004480090FA
:104AA000009800EB810000900098006808BD0000AD
:104AB000502800402DE9F04105460C46002600270D
:104AC0004DB9607800F01000102804D1607820F013
:104AD00010000A30607005B908E06078FFF7D3FE77
:104AE0000646A078FFF7CFFE064600BF55B1E07836
:104AF0000004617840EA0120A1780843217840EA67
:104B0000413611E0E078FFF7C9FE4FEA00486078CF
:104B1000FFF7C4FE48EA0028A078FFF7BFFE48EA86
:104B20000008207848EA4036CA201249086053201D
:104B30000860FFF7DFFE08B9002714E00E48304098
:104B40000C4920390860FFF7FDFE0A481C38006850
:104B500000F0200030B900F01DF908B9002702E08C
:104B6000012700E00127FF20024908603846BDE820
:104B7000F0810000242800403FFFFF002DE9F041B4
:104B800005460C46002600274DB92E48006800F067
:104B9000400000B102E00020E07000BF0DE02948B5
:104BA000006800F0400020B12078FFF76CFE064658
:104BB00002E00020E07000BF00BF55B12078000483
:104BC000617840EA0120A1780843E17840EA014693
:104BD00011E02078FFF762FE4FEA00486078FFF7A7
:104BE0005DFE48EA0028A078FFF758FE48EA000872
:104BF000E07848EA0046CA2012491C310860532078
:104C00000860FFF777FE08B9002713E00E48304030
:104C10000C4908390860FFF795FE0A48006800F063
:104C2000200030B900F0B6F808B9002702E00127EB
:104C300000E00127FF2003491C3108603846BDE829
:104C4000F0810000082800407F7F7F00CA21054ACC
:104C5000116053211160034910390860FF21116070
:104C60007047000024280040F8B504460D4617465A
:104C70001E468DF802708DF801508DF800608DF899
:104C8000034069460020FFF715FFF8BDF8B504465C
:104C90000D4616461F468DF803708DF800408DF8BE
:104CA00001508DF8026069460020FFF767FFF8BDEC
:104CB0003EB505460C46002000F0B4F8284600F04A
:104CC00099F82046FFF7C2FF4FF48040FFF702FE3D
:104CD0004FF48000FEF75CFE01218803FFF776FEAB
:104CE000012000F09FF84FF48000019001208DF822
:104CF0000A0000208DF8080008208DF8090001A89E
:104D0000FEF74CFE03208DF8000001208DF8030013
:104D100002208DF801008DF802006846FFF736FB8F
:104D20003EBD000010B54FF48040FFF729FE01287A
:104D300022D18003FFF7CEFD12480068401C1149C4
:104D4000086008460068302816D3002008600E4925
:104D5000012000F001F900BFBFF34F8F0B4800683E
:104D600000F4E0600A490843001D08490860BFF3E9
:104D70004F8F00BF00BFFEE74FF48000FEF708FE34
:104D800010BD000094000020010026A20CED00E000
:104D90000000FA0508B50022009200200021CA2276
:104DA000134B1A6053221A60114A183A126822F003
:104DB000A0020F4B183B1A6000BF0D4A183A126848
:104DC00002F02001009A521C0092009AB2F5003FB6
:104DD00001D00029F1D0064A183A126802F02002E8
:104DE0000AB1012000E00020FF22014B1A6008BD3B
:104DF00024280040CA210A4A116053211160084941
:104E00001C39096821F00701054A1C3A1160114656
:104E1000096801431160FF21014A116070470000D9
:104E20002428004018B501460023009300220020EA
:104E3000CA23194C23605323236049B1164B1C3BF2
:104E40001B6843F48063144C1C3C236001201FE06A
:104E5000114B1C3B1B6823F480630F4C1C3C2360EC
:104E600000BF0D4B183B1B6803F00402009B5B1C4A
:104E70000093009BB3F5803F01D0002AF1D0064B90
:104E8000183B1B6803F004030BB9002000E001206D
:104E9000FF23014C236018BD242800402DE9FC5F4E
:104EA00082464FF0000B00200190009000BF00BF31
:104EB000BAF1000F01D1BDE8FC9F04F00DFF83465D
:104EC00024480068C0F30E00019022480068C0F337
:104ED000064000900198411C0098401CA1FB00670F
:104EE000BBF1000F05D0002186EA0100794008439C
:104EF00009D1BAF5803F02D94FF6FF70DBE7AAF17E
:104F0000010080B2D7E70222002330463946FBF782
:104F100072FAAAFB0B2310EB0208594132463B46BA
:104F20004046FBF768FA04460D46002384EA030076
:104F300085EA0301084301D1012400254FF48031A3
:104F40000020091BA84101D24FF48034601E80B2BA
:104F5000B1E700001028004008B500220092044A82
:104F60000092009A02EB80020092009A116008BD44
:104F70005028004038B559A0FBF7E6FA5D480168B3
:104F800040685D4AD2E9003259405040014346D062
:104F90000020012302464FF40C610090574800683E
:104FA00009F0ECF9564908600846007800F0400026
:104FB000002830D00846007800F0800058B351A097
:104FC000FBF7C2FA4FF400614C48006809F008F999
:104FD0000AF05EF8044600200346224601210090B4
:104FE0004E4800680AF0F8FB4DA0FBF7ADFA4448C4
:104FF000008800F4006000286ED10AF049F80446E9
:105000004FF0FF3000232246022100904348006801
:105010000AF0E2FB60E045A0FBF796FA5CE00020B6
:10502000012302464FF40C6100903448006809F0F7
:10503000A5F9334908600846007800F0400070B3D5
:105040000846007800F0800048B30846008800F465
:10505000006020B337A0FBF777FA8021274800686B
:1050600009F0BEF82348083801684068374AC2E9A9
:1050700000100AF00DF804460020034622460121E4
:105080000090334800680AF0A7FB1A4908390C68F9
:105090004B682246184903C903F023FA1CE0FFE7D6
:1050A0001748007800F08000B0B91248083803684B
:1050B00042682648D0E900105940504001430BD1C6
:1050C00024A0FBF741FA0B480838046843682246DD
:1050D000094903C903F005FA38BD0000BDD3CAD59C
:1050E000B5BD525453D0CD4D4143D6A1C1CB0D0ACD
:1050F0000000000015030020180000202C000020F4
:1051000030000020BDD3CAD5B5BDC1CBB1F0B5C408
:10511000BDDAB5E3B5C45254530D0A0008010020AE
:10512000BFAAC6F4B6A8CAB10D0A0000B6AAC6FA4C
:105130000D0A0000BDD3CAD5B5BDC1CB525453A38F
:10514000ACB7A2CBCD4354530D0A00002000002081
:105150000C010020D6D8D0C2B7A2CBCD4354530DFA
:105160000A00000030B5054605B930BD6C6905E0A0
:105170002046FFF7F7FF00202072A469002CF7D12A
:1051800000BFF2E710B5044606A0FBF7DDF9802169
:105190000A48006809F06CF80021094A1160516062
:1051A00010BD0000D6D8D6C3BDD3CAD5D7B4CCACB9
:1051B000CAB1BCE4B5BD0D0A000000002C000020FF
:1051C0002000002010B5044604B910BD0020606125
:1051D00006F05AFFC4E900010021A160E160FF2050
:1051E00020740020207684F8E0000120A074FF20C5
:1051F000607400BFE9E700002DE9F0412DED068B5A
:1052000082B007460D461646002000900190FF240C
:10521000A046FEF7CDFD8820FEF796FD022003F0A4
:1052200025FEFEF711FE38B1FEF7E8FD012002B0C1
:10523000BDEC068BBDE8F081FD20FEF785FD022068
:1052400003F014FEFEF700FE18B1FEF7D7FD0120B3
:10525000EDE7FEF7D3FD142003F0E8FDFEF7A8FD0F
:105260008920FEF771FD022003F000FEFEF7ECFD41
:1052700018B1FEF7C3FD0120D9E70622694638467A
:10528000FEF718FDFEF7BAFD9DF801009DF800102D
:1052900040EA0120264908600968AF2201FB02F0BC
:1052A0000AF0CAFD9FED230B53EC102B0AF026FCED
:1052B0009FED220B53EC102B0AF064FB0AF030FB3D
:1052C00028609DF804009DF8031040EA0120184969
:1052D0004860496801EB4102C2EBC1100AF0ACFD25
:1052E0009FED140B53EC102B0AF008FC9FED150BEF
:1052F00053EC102B0AF046FB0AF012FB306002213F
:10530000684603F0B3F804469DF80200A04201D0BD
:1053100001208CE702210DF1030003F0A7F880467D
:105320009DF80500404501D0012080E700207EE780
:105330008C00002000000000E0FFEF4000000000B3
:10534000008046C000000000000018C070B5044690
:105350000D46002609F08CFE012802D009F098FEC7
:10536000064632462946204600F002F870BD00008D
:105370002DE9F0470546894616460DB9BDE8F08788
:105380006C6920E0324649462046FFF7F1FF31467E
:10539000204607F051FBA8B1D4E900733A460CA0AF
:1053A000FBF7D2F80F480078402809DA0E480D497B
:1053B000097840F821400B480078401C09490870E2
:1053C000A46900E0A469002CDCD100BFD6E700008E
:1053D0006E6F646520256C6C78206973206465614C
:1053E000640D0A005F0000208806002010B5044606
:1053F00004A0FBF7A9F810210648006808F038FF60
:1054000010BD0000B6A8CAB1C6F7CAB1BCE4B5BDAC
:105410000D0A00004400002070B52DED048B82B011
:105420000024FCF721FF07F02BF8322003F0FEFCEC
:105430000820FDF74BF904464D484481210C818139
:10544000808900EE100AB8EE400AF2EE040A80EEFF
:10545000201A11EE105A28460BF034F841EC180BC4
:105460004348408900EE100AB8EE400AF2EE040A02
:1054700080EE201A11EE105A28460BF023F841EC6A
:10548000190B8DED008B53EC192B3AA0FBF75CF850
:10549000C82003F0CBFC0820FDF7C4F804463448CC
:1054A000C0F80E40D0F80E0000EE100AB8EE400A28
:1054B000F2EE040A80EE201A11EE105A28460BF084
:1054C00001F841EC180B53EC182B32A0FBF73CF819
:1054D000642003F0ABFC0520FDF7F4F904462448F2
:1054E000C0F81240642003F0A1FC0620FDF7EAF9A1
:1054F00004461F48C0F81640642003F097FC0720BC
:10550000FDF7E0F904461A48C0F81A40642003F099
:105510008DFCFDF731F904461548C483FDF706F804
:10552000642003F083FCFDF77BF904461048848473
:10553000642003F07BFCFDF76FFA04460C480484FA
:10554000642003F073FCFDF713FA04460848448412
:1055500006F084FFFCF798FE002007F071FC064679
:10556000314610A0FAF7F0FF02B0BDEC048B70BD1D
:10557000C803002054656D70657261747572653A78
:105580002025662C2048756D69646974793A256612
:105590000D0A000070726573737572653A256C6C44
:1055A000660D0A0073656E645F74696D6572C8CEBE
:1055B000CEF1CAB9D3C3C7E9BFF6A3BA256C640D4F
:1055C0000A0000000CB500200190009034480068EB
:1055D00040F480303249086000BF3148006800F470
:1055E000003000900198401C0190009818B9019873
:1055F000B0F5A04FF1D12A48006800F4003010B196
:105600000120009001E0002000900098012846D180
:1056100023484030006840F0805021494031086004
:105620002048006840F440401E4908601C4808308B
:1056300000681B49083108600846006840F40040D3
:1056400008600846006840F4A05008601648091F2A
:105650000860081F006840F08070091F086000BFE4
:105660000F48006800F000700028F9D040F2057083
:105670000E4908600A480830006820F00300084915
:10568000083108600846006840F00200086000BF6A
:1056900003480830006800F00C000828F8D10CBD61
:1056A000003802400070004008544007003C0240AF
:1056B000042808D14FF0E021096941F004014FF0BE
:1056C000E022116107E04FF0E021096921F00401B7
:1056D0004FF0E0221161704710B509F0C9FC0128B4
:1056E00001D008F0D3FF10BD10B51548006840F494
:1056F0007000134908601348006840F00100114928
:10570000086000200F49083108600E4800680E4903
:1057100008400C4908600D48091D0860081F006812
:1057200020F48020091F0860002006490C31086021
:10573000FFF748FF4FF0006001498039086010BD55
:1057400088ED00E000380240FFFFF6FE1030002434
:10575000F0B50C46154600210022068C4FF6FE7768
:105760003E400684018B028C4FF60C7631407E1C45
:1057700006EA03162E4331434FF6F576324044F0E5
:105780000106324301830284F0BDF0B50C46154694
:10579000002100220026078C4FF6EF7C07EA0C0759
:1057A0000784018B028C4FF6FF7707EA041640F658
:1057B000FF4739404FF6FF7707EA033739434FF683
:1057C000FF7707EA052739434FF65F773A4046F0FF
:1057D00010073A4301830284F0BDF0B50C4615462C
:1057E000002100220026078C4FF6FF6C07EA0C0709
:1057F0000784818B028C4FF6FF7707EA04264FF669
:105800000C7739404FF6FF7707EA03172F433943E8
:105810004FF2FF573A4046F480773A43818302843F
:10582000F0BDF0B50C461546002100220026078C7D
:105830004EF6FF7C07EA0C070784818B028C4FF63B
:10584000FF7707EA043640F6FF4739404FF6FF7707
:1058500007EA052739434FF6FF7707EA033739434D
:1058600045F6FF773A4046F480573A4381830284F5
:10587000F0BD10B50121880700F057F9012801D1CA
:10588000FEF748F80121880700F075F810BD7FB5D4
:1058900005460C4601210846FEF752FEADF80450BD
:1058A00002940020ADF80C00ADF80600012211466C
:1058B000900700F083F901A94FF0804000F0B6F99D
:1058C0001C208DF8000001208DF8030004208DF8C5
:1058D000010000208DF802006846FEF757FD012107
:1058E000880700F04BF87FBD10B50121074800F094
:1058F0001CF9012804D106480068401C04490860CE
:105900000121024800F037F810BD000000040040FB
:10591000140000207FB505460C4601210220FEF749
:105920000FFEADF8045002940020ADF80C00ADF865
:105930000600012211460D4800F040F901A90B486C
:1059400000F074F91D208DF8000001208DF803008F
:1059500009208DF8010000208DF802006846FEF74E
:1059600015FD0121014800F009F87FBD0004004049
:10597000CA4302827047CA430282704721B102883B
:1059800042F00102028004E002884FF6FE731A40E2
:105990000280704710B504465548844208D1012161
:1059A0000846FEF7FDFD00210120FEF7F9FD9DE010
:1059B000B4F1804F08D101210846FEF7D1FD002146
:1059C0000120FEF7CDFD91E04A48844208D1012133
:1059D0000220FEF7C5FD00210220FEF7C1FD85E093
:1059E0004548844208D101210420FEF7B9FD002179
:1059F0000420FEF7B5FD79E04048844208D101213A
:105A00000820FEF7ADFD00210820FEF7A9FD6DE09E
:105A10003B48844208D101211020FEF7A1FD00215E
:105A20001020FEF79DFD61E03648844208D1012137
:105A30002020FEF795FD00212020FEF791FD55E086
:105A40003148844208D101210220FEF7A9FD00213E
:105A50000220FEF7A5FD49E02C48844209D101212E
:105A60000804FEF79DFD00214FF48030FEF798FDFD
:105A70003CE02748844209D101214804FEF790FD0B
:105A800000214FF40030FEF78BFD2FE021488442C7
:105A900009D101218804FEF783FD00214FF4802005
:105AA000FEF77EFD22E01C48844208D101214020FF
:105AB000FEF756FD00214020FEF752FD16E0174884
:105AC000844208D101218020FEF74AFD0021802078
:105AD000FEF746FD0AE01248844207D101218015F5
